{"contracts/DappBnbX.sol":{"DappBnbX":{"abi":[{"inputs":[{"internalType":"uint256","name":"_taxPercent","type":"uint256"},{"internalType":"uint256","name":"_securityFee","type":"uint256"}],"stateMutability":"nonpayable","type":"constructor"},{"anonymous":false,"inputs":[{"indexed":true,"internalType":"address","name":"previousOwner","type":"address"},{"indexed":true,"internalType":"address","name":"newOwner","type":"address"}],"name":"OwnershipTransferred","type":"event"},{"inputs":[{"internalType":"uint256","name":"aid","type":"uint256"},{"internalType":"string","name":"comment","type":"string"}],"name":"addReview","outputs":[],"stateMutability":"nonpayable","type":"function"},{"inputs":[{"internalType":"uint256","name":"aid","type":"uint256"},{"internalType":"uint256[]","name":"dates","type":"uint256[]"}],"name":"bookApartment","outputs":[],"stateMutability":"payable","type":"function"},{"inputs":[{"internalType":"uint256","name":"aid","type":"uint256"},{"internalType":"uint256","name":"bookingId","type":"uint256"}],"name":"checkInApartment","outputs":[],"stateMutability":"nonpayable","type":"function"},{"inputs":[{"internalType":"uint256","name":"aid","type":"uint256"},{"internalType":"uint256","name":"bookingId","type":"uint256"}],"name":"claimFunds","outputs":[],"stateMutability":"nonpayable","type":"function"},{"inputs":[{"internalType":"string","name":"name","type":"string"},{"internalType":"string","name":"description","type":"string"},{"internalType":"string","name":"location","type":"string"},{"internalType":"string","name":"images","type":"string"},{"internalType":"uint256","name":"rooms","type":"uint256"},{"internalType":"uint256","name":"price","type":"uint256"}],"name":"createApartment","outputs":[],"stateMutability":"nonpayable","type":"function"},{"inputs":[{"internalType":"uint256","name":"id","type":"uint256"}],"name":"deleteApartment","outputs":[],"stateMutability":"nonpayable","type":"function"},{"inputs":[{"internalType":"uint256","name":"id","type":"uint256"}],"name":"getApartment","outputs":[{"components":[{"internalType":"uint256","name":"id","type":"uint256"},{"internalType":"string","name":"name","type":"string"},{"internalType":"string","name":"description","type":"string"},{"internalType":"string","name":"location","type":"string"},{"internalType":"string","name":"images","type":"string"},{"internalType":"uint256","name":"rooms","type":"uint256"},{"internalType":"uint256","name":"price","type":"uint256"},{"internalType":"address","name":"owner","type":"address"},{"internalType":"bool","name":"booked","type":"bool"},{"internalType":"bool","name":"deleted","type":"bool"},{"internalType":"uint256","name":"timestamp","type":"uint256"}],"internalType":"struct DappBnbX.ApartmentStruct","name":"","type":"tuple"}],"stateMutability":"view","type":"function"},{"inputs":[],"name":"getApartments","outputs":[{"components":[{"internalType":"uint256","name":"id","type":"uint256"},{"internalType":"string","name":"name","type":"string"},{"internalType":"string","name":"description","type":"string"},{"internalType":"string","name":"location","type":"string"},{"internalType":"string","name":"images","type":"string"},{"internalType":"uint256","name":"rooms","type":"uint256"},{"internalType":"uint256","name":"price","type":"uint256"},{"internalType":"address","name":"owner","type":"address"},{"internalType":"bool","name":"booked","type":"bool"},{"internalType":"bool","name":"deleted","type":"bool"},{"internalType":"uint256","name":"timestamp","type":"uint256"}],"internalType":"struct DappBnbX.ApartmentStruct[]","name":"Apartments","type":"tuple[]"}],"stateMutability":"view","type":"function"},{"inputs":[{"internalType":"uint256","name":"aid","type":"uint256"},{"internalType":"uint256","name":"bookingId","type":"uint256"}],"name":"getBooking","outputs":[{"components":[{"internalType":"uint256","name":"id","type":"uint256"},{"internalType":"uint256","name":"aid","type":"uint256"},{"internalType":"address","name":"tenant","type":"address"},{"internalType":"uint256","name":"date","type":"uint256"},{"internalType":"uint256","name":"price","type":"uint256"},{"internalType":"bool","name":"checked","type":"bool"},{"internalType":"bool","name":"cancelled","type":"bool"},{"internalType":"bool","name":"abandoned","type":"bool"}],"internalType":"struct DappBnbX.BookingStruct","name":"","type":"tuple"}],"stateMutability":"view","type":"function"},{"inputs":[{"internalType":"uint256","name":"aid","type":"uint256"}],"name":"getBookings","outputs":[{"components":[{"internalType":"uint256","name":"id","type":"uint256"},{"internalType":"uint256","name":"aid","type":"uint256"},{"internalType":"address","name":"tenant","type":"address"},{"internalType":"uint256","name":"date","type":"uint256"},{"internalType":"uint256","name":"price","type":"uint256"},{"internalType":"bool","name":"checked","type":"bool"},{"internalType":"bool","name":"cancelled","type":"bool"},{"internalType":"bool","name":"abandoned","type":"bool"}],"internalType":"struct DappBnbX.BookingStruct[]","name":"","type":"tuple[]"}],"stateMutability":"view","type":"function"},{"inputs":[{"internalType":"uint256","name":"aid","type":"uint256"}],"name":"getQualifiedReviewers","outputs":[{"internalType":"address[]","name":"Tenants","type":"address[]"}],"stateMutability":"view","type":"function"},{"inputs":[{"internalType":"uint256","name":"aid","type":"uint256"}],"name":"getReviews","outputs":[{"components":[{"internalType":"uint256","name":"id","type":"uint256"},{"internalType":"uint256","name":"aid","type":"uint256"},{"internalType":"string","name":"reviewText","type":"string"},{"internalType":"uint256","name":"timestamp","type":"uint256"},{"internalType":"address","name":"owner","type":"address"}],"internalType":"struct DappBnbX.ReviewStruct[]","name":"","type":"tuple[]"}],"stateMutability":"view","type":"function"},{"inputs":[{"internalType":"uint256","name":"aid","type":"uint256"}],"name":"getUnavailableDates","outputs":[{"internalType":"uint256[]","name":"","type":"uint256[]"}],"stateMutability":"view","type":"function"},{"inputs":[],"name":"owner","outputs":[{"internalType":"address","name":"","type":"address"}],"stateMutability":"view","type":"function"},{"inputs":[{"internalType":"uint256","name":"aid","type":"uint256"},{"internalType":"uint256","name":"bookingId","type":"uint256"}],"name":"refundBooking","outputs":[],"stateMutability":"nonpayable","type":"function"},{"inputs":[],"name":"renounceOwnership","outputs":[],"stateMutability":"nonpayable","type":"function"},{"inputs":[],"name":"securityFee","outputs":[{"internalType":"uint256","name":"","type":"uint256"}],"stateMutability":"view","type":"function"},{"inputs":[],"name":"taxPercent","outputs":[{"internalType":"uint256","name":"","type":"uint256"}],"stateMutability":"view","type":"function"},{"inputs":[{"internalType":"uint256","name":"aid","type":"uint256"}],"name":"tenantBooked","outputs":[{"internalType":"bool","name":"","type":"bool"}],"stateMutability":"view","type":"function"},{"inputs":[{"internalType":"address","name":"newOwner","type":"address"}],"name":"transferOwnership","outputs":[],"stateMutability":"nonpayable","type":"function"},{"inputs":[{"internalType":"uint256","name":"id","type":"uint256"},{"internalType":"string","name":"name","type":"string"},{"internalType":"string","name":"description","type":"string"},{"internalType":"string","name":"location","type":"string"},{"internalType":"string","name":"images","type":"string"},{"internalType":"uint256","name":"rooms","type":"uint256"},{"internalType":"uint256","name":"price","type":"uint256"}],"name":"updateApartment","outputs":[],"stateMutability":"nonpayable","type":"function"}],"evm":{"bytecode":{"linkReferences":{},"object":"60806040523480156200001157600080fd5b506040516200346a3803806200346a8339810160408190526200003491620000a2565b6200003f3362000052565b60018055600491909155600355620000c7565b600080546001600160a01b038381166001600160a01b0319831681178455604051919092169283917f8be0079c531659141344cd1fd0a4f28419497f9722a3daafe3b4186f6b6457e09190a35050565b60008060408385031215620000b657600080fd5b505080516020909101519092909150565b61339380620000d76000396000f3fe60806040526004361061012a5760003560e01c80638da5cb5b116100ab578063c788d6de1161006f578063c788d6de1461037c578063d68e13021461039c578063db2f80b7146103b2578063df6e0222146103df578063f2fde38b146103f2578063f40109951461041257600080fd5b80638da5cb5b1461028d5780639d4a2255146102b55780639f31a2be146102e2578063b1c980991461032d578063c4452e061461034f57600080fd5b80635bb0c5d6116100f25780635bb0c5d6146101f457806367626e5d14610214578063715018a6146102345780637541f41c1461024957806378419f611461026d57600080fd5b8063010b58ee1461012f5780630bb9ce331461015157806327c71c7314610187578063455b3070146101a757806355c3fbfb146101d4575b600080fd5b34801561013b57600080fd5b5061014f61014a366004612a05565b61043f565b005b34801561015d57600080fd5b5061017161016c366004612a27565b6106c1565b60405161017e9190612a40565b60405180910390f35b34801561019357600080fd5b5061014f6101a2366004612b44565b61086a565b3480156101b357600080fd5b506101c76101c2366004612a05565b610e9a565b60405161017e9190612c6a565b3480156101e057600080fd5b5061014f6101ef366004612a27565b610f4c565b34801561020057600080fd5b5061014f61020f366004612c79565b611010565b34801561022057600080fd5b5061014f61022f366004612a05565b61121a565b34801561024057600080fd5b5061014f6115cc565b34801561025557600080fd5b5061025f60045481565b60405190815260200161017e565b34801561027957600080fd5b5061014f610288366004612a05565b6115e0565b34801561029957600080fd5b506000546040516001600160a01b03909116815260200161017e565b3480156102c157600080fd5b506102d56102d0366004612a27565b611770565b60405161017e9190612d06565b3480156102ee57600080fd5b5061031d6102fd366004612a27565b336000908152600b60209081526040808320938352929052205460ff1690565b604051901515815260200161017e565b34801561033957600080fd5b506103426118ab565b60405161017e9190612e71565b34801561035b57600080fd5b5061036f61036a366004612a27565b611c86565b60405161017e9190612ed3565b34801561038857600080fd5b5061014f610397366004612eed565b611f5a565b3480156103a857600080fd5b5061025f60035481565b3480156103be57600080fd5b506103d26103cd366004612a27565b612270565b60405161017e9190612fac565b61014f6103ed366004612fe4565b6122d2565b3480156103fe57600080fd5b5061014f61040d366004613096565b6125db565b34801561041e57600080fd5b5061043261042d366004612a27565b612654565b60405161017e91906130bf565b61044761271f565b600082815260066020526040812080548390811061046757610467613102565b6000918252602080832060408051610100808201835260069095029092018054835260018101548385015260028101546001600160a01b0390811684840152600382015460608501526004820154608085015260059182015460ff808216151560a08701529681048716151560c0860152620100009004909516151560e0840152888652909252922060070154919250339116148061051057506000546001600160a01b031633145b6105355760405162461bcd60e51b815260040161052c90613118565b60405180910390fd5b8060a00151156105575760405162461bcd60e51b815260040161052c90613145565b61055f612778565b8160600151106105c05760405162461bcd60e51b815260206004820152602660248201527f4e6f7420616c6c6f7765642c20626f6f6b696e672064617465206e6f7420657860448201526518d95959195960d21b606482015260840161052c565b6000838152600660205260409020805460019190849081106105e4576105e4613102565b906000526020600020906006020160050160026101000a81548160ff0219169083151502179055506000606460045483608001516106229190613187565b61062c919061319e565b90506000606460035484608001516106449190613187565b61064e919061319e565b6000868152600560205260409020600701546080850151919250610688916001600160a01b03909116906106839085906131c0565b612797565b6106a361069d6000546001600160a01b031690565b83612797565b6106b1836040015182612797565b5050506106bd60018055565b5050565b60606000805b6000848152600660205260409020548110156107395760008481526006602052604090208054829081106106fd576106fd613102565b600091825260209091206005600690920201015460ff16156107275781610723816131d3565b9250505b80610731816131d3565b9150506106c7565b508067ffffffffffffffff81111561075357610753612a8d565b60405190808252806020026020018201604052801561077c578160200160208202803683370190505b5091506000805b6000858152600660205260409020548110156108625760008581526006602052604090208054829081106107b9576107b9613102565b600091825260209091206005600690920201015460ff16156108505760008581526006602052604090208054829081106107f5576107f5613102565b60009182526020909120600260069092020101546001600160a01b0316848361081d816131d3565b94508151811061082f5761082f613102565b60200260200101906001600160a01b031690816001600160a01b0316815250505b8061085a816131d3565b915050610783565b505050919050565b60008781526008602052604090205460ff166108bf5760405162461bcd60e51b8152602060048201526014602482015273105c1c185c9d1b595b9d081b9bdd08199bdd5b9960621b604482015260640161052c565b6000878152600560205260409020600701546001600160a01b031633146108f85760405162461bcd60e51b815260040161052c90613118565b60008651116109405760405162461bcd60e51b81526020600482015260146024820152734e616d652063616e6e6f7420626520656d70747960601b604482015260640161052c565b60008551116109915760405162461bcd60e51b815260206004820152601b60248201527f4465736372697074696f6e2063616e6e6f7420626520656d7074790000000000604482015260640161052c565b60008451116109dd5760405162461bcd60e51b81526020600482015260186024820152774c6f636174696f6e2063616e6e6f7420626520656d70747960401b604482015260640161052c565b6000835111610a275760405162461bcd60e51b8152602060048201526016602482015275496d616765732063616e6e6f7420626520656d70747960501b604482015260640161052c565b60008211610a6e5760405162461bcd60e51b8152602060048201526014602482015273526f6f6d732063616e6e6f74206265207a65726f60601b604482015260640161052c565b60008111610ab55760405162461bcd60e51b815260206004820152601460248201527350726963652063616e6e6f74206265207a65726f60601b604482015260640161052c565b6000600560008981526020019081526020016000206040518061016001604052908160008201548152602001600182018054610af0906131ec565b80601f0160208091040260200160405190810160405280929190818152602001828054610b1c906131ec565b8015610b695780601f10610b3e57610100808354040283529160200191610b69565b820191906000526020600020905b815481529060010190602001808311610b4c57829003601f168201915b50505050508152602001600282018054610b82906131ec565b80601f0160208091040260200160405190810160405280929190818152602001828054610bae906131ec565b8015610bfb5780601f10610bd057610100808354040283529160200191610bfb565b820191906000526020600020905b815481529060010190602001808311610bde57829003601f168201915b50505050508152602001600382018054610c14906131ec565b80601f0160208091040260200160405190810160405280929190818152602001828054610c40906131ec565b8015610c8d5780601f10610c6257610100808354040283529160200191610c8d565b820191906000526020600020905b815481529060010190602001808311610c7057829003601f168201915b50505050508152602001600482018054610ca6906131ec565b80601f0160208091040260200160405190810160405280929190818152602001828054610cd2906131ec565b8015610d1f5780601f10610cf457610100808354040283529160200191610d1f565b820191906000526020600020905b815481529060010190602001808311610d0257829003601f168201915b5050509183525050600582810154602080840191909152600684015460408085019190915260078501546001600160a01b03811660608087019190915260ff600160a01b830481161515608080890191909152600160a81b90930416151560a08088019190915260089097015460c0968701528784018f81528884018f90529088018d90529087018b9052948601899052928501879052845160009081529190522082518155905191925082916001820190610ddb9082613274565b5060408201516002820190610df09082613274565b5060608201516003820190610e059082613274565b5060808201516004820190610e1a9082613274565b5060a0820151600582015560c0820151600682015560e08201516007820180546101008501516101208601511515600160a81b0260ff60a81b19911515600160a01b026001600160a81b03199093166001600160a01b03909516949094179190911716919091179055610140909101516008909101555050505050505050565b610ea261294a565b6000838152600660205260409020805483908110610ec257610ec2613102565b600091825260209182902060408051610100808201835260069094029092018054835260018101549483019490945260028401546001600160a01b031690820152600383015460608201526004830154608082015260059092015460ff808216151560a08501529181048216151560c084015262010000900416151560e082015290505b92915050565b60008181526008602052604090205460ff16610fa15760405162461bcd60e51b8152602060048201526014602482015273105c1c185c9d1b595b9d081b9bdd08199bdd5b9960621b604482015260640161052c565b6000818152600560205260409020600701546001600160a01b03163314610fda5760405162461bcd60e51b815260040161052c90613118565b6000908152600860209081526040808320805460ff1916905560059091529020600701805460ff60a81b1916600160a81b179055565b60008281526008602052604090205460ff1661106e5760405162461bcd60e51b815260206004820152601860248201527f4170706172746d656e74206e6f7420617661696c61626c650000000000000000604482015260640161052c565b336000908152600b6020908152604080832085845290915290205460ff166110d85760405162461bcd60e51b815260206004820152601860248201527f426f6f6b206669727374206265666f7265207265766965770000000000000000604482015260640161052c565b60008151116111295760405162461bcd60e51b815260206004820152601760248201527f436f6d6d656e742063616e6e6f7420626520656d707479000000000000000000604482015260640161052c565b6111646040518060a001604052806000815260200160008152602001606081526020016000815260200160006001600160a01b031681525090565b60008381526007602090815260409182902054835282018490528101829052336080820152611191612778565b60608201526000838152600760209081526040808320805460018181018355918552938390208551600590950201938455918401519183019190915582015182919060028201906111e29082613274565b5060608201516003820155608090910151600490910180546001600160a01b0319166001600160a01b03909216919091179055505050565b61122261271f565b600082815260066020526040812080548390811061124257611242613102565b600091825260209182902060408051610100808201835260069094029092018054835260018101549483019490945260028401546001600160a01b031690820152600383015460608201526004830154608082015260059092015460ff80821615801560a08601529282048116151560c08501526201000090910416151560e08301529091506112e45760405162461bcd60e51b815260040161052c90613145565b6000838152600a602090815260408083206060850151845290915290205460ff166113435760405162461bcd60e51b815260206004820152600f60248201526e11185d19481b9bdd08189bdbdad959608a1b604482015260640161052c565b6000546001600160a01b031633146114145780604001516001600160a01b0316336001600160a01b0316146113af5760405162461bcd60e51b8152602060048201526012602482015271556e6174686f72697a656420456e7469747960701b604482015260640161052c565b6113b7612778565b8160600151116114145760405162461bcd60e51b815260206004820152602260248201527f4e6f7420616c6c6f7765642c20657863656564656420626f6f6b696e67206461604482015261746560f01b606482015260840161052c565b60008381526006602052604090208054600191908490811061143857611438613102565b6000918252602080832060056006909302019190910180549315156101000261ff001990941693909317909255848152600a82526040808220606085015183528352808220805460ff1916905585825260099092529081205461149d906001906131c0565b600085815260096020526040812080549293509091839081106114c2576114c2613102565b90600052602060002001549050806009600087815260200190815260200160002085815481106114f4576114f4613102565b90600052602060002001819055506009600086815260200190815260200160002080548061152457611524613334565b600190038181906000526020600020016000905590556000606460035485608001516115509190613187565b61155a919061319e565b9050600061156960028361319e565b600088815260056020526040902060070154909150611591906001600160a01b031682612797565b6115ac6115a66000546001600160a01b031690565b82612797565b6115be85604001518660800151612797565b50505050506106bd60018055565b6115d46127fc565b6115de6000612856565b565b6115e861271f565b600082815260066020526040812080548390811061160857611608613102565b600091825260209182902060408051610100808201835260069094029092018054835260018101549483019490945260028401546001600160a01b0316908201819052600384015460608301526004840154608083015260059093015460ff808216151560a08401529281048316151560c0830152620100009004909116151560e0820152915033146116d35760405162461bcd60e51b8152602060048201526013602482015272556e617574686f72697a656420456e7469747960681b604482015260640161052c565b8060a00151156116f55760405162461bcd60e51b815260040161052c90613145565b60008381526006602052604090208054600191908490811061171957611719613102565b60009182526020808320600560069093020191909101805493151560ff19948516179055338252600b8152604080832087845290915281208054909216600117909155600454608083015160649161062291613187565b606060076000838152602001908152602001600020805480602002602001604051908101604052809291908181526020016000905b828210156118a057838290600052602060002090600502016040518060a001604052908160008201548152602001600182015481526020016002820180546117ec906131ec565b80601f0160208091040260200160405190810160405280929190818152602001828054611818906131ec565b80156118655780601f1061183a57610100808354040283529160200191611865565b820191906000526020600020905b81548152906001019060200180831161184857829003601f168201915b505050918352505060038201546020808301919091526004909201546001600160a01b031660409091015290825260019290920191016117a5565b505050509050919050565b6060600060015b60025481116118fb57600081815260056020526040902060070154600160a81b900460ff166118e957816118e5816131d3565b9250505b806118f3816131d3565b9150506118b2565b508067ffffffffffffffff81111561191557611915612a8d565b60405190808252806020026020018201604052801561194e57816020015b61193b61299e565b8152602001906001900390816119335790505b509150600060015b6002548111611c8057600081815260056020526040902060070154600160a81b900460ff16611c6e576005600082815260200190815260200160002060405180610160016040529081600082015481526020016001820180546119b8906131ec565b80601f01602080910402602001604051908101604052809291908181526020018280546119e4906131ec565b8015611a315780601f10611a0657610100808354040283529160200191611a31565b820191906000526020600020905b815481529060010190602001808311611a1457829003601f168201915b50505050508152602001600282018054611a4a906131ec565b80601f0160208091040260200160405190810160405280929190818152602001828054611a76906131ec565b8015611ac35780601f10611a9857610100808354040283529160200191611ac3565b820191906000526020600020905b815481529060010190602001808311611aa657829003601f168201915b50505050508152602001600382018054611adc906131ec565b80601f0160208091040260200160405190810160405280929190818152602001828054611b08906131ec565b8015611b555780601f10611b2a57610100808354040283529160200191611b55565b820191906000526020600020905b815481529060010190602001808311611b3857829003601f168201915b50505050508152602001600482018054611b6e906131ec565b80601f0160208091040260200160405190810160405280929190818152602001828054611b9a906131ec565b8015611be75780601f10611bbc57610100808354040283529160200191611be7565b820191906000526020600020905b815481529060010190602001808311611bca57829003601f168201915b5050509183525050600582015460208201526006820154604082015260078201546001600160a01b038116606083015260ff600160a01b8204811615156080840152600160a81b90910416151560a082015260089091015460c0909101528483611c50816131d3565b945081518110611c6257611c62613102565b60200260200101819052505b80611c78816131d3565b915050611956565b50505090565b611c8e61299e565b600560008381526020019081526020016000206040518061016001604052908160008201548152602001600182018054611cc7906131ec565b80601f0160208091040260200160405190810160405280929190818152602001828054611cf3906131ec565b8015611d405780601f10611d1557610100808354040283529160200191611d40565b820191906000526020600020905b815481529060010190602001808311611d2357829003601f168201915b50505050508152602001600282018054611d59906131ec565b80601f0160208091040260200160405190810160405280929190818152602001828054611d85906131ec565b8015611dd25780601f10611da757610100808354040283529160200191611dd2565b820191906000526020600020905b815481529060010190602001808311611db557829003601f168201915b50505050508152602001600382018054611deb906131ec565b80601f0160208091040260200160405190810160405280929190818152602001828054611e17906131ec565b8015611e645780601f10611e3957610100808354040283529160200191611e64565b820191906000526020600020905b815481529060010190602001808311611e4757829003601f168201915b50505050508152602001600482018054611e7d906131ec565b80601f0160208091040260200160405190810160405280929190818152602001828054611ea9906131ec565b8015611ef65780601f10611ecb57610100808354040283529160200191611ef6565b820191906000526020600020905b815481529060010190602001808311611ed957829003601f168201915b5050509183525050600582015460208201526006820154604082015260078201546001600160a01b038116606083015260ff600160a01b8204811615156080840152600160a81b90910416151560a082015260089091015460c09091015292915050565b6000865111611fa25760405162461bcd60e51b81526020600482015260146024820152734e616d652063616e6e6f7420626520656d70747960601b604482015260640161052c565b6000855111611ff35760405162461bcd60e51b815260206004820152601b60248201527f4465736372697074696f6e2063616e6e6f7420626520656d7074790000000000604482015260640161052c565b600084511161203f5760405162461bcd60e51b81526020600482015260186024820152774c6f636174696f6e2063616e6e6f7420626520656d70747960401b604482015260640161052c565b60008351116120895760405162461bcd60e51b8152602060048201526016602482015275496d616765732063616e6e6f7420626520656d70747960501b604482015260640161052c565b600082116120d05760405162461bcd60e51b8152602060048201526014602482015273526f6f6d732063616e6e6f74206265207a65726f60601b604482015260640161052c565b600081116121175760405162461bcd60e51b815260206004820152601460248201527350726963652063616e6e6f74206265207a65726f60601b604482015260640161052c565b612125600280546001019055565b61212d61299e565b60025481526020810187905260408101869052606081018590526080810184905260a0810183905260c081018290523360e082015261216a612778565b61014082015280516000908152600860209081526040808320805460ff1916600190811790915584518452600583529220835181559083015183928201906121b29082613274565b50604082015160028201906121c79082613274565b50606082015160038201906121dc9082613274565b50608082015160048201906121f19082613274565b5060a0820151600582015560c0820151600682015560e08201516007820180546101008501516101208601511515600160a81b0260ff60a81b19911515600160a01b026001600160a81b03199093166001600160a01b039095169490941791909117169190911790556101409091015160089091015550505050505050565b6000818152600960209081526040918290208054835181840281018401909452808452606093928301828280156122c657602002820191906000526020600020905b8154815260200190600101908083116122b2575b50505050509050919050565b805160008381526005602052604081206006015490916122f191613187565b905060006064600354836123059190613187565b61230f919061319e565b60008581526008602052604090205490915060ff166123675760405162461bcd60e51b815260206004820152601460248201527341706172746d656e74206e6f7420666f756e642160601b604482015260640161052c565b612371818361334a565b3410156123b45760405162461bcd60e51b8152602060048201526011602482015270125b9cdd59999a58da595b9d08199d5b99607a1b604482015260640161052c565b6123be84846128a6565b61240a5760405162461bcd60e51b815260206004820152601f60248201527f4f6e65206f72206d6f7265206461746573206e6f7420617661696c61626c6500604482015260640161052c565b60005b83518110156125d45761241e61294a565b60008681526006602090815260409182902054835282018790523390820152845185908390811061245157612451613102565b60209081029190910181015160608301908152600088815260058084526040808320600690810154608088019081528c85528187528285208054600180820183559187528887208a51919094029093019283558888015190830155828801516002830180546001600160a01b0319166001600160a01b03909216919091179055945160038201559351600485015560a086015193909101805460c087015160e088015161ffff1990921695151561ff00191695909517610100951515959095029490941762ff0000191662010000941515949094029390931790925588815260099092529020855186908490811061254b5761254b613102565b602090810291909101810151825460018181018555600094855283852090910191909155888352600a9091526040822087519192909188908690811061259357612593613102565b6020026020010151815260200190815260200160002060006101000a81548160ff0219169083151502179055505080806125cc906131d3565b91505061240d565b5050505050565b6125e36127fc565b6001600160a01b0381166126485760405162461bcd60e51b815260206004820152602660248201527f4f776e61626c653a206e6577206f776e657220697320746865207a65726f206160448201526564647265737360d01b606482015260840161052c565b61265181612856565b50565b606060066000838152602001908152602001600020805480602002602001604051908101604052809291908181526020016000905b828210156118a057600084815260209081902060408051610100808201835260068702909301805482526001808201548387015260028201546001600160a01b03169383019390935260038101546060830152600481015460808301526005015460ff808216151560a08401529381048416151560c0830152620100009004909216151560e08301529083529092019101612689565b6002600154036127715760405162461bcd60e51b815260206004820152601f60248201527f5265656e7472616e637947756172643a207265656e7472616e742063616c6c00604482015260640161052c565b6002600155565b6000612786426103e8613187565b612792906103e861334a565b905090565b6000826001600160a01b03168260405160006040518083038185875af1925050503d80600081146127e4576040519150601f19603f3d011682016040523d82523d6000602084013e6127e9565b606091505b50509050806127f757600080fd5b505050565b6000546001600160a01b031633146115de5760405162461bcd60e51b815260206004820181905260248201527f4f776e61626c653a2063616c6c6572206973206e6f7420746865206f776e6572604482015260640161052c565b600080546001600160a01b038381166001600160a01b0319831681178455604051919092169283917f8be0079c531659141344cd1fd0a4f28419497f9722a3daafe3b4186f6b6457e09190a35050565b60006001815b83518110156129425760005b60008681526009602052604090205481101561292f5760008681526009602052604090208054829081106128ee576128ee613102565b906000526020600020015485838151811061290b5761290b613102565b60200260200101510361291d57600092505b80612927816131d3565b9150506128b8565b508061293a816131d3565b9150506128ac565b509392505050565b604051806101000160405280600081526020016000815260200160006001600160a01b0316815260200160008152602001600081526020016000151581526020016000151581526020016000151581525090565b6040518061016001604052806000815260200160608152602001606081526020016060815260200160608152602001600081526020016000815260200160006001600160a01b03168152602001600015158152602001600015158152602001600081525090565b60008060408385031215612a1857600080fd5b50508035926020909101359150565b600060208284031215612a3957600080fd5b5035919050565b6020808252825182820181905260009190848201906040850190845b81811015612a815783516001600160a01b031683529284019291840191600101612a5c565b50909695505050505050565b634e487b7160e01b600052604160045260246000fd5b604051601f8201601f1916810167ffffffffffffffff81118282101715612acc57612acc612a8d565b604052919050565b600082601f830112612ae557600080fd5b813567ffffffffffffffff811115612aff57612aff612a8d565b612b12601f8201601f1916602001612aa3565b818152846020838601011115612b2757600080fd5b816020850160208301376000918101602001919091529392505050565b600080600080600080600060e0888a031215612b5f57600080fd5b87359650602088013567ffffffffffffffff80821115612b7e57600080fd5b612b8a8b838c01612ad4565b975060408a0135915080821115612ba057600080fd5b612bac8b838c01612ad4565b965060608a0135915080821115612bc257600080fd5b612bce8b838c01612ad4565b955060808a0135915080821115612be457600080fd5b50612bf18a828b01612ad4565b93505060a0880135915060c0880135905092959891949750929550565b805182526020810151602083015260018060a01b036040820151166040830152606081015160608301526080810151608083015260a0810151151560a083015260c0810151151560c083015260e0810151151560e08301525050565b6101008101610f468284612c0e565b60008060408385031215612c8c57600080fd5b82359150602083013567ffffffffffffffff811115612caa57600080fd5b612cb685828601612ad4565b9150509250929050565b6000815180845260005b81811015612ce657602081850181015186830182015201612cca565b506000602082860101526020601f19601f83011685010191505092915050565b60006020808301818452808551808352604092508286019150828160051b87010184880160005b83811015612d9657603f19898403018552815160a0815185528882015189860152878201518189870152612d6382870182612cc0565b606084810151908801526080938401516001600160a01b0316939096019290925250509386019390860190600101612d2d565b509098975050505050505050565b6000610160825184526020830151816020860152612dc482860182612cc0565b91505060408301518482036040860152612dde8282612cc0565b91505060608301518482036060860152612df88282612cc0565b91505060808301518482036080860152612e128282612cc0565b91505060a083015160a085015260c083015160c085015260e0830151612e4360e08601826001600160a01b03169052565b5061010083810151151590850152610120808401511515908501526101409283015192909301919091525090565b6000602080830181845280855180835260408601915060408160051b870101925083870160005b82811015612ec657603f19888603018452612eb4858351612da4565b94509285019290850190600101612e98565b5092979650505050505050565b602081526000612ee66020830184612da4565b9392505050565b60008060008060008060c08789031215612f0657600080fd5b863567ffffffffffffffff80821115612f1e57600080fd5b612f2a8a838b01612ad4565b97506020890135915080821115612f4057600080fd5b612f4c8a838b01612ad4565b96506040890135915080821115612f6257600080fd5b612f6e8a838b01612ad4565b95506060890135915080821115612f8457600080fd5b50612f9189828a01612ad4565b9350506080870135915060a087013590509295509295509295565b6020808252825182820181905260009190848201906040850190845b81811015612a8157835183529284019291840191600101612fc8565b60008060408385031215612ff757600080fd5b8235915060208084013567ffffffffffffffff8082111561301757600080fd5b818601915086601f83011261302b57600080fd5b81358181111561303d5761303d612a8d565b8060051b915061304e848301612aa3565b818152918301840191848101908984111561306857600080fd5b938501935b838510156130865784358252938501939085019061306d565b8096505050505050509250929050565b6000602082840312156130a857600080fd5b81356001600160a01b0381168114612ee657600080fd5b6020808252825182820181905260009190848201906040850190845b81811015612a81576130ee838551612c0e565b9284019261010092909201916001016130db565b634e487b7160e01b600052603260045260246000fd5b602080825260139082015272556e617574686f72697a656420656e7469747960681b604082015260600190565b60208082526012908201527120b63932b0b23c9031b432b1b5b2b21034b760711b604082015260600190565b634e487b7160e01b600052601160045260246000fd5b8082028115828204841417610f4657610f46613171565b6000826131bb57634e487b7160e01b600052601260045260246000fd5b500490565b81810381811115610f4657610f46613171565b6000600182016131e5576131e5613171565b5060010190565b600181811c9082168061320057607f821691505b60208210810361322057634e487b7160e01b600052602260045260246000fd5b50919050565b601f8211156127f757600081815260208120601f850160051c8101602086101561324d5750805b601f850160051c820191505b8181101561326c57828155600101613259565b505050505050565b815167ffffffffffffffff81111561328e5761328e612a8d565b6132a28161329c84546131ec565b84613226565b602080601f8311600181146132d757600084156132bf5750858301515b600019600386901b1c1916600185901b17855561326c565b600085815260208120601f198616915b82811015613306578886015182559484019460019091019084016132e7565b50858210156133245787850151600019600388901b60f8161c191681555b5050505050600190811b01905550565b634e487b7160e01b600052603160045260246000fd5b80820180821115610f4657610f4661317156fea26469706673582212201a24e476992f9b2207ff9bf7acd32844b46485a5dfb4a0134de26c66c930368064736f6c63430008130033","opcodes":"PUSH1 0x80 PUSH1 0x40 MSTORE CALLVALUE DUP1 ISZERO PUSH3 0x11 JUMPI PUSH1 0x0 DUP1 REVERT JUMPDEST POP PUSH1 0x40 MLOAD PUSH3 0x346A CODESIZE SUB DUP1 PUSH3 0x346A DUP4 CODECOPY DUP2 ADD PUSH1 0x40 DUP2 SWAP1 MSTORE PUSH3 0x34 SWAP2 PUSH3 0xA2 JUMP JUMPDEST PUSH3 0x3F CALLER PUSH3 0x52 JUMP JUMPDEST PUSH1 0x1 DUP1 SSTORE PUSH1 0x4 SWAP2 SWAP1 SWAP2 SSTORE PUSH1 0x3 SSTORE PUSH3 0xC7 JUMP JUMPDEST PUSH1 0x0 DUP1 SLOAD PUSH1 0x1 PUSH1 0x1 PUSH1 0xA0 SHL SUB DUP4 DUP2 AND PUSH1 0x1 PUSH1 0x1 PUSH1 0xA0 SHL SUB NOT DUP4 AND DUP2 OR DUP5 SSTORE PUSH1 0x40 MLOAD SWAP2 SWAP1 SWAP3 AND SWAP3 DUP4 SWAP2 PUSH32 0x8BE0079C531659141344CD1FD0A4F28419497F9722A3DAAFE3B4186F6B6457E0 SWAP2 SWAP1 LOG3 POP POP JUMP JUMPDEST PUSH1 0x0 DUP1 PUSH1 0x40 DUP4 DUP6 SUB SLT ISZERO PUSH3 0xB6 JUMPI PUSH1 0x0 DUP1 REVERT JUMPDEST POP POP DUP1 MLOAD PUSH1 0x20 SWAP1 SWAP2 ADD MLOAD SWAP1 SWAP3 SWAP1 SWAP2 POP JUMP JUMPDEST PUSH2 0x3393 DUP1 PUSH3 0xD7 PUSH1 0x0 CODECOPY PUSH1 0x0 RETURN INVALID PUSH1 0x80 PUSH1 0x40 MSTORE PUSH1 0x4 CALLDATASIZE LT PUSH2 0x12A JUMPI PUSH1 0x0 CALLDATALOAD PUSH1 0xE0 SHR DUP1 PUSH4 0x8DA5CB5B GT PUSH2 0xAB JUMPI DUP1 PUSH4 0xC788D6DE GT PUSH2 0x6F JUMPI DUP1 PUSH4 0xC788D6DE EQ PUSH2 0x37C JUMPI DUP1 PUSH4 0xD68E1302 EQ PUSH2 0x39C JUMPI DUP1 PUSH4 0xDB2F80B7 EQ PUSH2 0x3B2 JUMPI DUP1 PUSH4 0xDF6E0222 EQ PUSH2 0x3DF JUMPI DUP1 PUSH4 0xF2FDE38B EQ PUSH2 0x3F2 JUMPI DUP1 PUSH4 0xF4010995 EQ PUSH2 0x412 JUMPI PUSH1 0x0 DUP1 REVERT JUMPDEST DUP1 PUSH4 0x8DA5CB5B EQ PUSH2 0x28D JUMPI DUP1 PUSH4 0x9D4A2255 EQ PUSH2 0x2B5 JUMPI DUP1 PUSH4 0x9F31A2BE EQ PUSH2 0x2E2 JUMPI DUP1 PUSH4 0xB1C98099 EQ PUSH2 0x32D JUMPI DUP1 PUSH4 0xC4452E06 EQ PUSH2 0x34F JUMPI PUSH1 0x0 DUP1 REVERT JUMPDEST DUP1 PUSH4 0x5BB0C5D6 GT PUSH2 0xF2 JUMPI DUP1 PUSH4 0x5BB0C5D6 EQ PUSH2 0x1F4 JUMPI DUP1 PUSH4 0x67626E5D EQ PUSH2 0x214 JUMPI DUP1 PUSH4 0x715018A6 EQ PUSH2 0x234 JUMPI DUP1 PUSH4 0x7541F41C EQ PUSH2 0x249 JUMPI DUP1 PUSH4 0x78419F61 EQ PUSH2 0x26D JUMPI PUSH1 0x0 DUP1 REVERT JUMPDEST DUP1 PUSH4 0x10B58EE EQ PUSH2 0x12F JUMPI DUP1 PUSH4 0xBB9CE33 EQ PUSH2 0x151 JUMPI DUP1 PUSH4 0x27C71C73 EQ PUSH2 0x187 JUMPI DUP1 PUSH4 0x455B3070 EQ PUSH2 0x1A7 JUMPI DUP1 PUSH4 0x55C3FBFB EQ PUSH2 0x1D4 JUMPI JUMPDEST PUSH1 0x0 DUP1 REVERT JUMPDEST CALLVALUE DUP1 ISZERO PUSH2 0x13B JUMPI PUSH1 0x0 DUP1 REVERT JUMPDEST POP PUSH2 0x14F PUSH2 0x14A CALLDATASIZE PUSH1 0x4 PUSH2 0x2A05 JUMP JUMPDEST PUSH2 0x43F JUMP JUMPDEST STOP JUMPDEST CALLVALUE DUP1 ISZERO PUSH2 0x15D JUMPI PUSH1 0x0 DUP1 REVERT JUMPDEST POP PUSH2 0x171 PUSH2 0x16C CALLDATASIZE PUSH1 0x4 PUSH2 0x2A27 JUMP JUMPDEST PUSH2 0x6C1 JUMP JUMPDEST PUSH1 0x40 MLOAD PUSH2 0x17E SWAP2 SWAP1 PUSH2 0x2A40 JUMP JUMPDEST PUSH1 0x40 MLOAD DUP1 SWAP2 SUB SWAP1 RETURN JUMPDEST CALLVALUE DUP1 ISZERO PUSH2 0x193 JUMPI PUSH1 0x0 DUP1 REVERT JUMPDEST POP PUSH2 0x14F PUSH2 0x1A2 CALLDATASIZE PUSH1 0x4 PUSH2 0x2B44 JUMP JUMPDEST PUSH2 0x86A JUMP JUMPDEST CALLVALUE DUP1 ISZERO PUSH2 0x1B3 JUMPI PUSH1 0x0 DUP1 REVERT JUMPDEST POP PUSH2 0x1C7 PUSH2 0x1C2 CALLDATASIZE PUSH1 0x4 PUSH2 0x2A05 JUMP JUMPDEST PUSH2 0xE9A JUMP JUMPDEST PUSH1 0x40 MLOAD PUSH2 0x17E SWAP2 SWAP1 PUSH2 0x2C6A JUMP JUMPDEST CALLVALUE DUP1 ISZERO PUSH2 0x1E0 JUMPI PUSH1 0x0 DUP1 REVERT JUMPDEST POP PUSH2 0x14F PUSH2 0x1EF CALLDATASIZE PUSH1 0x4 PUSH2 0x2A27 JUMP JUMPDEST PUSH2 0xF4C JUMP JUMPDEST CALLVALUE DUP1 ISZERO PUSH2 0x200 JUMPI PUSH1 0x0 DUP1 REVERT JUMPDEST POP PUSH2 0x14F PUSH2 0x20F CALLDATASIZE PUSH1 0x4 PUSH2 0x2C79 JUMP JUMPDEST PUSH2 0x1010 JUMP JUMPDEST CALLVALUE DUP1 ISZERO PUSH2 0x220 JUMPI PUSH1 0x0 DUP1 REVERT JUMPDEST POP PUSH2 0x14F PUSH2 0x22F CALLDATASIZE PUSH1 0x4 PUSH2 0x2A05 JUMP JUMPDEST PUSH2 0x121A JUMP JUMPDEST CALLVALUE DUP1 ISZERO PUSH2 0x240 JUMPI PUSH1 0x0 DUP1 REVERT JUMPDEST POP PUSH2 0x14F PUSH2 0x15CC JUMP JUMPDEST CALLVALUE DUP1 ISZERO PUSH2 0x255 JUMPI PUSH1 0x0 DUP1 REVERT JUMPDEST POP PUSH2 0x25F PUSH1 0x4 SLOAD DUP2 JUMP JUMPDEST PUSH1 0x40 MLOAD SWAP1 DUP2 MSTORE PUSH1 0x20 ADD PUSH2 0x17E JUMP JUMPDEST CALLVALUE DUP1 ISZERO PUSH2 0x279 JUMPI PUSH1 0x0 DUP1 REVERT JUMPDEST POP PUSH2 0x14F PUSH2 0x288 CALLDATASIZE PUSH1 0x4 PUSH2 0x2A05 JUMP JUMPDEST PUSH2 0x15E0 JUMP JUMPDEST CALLVALUE DUP1 ISZERO PUSH2 0x299 JUMPI PUSH1 0x0 DUP1 REVERT JUMPDEST POP PUSH1 0x0 SLOAD PUSH1 0x40 MLOAD PUSH1 0x1 PUSH1 0x1 PUSH1 0xA0 SHL SUB SWAP1 SWAP2 AND DUP2 MSTORE PUSH1 0x20 ADD PUSH2 0x17E JUMP JUMPDEST CALLVALUE DUP1 ISZERO PUSH2 0x2C1 JUMPI PUSH1 0x0 DUP1 REVERT JUMPDEST POP PUSH2 0x2D5 PUSH2 0x2D0 CALLDATASIZE PUSH1 0x4 PUSH2 0x2A27 JUMP JUMPDEST PUSH2 0x1770 JUMP JUMPDEST PUSH1 0x40 MLOAD PUSH2 0x17E SWAP2 SWAP1 PUSH2 0x2D06 JUMP JUMPDEST CALLVALUE DUP1 ISZERO PUSH2 0x2EE JUMPI PUSH1 0x0 DUP1 REVERT JUMPDEST POP PUSH2 0x31D PUSH2 0x2FD CALLDATASIZE PUSH1 0x4 PUSH2 0x2A27 JUMP JUMPDEST CALLER PUSH1 0x0 SWAP1 DUP2 MSTORE PUSH1 0xB PUSH1 0x20 SWAP1 DUP2 MSTORE PUSH1 0x40 DUP1 DUP4 KECCAK256 SWAP4 DUP4 MSTORE SWAP3 SWAP1 MSTORE KECCAK256 SLOAD PUSH1 0xFF AND SWAP1 JUMP JUMPDEST PUSH1 0x40 MLOAD SWAP1 ISZERO ISZERO DUP2 MSTORE PUSH1 0x20 ADD PUSH2 0x17E JUMP JUMPDEST CALLVALUE DUP1 ISZERO PUSH2 0x339 JUMPI PUSH1 0x0 DUP1 REVERT JUMPDEST POP PUSH2 0x342 PUSH2 0x18AB JUMP JUMPDEST PUSH1 0x40 MLOAD PUSH2 0x17E SWAP2 SWAP1 PUSH2 0x2E71 JUMP JUMPDEST CALLVALUE DUP1 ISZERO PUSH2 0x35B JUMPI PUSH1 0x0 DUP1 REVERT JUMPDEST POP PUSH2 0x36F PUSH2 0x36A CALLDATASIZE PUSH1 0x4 PUSH2 0x2A27 JUMP JUMPDEST PUSH2 0x1C86 JUMP JUMPDEST PUSH1 0x40 MLOAD PUSH2 0x17E SWAP2 SWAP1 PUSH2 0x2ED3 JUMP JUMPDEST CALLVALUE DUP1 ISZERO PUSH2 0x388 JUMPI PUSH1 0x0 DUP1 REVERT JUMPDEST POP PUSH2 0x14F PUSH2 0x397 CALLDATASIZE PUSH1 0x4 PUSH2 0x2EED JUMP JUMPDEST PUSH2 0x1F5A JUMP JUMPDEST CALLVALUE DUP1 ISZERO PUSH2 0x3A8 JUMPI PUSH1 0x0 DUP1 REVERT JUMPDEST POP PUSH2 0x25F PUSH1 0x3 SLOAD DUP2 JUMP JUMPDEST CALLVALUE DUP1 ISZERO PUSH2 0x3BE JUMPI PUSH1 0x0 DUP1 REVERT JUMPDEST POP PUSH2 0x3D2 PUSH2 0x3CD CALLDATASIZE PUSH1 0x4 PUSH2 0x2A27 JUMP JUMPDEST PUSH2 0x2270 JUMP JUMPDEST PUSH1 0x40 MLOAD PUSH2 0x17E SWAP2 SWAP1 PUSH2 0x2FAC JUMP JUMPDEST PUSH2 0x14F PUSH2 0x3ED CALLDATASIZE PUSH1 0x4 PUSH2 0x2FE4 JUMP JUMPDEST PUSH2 0x22D2 JUMP JUMPDEST CALLVALUE DUP1 ISZERO PUSH2 0x3FE JUMPI PUSH1 0x0 DUP1 REVERT JUMPDEST POP PUSH2 0x14F PUSH2 0x40D CALLDATASIZE PUSH1 0x4 PUSH2 0x3096 JUMP JUMPDEST PUSH2 0x25DB JUMP JUMPDEST CALLVALUE DUP1 ISZERO PUSH2 0x41E JUMPI PUSH1 0x0 DUP1 REVERT JUMPDEST POP PUSH2 0x432 PUSH2 0x42D CALLDATASIZE PUSH1 0x4 PUSH2 0x2A27 JUMP JUMPDEST PUSH2 0x2654 JUMP JUMPDEST PUSH1 0x40 MLOAD PUSH2 0x17E SWAP2 SWAP1 PUSH2 0x30BF JUMP JUMPDEST PUSH2 0x447 PUSH2 0x271F JUMP JUMPDEST PUSH1 0x0 DUP3 DUP2 MSTORE PUSH1 0x6 PUSH1 0x20 MSTORE PUSH1 0x40 DUP2 KECCAK256 DUP1 SLOAD DUP4 SWAP1 DUP2 LT PUSH2 0x467 JUMPI PUSH2 0x467 PUSH2 0x3102 JUMP JUMPDEST PUSH1 0x0 SWAP2 DUP3 MSTORE PUSH1 0x20 DUP1 DUP4 KECCAK256 PUSH1 0x40 DUP1 MLOAD PUSH2 0x100 DUP1 DUP3 ADD DUP4 MSTORE PUSH1 0x6 SWAP1 SWAP6 MUL SWAP1 SWAP3 ADD DUP1 SLOAD DUP4 MSTORE PUSH1 0x1 DUP2 ADD SLOAD DUP4 DUP6 ADD MSTORE PUSH1 0x2 DUP2 ADD SLOAD PUSH1 0x1 PUSH1 0x1 PUSH1 0xA0 SHL SUB SWAP1 DUP2 AND DUP5 DUP5 ADD MSTORE PUSH1 0x3 DUP3 ADD SLOAD PUSH1 0x60 DUP6 ADD MSTORE PUSH1 0x4 DUP3 ADD SLOAD PUSH1 0x80 DUP6 ADD MSTORE PUSH1 0x5 SWAP2 DUP3 ADD SLOAD PUSH1 0xFF DUP1 DUP3 AND ISZERO ISZERO PUSH1 0xA0 DUP8 ADD MSTORE SWAP7 DUP2 DIV DUP8 AND ISZERO ISZERO PUSH1 0xC0 DUP7 ADD MSTORE PUSH3 0x10000 SWAP1 DIV SWAP1 SWAP6 AND ISZERO ISZERO PUSH1 0xE0 DUP5 ADD MSTORE DUP9 DUP7 MSTORE SWAP1 SWAP3 MSTORE SWAP3 KECCAK256 PUSH1 0x7 ADD SLOAD SWAP2 SWAP3 POP CALLER SWAP2 AND EQ DUP1 PUSH2 0x510 JUMPI POP PUSH1 0x0 SLOAD PUSH1 0x1 PUSH1 0x1 PUSH1 0xA0 SHL SUB AND CALLER EQ JUMPDEST PUSH2 0x535 JUMPI PUSH1 0x40 MLOAD PUSH3 0x461BCD PUSH1 0xE5 SHL DUP2 MSTORE PUSH1 0x4 ADD PUSH2 0x52C SWAP1 PUSH2 0x3118 JUMP JUMPDEST PUSH1 0x40 MLOAD DUP1 SWAP2 SUB SWAP1 REVERT JUMPDEST DUP1 PUSH1 0xA0 ADD MLOAD ISZERO PUSH2 0x557 JUMPI PUSH1 0x40 MLOAD PUSH3 0x461BCD PUSH1 0xE5 SHL DUP2 MSTORE PUSH1 0x4 ADD PUSH2 0x52C SWAP1 PUSH2 0x3145 JUMP JUMPDEST PUSH2 0x55F PUSH2 0x2778 JUMP JUMPDEST DUP2 PUSH1 0x60 ADD MLOAD LT PUSH2 0x5C0 JUMPI PUSH1 0x40 MLOAD PUSH3 0x461BCD PUSH1 0xE5 SHL DUP2 MSTORE PUSH1 0x20 PUSH1 0x4 DUP3 ADD MSTORE PUSH1 0x26 PUSH1 0x24 DUP3 ADD MSTORE PUSH32 0x4E6F7420616C6C6F7765642C20626F6F6B696E672064617465206E6F74206578 PUSH1 0x44 DUP3 ADD MSTORE PUSH6 0x18D959591959 PUSH1 0xD2 SHL PUSH1 0x64 DUP3 ADD MSTORE PUSH1 0x84 ADD PUSH2 0x52C JUMP JUMPDEST PUSH1 0x0 DUP4 DUP2 MSTORE PUSH1 0x6 PUSH1 0x20 MSTORE PUSH1 0x40 SWAP1 KECCAK256 DUP1 SLOAD PUSH1 0x1 SWAP2 SWAP1 DUP5 SWAP1 DUP2 LT PUSH2 0x5E4 JUMPI PUSH2 0x5E4 PUSH2 0x3102 JUMP JUMPDEST SWAP1 PUSH1 0x0 MSTORE PUSH1 0x20 PUSH1 0x0 KECCAK256 SWAP1 PUSH1 0x6 MUL ADD PUSH1 0x5 ADD PUSH1 0x2 PUSH2 0x100 EXP DUP2 SLOAD DUP2 PUSH1 0xFF MUL NOT AND SWAP1 DUP4 ISZERO ISZERO MUL OR SWAP1 SSTORE POP PUSH1 0x0 PUSH1 0x64 PUSH1 0x4 SLOAD DUP4 PUSH1 0x80 ADD MLOAD PUSH2 0x622 SWAP2 SWAP1 PUSH2 0x3187 JUMP JUMPDEST PUSH2 0x62C SWAP2 SWAP1 PUSH2 0x319E JUMP JUMPDEST SWAP1 POP PUSH1 0x0 PUSH1 0x64 PUSH1 0x3 SLOAD DUP5 PUSH1 0x80 ADD MLOAD PUSH2 0x644 SWAP2 SWAP1 PUSH2 0x3187 JUMP JUMPDEST PUSH2 0x64E SWAP2 SWAP1 PUSH2 0x319E JUMP JUMPDEST PUSH1 0x0 DUP7 DUP2 MSTORE PUSH1 0x5 PUSH1 0x20 MSTORE PUSH1 0x40 SWAP1 KECCAK256 PUSH1 0x7 ADD SLOAD PUSH1 0x80 DUP6 ADD MLOAD SWAP2 SWAP3 POP PUSH2 0x688 SWAP2 PUSH1 0x1 PUSH1 0x1 PUSH1 0xA0 SHL SUB SWAP1 SWAP2 AND SWAP1 PUSH2 0x683 SWAP1 DUP6 SWAP1 PUSH2 0x31C0 JUMP JUMPDEST PUSH2 0x2797 JUMP JUMPDEST PUSH2 0x6A3 PUSH2 0x69D PUSH1 0x0 SLOAD PUSH1 0x1 PUSH1 0x1 PUSH1 0xA0 SHL SUB AND SWAP1 JUMP JUMPDEST DUP4 PUSH2 0x2797 JUMP JUMPDEST PUSH2 0x6B1 DUP4 PUSH1 0x40 ADD MLOAD DUP3 PUSH2 0x2797 JUMP JUMPDEST POP POP POP PUSH2 0x6BD PUSH1 0x1 DUP1 SSTORE JUMP JUMPDEST POP POP JUMP JUMPDEST PUSH1 0x60 PUSH1 0x0 DUP1 JUMPDEST PUSH1 0x0 DUP5 DUP2 MSTORE PUSH1 0x6 PUSH1 0x20 MSTORE PUSH1 0x40 SWAP1 KECCAK256 SLOAD DUP2 LT ISZERO PUSH2 0x739 JUMPI PUSH1 0x0 DUP5 DUP2 MSTORE PUSH1 0x6 PUSH1 0x20 MSTORE PUSH1 0x40 SWAP1 KECCAK256 DUP1 SLOAD DUP3 SWAP1 DUP2 LT PUSH2 0x6FD JUMPI PUSH2 0x6FD PUSH2 0x3102 JUMP JUMPDEST PUSH1 0x0 SWAP2 DUP3 MSTORE PUSH1 0x20 SWAP1 SWAP2 KECCAK256 PUSH1 0x5 PUSH1 0x6 SWAP1 SWAP3 MUL ADD ADD SLOAD PUSH1 0xFF AND ISZERO PUSH2 0x727 JUMPI DUP2 PUSH2 0x723 DUP2 PUSH2 0x31D3 JUMP JUMPDEST SWAP3 POP POP JUMPDEST DUP1 PUSH2 0x731 DUP2 PUSH2 0x31D3 JUMP JUMPDEST SWAP2 POP POP PUSH2 0x6C7 JUMP JUMPDEST POP DUP1 PUSH8 0xFFFFFFFFFFFFFFFF DUP2 GT ISZERO PUSH2 0x753 JUMPI PUSH2 0x753 PUSH2 0x2A8D JUMP JUMPDEST PUSH1 0x40 MLOAD SWAP1 DUP1 DUP3 MSTORE DUP1 PUSH1 0x20 MUL PUSH1 0x20 ADD DUP3 ADD PUSH1 0x40 MSTORE DUP1 ISZERO PUSH2 0x77C JUMPI DUP2 PUSH1 0x20 ADD PUSH1 0x20 DUP3 MUL DUP1 CALLDATASIZE DUP4 CALLDATACOPY ADD SWAP1 POP JUMPDEST POP SWAP2 POP PUSH1 0x0 DUP1 JUMPDEST PUSH1 0x0 DUP6 DUP2 MSTORE PUSH1 0x6 PUSH1 0x20 MSTORE PUSH1 0x40 SWAP1 KECCAK256 SLOAD DUP2 LT ISZERO PUSH2 0x862 JUMPI PUSH1 0x0 DUP6 DUP2 MSTORE PUSH1 0x6 PUSH1 0x20 MSTORE PUSH1 0x40 SWAP1 KECCAK256 DUP1 SLOAD DUP3 SWAP1 DUP2 LT PUSH2 0x7B9 JUMPI PUSH2 0x7B9 PUSH2 0x3102 JUMP JUMPDEST PUSH1 0x0 SWAP2 DUP3 MSTORE PUSH1 0x20 SWAP1 SWAP2 KECCAK256 PUSH1 0x5 PUSH1 0x6 SWAP1 SWAP3 MUL ADD ADD SLOAD PUSH1 0xFF AND ISZERO PUSH2 0x850 JUMPI PUSH1 0x0 DUP6 DUP2 MSTORE PUSH1 0x6 PUSH1 0x20 MSTORE PUSH1 0x40 SWAP1 KECCAK256 DUP1 SLOAD DUP3 SWAP1 DUP2 LT PUSH2 0x7F5 JUMPI PUSH2 0x7F5 PUSH2 0x3102 JUMP JUMPDEST PUSH1 0x0 SWAP2 DUP3 MSTORE PUSH1 0x20 SWAP1 SWAP2 KECCAK256 PUSH1 0x2 PUSH1 0x6 SWAP1 SWAP3 MUL ADD ADD SLOAD PUSH1 0x1 PUSH1 0x1 PUSH1 0xA0 SHL SUB AND DUP5 DUP4 PUSH2 0x81D DUP2 PUSH2 0x31D3 JUMP JUMPDEST SWAP5 POP DUP2 MLOAD DUP2 LT PUSH2 0x82F JUMPI PUSH2 0x82F PUSH2 0x3102 JUMP JUMPDEST PUSH1 0x20 MUL PUSH1 0x20 ADD ADD SWAP1 PUSH1 0x1 PUSH1 0x1 PUSH1 0xA0 SHL SUB AND SWAP1 DUP2 PUSH1 0x1 PUSH1 0x1 PUSH1 0xA0 SHL SUB AND DUP2 MSTORE POP POP JUMPDEST DUP1 PUSH2 0x85A DUP2 PUSH2 0x31D3 JUMP JUMPDEST SWAP2 POP POP PUSH2 0x783 JUMP JUMPDEST POP POP POP SWAP2 SWAP1 POP JUMP JUMPDEST PUSH1 0x0 DUP8 DUP2 MSTORE PUSH1 0x8 PUSH1 0x20 MSTORE PUSH1 0x40 SWAP1 KECCAK256 SLOAD PUSH1 0xFF AND PUSH2 0x8BF JUMPI PUSH1 0x40 MLOAD PUSH3 0x461BCD PUSH1 0xE5 SHL DUP2 MSTORE PUSH1 0x20 PUSH1 0x4 DUP3 ADD MSTORE PUSH1 0x14 PUSH1 0x24 DUP3 ADD MSTORE PUSH20 0x105C1C185C9D1B595B9D081B9BDD08199BDD5B99 PUSH1 0x62 SHL PUSH1 0x44 DUP3 ADD MSTORE PUSH1 0x64 ADD PUSH2 0x52C JUMP JUMPDEST PUSH1 0x0 DUP8 DUP2 MSTORE PUSH1 0x5 PUSH1 0x20 MSTORE PUSH1 0x40 SWAP1 KECCAK256 PUSH1 0x7 ADD SLOAD PUSH1 0x1 PUSH1 0x1 PUSH1 0xA0 SHL SUB AND CALLER EQ PUSH2 0x8F8 JUMPI PUSH1 0x40 MLOAD PUSH3 0x461BCD PUSH1 0xE5 SHL DUP2 MSTORE PUSH1 0x4 ADD PUSH2 0x52C SWAP1 PUSH2 0x3118 JUMP JUMPDEST PUSH1 0x0 DUP7 MLOAD GT PUSH2 0x940 JUMPI PUSH1 0x40 MLOAD PUSH3 0x461BCD PUSH1 0xE5 SHL DUP2 MSTORE PUSH1 0x20 PUSH1 0x4 DUP3 ADD MSTORE PUSH1 0x14 PUSH1 0x24 DUP3 ADD MSTORE PUSH20 0x4E616D652063616E6E6F7420626520656D707479 PUSH1 0x60 SHL PUSH1 0x44 DUP3 ADD MSTORE PUSH1 0x64 ADD PUSH2 0x52C JUMP JUMPDEST PUSH1 0x0 DUP6 MLOAD GT PUSH2 0x991 JUMPI PUSH1 0x40 MLOAD PUSH3 0x461BCD PUSH1 0xE5 SHL DUP2 MSTORE PUSH1 0x20 PUSH1 0x4 DUP3 ADD MSTORE PUSH1 0x1B PUSH1 0x24 DUP3 ADD MSTORE PUSH32 0x4465736372697074696F6E2063616E6E6F7420626520656D7074790000000000 PUSH1 0x44 DUP3 ADD MSTORE PUSH1 0x64 ADD PUSH2 0x52C JUMP JUMPDEST PUSH1 0x0 DUP5 MLOAD GT PUSH2 0x9DD JUMPI PUSH1 0x40 MLOAD PUSH3 0x461BCD PUSH1 0xE5 SHL DUP2 MSTORE PUSH1 0x20 PUSH1 0x4 DUP3 ADD MSTORE PUSH1 0x18 PUSH1 0x24 DUP3 ADD MSTORE PUSH24 0x4C6F636174696F6E2063616E6E6F7420626520656D707479 PUSH1 0x40 SHL PUSH1 0x44 DUP3 ADD MSTORE PUSH1 0x64 ADD PUSH2 0x52C JUMP JUMPDEST PUSH1 0x0 DUP4 MLOAD GT PUSH2 0xA27 JUMPI PUSH1 0x40 MLOAD PUSH3 0x461BCD PUSH1 0xE5 SHL DUP2 MSTORE PUSH1 0x20 PUSH1 0x4 DUP3 ADD MSTORE PUSH1 0x16 PUSH1 0x24 DUP3 ADD MSTORE PUSH22 0x496D616765732063616E6E6F7420626520656D707479 PUSH1 0x50 SHL PUSH1 0x44 DUP3 ADD MSTORE PUSH1 0x64 ADD PUSH2 0x52C JUMP JUMPDEST PUSH1 0x0 DUP3 GT PUSH2 0xA6E JUMPI PUSH1 0x40 MLOAD PUSH3 0x461BCD PUSH1 0xE5 SHL DUP2 MSTORE PUSH1 0x20 PUSH1 0x4 DUP3 ADD MSTORE PUSH1 0x14 PUSH1 0x24 DUP3 ADD MSTORE PUSH20 0x526F6F6D732063616E6E6F74206265207A65726F PUSH1 0x60 SHL PUSH1 0x44 DUP3 ADD MSTORE PUSH1 0x64 ADD PUSH2 0x52C JUMP JUMPDEST PUSH1 0x0 DUP2 GT PUSH2 0xAB5 JUMPI PUSH1 0x40 MLOAD PUSH3 0x461BCD PUSH1 0xE5 SHL DUP2 MSTORE PUSH1 0x20 PUSH1 0x4 DUP3 ADD MSTORE PUSH1 0x14 PUSH1 0x24 DUP3 ADD MSTORE PUSH20 0x50726963652063616E6E6F74206265207A65726F PUSH1 0x60 SHL PUSH1 0x44 DUP3 ADD MSTORE PUSH1 0x64 ADD PUSH2 0x52C JUMP JUMPDEST PUSH1 0x0 PUSH1 0x5 PUSH1 0x0 DUP10 DUP2 MSTORE PUSH1 0x20 ADD SWAP1 DUP2 MSTORE PUSH1 0x20 ADD PUSH1 0x0 KECCAK256 PUSH1 0x40 MLOAD DUP1 PUSH2 0x160 ADD PUSH1 0x40 MSTORE SWAP1 DUP2 PUSH1 0x0 DUP3 ADD SLOAD DUP2 MSTORE PUSH1 0x20 ADD PUSH1 0x1 DUP3 ADD DUP1 SLOAD PUSH2 0xAF0 SWAP1 PUSH2 0x31EC JUMP JUMPDEST DUP1 PUSH1 0x1F ADD PUSH1 0x20 DUP1 SWAP2 DIV MUL PUSH1 0x20 ADD PUSH1 0x40 MLOAD SWAP1 DUP2 ADD PUSH1 0x40 MSTORE DUP1 SWAP3 SWAP2 SWAP1 DUP2 DUP2 MSTORE PUSH1 0x20 ADD DUP3 DUP1 SLOAD PUSH2 0xB1C SWAP1 PUSH2 0x31EC JUMP JUMPDEST DUP1 ISZERO PUSH2 0xB69 JUMPI DUP1 PUSH1 0x1F LT PUSH2 0xB3E JUMPI PUSH2 0x100 DUP1 DUP4 SLOAD DIV MUL DUP4 MSTORE SWAP2 PUSH1 0x20 ADD SWAP2 PUSH2 0xB69 JUMP JUMPDEST DUP3 ADD SWAP2 SWAP1 PUSH1 0x0 MSTORE PUSH1 0x20 PUSH1 0x0 KECCAK256 SWAP1 JUMPDEST DUP2 SLOAD DUP2 MSTORE SWAP1 PUSH1 0x1 ADD SWAP1 PUSH1 0x20 ADD DUP1 DUP4 GT PUSH2 0xB4C JUMPI DUP3 SWAP1 SUB PUSH1 0x1F AND DUP3 ADD SWAP2 JUMPDEST POP POP POP POP POP DUP2 MSTORE PUSH1 0x20 ADD PUSH1 0x2 DUP3 ADD DUP1 SLOAD PUSH2 0xB82 SWAP1 PUSH2 0x31EC JUMP JUMPDEST DUP1 PUSH1 0x1F ADD PUSH1 0x20 DUP1 SWAP2 DIV MUL PUSH1 0x20 ADD PUSH1 0x40 MLOAD SWAP1 DUP2 ADD PUSH1 0x40 MSTORE DUP1 SWAP3 SWAP2 SWAP1 DUP2 DUP2 MSTORE PUSH1 0x20 ADD DUP3 DUP1 SLOAD PUSH2 0xBAE SWAP1 PUSH2 0x31EC JUMP JUMPDEST DUP1 ISZERO PUSH2 0xBFB JUMPI DUP1 PUSH1 0x1F LT PUSH2 0xBD0 JUMPI PUSH2 0x100 DUP1 DUP4 SLOAD DIV MUL DUP4 MSTORE SWAP2 PUSH1 0x20 ADD SWAP2 PUSH2 0xBFB JUMP JUMPDEST DUP3 ADD SWAP2 SWAP1 PUSH1 0x0 MSTORE PUSH1 0x20 PUSH1 0x0 KECCAK256 SWAP1 JUMPDEST DUP2 SLOAD DUP2 MSTORE SWAP1 PUSH1 0x1 ADD SWAP1 PUSH1 0x20 ADD DUP1 DUP4 GT PUSH2 0xBDE JUMPI DUP3 SWAP1 SUB PUSH1 0x1F AND DUP3 ADD SWAP2 JUMPDEST POP POP POP POP POP DUP2 MSTORE PUSH1 0x20 ADD PUSH1 0x3 DUP3 ADD DUP1 SLOAD PUSH2 0xC14 SWAP1 PUSH2 0x31EC JUMP JUMPDEST DUP1 PUSH1 0x1F ADD PUSH1 0x20 DUP1 SWAP2 DIV MUL PUSH1 0x20 ADD PUSH1 0x40 MLOAD SWAP1 DUP2 ADD PUSH1 0x40 MSTORE DUP1 SWAP3 SWAP2 SWAP1 DUP2 DUP2 MSTORE PUSH1 0x20 ADD DUP3 DUP1 SLOAD PUSH2 0xC40 SWAP1 PUSH2 0x31EC JUMP JUMPDEST DUP1 ISZERO PUSH2 0xC8D JUMPI DUP1 PUSH1 0x1F LT PUSH2 0xC62 JUMPI PUSH2 0x100 DUP1 DUP4 SLOAD DIV MUL DUP4 MSTORE SWAP2 PUSH1 0x20 ADD SWAP2 PUSH2 0xC8D JUMP JUMPDEST DUP3 ADD SWAP2 SWAP1 PUSH1 0x0 MSTORE PUSH1 0x20 PUSH1 0x0 KECCAK256 SWAP1 JUMPDEST DUP2 SLOAD DUP2 MSTORE SWAP1 PUSH1 0x1 ADD SWAP1 PUSH1 0x20 ADD DUP1 DUP4 GT PUSH2 0xC70 JUMPI DUP3 SWAP1 SUB PUSH1 0x1F AND DUP3 ADD SWAP2 JUMPDEST POP POP POP POP POP DUP2 MSTORE PUSH1 0x20 ADD PUSH1 0x4 DUP3 ADD DUP1 SLOAD PUSH2 0xCA6 SWAP1 PUSH2 0x31EC JUMP JUMPDEST DUP1 PUSH1 0x1F ADD PUSH1 0x20 DUP1 SWAP2 DIV MUL PUSH1 0x20 ADD PUSH1 0x40 MLOAD SWAP1 DUP2 ADD PUSH1 0x40 MSTORE DUP1 SWAP3 SWAP2 SWAP1 DUP2 DUP2 MSTORE PUSH1 0x20 ADD DUP3 DUP1 SLOAD PUSH2 0xCD2 SWAP1 PUSH2 0x31EC JUMP JUMPDEST DUP1 ISZERO PUSH2 0xD1F JUMPI DUP1 PUSH1 0x1F LT PUSH2 0xCF4 JUMPI PUSH2 0x100 DUP1 DUP4 SLOAD DIV MUL DUP4 MSTORE SWAP2 PUSH1 0x20 ADD SWAP2 PUSH2 0xD1F JUMP JUMPDEST DUP3 ADD SWAP2 SWAP1 PUSH1 0x0 MSTORE PUSH1 0x20 PUSH1 0x0 KECCAK256 SWAP1 JUMPDEST DUP2 SLOAD DUP2 MSTORE SWAP1 PUSH1 0x1 ADD SWAP1 PUSH1 0x20 ADD DUP1 DUP4 GT PUSH2 0xD02 JUMPI DUP3 SWAP1 SUB PUSH1 0x1F AND DUP3 ADD SWAP2 JUMPDEST POP POP POP SWAP2 DUP4 MSTORE POP POP PUSH1 0x5 DUP3 DUP2 ADD SLOAD PUSH1 0x20 DUP1 DUP5 ADD SWAP2 SWAP1 SWAP2 MSTORE PUSH1 0x6 DUP5 ADD SLOAD PUSH1 0x40 DUP1 DUP6 ADD SWAP2 SWAP1 SWAP2 MSTORE PUSH1 0x7 DUP6 ADD SLOAD PUSH1 0x1 PUSH1 0x1 PUSH1 0xA0 SHL SUB DUP2 AND PUSH1 0x60 DUP1 DUP8 ADD SWAP2 SWAP1 SWAP2 MSTORE PUSH1 0xFF PUSH1 0x1 PUSH1 0xA0 SHL DUP4 DIV DUP2 AND ISZERO ISZERO PUSH1 0x80 DUP1 DUP10 ADD SWAP2 SWAP1 SWAP2 MSTORE PUSH1 0x1 PUSH1 0xA8 SHL SWAP1 SWAP4 DIV AND ISZERO ISZERO PUSH1 0xA0 DUP1 DUP9 ADD SWAP2 SWAP1 SWAP2 MSTORE PUSH1 0x8 SWAP1 SWAP8 ADD SLOAD PUSH1 0xC0 SWAP7 DUP8 ADD MSTORE DUP8 DUP5 ADD DUP16 DUP2 MSTORE DUP9 DUP5 ADD DUP16 SWAP1 MSTORE SWAP1 DUP9 ADD DUP14 SWAP1 MSTORE SWAP1 DUP8 ADD DUP12 SWAP1 MSTORE SWAP5 DUP7 ADD DUP10 SWAP1 MSTORE SWAP3 DUP6 ADD DUP8 SWAP1 MSTORE DUP5 MLOAD PUSH1 0x0 SWAP1 DUP2 MSTORE SWAP2 SWAP1 MSTORE KECCAK256 DUP3 MLOAD DUP2 SSTORE SWAP1 MLOAD SWAP2 SWAP3 POP DUP3 SWAP2 PUSH1 0x1 DUP3 ADD SWAP1 PUSH2 0xDDB SWAP1 DUP3 PUSH2 0x3274 JUMP JUMPDEST POP PUSH1 0x40 DUP3 ADD MLOAD PUSH1 0x2 DUP3 ADD SWAP1 PUSH2 0xDF0 SWAP1 DUP3 PUSH2 0x3274 JUMP JUMPDEST POP PUSH1 0x60 DUP3 ADD MLOAD PUSH1 0x3 DUP3 ADD SWAP1 PUSH2 0xE05 SWAP1 DUP3 PUSH2 0x3274 JUMP JUMPDEST POP PUSH1 0x80 DUP3 ADD MLOAD PUSH1 0x4 DUP3 ADD SWAP1 PUSH2 0xE1A SWAP1 DUP3 PUSH2 0x3274 JUMP JUMPDEST POP PUSH1 0xA0 DUP3 ADD MLOAD PUSH1 0x5 DUP3 ADD SSTORE PUSH1 0xC0 DUP3 ADD MLOAD PUSH1 0x6 DUP3 ADD SSTORE PUSH1 0xE0 DUP3 ADD MLOAD PUSH1 0x7 DUP3 ADD DUP1 SLOAD PUSH2 0x100 DUP6 ADD MLOAD PUSH2 0x120 DUP7 ADD MLOAD ISZERO ISZERO PUSH1 0x1 PUSH1 0xA8 SHL MUL PUSH1 0xFF PUSH1 0xA8 SHL NOT SWAP2 ISZERO ISZERO PUSH1 0x1 PUSH1 0xA0 SHL MUL PUSH1 0x1 PUSH1 0x1 PUSH1 0xA8 SHL SUB NOT SWAP1 SWAP4 AND PUSH1 0x1 PUSH1 0x1 PUSH1 0xA0 SHL SUB SWAP1 SWAP6 AND SWAP5 SWAP1 SWAP5 OR SWAP2 SWAP1 SWAP2 OR AND SWAP2 SWAP1 SWAP2 OR SWAP1 SSTORE PUSH2 0x140 SWAP1 SWAP2 ADD MLOAD PUSH1 0x8 SWAP1 SWAP2 ADD SSTORE POP POP POP POP POP POP POP POP JUMP JUMPDEST PUSH2 0xEA2 PUSH2 0x294A JUMP JUMPDEST PUSH1 0x0 DUP4 DUP2 MSTORE PUSH1 0x6 PUSH1 0x20 MSTORE PUSH1 0x40 SWAP1 KECCAK256 DUP1 SLOAD DUP4 SWAP1 DUP2 LT PUSH2 0xEC2 JUMPI PUSH2 0xEC2 PUSH2 0x3102 JUMP JUMPDEST PUSH1 0x0 SWAP2 DUP3 MSTORE PUSH1 0x20 SWAP2 DUP3 SWAP1 KECCAK256 PUSH1 0x40 DUP1 MLOAD PUSH2 0x100 DUP1 DUP3 ADD DUP4 MSTORE PUSH1 0x6 SWAP1 SWAP5 MUL SWAP1 SWAP3 ADD DUP1 SLOAD DUP4 MSTORE PUSH1 0x1 DUP2 ADD SLOAD SWAP5 DUP4 ADD SWAP5 SWAP1 SWAP5 MSTORE PUSH1 0x2 DUP5 ADD SLOAD PUSH1 0x1 PUSH1 0x1 PUSH1 0xA0 SHL SUB AND SWAP1 DUP3 ADD MSTORE PUSH1 0x3 DUP4 ADD SLOAD PUSH1 0x60 DUP3 ADD MSTORE PUSH1 0x4 DUP4 ADD SLOAD PUSH1 0x80 DUP3 ADD MSTORE PUSH1 0x5 SWAP1 SWAP3 ADD SLOAD PUSH1 0xFF DUP1 DUP3 AND ISZERO ISZERO PUSH1 0xA0 DUP6 ADD MSTORE SWAP2 DUP2 DIV DUP3 AND ISZERO ISZERO PUSH1 0xC0 DUP5 ADD MSTORE PUSH3 0x10000 SWAP1 DIV AND ISZERO ISZERO PUSH1 0xE0 DUP3 ADD MSTORE SWAP1 POP JUMPDEST SWAP3 SWAP2 POP POP JUMP JUMPDEST PUSH1 0x0 DUP2 DUP2 MSTORE PUSH1 0x8 PUSH1 0x20 MSTORE PUSH1 0x40 SWAP1 KECCAK256 SLOAD PUSH1 0xFF AND PUSH2 0xFA1 JUMPI PUSH1 0x40 MLOAD PUSH3 0x461BCD PUSH1 0xE5 SHL DUP2 MSTORE PUSH1 0x20 PUSH1 0x4 DUP3 ADD MSTORE PUSH1 0x14 PUSH1 0x24 DUP3 ADD MSTORE PUSH20 0x105C1C185C9D1B595B9D081B9BDD08199BDD5B99 PUSH1 0x62 SHL PUSH1 0x44 DUP3 ADD MSTORE PUSH1 0x64 ADD PUSH2 0x52C JUMP JUMPDEST PUSH1 0x0 DUP2 DUP2 MSTORE PUSH1 0x5 PUSH1 0x20 MSTORE PUSH1 0x40 SWAP1 KECCAK256 PUSH1 0x7 ADD SLOAD PUSH1 0x1 PUSH1 0x1 PUSH1 0xA0 SHL SUB AND CALLER EQ PUSH2 0xFDA JUMPI PUSH1 0x40 MLOAD PUSH3 0x461BCD PUSH1 0xE5 SHL DUP2 MSTORE PUSH1 0x4 ADD PUSH2 0x52C SWAP1 PUSH2 0x3118 JUMP JUMPDEST PUSH1 0x0 SWAP1 DUP2 MSTORE PUSH1 0x8 PUSH1 0x20 SWAP1 DUP2 MSTORE PUSH1 0x40 DUP1 DUP4 KECCAK256 DUP1 SLOAD PUSH1 0xFF NOT AND SWAP1 SSTORE PUSH1 0x5 SWAP1 SWAP2 MSTORE SWAP1 KECCAK256 PUSH1 0x7 ADD DUP1 SLOAD PUSH1 0xFF PUSH1 0xA8 SHL NOT AND PUSH1 0x1 PUSH1 0xA8 SHL OR SWAP1 SSTORE JUMP JUMPDEST PUSH1 0x0 DUP3 DUP2 MSTORE PUSH1 0x8 PUSH1 0x20 MSTORE PUSH1 0x40 SWAP1 KECCAK256 SLOAD PUSH1 0xFF AND PUSH2 0x106E JUMPI PUSH1 0x40 MLOAD PUSH3 0x461BCD PUSH1 0xE5 SHL DUP2 MSTORE PUSH1 0x20 PUSH1 0x4 DUP3 ADD MSTORE PUSH1 0x18 PUSH1 0x24 DUP3 ADD MSTORE PUSH32 0x4170706172746D656E74206E6F7420617661696C61626C650000000000000000 PUSH1 0x44 DUP3 ADD MSTORE PUSH1 0x64 ADD PUSH2 0x52C JUMP JUMPDEST CALLER PUSH1 0x0 SWAP1 DUP2 MSTORE PUSH1 0xB PUSH1 0x20 SWAP1 DUP2 MSTORE PUSH1 0x40 DUP1 DUP4 KECCAK256 DUP6 DUP5 MSTORE SWAP1 SWAP2 MSTORE SWAP1 KECCAK256 SLOAD PUSH1 0xFF AND PUSH2 0x10D8 JUMPI PUSH1 0x40 MLOAD PUSH3 0x461BCD PUSH1 0xE5 SHL DUP2 MSTORE PUSH1 0x20 PUSH1 0x4 DUP3 ADD MSTORE PUSH1 0x18 PUSH1 0x24 DUP3 ADD MSTORE PUSH32 0x426F6F6B206669727374206265666F7265207265766965770000000000000000 PUSH1 0x44 DUP3 ADD MSTORE PUSH1 0x64 ADD PUSH2 0x52C JUMP JUMPDEST PUSH1 0x0 DUP2 MLOAD GT PUSH2 0x1129 JUMPI PUSH1 0x40 MLOAD PUSH3 0x461BCD PUSH1 0xE5 SHL DUP2 MSTORE PUSH1 0x20 PUSH1 0x4 DUP3 ADD MSTORE PUSH1 0x17 PUSH1 0x24 DUP3 ADD MSTORE PUSH32 0x436F6D6D656E742063616E6E6F7420626520656D707479000000000000000000 PUSH1 0x44 DUP3 ADD MSTORE PUSH1 0x64 ADD PUSH2 0x52C JUMP JUMPDEST PUSH2 0x1164 PUSH1 0x40 MLOAD DUP1 PUSH1 0xA0 ADD PUSH1 0x40 MSTORE DUP1 PUSH1 0x0 DUP2 MSTORE PUSH1 0x20 ADD PUSH1 0x0 DUP2 MSTORE PUSH1 0x20 ADD PUSH1 0x60 DUP2 MSTORE PUSH1 0x20 ADD PUSH1 0x0 DUP2 MSTORE PUSH1 0x20 ADD PUSH1 0x0 PUSH1 0x1 PUSH1 0x1 PUSH1 0xA0 SHL SUB AND DUP2 MSTORE POP SWAP1 JUMP JUMPDEST PUSH1 0x0 DUP4 DUP2 MSTORE PUSH1 0x7 PUSH1 0x20 SWAP1 DUP2 MSTORE PUSH1 0x40 SWAP2 DUP3 SWAP1 KECCAK256 SLOAD DUP4 MSTORE DUP3 ADD DUP5 SWAP1 MSTORE DUP2 ADD DUP3 SWAP1 MSTORE CALLER PUSH1 0x80 DUP3 ADD MSTORE PUSH2 0x1191 PUSH2 0x2778 JUMP JUMPDEST PUSH1 0x60 DUP3 ADD MSTORE PUSH1 0x0 DUP4 DUP2 MSTORE PUSH1 0x7 PUSH1 0x20 SWAP1 DUP2 MSTORE PUSH1 0x40 DUP1 DUP4 KECCAK256 DUP1 SLOAD PUSH1 0x1 DUP2 DUP2 ADD DUP4 SSTORE SWAP2 DUP6 MSTORE SWAP4 DUP4 SWAP1 KECCAK256 DUP6 MLOAD PUSH1 0x5 SWAP1 SWAP6 MUL ADD SWAP4 DUP5 SSTORE SWAP2 DUP5 ADD MLOAD SWAP2 DUP4 ADD SWAP2 SWAP1 SWAP2 SSTORE DUP3 ADD MLOAD DUP3 SWAP2 SWAP1 PUSH1 0x2 DUP3 ADD SWAP1 PUSH2 0x11E2 SWAP1 DUP3 PUSH2 0x3274 JUMP JUMPDEST POP PUSH1 0x60 DUP3 ADD MLOAD PUSH1 0x3 DUP3 ADD SSTORE PUSH1 0x80 SWAP1 SWAP2 ADD MLOAD PUSH1 0x4 SWAP1 SWAP2 ADD DUP1 SLOAD PUSH1 0x1 PUSH1 0x1 PUSH1 0xA0 SHL SUB NOT AND PUSH1 0x1 PUSH1 0x1 PUSH1 0xA0 SHL SUB SWAP1 SWAP3 AND SWAP2 SWAP1 SWAP2 OR SWAP1 SSTORE POP POP POP JUMP JUMPDEST PUSH2 0x1222 PUSH2 0x271F JUMP JUMPDEST PUSH1 0x0 DUP3 DUP2 MSTORE PUSH1 0x6 PUSH1 0x20 MSTORE PUSH1 0x40 DUP2 KECCAK256 DUP1 SLOAD DUP4 SWAP1 DUP2 LT PUSH2 0x1242 JUMPI PUSH2 0x1242 PUSH2 0x3102 JUMP JUMPDEST PUSH1 0x0 SWAP2 DUP3 MSTORE PUSH1 0x20 SWAP2 DUP3 SWAP1 KECCAK256 PUSH1 0x40 DUP1 MLOAD PUSH2 0x100 DUP1 DUP3 ADD DUP4 MSTORE PUSH1 0x6 SWAP1 SWAP5 MUL SWAP1 SWAP3 ADD DUP1 SLOAD DUP4 MSTORE PUSH1 0x1 DUP2 ADD SLOAD SWAP5 DUP4 ADD SWAP5 SWAP1 SWAP5 MSTORE PUSH1 0x2 DUP5 ADD SLOAD PUSH1 0x1 PUSH1 0x1 PUSH1 0xA0 SHL SUB AND SWAP1 DUP3 ADD MSTORE PUSH1 0x3 DUP4 ADD SLOAD PUSH1 0x60 DUP3 ADD MSTORE PUSH1 0x4 DUP4 ADD SLOAD PUSH1 0x80 DUP3 ADD MSTORE PUSH1 0x5 SWAP1 SWAP3 ADD SLOAD PUSH1 0xFF DUP1 DUP3 AND ISZERO DUP1 ISZERO PUSH1 0xA0 DUP7 ADD MSTORE SWAP3 DUP3 DIV DUP2 AND ISZERO ISZERO PUSH1 0xC0 DUP6 ADD MSTORE PUSH3 0x10000 SWAP1 SWAP2 DIV AND ISZERO ISZERO PUSH1 0xE0 DUP4 ADD MSTORE SWAP1 SWAP2 POP PUSH2 0x12E4 JUMPI PUSH1 0x40 MLOAD PUSH3 0x461BCD PUSH1 0xE5 SHL DUP2 MSTORE PUSH1 0x4 ADD PUSH2 0x52C SWAP1 PUSH2 0x3145 JUMP JUMPDEST PUSH1 0x0 DUP4 DUP2 MSTORE PUSH1 0xA PUSH1 0x20 SWAP1 DUP2 MSTORE PUSH1 0x40 DUP1 DUP4 KECCAK256 PUSH1 0x60 DUP6 ADD MLOAD DUP5 MSTORE SWAP1 SWAP2 MSTORE SWAP1 KECCAK256 SLOAD PUSH1 0xFF AND PUSH2 0x1343 JUMPI PUSH1 0x40 MLOAD PUSH3 0x461BCD PUSH1 0xE5 SHL DUP2 MSTORE PUSH1 0x20 PUSH1 0x4 DUP3 ADD MSTORE PUSH1 0xF PUSH1 0x24 DUP3 ADD MSTORE PUSH15 0x11185D19481B9BDD08189BDBDAD959 PUSH1 0x8A SHL PUSH1 0x44 DUP3 ADD MSTORE PUSH1 0x64 ADD PUSH2 0x52C JUMP JUMPDEST PUSH1 0x0 SLOAD PUSH1 0x1 PUSH1 0x1 PUSH1 0xA0 SHL SUB AND CALLER EQ PUSH2 0x1414 JUMPI DUP1 PUSH1 0x40 ADD MLOAD PUSH1 0x1 PUSH1 0x1 PUSH1 0xA0 SHL SUB AND CALLER PUSH1 0x1 PUSH1 0x1 PUSH1 0xA0 SHL SUB AND EQ PUSH2 0x13AF JUMPI PUSH1 0x40 MLOAD PUSH3 0x461BCD PUSH1 0xE5 SHL DUP2 MSTORE PUSH1 0x20 PUSH1 0x4 DUP3 ADD MSTORE PUSH1 0x12 PUSH1 0x24 DUP3 ADD MSTORE PUSH18 0x556E6174686F72697A656420456E74697479 PUSH1 0x70 SHL PUSH1 0x44 DUP3 ADD MSTORE PUSH1 0x64 ADD PUSH2 0x52C JUMP JUMPDEST PUSH2 0x13B7 PUSH2 0x2778 JUMP JUMPDEST DUP2 PUSH1 0x60 ADD MLOAD GT PUSH2 0x1414 JUMPI PUSH1 0x40 MLOAD PUSH3 0x461BCD PUSH1 0xE5 SHL DUP2 MSTORE PUSH1 0x20 PUSH1 0x4 DUP3 ADD MSTORE PUSH1 0x22 PUSH1 0x24 DUP3 ADD MSTORE PUSH32 0x4E6F7420616C6C6F7765642C20657863656564656420626F6F6B696E67206461 PUSH1 0x44 DUP3 ADD MSTORE PUSH2 0x7465 PUSH1 0xF0 SHL PUSH1 0x64 DUP3 ADD MSTORE PUSH1 0x84 ADD PUSH2 0x52C JUMP JUMPDEST PUSH1 0x0 DUP4 DUP2 MSTORE PUSH1 0x6 PUSH1 0x20 MSTORE PUSH1 0x40 SWAP1 KECCAK256 DUP1 SLOAD PUSH1 0x1 SWAP2 SWAP1 DUP5 SWAP1 DUP2 LT PUSH2 0x1438 JUMPI PUSH2 0x1438 PUSH2 0x3102 JUMP JUMPDEST PUSH1 0x0 SWAP2 DUP3 MSTORE PUSH1 0x20 DUP1 DUP4 KECCAK256 PUSH1 0x5 PUSH1 0x6 SWAP1 SWAP4 MUL ADD SWAP2 SWAP1 SWAP2 ADD DUP1 SLOAD SWAP4 ISZERO ISZERO PUSH2 0x100 MUL PUSH2 0xFF00 NOT SWAP1 SWAP5 AND SWAP4 SWAP1 SWAP4 OR SWAP1 SWAP3 SSTORE DUP5 DUP2 MSTORE PUSH1 0xA DUP3 MSTORE PUSH1 0x40 DUP1 DUP3 KECCAK256 PUSH1 0x60 DUP6 ADD MLOAD DUP4 MSTORE DUP4 MSTORE DUP1 DUP3 KECCAK256 DUP1 SLOAD PUSH1 0xFF NOT AND SWAP1 SSTORE DUP6 DUP3 MSTORE PUSH1 0x9 SWAP1 SWAP3 MSTORE SWAP1 DUP2 KECCAK256 SLOAD PUSH2 0x149D SWAP1 PUSH1 0x1 SWAP1 PUSH2 0x31C0 JUMP JUMPDEST PUSH1 0x0 DUP6 DUP2 MSTORE PUSH1 0x9 PUSH1 0x20 MSTORE PUSH1 0x40 DUP2 KECCAK256 DUP1 SLOAD SWAP3 SWAP4 POP SWAP1 SWAP2 DUP4 SWAP1 DUP2 LT PUSH2 0x14C2 JUMPI PUSH2 0x14C2 PUSH2 0x3102 JUMP JUMPDEST SWAP1 PUSH1 0x0 MSTORE PUSH1 0x20 PUSH1 0x0 KECCAK256 ADD SLOAD SWAP1 POP DUP1 PUSH1 0x9 PUSH1 0x0 DUP8 DUP2 MSTORE PUSH1 0x20 ADD SWAP1 DUP2 MSTORE PUSH1 0x20 ADD PUSH1 0x0 KECCAK256 DUP6 DUP2 SLOAD DUP2 LT PUSH2 0x14F4 JUMPI PUSH2 0x14F4 PUSH2 0x3102 JUMP JUMPDEST SWAP1 PUSH1 0x0 MSTORE PUSH1 0x20 PUSH1 0x0 KECCAK256 ADD DUP2 SWAP1 SSTORE POP PUSH1 0x9 PUSH1 0x0 DUP7 DUP2 MSTORE PUSH1 0x20 ADD SWAP1 DUP2 MSTORE PUSH1 0x20 ADD PUSH1 0x0 KECCAK256 DUP1 SLOAD DUP1 PUSH2 0x1524 JUMPI PUSH2 0x1524 PUSH2 0x3334 JUMP JUMPDEST PUSH1 0x1 SWAP1 SUB DUP2 DUP2 SWAP1 PUSH1 0x0 MSTORE PUSH1 0x20 PUSH1 0x0 KECCAK256 ADD PUSH1 0x0 SWAP1 SSTORE SWAP1 SSTORE PUSH1 0x0 PUSH1 0x64 PUSH1 0x3 SLOAD DUP6 PUSH1 0x80 ADD MLOAD PUSH2 0x1550 SWAP2 SWAP1 PUSH2 0x3187 JUMP JUMPDEST PUSH2 0x155A SWAP2 SWAP1 PUSH2 0x319E JUMP JUMPDEST SWAP1 POP PUSH1 0x0 PUSH2 0x1569 PUSH1 0x2 DUP4 PUSH2 0x319E JUMP JUMPDEST PUSH1 0x0 DUP9 DUP2 MSTORE PUSH1 0x5 PUSH1 0x20 MSTORE PUSH1 0x40 SWAP1 KECCAK256 PUSH1 0x7 ADD SLOAD SWAP1 SWAP2 POP PUSH2 0x1591 SWAP1 PUSH1 0x1 PUSH1 0x1 PUSH1 0xA0 SHL SUB AND DUP3 PUSH2 0x2797 JUMP JUMPDEST PUSH2 0x15AC PUSH2 0x15A6 PUSH1 0x0 SLOAD PUSH1 0x1 PUSH1 0x1 PUSH1 0xA0 SHL SUB AND SWAP1 JUMP JUMPDEST DUP3 PUSH2 0x2797 JUMP JUMPDEST PUSH2 0x15BE DUP6 PUSH1 0x40 ADD MLOAD DUP7 PUSH1 0x80 ADD MLOAD PUSH2 0x2797 JUMP JUMPDEST POP POP POP POP POP PUSH2 0x6BD PUSH1 0x1 DUP1 SSTORE JUMP JUMPDEST PUSH2 0x15D4 PUSH2 0x27FC JUMP JUMPDEST PUSH2 0x15DE PUSH1 0x0 PUSH2 0x2856 JUMP JUMPDEST JUMP JUMPDEST PUSH2 0x15E8 PUSH2 0x271F JUMP JUMPDEST PUSH1 0x0 DUP3 DUP2 MSTORE PUSH1 0x6 PUSH1 0x20 MSTORE PUSH1 0x40 DUP2 KECCAK256 DUP1 SLOAD DUP4 SWAP1 DUP2 LT PUSH2 0x1608 JUMPI PUSH2 0x1608 PUSH2 0x3102 JUMP JUMPDEST PUSH1 0x0 SWAP2 DUP3 MSTORE PUSH1 0x20 SWAP2 DUP3 SWAP1 KECCAK256 PUSH1 0x40 DUP1 MLOAD PUSH2 0x100 DUP1 DUP3 ADD DUP4 MSTORE PUSH1 0x6 SWAP1 SWAP5 MUL SWAP1 SWAP3 ADD DUP1 SLOAD DUP4 MSTORE PUSH1 0x1 DUP2 ADD SLOAD SWAP5 DUP4 ADD SWAP5 SWAP1 SWAP5 MSTORE PUSH1 0x2 DUP5 ADD SLOAD PUSH1 0x1 PUSH1 0x1 PUSH1 0xA0 SHL SUB AND SWAP1 DUP3 ADD DUP2 SWAP1 MSTORE PUSH1 0x3 DUP5 ADD SLOAD PUSH1 0x60 DUP4 ADD MSTORE PUSH1 0x4 DUP5 ADD SLOAD PUSH1 0x80 DUP4 ADD MSTORE PUSH1 0x5 SWAP1 SWAP4 ADD SLOAD PUSH1 0xFF DUP1 DUP3 AND ISZERO ISZERO PUSH1 0xA0 DUP5 ADD MSTORE SWAP3 DUP2 DIV DUP4 AND ISZERO ISZERO PUSH1 0xC0 DUP4 ADD MSTORE PUSH3 0x10000 SWAP1 DIV SWAP1 SWAP2 AND ISZERO ISZERO PUSH1 0xE0 DUP3 ADD MSTORE SWAP2 POP CALLER EQ PUSH2 0x16D3 JUMPI PUSH1 0x40 MLOAD PUSH3 0x461BCD PUSH1 0xE5 SHL DUP2 MSTORE PUSH1 0x20 PUSH1 0x4 DUP3 ADD MSTORE PUSH1 0x13 PUSH1 0x24 DUP3 ADD MSTORE PUSH19 0x556E617574686F72697A656420456E74697479 PUSH1 0x68 SHL PUSH1 0x44 DUP3 ADD MSTORE PUSH1 0x64 ADD PUSH2 0x52C JUMP JUMPDEST DUP1 PUSH1 0xA0 ADD MLOAD ISZERO PUSH2 0x16F5 JUMPI PUSH1 0x40 MLOAD PUSH3 0x461BCD PUSH1 0xE5 SHL DUP2 MSTORE PUSH1 0x4 ADD PUSH2 0x52C SWAP1 PUSH2 0x3145 JUMP JUMPDEST PUSH1 0x0 DUP4 DUP2 MSTORE PUSH1 0x6 PUSH1 0x20 MSTORE PUSH1 0x40 SWAP1 KECCAK256 DUP1 SLOAD PUSH1 0x1 SWAP2 SWAP1 DUP5 SWAP1 DUP2 LT PUSH2 0x1719 JUMPI PUSH2 0x1719 PUSH2 0x3102 JUMP JUMPDEST PUSH1 0x0 SWAP2 DUP3 MSTORE PUSH1 0x20 DUP1 DUP4 KECCAK256 PUSH1 0x5 PUSH1 0x6 SWAP1 SWAP4 MUL ADD SWAP2 SWAP1 SWAP2 ADD DUP1 SLOAD SWAP4 ISZERO ISZERO PUSH1 0xFF NOT SWAP5 DUP6 AND OR SWAP1 SSTORE CALLER DUP3 MSTORE PUSH1 0xB DUP2 MSTORE PUSH1 0x40 DUP1 DUP4 KECCAK256 DUP8 DUP5 MSTORE SWAP1 SWAP2 MSTORE DUP2 KECCAK256 DUP1 SLOAD SWAP1 SWAP3 AND PUSH1 0x1 OR SWAP1 SWAP2 SSTORE PUSH1 0x4 SLOAD PUSH1 0x80 DUP4 ADD MLOAD PUSH1 0x64 SWAP2 PUSH2 0x622 SWAP2 PUSH2 0x3187 JUMP JUMPDEST PUSH1 0x60 PUSH1 0x7 PUSH1 0x0 DUP4 DUP2 MSTORE PUSH1 0x20 ADD SWAP1 DUP2 MSTORE PUSH1 0x20 ADD PUSH1 0x0 KECCAK256 DUP1 SLOAD DUP1 PUSH1 0x20 MUL PUSH1 0x20 ADD PUSH1 0x40 MLOAD SWAP1 DUP2 ADD PUSH1 0x40 MSTORE DUP1 SWAP3 SWAP2 SWAP1 DUP2 DUP2 MSTORE PUSH1 0x20 ADD PUSH1 0x0 SWAP1 JUMPDEST DUP3 DUP3 LT ISZERO PUSH2 0x18A0 JUMPI DUP4 DUP3 SWAP1 PUSH1 0x0 MSTORE PUSH1 0x20 PUSH1 0x0 KECCAK256 SWAP1 PUSH1 0x5 MUL ADD PUSH1 0x40 MLOAD DUP1 PUSH1 0xA0 ADD PUSH1 0x40 MSTORE SWAP1 DUP2 PUSH1 0x0 DUP3 ADD SLOAD DUP2 MSTORE PUSH1 0x20 ADD PUSH1 0x1 DUP3 ADD SLOAD DUP2 MSTORE PUSH1 0x20 ADD PUSH1 0x2 DUP3 ADD DUP1 SLOAD PUSH2 0x17EC SWAP1 PUSH2 0x31EC JUMP JUMPDEST DUP1 PUSH1 0x1F ADD PUSH1 0x20 DUP1 SWAP2 DIV MUL PUSH1 0x20 ADD PUSH1 0x40 MLOAD SWAP1 DUP2 ADD PUSH1 0x40 MSTORE DUP1 SWAP3 SWAP2 SWAP1 DUP2 DUP2 MSTORE PUSH1 0x20 ADD DUP3 DUP1 SLOAD PUSH2 0x1818 SWAP1 PUSH2 0x31EC JUMP JUMPDEST DUP1 ISZERO PUSH2 0x1865 JUMPI DUP1 PUSH1 0x1F LT PUSH2 0x183A JUMPI PUSH2 0x100 DUP1 DUP4 SLOAD DIV MUL DUP4 MSTORE SWAP2 PUSH1 0x20 ADD SWAP2 PUSH2 0x1865 JUMP JUMPDEST DUP3 ADD SWAP2 SWAP1 PUSH1 0x0 MSTORE PUSH1 0x20 PUSH1 0x0 KECCAK256 SWAP1 JUMPDEST DUP2 SLOAD DUP2 MSTORE SWAP1 PUSH1 0x1 ADD SWAP1 PUSH1 0x20 ADD DUP1 DUP4 GT PUSH2 0x1848 JUMPI DUP3 SWAP1 SUB PUSH1 0x1F AND DUP3 ADD SWAP2 JUMPDEST POP POP POP SWAP2 DUP4 MSTORE POP POP PUSH1 0x3 DUP3 ADD SLOAD PUSH1 0x20 DUP1 DUP4 ADD SWAP2 SWAP1 SWAP2 MSTORE PUSH1 0x4 SWAP1 SWAP3 ADD SLOAD PUSH1 0x1 PUSH1 0x1 PUSH1 0xA0 SHL SUB AND PUSH1 0x40 SWAP1 SWAP2 ADD MSTORE SWAP1 DUP3 MSTORE PUSH1 0x1 SWAP3 SWAP1 SWAP3 ADD SWAP2 ADD PUSH2 0x17A5 JUMP JUMPDEST POP POP POP POP SWAP1 POP SWAP2 SWAP1 POP JUMP JUMPDEST PUSH1 0x60 PUSH1 0x0 PUSH1 0x1 JUMPDEST PUSH1 0x2 SLOAD DUP2 GT PUSH2 0x18FB JUMPI PUSH1 0x0 DUP2 DUP2 MSTORE PUSH1 0x5 PUSH1 0x20 MSTORE PUSH1 0x40 SWAP1 KECCAK256 PUSH1 0x7 ADD SLOAD PUSH1 0x1 PUSH1 0xA8 SHL SWAP1 DIV PUSH1 0xFF AND PUSH2 0x18E9 JUMPI DUP2 PUSH2 0x18E5 DUP2 PUSH2 0x31D3 JUMP JUMPDEST SWAP3 POP POP JUMPDEST DUP1 PUSH2 0x18F3 DUP2 PUSH2 0x31D3 JUMP JUMPDEST SWAP2 POP POP PUSH2 0x18B2 JUMP JUMPDEST POP DUP1 PUSH8 0xFFFFFFFFFFFFFFFF DUP2 GT ISZERO PUSH2 0x1915 JUMPI PUSH2 0x1915 PUSH2 0x2A8D JUMP JUMPDEST PUSH1 0x40 MLOAD SWAP1 DUP1 DUP3 MSTORE DUP1 PUSH1 0x20 MUL PUSH1 0x20 ADD DUP3 ADD PUSH1 0x40 MSTORE DUP1 ISZERO PUSH2 0x194E JUMPI DUP2 PUSH1 0x20 ADD JUMPDEST PUSH2 0x193B PUSH2 0x299E JUMP JUMPDEST DUP2 MSTORE PUSH1 0x20 ADD SWAP1 PUSH1 0x1 SWAP1 SUB SWAP1 DUP2 PUSH2 0x1933 JUMPI SWAP1 POP JUMPDEST POP SWAP2 POP PUSH1 0x0 PUSH1 0x1 JUMPDEST PUSH1 0x2 SLOAD DUP2 GT PUSH2 0x1C80 JUMPI PUSH1 0x0 DUP2 DUP2 MSTORE PUSH1 0x5 PUSH1 0x20 MSTORE PUSH1 0x40 SWAP1 KECCAK256 PUSH1 0x7 ADD SLOAD PUSH1 0x1 PUSH1 0xA8 SHL SWAP1 DIV PUSH1 0xFF AND PUSH2 0x1C6E JUMPI PUSH1 0x5 PUSH1 0x0 DUP3 DUP2 MSTORE PUSH1 0x20 ADD SWAP1 DUP2 MSTORE PUSH1 0x20 ADD PUSH1 0x0 KECCAK256 PUSH1 0x40 MLOAD DUP1 PUSH2 0x160 ADD PUSH1 0x40 MSTORE SWAP1 DUP2 PUSH1 0x0 DUP3 ADD SLOAD DUP2 MSTORE PUSH1 0x20 ADD PUSH1 0x1 DUP3 ADD DUP1 SLOAD PUSH2 0x19B8 SWAP1 PUSH2 0x31EC JUMP JUMPDEST DUP1 PUSH1 0x1F ADD PUSH1 0x20 DUP1 SWAP2 DIV MUL PUSH1 0x20 ADD PUSH1 0x40 MLOAD SWAP1 DUP2 ADD PUSH1 0x40 MSTORE DUP1 SWAP3 SWAP2 SWAP1 DUP2 DUP2 MSTORE PUSH1 0x20 ADD DUP3 DUP1 SLOAD PUSH2 0x19E4 SWAP1 PUSH2 0x31EC JUMP JUMPDEST DUP1 ISZERO PUSH2 0x1A31 JUMPI DUP1 PUSH1 0x1F LT PUSH2 0x1A06 JUMPI PUSH2 0x100 DUP1 DUP4 SLOAD DIV MUL DUP4 MSTORE SWAP2 PUSH1 0x20 ADD SWAP2 PUSH2 0x1A31 JUMP JUMPDEST DUP3 ADD SWAP2 SWAP1 PUSH1 0x0 MSTORE PUSH1 0x20 PUSH1 0x0 KECCAK256 SWAP1 JUMPDEST DUP2 SLOAD DUP2 MSTORE SWAP1 PUSH1 0x1 ADD SWAP1 PUSH1 0x20 ADD DUP1 DUP4 GT PUSH2 0x1A14 JUMPI DUP3 SWAP1 SUB PUSH1 0x1F AND DUP3 ADD SWAP2 JUMPDEST POP POP POP POP POP DUP2 MSTORE PUSH1 0x20 ADD PUSH1 0x2 DUP3 ADD DUP1 SLOAD PUSH2 0x1A4A SWAP1 PUSH2 0x31EC JUMP JUMPDEST DUP1 PUSH1 0x1F ADD PUSH1 0x20 DUP1 SWAP2 DIV MUL PUSH1 0x20 ADD PUSH1 0x40 MLOAD SWAP1 DUP2 ADD PUSH1 0x40 MSTORE DUP1 SWAP3 SWAP2 SWAP1 DUP2 DUP2 MSTORE PUSH1 0x20 ADD DUP3 DUP1 SLOAD PUSH2 0x1A76 SWAP1 PUSH2 0x31EC JUMP JUMPDEST DUP1 ISZERO PUSH2 0x1AC3 JUMPI DUP1 PUSH1 0x1F LT PUSH2 0x1A98 JUMPI PUSH2 0x100 DUP1 DUP4 SLOAD DIV MUL DUP4 MSTORE SWAP2 PUSH1 0x20 ADD SWAP2 PUSH2 0x1AC3 JUMP JUMPDEST DUP3 ADD SWAP2 SWAP1 PUSH1 0x0 MSTORE PUSH1 0x20 PUSH1 0x0 KECCAK256 SWAP1 JUMPDEST DUP2 SLOAD DUP2 MSTORE SWAP1 PUSH1 0x1 ADD SWAP1 PUSH1 0x20 ADD DUP1 DUP4 GT PUSH2 0x1AA6 JUMPI DUP3 SWAP1 SUB PUSH1 0x1F AND DUP3 ADD SWAP2 JUMPDEST POP POP POP POP POP DUP2 MSTORE PUSH1 0x20 ADD PUSH1 0x3 DUP3 ADD DUP1 SLOAD PUSH2 0x1ADC SWAP1 PUSH2 0x31EC JUMP JUMPDEST DUP1 PUSH1 0x1F ADD PUSH1 0x20 DUP1 SWAP2 DIV MUL PUSH1 0x20 ADD PUSH1 0x40 MLOAD SWAP1 DUP2 ADD PUSH1 0x40 MSTORE DUP1 SWAP3 SWAP2 SWAP1 DUP2 DUP2 MSTORE PUSH1 0x20 ADD DUP3 DUP1 SLOAD PUSH2 0x1B08 SWAP1 PUSH2 0x31EC JUMP JUMPDEST DUP1 ISZERO PUSH2 0x1B55 JUMPI DUP1 PUSH1 0x1F LT PUSH2 0x1B2A JUMPI PUSH2 0x100 DUP1 DUP4 SLOAD DIV MUL DUP4 MSTORE SWAP2 PUSH1 0x20 ADD SWAP2 PUSH2 0x1B55 JUMP JUMPDEST DUP3 ADD SWAP2 SWAP1 PUSH1 0x0 MSTORE PUSH1 0x20 PUSH1 0x0 KECCAK256 SWAP1 JUMPDEST DUP2 SLOAD DUP2 MSTORE SWAP1 PUSH1 0x1 ADD SWAP1 PUSH1 0x20 ADD DUP1 DUP4 GT PUSH2 0x1B38 JUMPI DUP3 SWAP1 SUB PUSH1 0x1F AND DUP3 ADD SWAP2 JUMPDEST POP POP POP POP POP DUP2 MSTORE PUSH1 0x20 ADD PUSH1 0x4 DUP3 ADD DUP1 SLOAD PUSH2 0x1B6E SWAP1 PUSH2 0x31EC JUMP JUMPDEST DUP1 PUSH1 0x1F ADD PUSH1 0x20 DUP1 SWAP2 DIV MUL PUSH1 0x20 ADD PUSH1 0x40 MLOAD SWAP1 DUP2 ADD PUSH1 0x40 MSTORE DUP1 SWAP3 SWAP2 SWAP1 DUP2 DUP2 MSTORE PUSH1 0x20 ADD DUP3 DUP1 SLOAD PUSH2 0x1B9A SWAP1 PUSH2 0x31EC JUMP JUMPDEST DUP1 ISZERO PUSH2 0x1BE7 JUMPI DUP1 PUSH1 0x1F LT PUSH2 0x1BBC JUMPI PUSH2 0x100 DUP1 DUP4 SLOAD DIV MUL DUP4 MSTORE SWAP2 PUSH1 0x20 ADD SWAP2 PUSH2 0x1BE7 JUMP JUMPDEST DUP3 ADD SWAP2 SWAP1 PUSH1 0x0 MSTORE PUSH1 0x20 PUSH1 0x0 KECCAK256 SWAP1 JUMPDEST DUP2 SLOAD DUP2 MSTORE SWAP1 PUSH1 0x1 ADD SWAP1 PUSH1 0x20 ADD DUP1 DUP4 GT PUSH2 0x1BCA JUMPI DUP3 SWAP1 SUB PUSH1 0x1F AND DUP3 ADD SWAP2 JUMPDEST POP POP POP SWAP2 DUP4 MSTORE POP POP PUSH1 0x5 DUP3 ADD SLOAD PUSH1 0x20 DUP3 ADD MSTORE PUSH1 0x6 DUP3 ADD SLOAD PUSH1 0x40 DUP3 ADD MSTORE PUSH1 0x7 DUP3 ADD SLOAD PUSH1 0x1 PUSH1 0x1 PUSH1 0xA0 SHL SUB DUP2 AND PUSH1 0x60 DUP4 ADD MSTORE PUSH1 0xFF PUSH1 0x1 PUSH1 0xA0 SHL DUP3 DIV DUP2 AND ISZERO ISZERO PUSH1 0x80 DUP5 ADD MSTORE PUSH1 0x1 PUSH1 0xA8 SHL SWAP1 SWAP2 DIV AND ISZERO ISZERO PUSH1 0xA0 DUP3 ADD MSTORE PUSH1 0x8 SWAP1 SWAP2 ADD SLOAD PUSH1 0xC0 SWAP1 SWAP2 ADD MSTORE DUP5 DUP4 PUSH2 0x1C50 DUP2 PUSH2 0x31D3 JUMP JUMPDEST SWAP5 POP DUP2 MLOAD DUP2 LT PUSH2 0x1C62 JUMPI PUSH2 0x1C62 PUSH2 0x3102 JUMP JUMPDEST PUSH1 0x20 MUL PUSH1 0x20 ADD ADD DUP2 SWAP1 MSTORE POP JUMPDEST DUP1 PUSH2 0x1C78 DUP2 PUSH2 0x31D3 JUMP JUMPDEST SWAP2 POP POP PUSH2 0x1956 JUMP JUMPDEST POP POP POP SWAP1 JUMP JUMPDEST PUSH2 0x1C8E PUSH2 0x299E JUMP JUMPDEST PUSH1 0x5 PUSH1 0x0 DUP4 DUP2 MSTORE PUSH1 0x20 ADD SWAP1 DUP2 MSTORE PUSH1 0x20 ADD PUSH1 0x0 KECCAK256 PUSH1 0x40 MLOAD DUP1 PUSH2 0x160 ADD PUSH1 0x40 MSTORE SWAP1 DUP2 PUSH1 0x0 DUP3 ADD SLOAD DUP2 MSTORE PUSH1 0x20 ADD PUSH1 0x1 DUP3 ADD DUP1 SLOAD PUSH2 0x1CC7 SWAP1 PUSH2 0x31EC JUMP JUMPDEST DUP1 PUSH1 0x1F ADD PUSH1 0x20 DUP1 SWAP2 DIV MUL PUSH1 0x20 ADD PUSH1 0x40 MLOAD SWAP1 DUP2 ADD PUSH1 0x40 MSTORE DUP1 SWAP3 SWAP2 SWAP1 DUP2 DUP2 MSTORE PUSH1 0x20 ADD DUP3 DUP1 SLOAD PUSH2 0x1CF3 SWAP1 PUSH2 0x31EC JUMP JUMPDEST DUP1 ISZERO PUSH2 0x1D40 JUMPI DUP1 PUSH1 0x1F LT PUSH2 0x1D15 JUMPI PUSH2 0x100 DUP1 DUP4 SLOAD DIV MUL DUP4 MSTORE SWAP2 PUSH1 0x20 ADD SWAP2 PUSH2 0x1D40 JUMP JUMPDEST DUP3 ADD SWAP2 SWAP1 PUSH1 0x0 MSTORE PUSH1 0x20 PUSH1 0x0 KECCAK256 SWAP1 JUMPDEST DUP2 SLOAD DUP2 MSTORE SWAP1 PUSH1 0x1 ADD SWAP1 PUSH1 0x20 ADD DUP1 DUP4 GT PUSH2 0x1D23 JUMPI DUP3 SWAP1 SUB PUSH1 0x1F AND DUP3 ADD SWAP2 JUMPDEST POP POP POP POP POP DUP2 MSTORE PUSH1 0x20 ADD PUSH1 0x2 DUP3 ADD DUP1 SLOAD PUSH2 0x1D59 SWAP1 PUSH2 0x31EC JUMP JUMPDEST DUP1 PUSH1 0x1F ADD PUSH1 0x20 DUP1 SWAP2 DIV MUL PUSH1 0x20 ADD PUSH1 0x40 MLOAD SWAP1 DUP2 ADD PUSH1 0x40 MSTORE DUP1 SWAP3 SWAP2 SWAP1 DUP2 DUP2 MSTORE PUSH1 0x20 ADD DUP3 DUP1 SLOAD PUSH2 0x1D85 SWAP1 PUSH2 0x31EC JUMP JUMPDEST DUP1 ISZERO PUSH2 0x1DD2 JUMPI DUP1 PUSH1 0x1F LT PUSH2 0x1DA7 JUMPI PUSH2 0x100 DUP1 DUP4 SLOAD DIV MUL DUP4 MSTORE SWAP2 PUSH1 0x20 ADD SWAP2 PUSH2 0x1DD2 JUMP JUMPDEST DUP3 ADD SWAP2 SWAP1 PUSH1 0x0 MSTORE PUSH1 0x20 PUSH1 0x0 KECCAK256 SWAP1 JUMPDEST DUP2 SLOAD DUP2 MSTORE SWAP1 PUSH1 0x1 ADD SWAP1 PUSH1 0x20 ADD DUP1 DUP4 GT PUSH2 0x1DB5 JUMPI DUP3 SWAP1 SUB PUSH1 0x1F AND DUP3 ADD SWAP2 JUMPDEST POP POP POP POP POP DUP2 MSTORE PUSH1 0x20 ADD PUSH1 0x3 DUP3 ADD DUP1 SLOAD PUSH2 0x1DEB SWAP1 PUSH2 0x31EC JUMP JUMPDEST DUP1 PUSH1 0x1F ADD PUSH1 0x20 DUP1 SWAP2 DIV MUL PUSH1 0x20 ADD PUSH1 0x40 MLOAD SWAP1 DUP2 ADD PUSH1 0x40 MSTORE DUP1 SWAP3 SWAP2 SWAP1 DUP2 DUP2 MSTORE PUSH1 0x20 ADD DUP3 DUP1 SLOAD PUSH2 0x1E17 SWAP1 PUSH2 0x31EC JUMP JUMPDEST DUP1 ISZERO PUSH2 0x1E64 JUMPI DUP1 PUSH1 0x1F LT PUSH2 0x1E39 JUMPI PUSH2 0x100 DUP1 DUP4 SLOAD DIV MUL DUP4 MSTORE SWAP2 PUSH1 0x20 ADD SWAP2 PUSH2 0x1E64 JUMP JUMPDEST DUP3 ADD SWAP2 SWAP1 PUSH1 0x0 MSTORE PUSH1 0x20 PUSH1 0x0 KECCAK256 SWAP1 JUMPDEST DUP2 SLOAD DUP2 MSTORE SWAP1 PUSH1 0x1 ADD SWAP1 PUSH1 0x20 ADD DUP1 DUP4 GT PUSH2 0x1E47 JUMPI DUP3 SWAP1 SUB PUSH1 0x1F AND DUP3 ADD SWAP2 JUMPDEST POP POP POP POP POP DUP2 MSTORE PUSH1 0x20 ADD PUSH1 0x4 DUP3 ADD DUP1 SLOAD PUSH2 0x1E7D SWAP1 PUSH2 0x31EC JUMP JUMPDEST DUP1 PUSH1 0x1F ADD PUSH1 0x20 DUP1 SWAP2 DIV MUL PUSH1 0x20 ADD PUSH1 0x40 MLOAD SWAP1 DUP2 ADD PUSH1 0x40 MSTORE DUP1 SWAP3 SWAP2 SWAP1 DUP2 DUP2 MSTORE PUSH1 0x20 ADD DUP3 DUP1 SLOAD PUSH2 0x1EA9 SWAP1 PUSH2 0x31EC JUMP JUMPDEST DUP1 ISZERO PUSH2 0x1EF6 JUMPI DUP1 PUSH1 0x1F LT PUSH2 0x1ECB JUMPI PUSH2 0x100 DUP1 DUP4 SLOAD DIV MUL DUP4 MSTORE SWAP2 PUSH1 0x20 ADD SWAP2 PUSH2 0x1EF6 JUMP JUMPDEST DUP3 ADD SWAP2 SWAP1 PUSH1 0x0 MSTORE PUSH1 0x20 PUSH1 0x0 KECCAK256 SWAP1 JUMPDEST DUP2 SLOAD DUP2 MSTORE SWAP1 PUSH1 0x1 ADD SWAP1 PUSH1 0x20 ADD DUP1 DUP4 GT PUSH2 0x1ED9 JUMPI DUP3 SWAP1 SUB PUSH1 0x1F AND DUP3 ADD SWAP2 JUMPDEST POP POP POP SWAP2 DUP4 MSTORE POP POP PUSH1 0x5 DUP3 ADD SLOAD PUSH1 0x20 DUP3 ADD MSTORE PUSH1 0x6 DUP3 ADD SLOAD PUSH1 0x40 DUP3 ADD MSTORE PUSH1 0x7 DUP3 ADD SLOAD PUSH1 0x1 PUSH1 0x1 PUSH1 0xA0 SHL SUB DUP2 AND PUSH1 0x60 DUP4 ADD MSTORE PUSH1 0xFF PUSH1 0x1 PUSH1 0xA0 SHL DUP3 DIV DUP2 AND ISZERO ISZERO PUSH1 0x80 DUP5 ADD MSTORE PUSH1 0x1 PUSH1 0xA8 SHL SWAP1 SWAP2 DIV AND ISZERO ISZERO PUSH1 0xA0 DUP3 ADD MSTORE PUSH1 0x8 SWAP1 SWAP2 ADD SLOAD PUSH1 0xC0 SWAP1 SWAP2 ADD MSTORE SWAP3 SWAP2 POP POP JUMP JUMPDEST PUSH1 0x0 DUP7 MLOAD GT PUSH2 0x1FA2 JUMPI PUSH1 0x40 MLOAD PUSH3 0x461BCD PUSH1 0xE5 SHL DUP2 MSTORE PUSH1 0x20 PUSH1 0x4 DUP3 ADD MSTORE PUSH1 0x14 PUSH1 0x24 DUP3 ADD MSTORE PUSH20 0x4E616D652063616E6E6F7420626520656D707479 PUSH1 0x60 SHL PUSH1 0x44 DUP3 ADD MSTORE PUSH1 0x64 ADD PUSH2 0x52C JUMP JUMPDEST PUSH1 0x0 DUP6 MLOAD GT PUSH2 0x1FF3 JUMPI PUSH1 0x40 MLOAD PUSH3 0x461BCD PUSH1 0xE5 SHL DUP2 MSTORE PUSH1 0x20 PUSH1 0x4 DUP3 ADD MSTORE PUSH1 0x1B PUSH1 0x24 DUP3 ADD MSTORE PUSH32 0x4465736372697074696F6E2063616E6E6F7420626520656D7074790000000000 PUSH1 0x44 DUP3 ADD MSTORE PUSH1 0x64 ADD PUSH2 0x52C JUMP JUMPDEST PUSH1 0x0 DUP5 MLOAD GT PUSH2 0x203F JUMPI PUSH1 0x40 MLOAD PUSH3 0x461BCD PUSH1 0xE5 SHL DUP2 MSTORE PUSH1 0x20 PUSH1 0x4 DUP3 ADD MSTORE PUSH1 0x18 PUSH1 0x24 DUP3 ADD MSTORE PUSH24 0x4C6F636174696F6E2063616E6E6F7420626520656D707479 PUSH1 0x40 SHL PUSH1 0x44 DUP3 ADD MSTORE PUSH1 0x64 ADD PUSH2 0x52C JUMP JUMPDEST PUSH1 0x0 DUP4 MLOAD GT PUSH2 0x2089 JUMPI PUSH1 0x40 MLOAD PUSH3 0x461BCD PUSH1 0xE5 SHL DUP2 MSTORE PUSH1 0x20 PUSH1 0x4 DUP3 ADD MSTORE PUSH1 0x16 PUSH1 0x24 DUP3 ADD MSTORE PUSH22 0x496D616765732063616E6E6F7420626520656D707479 PUSH1 0x50 SHL PUSH1 0x44 DUP3 ADD MSTORE PUSH1 0x64 ADD PUSH2 0x52C JUMP JUMPDEST PUSH1 0x0 DUP3 GT PUSH2 0x20D0 JUMPI PUSH1 0x40 MLOAD PUSH3 0x461BCD PUSH1 0xE5 SHL DUP2 MSTORE PUSH1 0x20 PUSH1 0x4 DUP3 ADD MSTORE PUSH1 0x14 PUSH1 0x24 DUP3 ADD MSTORE PUSH20 0x526F6F6D732063616E6E6F74206265207A65726F PUSH1 0x60 SHL PUSH1 0x44 DUP3 ADD MSTORE PUSH1 0x64 ADD PUSH2 0x52C JUMP JUMPDEST PUSH1 0x0 DUP2 GT PUSH2 0x2117 JUMPI PUSH1 0x40 MLOAD PUSH3 0x461BCD PUSH1 0xE5 SHL DUP2 MSTORE PUSH1 0x20 PUSH1 0x4 DUP3 ADD MSTORE PUSH1 0x14 PUSH1 0x24 DUP3 ADD MSTORE PUSH20 0x50726963652063616E6E6F74206265207A65726F PUSH1 0x60 SHL PUSH1 0x44 DUP3 ADD MSTORE PUSH1 0x64 ADD PUSH2 0x52C JUMP JUMPDEST PUSH2 0x2125 PUSH1 0x2 DUP1 SLOAD PUSH1 0x1 ADD SWAP1 SSTORE JUMP JUMPDEST PUSH2 0x212D PUSH2 0x299E JUMP JUMPDEST PUSH1 0x2 SLOAD DUP2 MSTORE PUSH1 0x20 DUP2 ADD DUP8 SWAP1 MSTORE PUSH1 0x40 DUP2 ADD DUP7 SWAP1 MSTORE PUSH1 0x60 DUP2 ADD DUP6 SWAP1 MSTORE PUSH1 0x80 DUP2 ADD DUP5 SWAP1 MSTORE PUSH1 0xA0 DUP2 ADD DUP4 SWAP1 MSTORE PUSH1 0xC0 DUP2 ADD DUP3 SWAP1 MSTORE CALLER PUSH1 0xE0 DUP3 ADD MSTORE PUSH2 0x216A PUSH2 0x2778 JUMP JUMPDEST PUSH2 0x140 DUP3 ADD MSTORE DUP1 MLOAD PUSH1 0x0 SWAP1 DUP2 MSTORE PUSH1 0x8 PUSH1 0x20 SWAP1 DUP2 MSTORE PUSH1 0x40 DUP1 DUP4 KECCAK256 DUP1 SLOAD PUSH1 0xFF NOT AND PUSH1 0x1 SWAP1 DUP2 OR SWAP1 SWAP2 SSTORE DUP5 MLOAD DUP5 MSTORE PUSH1 0x5 DUP4 MSTORE SWAP3 KECCAK256 DUP4 MLOAD DUP2 SSTORE SWAP1 DUP4 ADD MLOAD DUP4 SWAP3 DUP3 ADD SWAP1 PUSH2 0x21B2 SWAP1 DUP3 PUSH2 0x3274 JUMP JUMPDEST POP PUSH1 0x40 DUP3 ADD MLOAD PUSH1 0x2 DUP3 ADD SWAP1 PUSH2 0x21C7 SWAP1 DUP3 PUSH2 0x3274 JUMP JUMPDEST POP PUSH1 0x60 DUP3 ADD MLOAD PUSH1 0x3 DUP3 ADD SWAP1 PUSH2 0x21DC SWAP1 DUP3 PUSH2 0x3274 JUMP JUMPDEST POP PUSH1 0x80 DUP3 ADD MLOAD PUSH1 0x4 DUP3 ADD SWAP1 PUSH2 0x21F1 SWAP1 DUP3 PUSH2 0x3274 JUMP JUMPDEST POP PUSH1 0xA0 DUP3 ADD MLOAD PUSH1 0x5 DUP3 ADD SSTORE PUSH1 0xC0 DUP3 ADD MLOAD PUSH1 0x6 DUP3 ADD SSTORE PUSH1 0xE0 DUP3 ADD MLOAD PUSH1 0x7 DUP3 ADD DUP1 SLOAD PUSH2 0x100 DUP6 ADD MLOAD PUSH2 0x120 DUP7 ADD MLOAD ISZERO ISZERO PUSH1 0x1 PUSH1 0xA8 SHL MUL PUSH1 0xFF PUSH1 0xA8 SHL NOT SWAP2 ISZERO ISZERO PUSH1 0x1 PUSH1 0xA0 SHL MUL PUSH1 0x1 PUSH1 0x1 PUSH1 0xA8 SHL SUB NOT SWAP1 SWAP4 AND PUSH1 0x1 PUSH1 0x1 PUSH1 0xA0 SHL SUB SWAP1 SWAP6 AND SWAP5 SWAP1 SWAP5 OR SWAP2 SWAP1 SWAP2 OR AND SWAP2 SWAP1 SWAP2 OR SWAP1 SSTORE PUSH2 0x140 SWAP1 SWAP2 ADD MLOAD PUSH1 0x8 SWAP1 SWAP2 ADD SSTORE POP POP POP POP POP POP POP JUMP JUMPDEST PUSH1 0x0 DUP2 DUP2 MSTORE PUSH1 0x9 PUSH1 0x20 SWAP1 DUP2 MSTORE PUSH1 0x40 SWAP2 DUP3 SWAP1 KECCAK256 DUP1 SLOAD DUP4 MLOAD DUP2 DUP5 MUL DUP2 ADD DUP5 ADD SWAP1 SWAP5 MSTORE DUP1 DUP5 MSTORE PUSH1 0x60 SWAP4 SWAP3 DUP4 ADD DUP3 DUP3 DUP1 ISZERO PUSH2 0x22C6 JUMPI PUSH1 0x20 MUL DUP3 ADD SWAP2 SWAP1 PUSH1 0x0 MSTORE PUSH1 0x20 PUSH1 0x0 KECCAK256 SWAP1 JUMPDEST DUP2 SLOAD DUP2 MSTORE PUSH1 0x20 ADD SWAP1 PUSH1 0x1 ADD SWAP1 DUP1 DUP4 GT PUSH2 0x22B2 JUMPI JUMPDEST POP POP POP POP POP SWAP1 POP SWAP2 SWAP1 POP JUMP JUMPDEST DUP1 MLOAD PUSH1 0x0 DUP4 DUP2 MSTORE PUSH1 0x5 PUSH1 0x20 MSTORE PUSH1 0x40 DUP2 KECCAK256 PUSH1 0x6 ADD SLOAD SWAP1 SWAP2 PUSH2 0x22F1 SWAP2 PUSH2 0x3187 JUMP JUMPDEST SWAP1 POP PUSH1 0x0 PUSH1 0x64 PUSH1 0x3 SLOAD DUP4 PUSH2 0x2305 SWAP2 SWAP1 PUSH2 0x3187 JUMP JUMPDEST PUSH2 0x230F SWAP2 SWAP1 PUSH2 0x319E JUMP JUMPDEST PUSH1 0x0 DUP6 DUP2 MSTORE PUSH1 0x8 PUSH1 0x20 MSTORE PUSH1 0x40 SWAP1 KECCAK256 SLOAD SWAP1 SWAP2 POP PUSH1 0xFF AND PUSH2 0x2367 JUMPI PUSH1 0x40 MLOAD PUSH3 0x461BCD PUSH1 0xE5 SHL DUP2 MSTORE PUSH1 0x20 PUSH1 0x4 DUP3 ADD MSTORE PUSH1 0x14 PUSH1 0x24 DUP3 ADD MSTORE PUSH20 0x41706172746D656E74206E6F7420666F756E6421 PUSH1 0x60 SHL PUSH1 0x44 DUP3 ADD MSTORE PUSH1 0x64 ADD PUSH2 0x52C JUMP JUMPDEST PUSH2 0x2371 DUP2 DUP4 PUSH2 0x334A JUMP JUMPDEST CALLVALUE LT ISZERO PUSH2 0x23B4 JUMPI PUSH1 0x40 MLOAD PUSH3 0x461BCD PUSH1 0xE5 SHL DUP2 MSTORE PUSH1 0x20 PUSH1 0x4 DUP3 ADD MSTORE PUSH1 0x11 PUSH1 0x24 DUP3 ADD MSTORE PUSH17 0x125B9CDD59999A58DA595B9D08199D5B99 PUSH1 0x7A SHL PUSH1 0x44 DUP3 ADD MSTORE PUSH1 0x64 ADD PUSH2 0x52C JUMP JUMPDEST PUSH2 0x23BE DUP5 DUP5 PUSH2 0x28A6 JUMP JUMPDEST PUSH2 0x240A JUMPI PUSH1 0x40 MLOAD PUSH3 0x461BCD PUSH1 0xE5 SHL DUP2 MSTORE PUSH1 0x20 PUSH1 0x4 DUP3 ADD MSTORE PUSH1 0x1F PUSH1 0x24 DUP3 ADD MSTORE PUSH32 0x4F6E65206F72206D6F7265206461746573206E6F7420617661696C61626C6500 PUSH1 0x44 DUP3 ADD MSTORE PUSH1 0x64 ADD PUSH2 0x52C JUMP JUMPDEST PUSH1 0x0 JUMPDEST DUP4 MLOAD DUP2 LT ISZERO PUSH2 0x25D4 JUMPI PUSH2 0x241E PUSH2 0x294A JUMP JUMPDEST PUSH1 0x0 DUP7 DUP2 MSTORE PUSH1 0x6 PUSH1 0x20 SWAP1 DUP2 MSTORE PUSH1 0x40 SWAP2 DUP3 SWAP1 KECCAK256 SLOAD DUP4 MSTORE DUP3 ADD DUP8 SWAP1 MSTORE CALLER SWAP1 DUP3 ADD MSTORE DUP5 MLOAD DUP6 SWAP1 DUP4 SWAP1 DUP2 LT PUSH2 0x2451 JUMPI PUSH2 0x2451 PUSH2 0x3102 JUMP JUMPDEST PUSH1 0x20 SWAP1 DUP2 MUL SWAP2 SWAP1 SWAP2 ADD DUP2 ADD MLOAD PUSH1 0x60 DUP4 ADD SWAP1 DUP2 MSTORE PUSH1 0x0 DUP9 DUP2 MSTORE PUSH1 0x5 DUP1 DUP5 MSTORE PUSH1 0x40 DUP1 DUP4 KECCAK256 PUSH1 0x6 SWAP1 DUP2 ADD SLOAD PUSH1 0x80 DUP9 ADD SWAP1 DUP2 MSTORE DUP13 DUP6 MSTORE DUP2 DUP8 MSTORE DUP3 DUP6 KECCAK256 DUP1 SLOAD PUSH1 0x1 DUP1 DUP3 ADD DUP4 SSTORE SWAP2 DUP8 MSTORE DUP9 DUP8 KECCAK256 DUP11 MLOAD SWAP2 SWAP1 SWAP5 MUL SWAP1 SWAP4 ADD SWAP3 DUP4 SSTORE DUP9 DUP9 ADD MLOAD SWAP1 DUP4 ADD SSTORE DUP3 DUP9 ADD MLOAD PUSH1 0x2 DUP4 ADD DUP1 SLOAD PUSH1 0x1 PUSH1 0x1 PUSH1 0xA0 SHL SUB NOT AND PUSH1 0x1 PUSH1 0x1 PUSH1 0xA0 SHL SUB SWAP1 SWAP3 AND SWAP2 SWAP1 SWAP2 OR SWAP1 SSTORE SWAP5 MLOAD PUSH1 0x3 DUP3 ADD SSTORE SWAP4 MLOAD PUSH1 0x4 DUP6 ADD SSTORE PUSH1 0xA0 DUP7 ADD MLOAD SWAP4 SWAP1 SWAP2 ADD DUP1 SLOAD PUSH1 0xC0 DUP8 ADD MLOAD PUSH1 0xE0 DUP9 ADD MLOAD PUSH2 0xFFFF NOT SWAP1 SWAP3 AND SWAP6 ISZERO ISZERO PUSH2 0xFF00 NOT AND SWAP6 SWAP1 SWAP6 OR PUSH2 0x100 SWAP6 ISZERO ISZERO SWAP6 SWAP1 SWAP6 MUL SWAP5 SWAP1 SWAP5 OR PUSH3 0xFF0000 NOT AND PUSH3 0x10000 SWAP5 ISZERO ISZERO SWAP5 SWAP1 SWAP5 MUL SWAP4 SWAP1 SWAP4 OR SWAP1 SWAP3 SSTORE DUP9 DUP2 MSTORE PUSH1 0x9 SWAP1 SWAP3 MSTORE SWAP1 KECCAK256 DUP6 MLOAD DUP7 SWAP1 DUP5 SWAP1 DUP2 LT PUSH2 0x254B JUMPI PUSH2 0x254B PUSH2 0x3102 JUMP JUMPDEST PUSH1 0x20 SWAP1 DUP2 MUL SWAP2 SWAP1 SWAP2 ADD DUP2 ADD MLOAD DUP3 SLOAD PUSH1 0x1 DUP2 DUP2 ADD DUP6 SSTORE PUSH1 0x0 SWAP5 DUP6 MSTORE DUP4 DUP6 KECCAK256 SWAP1 SWAP2 ADD SWAP2 SWAP1 SWAP2 SSTORE DUP9 DUP4 MSTORE PUSH1 0xA SWAP1 SWAP2 MSTORE PUSH1 0x40 DUP3 KECCAK256 DUP8 MLOAD SWAP2 SWAP3 SWAP1 SWAP2 DUP9 SWAP1 DUP7 SWAP1 DUP2 LT PUSH2 0x2593 JUMPI PUSH2 0x2593 PUSH2 0x3102 JUMP JUMPDEST PUSH1 0x20 MUL PUSH1 0x20 ADD ADD MLOAD DUP2 MSTORE PUSH1 0x20 ADD SWAP1 DUP2 MSTORE PUSH1 0x20 ADD PUSH1 0x0 KECCAK256 PUSH1 0x0 PUSH2 0x100 EXP DUP2 SLOAD DUP2 PUSH1 0xFF MUL NOT AND SWAP1 DUP4 ISZERO ISZERO MUL OR SWAP1 SSTORE POP POP DUP1 DUP1 PUSH2 0x25CC SWAP1 PUSH2 0x31D3 JUMP JUMPDEST SWAP2 POP POP PUSH2 0x240D JUMP JUMPDEST POP POP POP POP POP JUMP JUMPDEST PUSH2 0x25E3 PUSH2 0x27FC JUMP JUMPDEST PUSH1 0x1 PUSH1 0x1 PUSH1 0xA0 SHL SUB DUP2 AND PUSH2 0x2648 JUMPI PUSH1 0x40 MLOAD PUSH3 0x461BCD PUSH1 0xE5 SHL DUP2 MSTORE PUSH1 0x20 PUSH1 0x4 DUP3 ADD MSTORE PUSH1 0x26 PUSH1 0x24 DUP3 ADD MSTORE PUSH32 0x4F776E61626C653A206E6577206F776E657220697320746865207A65726F2061 PUSH1 0x44 DUP3 ADD MSTORE PUSH6 0x646472657373 PUSH1 0xD0 SHL PUSH1 0x64 DUP3 ADD MSTORE PUSH1 0x84 ADD PUSH2 0x52C JUMP JUMPDEST PUSH2 0x2651 DUP2 PUSH2 0x2856 JUMP JUMPDEST POP JUMP JUMPDEST PUSH1 0x60 PUSH1 0x6 PUSH1 0x0 DUP4 DUP2 MSTORE PUSH1 0x20 ADD SWAP1 DUP2 MSTORE PUSH1 0x20 ADD PUSH1 0x0 KECCAK256 DUP1 SLOAD DUP1 PUSH1 0x20 MUL PUSH1 0x20 ADD PUSH1 0x40 MLOAD SWAP1 DUP2 ADD PUSH1 0x40 MSTORE DUP1 SWAP3 SWAP2 SWAP1 DUP2 DUP2 MSTORE PUSH1 0x20 ADD PUSH1 0x0 SWAP1 JUMPDEST DUP3 DUP3 LT ISZERO PUSH2 0x18A0 JUMPI PUSH1 0x0 DUP5 DUP2 MSTORE PUSH1 0x20 SWAP1 DUP2 SWAP1 KECCAK256 PUSH1 0x40 DUP1 MLOAD PUSH2 0x100 DUP1 DUP3 ADD DUP4 MSTORE PUSH1 0x6 DUP8 MUL SWAP1 SWAP4 ADD DUP1 SLOAD DUP3 MSTORE PUSH1 0x1 DUP1 DUP3 ADD SLOAD DUP4 DUP8 ADD MSTORE PUSH1 0x2 DUP3 ADD SLOAD PUSH1 0x1 PUSH1 0x1 PUSH1 0xA0 SHL SUB AND SWAP4 DUP4 ADD SWAP4 SWAP1 SWAP4 MSTORE PUSH1 0x3 DUP2 ADD SLOAD PUSH1 0x60 DUP4 ADD MSTORE PUSH1 0x4 DUP2 ADD SLOAD PUSH1 0x80 DUP4 ADD MSTORE PUSH1 0x5 ADD SLOAD PUSH1 0xFF DUP1 DUP3 AND ISZERO ISZERO PUSH1 0xA0 DUP5 ADD MSTORE SWAP4 DUP2 DIV DUP5 AND ISZERO ISZERO PUSH1 0xC0 DUP4 ADD MSTORE PUSH3 0x10000 SWAP1 DIV SWAP1 SWAP3 AND ISZERO ISZERO PUSH1 0xE0 DUP4 ADD MSTORE SWAP1 DUP4 MSTORE SWAP1 SWAP3 ADD SWAP2 ADD PUSH2 0x2689 JUMP JUMPDEST PUSH1 0x2 PUSH1 0x1 SLOAD SUB PUSH2 0x2771 JUMPI PUSH1 0x40 MLOAD PUSH3 0x461BCD PUSH1 0xE5 SHL DUP2 MSTORE PUSH1 0x20 PUSH1 0x4 DUP3 ADD MSTORE PUSH1 0x1F PUSH1 0x24 DUP3 ADD MSTORE PUSH32 0x5265656E7472616E637947756172643A207265656E7472616E742063616C6C00 PUSH1 0x44 DUP3 ADD MSTORE PUSH1 0x64 ADD PUSH2 0x52C JUMP JUMPDEST PUSH1 0x2 PUSH1 0x1 SSTORE JUMP JUMPDEST PUSH1 0x0 PUSH2 0x2786 TIMESTAMP PUSH2 0x3E8 PUSH2 0x3187 JUMP JUMPDEST PUSH2 0x2792 SWAP1 PUSH2 0x3E8 PUSH2 0x334A JUMP JUMPDEST SWAP1 POP SWAP1 JUMP JUMPDEST PUSH1 0x0 DUP3 PUSH1 0x1 PUSH1 0x1 PUSH1 0xA0 SHL SUB AND DUP3 PUSH1 0x40 MLOAD PUSH1 0x0 PUSH1 0x40 MLOAD DUP1 DUP4 SUB DUP2 DUP6 DUP8 GAS CALL SWAP3 POP POP POP RETURNDATASIZE DUP1 PUSH1 0x0 DUP2 EQ PUSH2 0x27E4 JUMPI PUSH1 0x40 MLOAD SWAP2 POP PUSH1 0x1F NOT PUSH1 0x3F RETURNDATASIZE ADD AND DUP3 ADD PUSH1 0x40 MSTORE RETURNDATASIZE DUP3 MSTORE RETURNDATASIZE PUSH1 0x0 PUSH1 0x20 DUP5 ADD RETURNDATACOPY PUSH2 0x27E9 JUMP JUMPDEST PUSH1 0x60 SWAP2 POP JUMPDEST POP POP SWAP1 POP DUP1 PUSH2 0x27F7 JUMPI PUSH1 0x0 DUP1 REVERT JUMPDEST POP POP POP JUMP JUMPDEST PUSH1 0x0 SLOAD PUSH1 0x1 PUSH1 0x1 PUSH1 0xA0 SHL SUB AND CALLER EQ PUSH2 0x15DE JUMPI PUSH1 0x40 MLOAD PUSH3 0x461BCD PUSH1 0xE5 SHL DUP2 MSTORE PUSH1 0x20 PUSH1 0x4 DUP3 ADD DUP2 SWAP1 MSTORE PUSH1 0x24 DUP3 ADD MSTORE PUSH32 0x4F776E61626C653A2063616C6C6572206973206E6F7420746865206F776E6572 PUSH1 0x44 DUP3 ADD MSTORE PUSH1 0x64 ADD PUSH2 0x52C JUMP JUMPDEST PUSH1 0x0 DUP1 SLOAD PUSH1 0x1 PUSH1 0x1 PUSH1 0xA0 SHL SUB DUP4 DUP2 AND PUSH1 0x1 PUSH1 0x1 PUSH1 0xA0 SHL SUB NOT DUP4 AND DUP2 OR DUP5 SSTORE PUSH1 0x40 MLOAD SWAP2 SWAP1 SWAP3 AND SWAP3 DUP4 SWAP2 PUSH32 0x8BE0079C531659141344CD1FD0A4F28419497F9722A3DAAFE3B4186F6B6457E0 SWAP2 SWAP1 LOG3 POP POP JUMP JUMPDEST PUSH1 0x0 PUSH1 0x1 DUP2 JUMPDEST DUP4 MLOAD DUP2 LT ISZERO PUSH2 0x2942 JUMPI PUSH1 0x0 JUMPDEST PUSH1 0x0 DUP7 DUP2 MSTORE PUSH1 0x9 PUSH1 0x20 MSTORE PUSH1 0x40 SWAP1 KECCAK256 SLOAD DUP2 LT ISZERO PUSH2 0x292F JUMPI PUSH1 0x0 DUP7 DUP2 MSTORE PUSH1 0x9 PUSH1 0x20 MSTORE PUSH1 0x40 SWAP1 KECCAK256 DUP1 SLOAD DUP3 SWAP1 DUP2 LT PUSH2 0x28EE JUMPI PUSH2 0x28EE PUSH2 0x3102 JUMP JUMPDEST SWAP1 PUSH1 0x0 MSTORE PUSH1 0x20 PUSH1 0x0 KECCAK256 ADD SLOAD DUP6 DUP4 DUP2 MLOAD DUP2 LT PUSH2 0x290B JUMPI PUSH2 0x290B PUSH2 0x3102 JUMP JUMPDEST PUSH1 0x20 MUL PUSH1 0x20 ADD ADD MLOAD SUB PUSH2 0x291D JUMPI PUSH1 0x0 SWAP3 POP JUMPDEST DUP1 PUSH2 0x2927 DUP2 PUSH2 0x31D3 JUMP JUMPDEST SWAP2 POP POP PUSH2 0x28B8 JUMP JUMPDEST POP DUP1 PUSH2 0x293A DUP2 PUSH2 0x31D3 JUMP JUMPDEST SWAP2 POP POP PUSH2 0x28AC JUMP JUMPDEST POP SWAP4 SWAP3 POP POP POP JUMP JUMPDEST PUSH1 0x40 MLOAD DUP1 PUSH2 0x100 ADD PUSH1 0x40 MSTORE DUP1 PUSH1 0x0 DUP2 MSTORE PUSH1 0x20 ADD PUSH1 0x0 DUP2 MSTORE PUSH1 0x20 ADD PUSH1 0x0 PUSH1 0x1 PUSH1 0x1 PUSH1 0xA0 SHL SUB AND DUP2 MSTORE PUSH1 0x20 ADD PUSH1 0x0 DUP2 MSTORE PUSH1 0x20 ADD PUSH1 0x0 DUP2 MSTORE PUSH1 0x20 ADD PUSH1 0x0 ISZERO ISZERO DUP2 MSTORE PUSH1 0x20 ADD PUSH1 0x0 ISZERO ISZERO DUP2 MSTORE PUSH1 0x20 ADD PUSH1 0x0 ISZERO ISZERO DUP2 MSTORE POP SWAP1 JUMP JUMPDEST PUSH1 0x40 MLOAD DUP1 PUSH2 0x160 ADD PUSH1 0x40 MSTORE DUP1 PUSH1 0x0 DUP2 MSTORE PUSH1 0x20 ADD PUSH1 0x60 DUP2 MSTORE PUSH1 0x20 ADD PUSH1 0x60 DUP2 MSTORE PUSH1 0x20 ADD PUSH1 0x60 DUP2 MSTORE PUSH1 0x20 ADD PUSH1 0x60 DUP2 MSTORE PUSH1 0x20 ADD PUSH1 0x0 DUP2 MSTORE PUSH1 0x20 ADD PUSH1 0x0 DUP2 MSTORE PUSH1 0x20 ADD PUSH1 0x0 PUSH1 0x1 PUSH1 0x1 PUSH1 0xA0 SHL SUB AND DUP2 MSTORE PUSH1 0x20 ADD PUSH1 0x0 ISZERO ISZERO DUP2 MSTORE PUSH1 0x20 ADD PUSH1 0x0 ISZERO ISZERO DUP2 MSTORE PUSH1 0x20 ADD PUSH1 0x0 DUP2 MSTORE POP SWAP1 JUMP JUMPDEST PUSH1 0x0 DUP1 PUSH1 0x40 DUP4 DUP6 SUB SLT ISZERO PUSH2 0x2A18 JUMPI PUSH1 0x0 DUP1 REVERT JUMPDEST POP POP DUP1 CALLDATALOAD SWAP3 PUSH1 0x20 SWAP1 SWAP2 ADD CALLDATALOAD SWAP2 POP JUMP JUMPDEST PUSH1 0x0 PUSH1 0x20 DUP3 DUP5 SUB SLT ISZERO PUSH2 0x2A39 JUMPI PUSH1 0x0 DUP1 REVERT JUMPDEST POP CALLDATALOAD SWAP2 SWAP1 POP JUMP JUMPDEST PUSH1 0x20 DUP1 DUP3 MSTORE DUP3 MLOAD DUP3 DUP3 ADD DUP2 SWAP1 MSTORE PUSH1 0x0 SWAP2 SWAP1 DUP5 DUP3 ADD SWAP1 PUSH1 0x40 DUP6 ADD SWAP1 DUP5 JUMPDEST DUP2 DUP2 LT ISZERO PUSH2 0x2A81 JUMPI DUP4 MLOAD PUSH1 0x1 PUSH1 0x1 PUSH1 0xA0 SHL SUB AND DUP4 MSTORE SWAP3 DUP5 ADD SWAP3 SWAP2 DUP5 ADD SWAP2 PUSH1 0x1 ADD PUSH2 0x2A5C JUMP JUMPDEST POP SWAP1 SWAP7 SWAP6 POP POP POP POP POP POP JUMP JUMPDEST PUSH4 0x4E487B71 PUSH1 0xE0 SHL PUSH1 0x0 MSTORE PUSH1 0x41 PUSH1 0x4 MSTORE PUSH1 0x24 PUSH1 0x0 REVERT JUMPDEST PUSH1 0x40 MLOAD PUSH1 0x1F DUP3 ADD PUSH1 0x1F NOT AND DUP2 ADD PUSH8 0xFFFFFFFFFFFFFFFF DUP2 GT DUP3 DUP3 LT OR ISZERO PUSH2 0x2ACC JUMPI PUSH2 0x2ACC PUSH2 0x2A8D JUMP JUMPDEST PUSH1 0x40 MSTORE SWAP2 SWAP1 POP JUMP JUMPDEST PUSH1 0x0 DUP3 PUSH1 0x1F DUP4 ADD SLT PUSH2 0x2AE5 JUMPI PUSH1 0x0 DUP1 REVERT JUMPDEST DUP2 CALLDATALOAD PUSH8 0xFFFFFFFFFFFFFFFF DUP2 GT ISZERO PUSH2 0x2AFF JUMPI PUSH2 0x2AFF PUSH2 0x2A8D JUMP JUMPDEST PUSH2 0x2B12 PUSH1 0x1F DUP3 ADD PUSH1 0x1F NOT AND PUSH1 0x20 ADD PUSH2 0x2AA3 JUMP JUMPDEST DUP2 DUP2 MSTORE DUP5 PUSH1 0x20 DUP4 DUP7 ADD ADD GT ISZERO PUSH2 0x2B27 JUMPI PUSH1 0x0 DUP1 REVERT JUMPDEST DUP2 PUSH1 0x20 DUP6 ADD PUSH1 0x20 DUP4 ADD CALLDATACOPY PUSH1 0x0 SWAP2 DUP2 ADD PUSH1 0x20 ADD SWAP2 SWAP1 SWAP2 MSTORE SWAP4 SWAP3 POP POP POP JUMP JUMPDEST PUSH1 0x0 DUP1 PUSH1 0x0 DUP1 PUSH1 0x0 DUP1 PUSH1 0x0 PUSH1 0xE0 DUP9 DUP11 SUB SLT ISZERO PUSH2 0x2B5F JUMPI PUSH1 0x0 DUP1 REVERT JUMPDEST DUP8 CALLDATALOAD SWAP7 POP PUSH1 0x20 DUP9 ADD CALLDATALOAD PUSH8 0xFFFFFFFFFFFFFFFF DUP1 DUP3 GT ISZERO PUSH2 0x2B7E JUMPI PUSH1 0x0 DUP1 REVERT JUMPDEST PUSH2 0x2B8A DUP12 DUP4 DUP13 ADD PUSH2 0x2AD4 JUMP JUMPDEST SWAP8 POP PUSH1 0x40 DUP11 ADD CALLDATALOAD SWAP2 POP DUP1 DUP3 GT ISZERO PUSH2 0x2BA0 JUMPI PUSH1 0x0 DUP1 REVERT JUMPDEST PUSH2 0x2BAC DUP12 DUP4 DUP13 ADD PUSH2 0x2AD4 JUMP JUMPDEST SWAP7 POP PUSH1 0x60 DUP11 ADD CALLDATALOAD SWAP2 POP DUP1 DUP3 GT ISZERO PUSH2 0x2BC2 JUMPI PUSH1 0x0 DUP1 REVERT JUMPDEST PUSH2 0x2BCE DUP12 DUP4 DUP13 ADD PUSH2 0x2AD4 JUMP JUMPDEST SWAP6 POP PUSH1 0x80 DUP11 ADD CALLDATALOAD SWAP2 POP DUP1 DUP3 GT ISZERO PUSH2 0x2BE4 JUMPI PUSH1 0x0 DUP1 REVERT JUMPDEST POP PUSH2 0x2BF1 DUP11 DUP3 DUP12 ADD PUSH2 0x2AD4 JUMP JUMPDEST SWAP4 POP POP PUSH1 0xA0 DUP9 ADD CALLDATALOAD SWAP2 POP PUSH1 0xC0 DUP9 ADD CALLDATALOAD SWAP1 POP SWAP3 SWAP6 SWAP9 SWAP2 SWAP5 SWAP8 POP SWAP3 SWAP6 POP JUMP JUMPDEST DUP1 MLOAD DUP3 MSTORE PUSH1 0x20 DUP2 ADD MLOAD PUSH1 0x20 DUP4 ADD MSTORE PUSH1 0x1 DUP1 PUSH1 0xA0 SHL SUB PUSH1 0x40 DUP3 ADD MLOAD AND PUSH1 0x40 DUP4 ADD MSTORE PUSH1 0x60 DUP2 ADD MLOAD PUSH1 0x60 DUP4 ADD MSTORE PUSH1 0x80 DUP2 ADD MLOAD PUSH1 0x80 DUP4 ADD MSTORE PUSH1 0xA0 DUP2 ADD MLOAD ISZERO ISZERO PUSH1 0xA0 DUP4 ADD MSTORE PUSH1 0xC0 DUP2 ADD MLOAD ISZERO ISZERO PUSH1 0xC0 DUP4 ADD MSTORE PUSH1 0xE0 DUP2 ADD MLOAD ISZERO ISZERO PUSH1 0xE0 DUP4 ADD MSTORE POP POP JUMP JUMPDEST PUSH2 0x100 DUP2 ADD PUSH2 0xF46 DUP3 DUP5 PUSH2 0x2C0E JUMP JUMPDEST PUSH1 0x0 DUP1 PUSH1 0x40 DUP4 DUP6 SUB SLT ISZERO PUSH2 0x2C8C JUMPI PUSH1 0x0 DUP1 REVERT JUMPDEST DUP3 CALLDATALOAD SWAP2 POP PUSH1 0x20 DUP4 ADD CALLDATALOAD PUSH8 0xFFFFFFFFFFFFFFFF DUP2 GT ISZERO PUSH2 0x2CAA JUMPI PUSH1 0x0 DUP1 REVERT JUMPDEST PUSH2 0x2CB6 DUP6 DUP3 DUP7 ADD PUSH2 0x2AD4 JUMP JUMPDEST SWAP2 POP POP SWAP3 POP SWAP3 SWAP1 POP JUMP JUMPDEST PUSH1 0x0 DUP2 MLOAD DUP1 DUP5 MSTORE PUSH1 0x0 JUMPDEST DUP2 DUP2 LT ISZERO PUSH2 0x2CE6 JUMPI PUSH1 0x20 DUP2 DUP6 ADD DUP2 ADD MLOAD DUP7 DUP4 ADD DUP3 ADD MSTORE ADD PUSH2 0x2CCA JUMP JUMPDEST POP PUSH1 0x0 PUSH1 0x20 DUP3 DUP7 ADD ADD MSTORE PUSH1 0x20 PUSH1 0x1F NOT PUSH1 0x1F DUP4 ADD AND DUP6 ADD ADD SWAP2 POP POP SWAP3 SWAP2 POP POP JUMP JUMPDEST PUSH1 0x0 PUSH1 0x20 DUP1 DUP4 ADD DUP2 DUP5 MSTORE DUP1 DUP6 MLOAD DUP1 DUP4 MSTORE PUSH1 0x40 SWAP3 POP DUP3 DUP7 ADD SWAP2 POP DUP3 DUP2 PUSH1 0x5 SHL DUP8 ADD ADD DUP5 DUP9 ADD PUSH1 0x0 JUMPDEST DUP4 DUP2 LT ISZERO PUSH2 0x2D96 JUMPI PUSH1 0x3F NOT DUP10 DUP5 SUB ADD DUP6 MSTORE DUP2 MLOAD PUSH1 0xA0 DUP2 MLOAD DUP6 MSTORE DUP9 DUP3 ADD MLOAD DUP10 DUP7 ADD MSTORE DUP8 DUP3 ADD MLOAD DUP2 DUP10 DUP8 ADD MSTORE PUSH2 0x2D63 DUP3 DUP8 ADD DUP3 PUSH2 0x2CC0 JUMP JUMPDEST PUSH1 0x60 DUP5 DUP2 ADD MLOAD SWAP1 DUP9 ADD MSTORE PUSH1 0x80 SWAP4 DUP5 ADD MLOAD PUSH1 0x1 PUSH1 0x1 PUSH1 0xA0 SHL SUB AND SWAP4 SWAP1 SWAP7 ADD SWAP3 SWAP1 SWAP3 MSTORE POP POP SWAP4 DUP7 ADD SWAP4 SWAP1 DUP7 ADD SWAP1 PUSH1 0x1 ADD PUSH2 0x2D2D JUMP JUMPDEST POP SWAP1 SWAP9 SWAP8 POP POP POP POP POP POP POP POP JUMP JUMPDEST PUSH1 0x0 PUSH2 0x160 DUP3 MLOAD DUP5 MSTORE PUSH1 0x20 DUP4 ADD MLOAD DUP2 PUSH1 0x20 DUP7 ADD MSTORE PUSH2 0x2DC4 DUP3 DUP7 ADD DUP3 PUSH2 0x2CC0 JUMP JUMPDEST SWAP2 POP POP PUSH1 0x40 DUP4 ADD MLOAD DUP5 DUP3 SUB PUSH1 0x40 DUP7 ADD MSTORE PUSH2 0x2DDE DUP3 DUP3 PUSH2 0x2CC0 JUMP JUMPDEST SWAP2 POP POP PUSH1 0x60 DUP4 ADD MLOAD DUP5 DUP3 SUB PUSH1 0x60 DUP7 ADD MSTORE PUSH2 0x2DF8 DUP3 DUP3 PUSH2 0x2CC0 JUMP JUMPDEST SWAP2 POP POP PUSH1 0x80 DUP4 ADD MLOAD DUP5 DUP3 SUB PUSH1 0x80 DUP7 ADD MSTORE PUSH2 0x2E12 DUP3 DUP3 PUSH2 0x2CC0 JUMP JUMPDEST SWAP2 POP POP PUSH1 0xA0 DUP4 ADD MLOAD PUSH1 0xA0 DUP6 ADD MSTORE PUSH1 0xC0 DUP4 ADD MLOAD PUSH1 0xC0 DUP6 ADD MSTORE PUSH1 0xE0 DUP4 ADD MLOAD PUSH2 0x2E43 PUSH1 0xE0 DUP7 ADD DUP3 PUSH1 0x1 PUSH1 0x1 PUSH1 0xA0 SHL SUB AND SWAP1 MSTORE JUMP JUMPDEST POP PUSH2 0x100 DUP4 DUP2 ADD MLOAD ISZERO ISZERO SWAP1 DUP6 ADD MSTORE PUSH2 0x120 DUP1 DUP5 ADD MLOAD ISZERO ISZERO SWAP1 DUP6 ADD MSTORE PUSH2 0x140 SWAP3 DUP4 ADD MLOAD SWAP3 SWAP1 SWAP4 ADD SWAP2 SWAP1 SWAP2 MSTORE POP SWAP1 JUMP JUMPDEST PUSH1 0x0 PUSH1 0x20 DUP1 DUP4 ADD DUP2 DUP5 MSTORE DUP1 DUP6 MLOAD DUP1 DUP4 MSTORE PUSH1 0x40 DUP7 ADD SWAP2 POP PUSH1 0x40 DUP2 PUSH1 0x5 SHL DUP8 ADD ADD SWAP3 POP DUP4 DUP8 ADD PUSH1 0x0 JUMPDEST DUP3 DUP2 LT ISZERO PUSH2 0x2EC6 JUMPI PUSH1 0x3F NOT DUP9 DUP7 SUB ADD DUP5 MSTORE PUSH2 0x2EB4 DUP6 DUP4 MLOAD PUSH2 0x2DA4 JUMP JUMPDEST SWAP5 POP SWAP3 DUP6 ADD SWAP3 SWAP1 DUP6 ADD SWAP1 PUSH1 0x1 ADD PUSH2 0x2E98 JUMP JUMPDEST POP SWAP3 SWAP8 SWAP7 POP POP POP POP POP POP POP JUMP JUMPDEST PUSH1 0x20 DUP2 MSTORE PUSH1 0x0 PUSH2 0x2EE6 PUSH1 0x20 DUP4 ADD DUP5 PUSH2 0x2DA4 JUMP JUMPDEST SWAP4 SWAP3 POP POP POP JUMP JUMPDEST PUSH1 0x0 DUP1 PUSH1 0x0 DUP1 PUSH1 0x0 DUP1 PUSH1 0xC0 DUP8 DUP10 SUB SLT ISZERO PUSH2 0x2F06 JUMPI PUSH1 0x0 DUP1 REVERT JUMPDEST DUP7 CALLDATALOAD PUSH8 0xFFFFFFFFFFFFFFFF DUP1 DUP3 GT ISZERO PUSH2 0x2F1E JUMPI PUSH1 0x0 DUP1 REVERT JUMPDEST PUSH2 0x2F2A DUP11 DUP4 DUP12 ADD PUSH2 0x2AD4 JUMP JUMPDEST SWAP8 POP PUSH1 0x20 DUP10 ADD CALLDATALOAD SWAP2 POP DUP1 DUP3 GT ISZERO PUSH2 0x2F40 JUMPI PUSH1 0x0 DUP1 REVERT JUMPDEST PUSH2 0x2F4C DUP11 DUP4 DUP12 ADD PUSH2 0x2AD4 JUMP JUMPDEST SWAP7 POP PUSH1 0x40 DUP10 ADD CALLDATALOAD SWAP2 POP DUP1 DUP3 GT ISZERO PUSH2 0x2F62 JUMPI PUSH1 0x0 DUP1 REVERT JUMPDEST PUSH2 0x2F6E DUP11 DUP4 DUP12 ADD PUSH2 0x2AD4 JUMP JUMPDEST SWAP6 POP PUSH1 0x60 DUP10 ADD CALLDATALOAD SWAP2 POP DUP1 DUP3 GT ISZERO PUSH2 0x2F84 JUMPI PUSH1 0x0 DUP1 REVERT JUMPDEST POP PUSH2 0x2F91 DUP10 DUP3 DUP11 ADD PUSH2 0x2AD4 JUMP JUMPDEST SWAP4 POP POP PUSH1 0x80 DUP8 ADD CALLDATALOAD SWAP2 POP PUSH1 0xA0 DUP8 ADD CALLDATALOAD SWAP1 POP SWAP3 SWAP6 POP SWAP3 SWAP6 POP SWAP3 SWAP6 JUMP JUMPDEST PUSH1 0x20 DUP1 DUP3 MSTORE DUP3 MLOAD DUP3 DUP3 ADD DUP2 SWAP1 MSTORE PUSH1 0x0 SWAP2 SWAP1 DUP5 DUP3 ADD SWAP1 PUSH1 0x40 DUP6 ADD SWAP1 DUP5 JUMPDEST DUP2 DUP2 LT ISZERO PUSH2 0x2A81 JUMPI DUP4 MLOAD DUP4 MSTORE SWAP3 DUP5 ADD SWAP3 SWAP2 DUP5 ADD SWAP2 PUSH1 0x1 ADD PUSH2 0x2FC8 JUMP JUMPDEST PUSH1 0x0 DUP1 PUSH1 0x40 DUP4 DUP6 SUB SLT ISZERO PUSH2 0x2FF7 JUMPI PUSH1 0x0 DUP1 REVERT JUMPDEST DUP3 CALLDATALOAD SWAP2 POP PUSH1 0x20 DUP1 DUP5 ADD CALLDATALOAD PUSH8 0xFFFFFFFFFFFFFFFF DUP1 DUP3 GT ISZERO PUSH2 0x3017 JUMPI PUSH1 0x0 DUP1 REVERT JUMPDEST DUP2 DUP7 ADD SWAP2 POP DUP7 PUSH1 0x1F DUP4 ADD SLT PUSH2 0x302B JUMPI PUSH1 0x0 DUP1 REVERT JUMPDEST DUP2 CALLDATALOAD DUP2 DUP2 GT ISZERO PUSH2 0x303D JUMPI PUSH2 0x303D PUSH2 0x2A8D JUMP JUMPDEST DUP1 PUSH1 0x5 SHL SWAP2 POP PUSH2 0x304E DUP5 DUP4 ADD PUSH2 0x2AA3 JUMP JUMPDEST DUP2 DUP2 MSTORE SWAP2 DUP4 ADD DUP5 ADD SWAP2 DUP5 DUP2 ADD SWAP1 DUP10 DUP5 GT ISZERO PUSH2 0x3068 JUMPI PUSH1 0x0 DUP1 REVERT JUMPDEST SWAP4 DUP6 ADD SWAP4 JUMPDEST DUP4 DUP6 LT ISZERO PUSH2 0x3086 JUMPI DUP5 CALLDATALOAD DUP3 MSTORE SWAP4 DUP6 ADD SWAP4 SWAP1 DUP6 ADD SWAP1 PUSH2 0x306D JUMP JUMPDEST DUP1 SWAP7 POP POP POP POP POP POP POP SWAP3 POP SWAP3 SWAP1 POP JUMP JUMPDEST PUSH1 0x0 PUSH1 0x20 DUP3 DUP5 SUB SLT ISZERO PUSH2 0x30A8 JUMPI PUSH1 0x0 DUP1 REVERT JUMPDEST DUP2 CALLDATALOAD PUSH1 0x1 PUSH1 0x1 PUSH1 0xA0 SHL SUB DUP2 AND DUP2 EQ PUSH2 0x2EE6 JUMPI PUSH1 0x0 DUP1 REVERT JUMPDEST PUSH1 0x20 DUP1 DUP3 MSTORE DUP3 MLOAD DUP3 DUP3 ADD DUP2 SWAP1 MSTORE PUSH1 0x0 SWAP2 SWAP1 DUP5 DUP3 ADD SWAP1 PUSH1 0x40 DUP6 ADD SWAP1 DUP5 JUMPDEST DUP2 DUP2 LT ISZERO PUSH2 0x2A81 JUMPI PUSH2 0x30EE DUP4 DUP6 MLOAD PUSH2 0x2C0E JUMP JUMPDEST SWAP3 DUP5 ADD SWAP3 PUSH2 0x100 SWAP3 SWAP1 SWAP3 ADD SWAP2 PUSH1 0x1 ADD PUSH2 0x30DB JUMP JUMPDEST PUSH4 0x4E487B71 PUSH1 0xE0 SHL PUSH1 0x0 MSTORE PUSH1 0x32 PUSH1 0x4 MSTORE PUSH1 0x24 PUSH1 0x0 REVERT JUMPDEST PUSH1 0x20 DUP1 DUP3 MSTORE PUSH1 0x13 SWAP1 DUP3 ADD MSTORE PUSH19 0x556E617574686F72697A656420656E74697479 PUSH1 0x68 SHL PUSH1 0x40 DUP3 ADD MSTORE PUSH1 0x60 ADD SWAP1 JUMP JUMPDEST PUSH1 0x20 DUP1 DUP3 MSTORE PUSH1 0x12 SWAP1 DUP3 ADD MSTORE PUSH18 0x20B63932B0B23C9031B432B1B5B2B21034B7 PUSH1 0x71 SHL PUSH1 0x40 DUP3 ADD MSTORE PUSH1 0x60 ADD SWAP1 JUMP JUMPDEST PUSH4 0x4E487B71 PUSH1 0xE0 SHL PUSH1 0x0 MSTORE PUSH1 0x11 PUSH1 0x4 MSTORE PUSH1 0x24 PUSH1 0x0 REVERT JUMPDEST DUP1 DUP3 MUL DUP2 ISZERO DUP3 DUP3 DIV DUP5 EQ OR PUSH2 0xF46 JUMPI PUSH2 0xF46 PUSH2 0x3171 JUMP JUMPDEST PUSH1 0x0 DUP3 PUSH2 0x31BB JUMPI PUSH4 0x4E487B71 PUSH1 0xE0 SHL PUSH1 0x0 MSTORE PUSH1 0x12 PUSH1 0x4 MSTORE PUSH1 0x24 PUSH1 0x0 REVERT JUMPDEST POP DIV SWAP1 JUMP JUMPDEST DUP2 DUP2 SUB DUP2 DUP2 GT ISZERO PUSH2 0xF46 JUMPI PUSH2 0xF46 PUSH2 0x3171 JUMP JUMPDEST PUSH1 0x0 PUSH1 0x1 DUP3 ADD PUSH2 0x31E5 JUMPI PUSH2 0x31E5 PUSH2 0x3171 JUMP JUMPDEST POP PUSH1 0x1 ADD SWAP1 JUMP JUMPDEST PUSH1 0x1 DUP2 DUP2 SHR SWAP1 DUP3 AND DUP1 PUSH2 0x3200 JUMPI PUSH1 0x7F DUP3 AND SWAP2 POP JUMPDEST PUSH1 0x20 DUP3 LT DUP2 SUB PUSH2 0x3220 JUMPI PUSH4 0x4E487B71 PUSH1 0xE0 SHL PUSH1 0x0 MSTORE PUSH1 0x22 PUSH1 0x4 MSTORE PUSH1 0x24 PUSH1 0x0 REVERT JUMPDEST POP SWAP2 SWAP1 POP JUMP JUMPDEST PUSH1 0x1F DUP3 GT ISZERO PUSH2 0x27F7 JUMPI PUSH1 0x0 DUP2 DUP2 MSTORE PUSH1 0x20 DUP2 KECCAK256 PUSH1 0x1F DUP6 ADD PUSH1 0x5 SHR DUP2 ADD PUSH1 0x20 DUP7 LT ISZERO PUSH2 0x324D JUMPI POP DUP1 JUMPDEST PUSH1 0x1F DUP6 ADD PUSH1 0x5 SHR DUP3 ADD SWAP2 POP JUMPDEST DUP2 DUP2 LT ISZERO PUSH2 0x326C JUMPI DUP3 DUP2 SSTORE PUSH1 0x1 ADD PUSH2 0x3259 JUMP JUMPDEST POP POP POP POP POP POP JUMP JUMPDEST DUP2 MLOAD PUSH8 0xFFFFFFFFFFFFFFFF DUP2 GT ISZERO PUSH2 0x328E JUMPI PUSH2 0x328E PUSH2 0x2A8D JUMP JUMPDEST PUSH2 0x32A2 DUP2 PUSH2 0x329C DUP5 SLOAD PUSH2 0x31EC JUMP JUMPDEST DUP5 PUSH2 0x3226 JUMP JUMPDEST PUSH1 0x20 DUP1 PUSH1 0x1F DUP4 GT PUSH1 0x1 DUP2 EQ PUSH2 0x32D7 JUMPI PUSH1 0x0 DUP5 ISZERO PUSH2 0x32BF JUMPI POP DUP6 DUP4 ADD MLOAD JUMPDEST PUSH1 0x0 NOT PUSH1 0x3 DUP7 SWAP1 SHL SHR NOT AND PUSH1 0x1 DUP6 SWAP1 SHL OR DUP6 SSTORE PUSH2 0x326C JUMP JUMPDEST PUSH1 0x0 DUP6 DUP2 MSTORE PUSH1 0x20 DUP2 KECCAK256 PUSH1 0x1F NOT DUP7 AND SWAP2 JUMPDEST DUP3 DUP2 LT ISZERO PUSH2 0x3306 JUMPI DUP9 DUP7 ADD MLOAD DUP3 SSTORE SWAP5 DUP5 ADD SWAP5 PUSH1 0x1 SWAP1 SWAP2 ADD SWAP1 DUP5 ADD PUSH2 0x32E7 JUMP JUMPDEST POP DUP6 DUP3 LT ISZERO PUSH2 0x3324 JUMPI DUP8 DUP6 ADD MLOAD PUSH1 0x0 NOT PUSH1 0x3 DUP9 SWAP1 SHL PUSH1 0xF8 AND SHR NOT AND DUP2 SSTORE JUMPDEST POP POP POP POP POP PUSH1 0x1 SWAP1 DUP2 SHL ADD SWAP1 SSTORE POP JUMP JUMPDEST PUSH4 0x4E487B71 PUSH1 0xE0 SHL PUSH1 0x0 MSTORE PUSH1 0x31 PUSH1 0x4 MSTORE PUSH1 0x24 PUSH1 0x0 REVERT JUMPDEST DUP1 DUP3 ADD DUP1 DUP3 GT ISZERO PUSH2 0xF46 JUMPI PUSH2 0xF46 PUSH2 0x3171 JUMP INVALID LOG2 PUSH5 0x6970667358 0x22 SLT KECCAK256 BYTE 0x24 0xE4 PUSH23 0x992F9B2207FF9BF7ACD32844B46485A5DFB4A0134DE26C PUSH7 0xC930368064736F PUSH13 0x63430008130033000000000000 "},"methodIdentifiers":{"addReview(uint256,string)":"5bb0c5d6","bookApartment(uint256,uint256[])":"df6e0222","checkInApartment(uint256,uint256)":"78419f61","claimFunds(uint256,uint256)":"010b58ee","createApartment(string,string,string,string,uint256,uint256)":"c788d6de","deleteApartment(uint256)":"55c3fbfb","getApartment(uint256)":"c4452e06","getApartments()":"b1c98099","getBooking(uint256,uint256)":"455b3070","getBookings(uint256)":"f4010995","getQualifiedReviewers(uint256)":"0bb9ce33","getReviews(uint256)":"9d4a2255","getUnavailableDates(uint256)":"db2f80b7","owner()":"8da5cb5b","refundBooking(uint256,uint256)":"67626e5d","renounceOwnership()":"715018a6","securityFee()":"d68e1302","taxPercent()":"7541f41c","tenantBooked(uint256)":"9f31a2be","transferOwnership(address)":"f2fde38b","updateApartment(uint256,string,string,string,string,uint256,uint256)":"27c71c73"}}}}}