{"contracts/DappBnb.sol":{"DappBnb":{"abi":[{"inputs":[{"internalType":"uint256","name":"_taxPercent","type":"uint256"},{"internalType":"uint256","name":"_securityFee","type":"uint256"}],"stateMutability":"nonpayable","type":"constructor"},{"anonymous":false,"inputs":[{"indexed":true,"internalType":"address","name":"previousOwner","type":"address"},{"indexed":true,"internalType":"address","name":"newOwner","type":"address"}],"name":"OwnershipTransferred","type":"event"},{"inputs":[{"internalType":"uint256","name":"aid","type":"uint256"},{"internalType":"string","name":"reviewText","type":"string"}],"name":"addReview","outputs":[],"stateMutability":"nonpayable","type":"function"},{"inputs":[{"internalType":"uint256","name":"aid","type":"uint256"},{"internalType":"uint256[]","name":"dates","type":"uint256[]"}],"name":"bookApartment","outputs":[],"stateMutability":"payable","type":"function"},{"inputs":[{"internalType":"uint256","name":"aid","type":"uint256"},{"internalType":"uint256","name":"bookingId","type":"uint256"}],"name":"checkInApartment","outputs":[],"stateMutability":"nonpayable","type":"function"},{"inputs":[{"internalType":"uint256","name":"aid","type":"uint256"},{"internalType":"uint256","name":"bookingId","type":"uint256"}],"name":"claimFunds","outputs":[],"stateMutability":"nonpayable","type":"function"},{"inputs":[{"internalType":"string","name":"name","type":"string"},{"internalType":"string","name":"description","type":"string"},{"internalType":"string","name":"location","type":"string"},{"internalType":"string","name":"images","type":"string"},{"internalType":"uint256","name":"rooms","type":"uint256"},{"internalType":"uint256","name":"price","type":"uint256"}],"name":"createAppartment","outputs":[],"stateMutability":"nonpayable","type":"function"},{"inputs":[{"internalType":"uint256","name":"id","type":"uint256"}],"name":"deleteAppartment","outputs":[],"stateMutability":"nonpayable","type":"function"},{"inputs":[{"internalType":"uint256","name":"id","type":"uint256"}],"name":"getApartment","outputs":[{"components":[{"internalType":"uint256","name":"id","type":"uint256"},{"internalType":"string","name":"name","type":"string"},{"internalType":"string","name":"description","type":"string"},{"internalType":"string","name":"location","type":"string"},{"internalType":"string","name":"images","type":"string"},{"internalType":"uint256","name":"rooms","type":"uint256"},{"internalType":"uint256","name":"price","type":"uint256"},{"internalType":"address","name":"owner","type":"address"},{"internalType":"bool","name":"booked","type":"bool"},{"internalType":"bool","name":"deleted","type":"bool"},{"internalType":"uint256","name":"timestamp","type":"uint256"}],"internalType":"struct DappBnb.ApartmentStruct","name":"","type":"tuple"}],"stateMutability":"view","type":"function"},{"inputs":[],"name":"getApartments","outputs":[{"components":[{"internalType":"uint256","name":"id","type":"uint256"},{"internalType":"string","name":"name","type":"string"},{"internalType":"string","name":"description","type":"string"},{"internalType":"string","name":"location","type":"string"},{"internalType":"string","name":"images","type":"string"},{"internalType":"uint256","name":"rooms","type":"uint256"},{"internalType":"uint256","name":"price","type":"uint256"},{"internalType":"address","name":"owner","type":"address"},{"internalType":"bool","name":"booked","type":"bool"},{"internalType":"bool","name":"deleted","type":"bool"},{"internalType":"uint256","name":"timestamp","type":"uint256"}],"internalType":"struct DappBnb.ApartmentStruct[]","name":"Apartments","type":"tuple[]"}],"stateMutability":"view","type":"function"},{"inputs":[{"internalType":"uint256","name":"aid","type":"uint256"},{"internalType":"uint256","name":"bookingId","type":"uint256"}],"name":"getBooking","outputs":[{"components":[{"internalType":"uint256","name":"id","type":"uint256"},{"internalType":"uint256","name":"aid","type":"uint256"},{"internalType":"address","name":"tenant","type":"address"},{"internalType":"uint256","name":"date","type":"uint256"},{"internalType":"uint256","name":"price","type":"uint256"},{"internalType":"bool","name":"checked","type":"bool"},{"internalType":"bool","name":"cancelled","type":"bool"}],"internalType":"struct DappBnb.BookingStruct","name":"","type":"tuple"}],"stateMutability":"view","type":"function"},{"inputs":[{"internalType":"uint256","name":"aid","type":"uint256"}],"name":"getBookings","outputs":[{"components":[{"internalType":"uint256","name":"id","type":"uint256"},{"internalType":"uint256","name":"aid","type":"uint256"},{"internalType":"address","name":"tenant","type":"address"},{"internalType":"uint256","name":"date","type":"uint256"},{"internalType":"uint256","name":"price","type":"uint256"},{"internalType":"bool","name":"checked","type":"bool"},{"internalType":"bool","name":"cancelled","type":"bool"}],"internalType":"struct DappBnb.BookingStruct[]","name":"","type":"tuple[]"}],"stateMutability":"view","type":"function"},{"inputs":[{"internalType":"uint256","name":"aid","type":"uint256"}],"name":"getQualifiedReviewers","outputs":[{"internalType":"address[]","name":"Tenants","type":"address[]"}],"stateMutability":"view","type":"function"},{"inputs":[{"internalType":"uint256","name":"aid","type":"uint256"}],"name":"getReviews","outputs":[{"components":[{"internalType":"uint256","name":"id","type":"uint256"},{"internalType":"uint256","name":"aid","type":"uint256"},{"internalType":"string","name":"reviewText","type":"string"},{"internalType":"uint256","name":"timestamp","type":"uint256"},{"internalType":"address","name":"owner","type":"address"}],"internalType":"struct DappBnb.ReviewStruct[]","name":"","type":"tuple[]"}],"stateMutability":"view","type":"function"},{"inputs":[{"internalType":"uint256","name":"aid","type":"uint256"}],"name":"getUnavailableDates","outputs":[{"internalType":"uint256[]","name":"","type":"uint256[]"}],"stateMutability":"view","type":"function"},{"inputs":[],"name":"owner","outputs":[{"internalType":"address","name":"","type":"address"}],"stateMutability":"view","type":"function"},{"inputs":[{"internalType":"uint256","name":"aid","type":"uint256"},{"internalType":"uint256","name":"bookingId","type":"uint256"}],"name":"refundBooking","outputs":[],"stateMutability":"nonpayable","type":"function"},{"inputs":[],"name":"renounceOwnership","outputs":[],"stateMutability":"nonpayable","type":"function"},{"inputs":[],"name":"securityFee","outputs":[{"internalType":"uint256","name":"","type":"uint256"}],"stateMutability":"view","type":"function"},{"inputs":[],"name":"taxPercent","outputs":[{"internalType":"uint256","name":"","type":"uint256"}],"stateMutability":"view","type":"function"},{"inputs":[{"internalType":"uint256","name":"appartmentId","type":"uint256"}],"name":"tenantBooked","outputs":[{"internalType":"bool","name":"","type":"bool"}],"stateMutability":"view","type":"function"},{"inputs":[{"internalType":"address","name":"newOwner","type":"address"}],"name":"transferOwnership","outputs":[],"stateMutability":"nonpayable","type":"function"},{"inputs":[{"internalType":"uint256","name":"id","type":"uint256"},{"internalType":"string","name":"name","type":"string"},{"internalType":"string","name":"description","type":"string"},{"internalType":"string","name":"location","type":"string"},{"internalType":"string","name":"images","type":"string"},{"internalType":"uint256","name":"rooms","type":"uint256"},{"internalType":"uint256","name":"price","type":"uint256"}],"name":"updateAppartment","outputs":[],"stateMutability":"nonpayable","type":"function"}],"evm":{"bytecode":{"linkReferences":{},"object":"60806040523480156200001157600080fd5b50604051620033e7380380620033e78339810160408190526200003491620000a2565b6200003f3362000052565b60018055600491909155600355620000c7565b600080546001600160a01b038381166001600160a01b0319831681178455604051919092169283917f8be0079c531659141344cd1fd0a4f28419497f9722a3daafe3b4186f6b6457e09190a35050565b60008060408385031215620000b657600080fd5b505080516020909101519092909150565b61331080620000d76000396000f3fe60806040526004361061012a5760003560e01c80639f31a2be116100ab578063d68e13021161006f578063d68e13021461037c578063db2f80b714610392578063dec30d39146103bf578063df6e0222146103df578063f2fde38b146103f2578063f40109951461041257600080fd5b80639f31a2be146102a2578063b1c98099146102ed578063bdfdee761461030f578063c4452e061461032f578063d57a7b541461035c57600080fd5b8063715018a6116100f2578063715018a6146101f45780637541f41c1461020957806378419f611461022d5780638da5cb5b1461024d5780639d4a22551461027557600080fd5b8063010b58ee1461012f5780630bb9ce3314610151578063455b3070146101875780635bb0c5d6146101b457806367626e5d146101d4575b600080fd5b34801561013b57600080fd5b5061014f61014a3660046129a4565b61043f565b005b34801561015d57600080fd5b5061017161016c3660046129c6565b6105a5565b60405161017e91906129df565b60405180910390f35b34801561019357600080fd5b506101a76101a23660046129a4565b61074e565b60405161017e9190612a7a565b3480156101c057600080fd5b5061014f6101cf366004612b3f565b6107f2565b3480156101e057600080fd5b5061014f6101ef3660046129a4565b6109fd565b34801561020057600080fd5b5061014f610db2565b34801561021557600080fd5b5061021f60045481565b60405190815260200161017e565b34801561023957600080fd5b5061014f6102483660046129a4565b610dc6565b34801561025957600080fd5b506000546040516001600160a01b03909116815260200161017e565b34801561028157600080fd5b506102956102903660046129c6565b610fcb565b60405161017e9190612bcc565b3480156102ae57600080fd5b506102dd6102bd3660046129c6565b336000908152600b60209081526040808320938352929052205460ff1690565b604051901515815260200161017e565b3480156102f957600080fd5b50610302611106565b60405161017e9190612d37565b34801561031b57600080fd5b5061014f61032a366004612d99565b6114e1565b34801561033b57600080fd5b5061034f61034a3660046129c6565b611b4f565b60405161017e9190612e63565b34801561036857600080fd5b5061014f610377366004612e7d565b611e23565b34801561038857600080fd5b5061021f60035481565b34801561039e57600080fd5b506103b26103ad3660046129c6565b612148565b60405161017e9190612f3c565b3480156103cb57600080fd5b5061014f6103da3660046129c6565b6121aa565b61014f6103ed366004612f74565b612299565b3480156103fe57600080fd5b5061014f61040d366004613026565b612599565b34801561041e57600080fd5b5061043261042d3660046129c6565b612612565b60405161017e919061304f565b6000828152600560205260409020600701546001600160a01b031633146104a35760405162461bcd60e51b8152602060048201526013602482015272556e617574686f72697a656420656e7469747960681b60448201526064015b60405180910390fd5b60008281526006602052604090208054829081106104c3576104c3613091565b600091825260209091206005600690920201015460ff16156104f75760405162461bcd60e51b815260040161049a906130a7565b600082815260066020526040812080548390811061051757610517613091565b9060005260206000209060060201600401549050600060646004548361053d9190613104565b610547919061311b565b600085815260056020526040902060070154909150610578906001600160a01b0316610573838561313d565b6126cd565b61059361058d6000546001600160a01b031690565b826126cd565b61059f336003546126cd565b50505050565b60606000805b60008481526006602052604090205481101561061d5760008481526006602052604090208054829081106105e1576105e1613091565b600091825260209091206005600690920201015460ff161561060b578161060781613150565b9250505b8061061581613150565b9150506105ab565b508067ffffffffffffffff81111561063757610637612a88565b604051908082528060200260200182016040528015610660578160200160208202803683370190505b5091506000805b60008581526006602052604090205481101561074657600085815260066020526040902080548290811061069d5761069d613091565b600091825260209091206005600690920201015460ff16156107345760008581526006602052604090208054829081106106d9576106d9613091565b60009182526020909120600260069092020101546001600160a01b0316848361070181613150565b94508151811061071357610713613091565b60200260200101906001600160a01b031690816001600160a01b0316815250505b8061073e81613150565b915050610667565b505050919050565b6107566128f3565b600083815260066020526040902080548390811061077657610776613091565b60009182526020918290206040805160e08101825260069093029091018054835260018101549383019390935260028301546001600160a01b031690820152600382015460608201526004820154608082015260059091015460ff808216151560a084015261010090910416151560c082015290505b92915050565b60008281526008602052604090205460ff166108505760405162461bcd60e51b815260206004820152601860248201527f4170706172746d656e74206e6f7420617661696c61626c650000000000000000604482015260640161049a565b336000908152600b6020908152604080832085845290915290205460ff166108ba5760405162461bcd60e51b815260206004820152601860248201527f426f6f6b206669727374206265666f7265207265766965770000000000000000604482015260640161049a565b600081511161090b5760405162461bcd60e51b815260206004820152601b60248201527f52657669657720746578742063616e6e6f7420626520656d7074790000000000604482015260640161049a565b6109466040518060a001604052806000815260200160008152602001606081526020016000815260200160006001600160a01b031681525090565b602080820184905260008481526007909152604090819020548252810182905261096e61272d565b60608201523360808201526000838152600760209081526040808320805460018181018355918552938390208551600590950201938455918401519183019190915582015182919060028201906109c590826131f1565b5060608201516003820155608090910151600490910180546001600160a01b0319166001600160a01b03909216919091179055505050565b610a0561274c565b6000828152600660205260408120805483908110610a2557610a25613091565b60009182526020918290206040805160e08101825260069093029091018054835260018101549383019390935260028301546001600160a01b031690820152600382015460608201526004820154608082015260059091015460ff80821615801560a085015261010090920416151560c0830152909150610ab85760405162461bcd60e51b815260040161049a906130a7565b6000838152600a602090815260408083206060850151845290915290205460ff16610b255760405162461bcd60e51b815260206004820152601a60248201527f446964206e6f7420626f6f6b206f6e2074686973206461746521000000000000604482015260640161049a565b6000546001600160a01b03163314610c005780604001516001600160a01b0316336001600160a01b031614610b935760405162461bcd60e51b8152602060048201526014602482015273556e617574686f72697a65642074656e616e742160601b604482015260640161049a565b610b9b61272d565b816060015111610c005760405162461bcd60e51b815260206004820152602a60248201527f43616e206e6f206c6f6e67657220726566756e642c20626f6f6b696e672064616044820152691d19481cdd185c9d195960b21b606482015260840161049a565b600083815260066020526040902080546001919084908110610c2457610c24613091565b6000918252602080832060056006909302019190910180549315156101000261ff001990941693909317909255848152600a82526040808220606085015183528352808220805460ff19169055858252600990925290812054610c899060019061313d565b60008581526009602052604081208054929350909183908110610cae57610cae613091565b9060005260206000200154905080600960008781526020019081526020016000208581548110610ce057610ce0613091565b906000526020600020018190555060096000868152602001908152602001600020805480610d1057610d106132b1565b60019003818190600052602060002001600090559055600060646003548560800151610d3c9190613104565b610d46919061311b565b90506000610d5560028361311b565b600088815260056020526040902060070154909150610d7d906001600160a01b0316826126cd565b610d9261058d6000546001600160a01b031690565b610da03386608001516126cd565b5050505050610dae60018055565b5050565b610dba6127a5565b610dc460006127ff565b565b6000828152600660205260408120805483908110610de657610de6613091565b60009182526020918290206040805160e08101825260069093029091018054835260018101549383019390935260028301546001600160a01b0316908201819052600383015460608301526004830154608083015260059092015460ff808216151560a084015261010090910416151560c082015291503314610ea25760405162461bcd60e51b8152602060048201526014602482015273556e617574686f72697a65642074656e616e742160601b604482015260640161049a565b8060a0015115610ec45760405162461bcd60e51b815260040161049a906130a7565b600083815260066020526040902080546001919084908110610ee857610ee8613091565b60009182526020822060069190910201600501805460ff1916921515929092179091556004546080830151606491610f1f91613104565b610f29919061311b565b9050600060646003548460800151610f419190613104565b610f4b919061311b565b336000908152600b602090815260408083208984528252808320805460ff1916600117905560059091529020600701546080850151919250610f9f916001600160a01b03919091169061057390859061313d565b610fba610fb46000546001600160a01b031690565b836126cd565b610fc433826126cd565b5050505050565b606060076000838152602001908152602001600020805480602002602001604051908101604052809291908181526020016000905b828210156110fb57838290600052602060002090600502016040518060a0016040529081600082015481526020016001820154815260200160028201805461104790613169565b80601f016020809104026020016040519081016040528092919081815260200182805461107390613169565b80156110c05780601f10611095576101008083540402835291602001916110c0565b820191906000526020600020905b8154815290600101906020018083116110a357829003601f168201915b505050918352505060038201546020808301919091526004909201546001600160a01b03166040909101529082526001929092019101611000565b505050509050919050565b6060600060015b600254811161115657600081815260056020526040902060070154600160a81b900460ff16611144578161114081613150565b9250505b8061114e81613150565b91505061110d565b508067ffffffffffffffff81111561117057611170612a88565b6040519080825280602002602001820160405280156111a957816020015b61119661293d565b81526020019060019003908161118e5790505b509150600060015b60025481116114db57600081815260056020526040902060070154600160a81b900460ff166114c95760056000828152602001908152602001600020604051806101600160405290816000820154815260200160018201805461121390613169565b80601f016020809104026020016040519081016040528092919081815260200182805461123f90613169565b801561128c5780601f106112615761010080835404028352916020019161128c565b820191906000526020600020905b81548152906001019060200180831161126f57829003601f168201915b505050505081526020016002820180546112a590613169565b80601f01602080910402602001604051908101604052809291908181526020018280546112d190613169565b801561131e5780601f106112f35761010080835404028352916020019161131e565b820191906000526020600020905b81548152906001019060200180831161130157829003601f168201915b5050505050815260200160038201805461133790613169565b80601f016020809104026020016040519081016040528092919081815260200182805461136390613169565b80156113b05780601f10611385576101008083540402835291602001916113b0565b820191906000526020600020905b81548152906001019060200180831161139357829003601f168201915b505050505081526020016004820180546113c990613169565b80601f01602080910402602001604051908101604052809291908181526020018280546113f590613169565b80156114425780601f1061141757610100808354040283529160200191611442565b820191906000526020600020905b81548152906001019060200180831161142557829003601f168201915b5050509183525050600582015460208201526006820154604082015260078201546001600160a01b038116606083015260ff600160a01b8204811615156080840152600160a81b90910416151560a082015260089091015460c09091015284836114ab81613150565b9450815181106114bd576114bd613091565b60200260200101819052505b806114d381613150565b9150506111b1565b50505090565b60008781526008602052604090205460ff16151560011461153b5760405162461bcd60e51b8152602060048201526014602482015273105c1c185c9d1b595b9d081b9bdd08199bdd5b9960621b604482015260640161049a565b6000878152600560205260409020600701546001600160a01b031633146115af5760405162461bcd60e51b815260206004820152602260248201527f556e617574686f72697a656420706572736f6e6e656c2c206f776e6572206f6e6044820152616c7960f01b606482015260840161049a565b60008651116115f75760405162461bcd60e51b81526020600482015260146024820152734e616d652063616e6e6f7420626520656d70747960601b604482015260640161049a565b60008551116116485760405162461bcd60e51b815260206004820152601b60248201527f4465736372697074696f6e2063616e6e6f7420626520656d7074790000000000604482015260640161049a565b60008451116116945760405162461bcd60e51b81526020600482015260186024820152774c6f636174696f6e2063616e6e6f7420626520656d70747960401b604482015260640161049a565b60008351116116de5760405162461bcd60e51b8152602060048201526016602482015275496d616765732063616e6e6f7420626520656d70747960501b604482015260640161049a565b600082116117255760405162461bcd60e51b8152602060048201526014602482015273526f6f6d732063616e6e6f74206265207a65726f60601b604482015260640161049a565b6000811161176c5760405162461bcd60e51b815260206004820152601460248201527350726963652063616e6e6f74206265207a65726f60601b604482015260640161049a565b60006005600089815260200190815260200160002060405180610160016040529081600082015481526020016001820180546117a790613169565b80601f01602080910402602001604051908101604052809291908181526020018280546117d390613169565b80156118205780601f106117f557610100808354040283529160200191611820565b820191906000526020600020905b81548152906001019060200180831161180357829003601f168201915b5050505050815260200160028201805461183990613169565b80601f016020809104026020016040519081016040528092919081815260200182805461186590613169565b80156118b25780601f10611887576101008083540402835291602001916118b2565b820191906000526020600020905b81548152906001019060200180831161189557829003601f168201915b505050505081526020016003820180546118cb90613169565b80601f01602080910402602001604051908101604052809291908181526020018280546118f790613169565b80156119445780601f1061191957610100808354040283529160200191611944565b820191906000526020600020905b81548152906001019060200180831161192757829003601f168201915b5050505050815260200160048201805461195d90613169565b80601f016020809104026020016040519081016040528092919081815260200182805461198990613169565b80156119d65780601f106119ab576101008083540402835291602001916119d6565b820191906000526020600020905b8154815290600101906020018083116119b957829003601f168201915b5050509183525050600582810154602080840191909152600684015460408085019190915260078501546001600160a01b03811660608087019190915260ff600160a01b830481161515608080890191909152600160a81b90930416151560a08088019190915260089097015460c0968701528784018f81528884018f90529088018d90529087018b905294860189905292850187905260008d81529190522082518155905191925082916001820190611a9090826131f1565b5060408201516002820190611aa590826131f1565b5060608201516003820190611aba90826131f1565b5060808201516004820190611acf90826131f1565b5060a0820151600582015560c0820151600682015560e08201516007820180546101008501516101208601511515600160a81b0260ff60a81b19911515600160a01b026001600160a81b03199093166001600160a01b03909516949094179190911716919091179055610140909101516008909101555050505050505050565b611b5761293d565b600560008381526020019081526020016000206040518061016001604052908160008201548152602001600182018054611b9090613169565b80601f0160208091040260200160405190810160405280929190818152602001828054611bbc90613169565b8015611c095780601f10611bde57610100808354040283529160200191611c09565b820191906000526020600020905b815481529060010190602001808311611bec57829003601f168201915b50505050508152602001600282018054611c2290613169565b80601f0160208091040260200160405190810160405280929190818152602001828054611c4e90613169565b8015611c9b5780601f10611c7057610100808354040283529160200191611c9b565b820191906000526020600020905b815481529060010190602001808311611c7e57829003601f168201915b50505050508152602001600382018054611cb490613169565b80601f0160208091040260200160405190810160405280929190818152602001828054611ce090613169565b8015611d2d5780601f10611d0257610100808354040283529160200191611d2d565b820191906000526020600020905b815481529060010190602001808311611d1057829003601f168201915b50505050508152602001600482018054611d4690613169565b80601f0160208091040260200160405190810160405280929190818152602001828054611d7290613169565b8015611dbf5780601f10611d9457610100808354040283529160200191611dbf565b820191906000526020600020905b815481529060010190602001808311611da257829003601f168201915b5050509183525050600582015460208201526006820154604082015260078201546001600160a01b038116606083015260ff600160a01b8204811615156080840152600160a81b90910416151560a082015260089091015460c09091015292915050565b6000865111611e6b5760405162461bcd60e51b81526020600482015260146024820152734e616d652063616e6e6f7420626520656d70747960601b604482015260640161049a565b6000855111611ebc5760405162461bcd60e51b815260206004820152601b60248201527f4465736372697074696f6e2063616e6e6f7420626520656d7074790000000000604482015260640161049a565b6000845111611f085760405162461bcd60e51b81526020600482015260186024820152774c6f636174696f6e2063616e6e6f7420626520656d70747960401b604482015260640161049a565b6000835111611f525760405162461bcd60e51b8152602060048201526016602482015275496d616765732063616e6e6f7420626520656d70747960501b604482015260640161049a565b60008211611f995760405162461bcd60e51b8152602060048201526014602482015273526f6f6d732063616e6e6f74206265207a65726f60601b604482015260640161049a565b60008111611fe05760405162461bcd60e51b815260206004820152601460248201527350726963652063616e6e6f74206265207a65726f60601b604482015260640161049a565b611fee600280546001019055565b611ff661293d565b60025481526020810187905260408101869052606081018590526080810184905260a0810183905260c081018290523360e082015261203361272d565b61014082015280516000908152600860205260408120805460ff19166001179055819060059061206260025490565b81526020808201929092526040016000208251815590820151600182019061208a90826131f1565b506040820151600282019061209f90826131f1565b50606082015160038201906120b490826131f1565b50608082015160048201906120c990826131f1565b5060a0820151600582015560c0820151600682015560e08201516007820180546101008501516101208601511515600160a81b0260ff60a81b19911515600160a01b026001600160a81b03199093166001600160a01b039095169490941791909117169190911790556101409091015160089091015550505050505050565b60008181526009602090815260409182902080548351818402810184019094528084526060939283018282801561219e57602002820191906000526020600020905b81548152602001906001019080831161218a575b50505050509050919050565b60008181526008602052604090205460ff1615156001146122045760405162461bcd60e51b8152602060048201526014602482015273105c1c185c9d1b595b9d081b9bdd08199bdd5b9960621b604482015260640161049a565b6000818152600560205260409020600701546001600160a01b031633146122635760405162461bcd60e51b8152602060048201526013602482015272556e617574686f72697a656420656e7469747960681b604482015260640161049a565b6000908152600860209081526040808320805460ff1916905560059091529020600701805460ff60a81b1916600160a81b179055565b60008281526008602052604090205460ff166122ee5760405162461bcd60e51b815260206004820152601460248201527341706172746d656e74206e6f7420666f756e642160601b604482015260640161049a565b60035481516000848152600560205260409020600601546064929161231291613104565b61231c9190613104565b612326919061311b565b81516000848152600560205260409020600601546123449190613104565b61234e91906132c7565b3410156123925760405162461bcd60e51b8152602060048201526012602482015271496e73756666696369656e742066756e642160701b604482015260640161049a565b61239c828261284f565b6123e85760405162461bcd60e51b815260206004820152601e60248201527f426f6f6b6564206461746520666f756e6420616d6f6e67206461746573210000604482015260640161049a565b60005b8151811015612594576123fc6128f3565b6020808201859052600085815260069091526040908190205482523390820152825183908390811061243057612430613091565b60209081029190910181015160608301908152600086815260058084526040808320600690810154608088019081528a85528187528285208054600181810183559187528887208a51919094029093019283558888015183820155838901516002840180546001600160a01b039092166001600160a01b03199092169190911790559551600383015551600482015560a08701519201805460c088015115156101000261ff00199415159490941661ffff199091161792909217909155878252600a90935291822085519192909186908690811061251057612510613091565b6020026020010151815260200190815260200160002060006101000a81548160ff0219169083151502179055506009600085815260200190815260200160002083838151811061256257612562613091565b60209081029190910181015182546001810184556000938452919092200155508061258c81613150565b9150506123eb565b505050565b6125a16127a5565b6001600160a01b0381166126065760405162461bcd60e51b815260206004820152602660248201527f4f776e61626c653a206e6577206f776e657220697320746865207a65726f206160448201526564647265737360d01b606482015260840161049a565b61260f816127ff565b50565b606060066000838152602001908152602001600020805480602002602001604051908101604052809291908181526020016000905b828210156110fb5760008481526020908190206040805160e08101825260068602909201805483526001808201548486015260028201546001600160a01b03169284019290925260038101546060840152600481015460808401526005015460ff808216151560a085015261010090910416151560c08301529083529092019101612647565b6000826001600160a01b03168260405160006040518083038185875af1925050503d806000811461271a576040519150601f19603f3d011682016040523d82523d6000602084013e61271f565b606091505b505090508061259457600080fd5b600061273b426103e8613104565b612747906103e86132c7565b905090565b60026001540361279e5760405162461bcd60e51b815260206004820152601f60248201527f5265656e7472616e637947756172643a207265656e7472616e742063616c6c00604482015260640161049a565b6002600155565b6000546001600160a01b03163314610dc45760405162461bcd60e51b815260206004820181905260248201527f4f776e61626c653a2063616c6c6572206973206e6f7420746865206f776e6572604482015260640161049a565b600080546001600160a01b038381166001600160a01b0319831681178455604051919092169283917f8be0079c531659141344cd1fd0a4f28419497f9722a3daafe3b4186f6b6457e09190a35050565b60006001815b83518110156128eb5760005b6000868152600960205260409020548110156128d857600086815260096020526040902080548290811061289757612897613091565b90600052602060002001548583815181106128b4576128b4613091565b6020026020010151036128c657600092505b806128d081613150565b915050612861565b50806128e381613150565b915050612855565b509392505050565b6040518060e00160405280600081526020016000815260200160006001600160a01b0316815260200160008152602001600081526020016000151581526020016000151581525090565b6040518061016001604052806000815260200160608152602001606081526020016060815260200160608152602001600081526020016000815260200160006001600160a01b03168152602001600015158152602001600015158152602001600081525090565b600080604083850312156129b757600080fd5b50508035926020909101359150565b6000602082840312156129d857600080fd5b5035919050565b6020808252825182820181905260009190848201906040850190845b81811015612a205783516001600160a01b0316835292840192918401916001016129fb565b50909695505050505050565b80518252602080820151908301526040808201516001600160a01b031690830152606080820151908301526080808201519083015260a08082015115159083015260c0908101511515910152565b60e081016107ec8284612a2c565b634e487b7160e01b600052604160045260246000fd5b604051601f8201601f1916810167ffffffffffffffff81118282101715612ac757612ac7612a88565b604052919050565b600082601f830112612ae057600080fd5b813567ffffffffffffffff811115612afa57612afa612a88565b612b0d601f8201601f1916602001612a9e565b818152846020838601011115612b2257600080fd5b816020850160208301376000918101602001919091529392505050565b60008060408385031215612b5257600080fd5b82359150602083013567ffffffffffffffff811115612b7057600080fd5b612b7c85828601612acf565b9150509250929050565b6000815180845260005b81811015612bac57602081850181015186830182015201612b90565b506000602082860101526020601f19601f83011685010191505092915050565b60006020808301818452808551808352604092508286019150828160051b87010184880160005b83811015612c5c57603f19898403018552815160a0815185528882015189860152878201518189870152612c2982870182612b86565b606084810151908801526080938401516001600160a01b0316939096019290925250509386019390860190600101612bf3565b509098975050505050505050565b6000610160825184526020830151816020860152612c8a82860182612b86565b91505060408301518482036040860152612ca48282612b86565b91505060608301518482036060860152612cbe8282612b86565b91505060808301518482036080860152612cd88282612b86565b91505060a083015160a085015260c083015160c085015260e0830151612d0960e08601826001600160a01b03169052565b5061010083810151151590850152610120808401511515908501526101409283015192909301919091525090565b6000602080830181845280855180835260408601915060408160051b870101925083870160005b82811015612d8c57603f19888603018452612d7a858351612c6a565b94509285019290850190600101612d5e565b5092979650505050505050565b600080600080600080600060e0888a031215612db457600080fd5b87359650602088013567ffffffffffffffff80821115612dd357600080fd5b612ddf8b838c01612acf565b975060408a0135915080821115612df557600080fd5b612e018b838c01612acf565b965060608a0135915080821115612e1757600080fd5b612e238b838c01612acf565b955060808a0135915080821115612e3957600080fd5b50612e468a828b01612acf565b93505060a0880135915060c0880135905092959891949750929550565b602081526000612e766020830184612c6a565b9392505050565b60008060008060008060c08789031215612e9657600080fd5b863567ffffffffffffffff80821115612eae57600080fd5b612eba8a838b01612acf565b97506020890135915080821115612ed057600080fd5b612edc8a838b01612acf565b96506040890135915080821115612ef257600080fd5b612efe8a838b01612acf565b95506060890135915080821115612f1457600080fd5b50612f2189828a01612acf565b9350506080870135915060a087013590509295509295509295565b6020808252825182820181905260009190848201906040850190845b81811015612a2057835183529284019291840191600101612f58565b60008060408385031215612f8757600080fd5b8235915060208084013567ffffffffffffffff80821115612fa757600080fd5b818601915086601f830112612fbb57600080fd5b813581811115612fcd57612fcd612a88565b8060051b9150612fde848301612a9e565b8181529183018401918481019089841115612ff857600080fd5b938501935b8385101561301657843582529385019390850190612ffd565b8096505050505050509250929050565b60006020828403121561303857600080fd5b81356001600160a01b0381168114612e7657600080fd5b6020808252825182820181905260009190848201906040850190845b81811015612a205761307e838551612a2c565b9284019260e0929092019160010161306b565b634e487b7160e01b600052603260045260246000fd5b60208082526027908201527f41706172746d656e7420616c726561647920636865636b6564206f6e207468696040820152667320646174652160c81b606082015260800190565b634e487b7160e01b600052601160045260246000fd5b80820281158282048414176107ec576107ec6130ee565b60008261313857634e487b7160e01b600052601260045260246000fd5b500490565b818103818111156107ec576107ec6130ee565b600060018201613162576131626130ee565b5060010190565b600181811c9082168061317d57607f821691505b60208210810361319d57634e487b7160e01b600052602260045260246000fd5b50919050565b601f82111561259457600081815260208120601f850160051c810160208610156131ca5750805b601f850160051c820191505b818110156131e9578281556001016131d6565b505050505050565b815167ffffffffffffffff81111561320b5761320b612a88565b61321f816132198454613169565b846131a3565b602080601f831160018114613254576000841561323c5750858301515b600019600386901b1c1916600185901b1785556131e9565b600085815260208120601f198616915b8281101561328357888601518255948401946001909101908401613264565b50858210156132a15787850151600019600388901b60f8161c191681555b5050505050600190811b01905550565b634e487b7160e01b600052603160045260246000fd5b808201808211156107ec576107ec6130ee56fea264697066735822122000344eceb2720510d13030bab82a7edf8c9b32ddfdfa3be7b9751c1fae339b5364736f6c63430008130033","opcodes":"PUSH1 0x80 PUSH1 0x40 MSTORE CALLVALUE DUP1 ISZERO PUSH3 0x11 JUMPI PUSH1 0x0 DUP1 REVERT JUMPDEST POP PUSH1 0x40 MLOAD PUSH3 0x33E7 CODESIZE SUB DUP1 PUSH3 0x33E7 DUP4 CODECOPY DUP2 ADD PUSH1 0x40 DUP2 SWAP1 MSTORE PUSH3 0x34 SWAP2 PUSH3 0xA2 JUMP JUMPDEST PUSH3 0x3F CALLER PUSH3 0x52 JUMP JUMPDEST PUSH1 0x1 DUP1 SSTORE PUSH1 0x4 SWAP2 SWAP1 SWAP2 SSTORE PUSH1 0x3 SSTORE PUSH3 0xC7 JUMP JUMPDEST PUSH1 0x0 DUP1 SLOAD PUSH1 0x1 PUSH1 0x1 PUSH1 0xA0 SHL SUB DUP4 DUP2 AND PUSH1 0x1 PUSH1 0x1 PUSH1 0xA0 SHL SUB NOT DUP4 AND DUP2 OR DUP5 SSTORE PUSH1 0x40 MLOAD SWAP2 SWAP1 SWAP3 AND SWAP3 DUP4 SWAP2 PUSH32 0x8BE0079C531659141344CD1FD0A4F28419497F9722A3DAAFE3B4186F6B6457E0 SWAP2 SWAP1 LOG3 POP POP JUMP JUMPDEST PUSH1 0x0 DUP1 PUSH1 0x40 DUP4 DUP6 SUB SLT ISZERO PUSH3 0xB6 JUMPI PUSH1 0x0 DUP1 REVERT JUMPDEST POP POP DUP1 MLOAD PUSH1 0x20 SWAP1 SWAP2 ADD MLOAD SWAP1 SWAP3 SWAP1 SWAP2 POP JUMP JUMPDEST PUSH2 0x3310 DUP1 PUSH3 0xD7 PUSH1 0x0 CODECOPY PUSH1 0x0 RETURN INVALID PUSH1 0x80 PUSH1 0x40 MSTORE PUSH1 0x4 CALLDATASIZE LT PUSH2 0x12A JUMPI PUSH1 0x0 CALLDATALOAD PUSH1 0xE0 SHR DUP1 PUSH4 0x9F31A2BE GT PUSH2 0xAB JUMPI DUP1 PUSH4 0xD68E1302 GT PUSH2 0x6F JUMPI DUP1 PUSH4 0xD68E1302 EQ PUSH2 0x37C JUMPI DUP1 PUSH4 0xDB2F80B7 EQ PUSH2 0x392 JUMPI DUP1 PUSH4 0xDEC30D39 EQ PUSH2 0x3BF JUMPI DUP1 PUSH4 0xDF6E0222 EQ PUSH2 0x3DF JUMPI DUP1 PUSH4 0xF2FDE38B EQ PUSH2 0x3F2 JUMPI DUP1 PUSH4 0xF4010995 EQ PUSH2 0x412 JUMPI PUSH1 0x0 DUP1 REVERT JUMPDEST DUP1 PUSH4 0x9F31A2BE EQ PUSH2 0x2A2 JUMPI DUP1 PUSH4 0xB1C98099 EQ PUSH2 0x2ED JUMPI DUP1 PUSH4 0xBDFDEE76 EQ PUSH2 0x30F JUMPI DUP1 PUSH4 0xC4452E06 EQ PUSH2 0x32F JUMPI DUP1 PUSH4 0xD57A7B54 EQ PUSH2 0x35C JUMPI PUSH1 0x0 DUP1 REVERT JUMPDEST DUP1 PUSH4 0x715018A6 GT PUSH2 0xF2 JUMPI DUP1 PUSH4 0x715018A6 EQ PUSH2 0x1F4 JUMPI DUP1 PUSH4 0x7541F41C EQ PUSH2 0x209 JUMPI DUP1 PUSH4 0x78419F61 EQ PUSH2 0x22D JUMPI DUP1 PUSH4 0x8DA5CB5B EQ PUSH2 0x24D JUMPI DUP1 PUSH4 0x9D4A2255 EQ PUSH2 0x275 JUMPI PUSH1 0x0 DUP1 REVERT JUMPDEST DUP1 PUSH4 0x10B58EE EQ PUSH2 0x12F JUMPI DUP1 PUSH4 0xBB9CE33 EQ PUSH2 0x151 JUMPI DUP1 PUSH4 0x455B3070 EQ PUSH2 0x187 JUMPI DUP1 PUSH4 0x5BB0C5D6 EQ PUSH2 0x1B4 JUMPI DUP1 PUSH4 0x67626E5D EQ PUSH2 0x1D4 JUMPI JUMPDEST PUSH1 0x0 DUP1 REVERT JUMPDEST CALLVALUE DUP1 ISZERO PUSH2 0x13B JUMPI PUSH1 0x0 DUP1 REVERT JUMPDEST POP PUSH2 0x14F PUSH2 0x14A CALLDATASIZE PUSH1 0x4 PUSH2 0x29A4 JUMP JUMPDEST PUSH2 0x43F JUMP JUMPDEST STOP JUMPDEST CALLVALUE DUP1 ISZERO PUSH2 0x15D JUMPI PUSH1 0x0 DUP1 REVERT JUMPDEST POP PUSH2 0x171 PUSH2 0x16C CALLDATASIZE PUSH1 0x4 PUSH2 0x29C6 JUMP JUMPDEST PUSH2 0x5A5 JUMP JUMPDEST PUSH1 0x40 MLOAD PUSH2 0x17E SWAP2 SWAP1 PUSH2 0x29DF JUMP JUMPDEST PUSH1 0x40 MLOAD DUP1 SWAP2 SUB SWAP1 RETURN JUMPDEST CALLVALUE DUP1 ISZERO PUSH2 0x193 JUMPI PUSH1 0x0 DUP1 REVERT JUMPDEST POP PUSH2 0x1A7 PUSH2 0x1A2 CALLDATASIZE PUSH1 0x4 PUSH2 0x29A4 JUMP JUMPDEST PUSH2 0x74E JUMP JUMPDEST PUSH1 0x40 MLOAD PUSH2 0x17E SWAP2 SWAP1 PUSH2 0x2A7A JUMP JUMPDEST CALLVALUE DUP1 ISZERO PUSH2 0x1C0 JUMPI PUSH1 0x0 DUP1 REVERT JUMPDEST POP PUSH2 0x14F PUSH2 0x1CF CALLDATASIZE PUSH1 0x4 PUSH2 0x2B3F JUMP JUMPDEST PUSH2 0x7F2 JUMP JUMPDEST CALLVALUE DUP1 ISZERO PUSH2 0x1E0 JUMPI PUSH1 0x0 DUP1 REVERT JUMPDEST POP PUSH2 0x14F PUSH2 0x1EF CALLDATASIZE PUSH1 0x4 PUSH2 0x29A4 JUMP JUMPDEST PUSH2 0x9FD JUMP JUMPDEST CALLVALUE DUP1 ISZERO PUSH2 0x200 JUMPI PUSH1 0x0 DUP1 REVERT JUMPDEST POP PUSH2 0x14F PUSH2 0xDB2 JUMP JUMPDEST CALLVALUE DUP1 ISZERO PUSH2 0x215 JUMPI PUSH1 0x0 DUP1 REVERT JUMPDEST POP PUSH2 0x21F PUSH1 0x4 SLOAD DUP2 JUMP JUMPDEST PUSH1 0x40 MLOAD SWAP1 DUP2 MSTORE PUSH1 0x20 ADD PUSH2 0x17E JUMP JUMPDEST CALLVALUE DUP1 ISZERO PUSH2 0x239 JUMPI PUSH1 0x0 DUP1 REVERT JUMPDEST POP PUSH2 0x14F PUSH2 0x248 CALLDATASIZE PUSH1 0x4 PUSH2 0x29A4 JUMP JUMPDEST PUSH2 0xDC6 JUMP JUMPDEST CALLVALUE DUP1 ISZERO PUSH2 0x259 JUMPI PUSH1 0x0 DUP1 REVERT JUMPDEST POP PUSH1 0x0 SLOAD PUSH1 0x40 MLOAD PUSH1 0x1 PUSH1 0x1 PUSH1 0xA0 SHL SUB SWAP1 SWAP2 AND DUP2 MSTORE PUSH1 0x20 ADD PUSH2 0x17E JUMP JUMPDEST CALLVALUE DUP1 ISZERO PUSH2 0x281 JUMPI PUSH1 0x0 DUP1 REVERT JUMPDEST POP PUSH2 0x295 PUSH2 0x290 CALLDATASIZE PUSH1 0x4 PUSH2 0x29C6 JUMP JUMPDEST PUSH2 0xFCB JUMP JUMPDEST PUSH1 0x40 MLOAD PUSH2 0x17E SWAP2 SWAP1 PUSH2 0x2BCC JUMP JUMPDEST CALLVALUE DUP1 ISZERO PUSH2 0x2AE JUMPI PUSH1 0x0 DUP1 REVERT JUMPDEST POP PUSH2 0x2DD PUSH2 0x2BD CALLDATASIZE PUSH1 0x4 PUSH2 0x29C6 JUMP JUMPDEST CALLER PUSH1 0x0 SWAP1 DUP2 MSTORE PUSH1 0xB PUSH1 0x20 SWAP1 DUP2 MSTORE PUSH1 0x40 DUP1 DUP4 KECCAK256 SWAP4 DUP4 MSTORE SWAP3 SWAP1 MSTORE KECCAK256 SLOAD PUSH1 0xFF AND SWAP1 JUMP JUMPDEST PUSH1 0x40 MLOAD SWAP1 ISZERO ISZERO DUP2 MSTORE PUSH1 0x20 ADD PUSH2 0x17E JUMP JUMPDEST CALLVALUE DUP1 ISZERO PUSH2 0x2F9 JUMPI PUSH1 0x0 DUP1 REVERT JUMPDEST POP PUSH2 0x302 PUSH2 0x1106 JUMP JUMPDEST PUSH1 0x40 MLOAD PUSH2 0x17E SWAP2 SWAP1 PUSH2 0x2D37 JUMP JUMPDEST CALLVALUE DUP1 ISZERO PUSH2 0x31B JUMPI PUSH1 0x0 DUP1 REVERT JUMPDEST POP PUSH2 0x14F PUSH2 0x32A CALLDATASIZE PUSH1 0x4 PUSH2 0x2D99 JUMP JUMPDEST PUSH2 0x14E1 JUMP JUMPDEST CALLVALUE DUP1 ISZERO PUSH2 0x33B JUMPI PUSH1 0x0 DUP1 REVERT JUMPDEST POP PUSH2 0x34F PUSH2 0x34A CALLDATASIZE PUSH1 0x4 PUSH2 0x29C6 JUMP JUMPDEST PUSH2 0x1B4F JUMP JUMPDEST PUSH1 0x40 MLOAD PUSH2 0x17E SWAP2 SWAP1 PUSH2 0x2E63 JUMP JUMPDEST CALLVALUE DUP1 ISZERO PUSH2 0x368 JUMPI PUSH1 0x0 DUP1 REVERT JUMPDEST POP PUSH2 0x14F PUSH2 0x377 CALLDATASIZE PUSH1 0x4 PUSH2 0x2E7D JUMP JUMPDEST PUSH2 0x1E23 JUMP JUMPDEST CALLVALUE DUP1 ISZERO PUSH2 0x388 JUMPI PUSH1 0x0 DUP1 REVERT JUMPDEST POP PUSH2 0x21F PUSH1 0x3 SLOAD DUP2 JUMP JUMPDEST CALLVALUE DUP1 ISZERO PUSH2 0x39E JUMPI PUSH1 0x0 DUP1 REVERT JUMPDEST POP PUSH2 0x3B2 PUSH2 0x3AD CALLDATASIZE PUSH1 0x4 PUSH2 0x29C6 JUMP JUMPDEST PUSH2 0x2148 JUMP JUMPDEST PUSH1 0x40 MLOAD PUSH2 0x17E SWAP2 SWAP1 PUSH2 0x2F3C JUMP JUMPDEST CALLVALUE DUP1 ISZERO PUSH2 0x3CB JUMPI PUSH1 0x0 DUP1 REVERT JUMPDEST POP PUSH2 0x14F PUSH2 0x3DA CALLDATASIZE PUSH1 0x4 PUSH2 0x29C6 JUMP JUMPDEST PUSH2 0x21AA JUMP JUMPDEST PUSH2 0x14F PUSH2 0x3ED CALLDATASIZE PUSH1 0x4 PUSH2 0x2F74 JUMP JUMPDEST PUSH2 0x2299 JUMP JUMPDEST CALLVALUE DUP1 ISZERO PUSH2 0x3FE JUMPI PUSH1 0x0 DUP1 REVERT JUMPDEST POP PUSH2 0x14F PUSH2 0x40D CALLDATASIZE PUSH1 0x4 PUSH2 0x3026 JUMP JUMPDEST PUSH2 0x2599 JUMP JUMPDEST CALLVALUE DUP1 ISZERO PUSH2 0x41E JUMPI PUSH1 0x0 DUP1 REVERT JUMPDEST POP PUSH2 0x432 PUSH2 0x42D CALLDATASIZE PUSH1 0x4 PUSH2 0x29C6 JUMP JUMPDEST PUSH2 0x2612 JUMP JUMPDEST PUSH1 0x40 MLOAD PUSH2 0x17E SWAP2 SWAP1 PUSH2 0x304F JUMP JUMPDEST PUSH1 0x0 DUP3 DUP2 MSTORE PUSH1 0x5 PUSH1 0x20 MSTORE PUSH1 0x40 SWAP1 KECCAK256 PUSH1 0x7 ADD SLOAD PUSH1 0x1 PUSH1 0x1 PUSH1 0xA0 SHL SUB AND CALLER EQ PUSH2 0x4A3 JUMPI PUSH1 0x40 MLOAD PUSH3 0x461BCD PUSH1 0xE5 SHL DUP2 MSTORE PUSH1 0x20 PUSH1 0x4 DUP3 ADD MSTORE PUSH1 0x13 PUSH1 0x24 DUP3 ADD MSTORE PUSH19 0x556E617574686F72697A656420656E74697479 PUSH1 0x68 SHL PUSH1 0x44 DUP3 ADD MSTORE PUSH1 0x64 ADD JUMPDEST PUSH1 0x40 MLOAD DUP1 SWAP2 SUB SWAP1 REVERT JUMPDEST PUSH1 0x0 DUP3 DUP2 MSTORE PUSH1 0x6 PUSH1 0x20 MSTORE PUSH1 0x40 SWAP1 KECCAK256 DUP1 SLOAD DUP3 SWAP1 DUP2 LT PUSH2 0x4C3 JUMPI PUSH2 0x4C3 PUSH2 0x3091 JUMP JUMPDEST PUSH1 0x0 SWAP2 DUP3 MSTORE PUSH1 0x20 SWAP1 SWAP2 KECCAK256 PUSH1 0x5 PUSH1 0x6 SWAP1 SWAP3 MUL ADD ADD SLOAD PUSH1 0xFF AND ISZERO PUSH2 0x4F7 JUMPI PUSH1 0x40 MLOAD PUSH3 0x461BCD PUSH1 0xE5 SHL DUP2 MSTORE PUSH1 0x4 ADD PUSH2 0x49A SWAP1 PUSH2 0x30A7 JUMP JUMPDEST PUSH1 0x0 DUP3 DUP2 MSTORE PUSH1 0x6 PUSH1 0x20 MSTORE PUSH1 0x40 DUP2 KECCAK256 DUP1 SLOAD DUP4 SWAP1 DUP2 LT PUSH2 0x517 JUMPI PUSH2 0x517 PUSH2 0x3091 JUMP JUMPDEST SWAP1 PUSH1 0x0 MSTORE PUSH1 0x20 PUSH1 0x0 KECCAK256 SWAP1 PUSH1 0x6 MUL ADD PUSH1 0x4 ADD SLOAD SWAP1 POP PUSH1 0x0 PUSH1 0x64 PUSH1 0x4 SLOAD DUP4 PUSH2 0x53D SWAP2 SWAP1 PUSH2 0x3104 JUMP JUMPDEST PUSH2 0x547 SWAP2 SWAP1 PUSH2 0x311B JUMP JUMPDEST PUSH1 0x0 DUP6 DUP2 MSTORE PUSH1 0x5 PUSH1 0x20 MSTORE PUSH1 0x40 SWAP1 KECCAK256 PUSH1 0x7 ADD SLOAD SWAP1 SWAP2 POP PUSH2 0x578 SWAP1 PUSH1 0x1 PUSH1 0x1 PUSH1 0xA0 SHL SUB AND PUSH2 0x573 DUP4 DUP6 PUSH2 0x313D JUMP JUMPDEST PUSH2 0x26CD JUMP JUMPDEST PUSH2 0x593 PUSH2 0x58D PUSH1 0x0 SLOAD PUSH1 0x1 PUSH1 0x1 PUSH1 0xA0 SHL SUB AND SWAP1 JUMP JUMPDEST DUP3 PUSH2 0x26CD JUMP JUMPDEST PUSH2 0x59F CALLER PUSH1 0x3 SLOAD PUSH2 0x26CD JUMP JUMPDEST POP POP POP POP JUMP JUMPDEST PUSH1 0x60 PUSH1 0x0 DUP1 JUMPDEST PUSH1 0x0 DUP5 DUP2 MSTORE PUSH1 0x6 PUSH1 0x20 MSTORE PUSH1 0x40 SWAP1 KECCAK256 SLOAD DUP2 LT ISZERO PUSH2 0x61D JUMPI PUSH1 0x0 DUP5 DUP2 MSTORE PUSH1 0x6 PUSH1 0x20 MSTORE PUSH1 0x40 SWAP1 KECCAK256 DUP1 SLOAD DUP3 SWAP1 DUP2 LT PUSH2 0x5E1 JUMPI PUSH2 0x5E1 PUSH2 0x3091 JUMP JUMPDEST PUSH1 0x0 SWAP2 DUP3 MSTORE PUSH1 0x20 SWAP1 SWAP2 KECCAK256 PUSH1 0x5 PUSH1 0x6 SWAP1 SWAP3 MUL ADD ADD SLOAD PUSH1 0xFF AND ISZERO PUSH2 0x60B JUMPI DUP2 PUSH2 0x607 DUP2 PUSH2 0x3150 JUMP JUMPDEST SWAP3 POP POP JUMPDEST DUP1 PUSH2 0x615 DUP2 PUSH2 0x3150 JUMP JUMPDEST SWAP2 POP POP PUSH2 0x5AB JUMP JUMPDEST POP DUP1 PUSH8 0xFFFFFFFFFFFFFFFF DUP2 GT ISZERO PUSH2 0x637 JUMPI PUSH2 0x637 PUSH2 0x2A88 JUMP JUMPDEST PUSH1 0x40 MLOAD SWAP1 DUP1 DUP3 MSTORE DUP1 PUSH1 0x20 MUL PUSH1 0x20 ADD DUP3 ADD PUSH1 0x40 MSTORE DUP1 ISZERO PUSH2 0x660 JUMPI DUP2 PUSH1 0x20 ADD PUSH1 0x20 DUP3 MUL DUP1 CALLDATASIZE DUP4 CALLDATACOPY ADD SWAP1 POP JUMPDEST POP SWAP2 POP PUSH1 0x0 DUP1 JUMPDEST PUSH1 0x0 DUP6 DUP2 MSTORE PUSH1 0x6 PUSH1 0x20 MSTORE PUSH1 0x40 SWAP1 KECCAK256 SLOAD DUP2 LT ISZERO PUSH2 0x746 JUMPI PUSH1 0x0 DUP6 DUP2 MSTORE PUSH1 0x6 PUSH1 0x20 MSTORE PUSH1 0x40 SWAP1 KECCAK256 DUP1 SLOAD DUP3 SWAP1 DUP2 LT PUSH2 0x69D JUMPI PUSH2 0x69D PUSH2 0x3091 JUMP JUMPDEST PUSH1 0x0 SWAP2 DUP3 MSTORE PUSH1 0x20 SWAP1 SWAP2 KECCAK256 PUSH1 0x5 PUSH1 0x6 SWAP1 SWAP3 MUL ADD ADD SLOAD PUSH1 0xFF AND ISZERO PUSH2 0x734 JUMPI PUSH1 0x0 DUP6 DUP2 MSTORE PUSH1 0x6 PUSH1 0x20 MSTORE PUSH1 0x40 SWAP1 KECCAK256 DUP1 SLOAD DUP3 SWAP1 DUP2 LT PUSH2 0x6D9 JUMPI PUSH2 0x6D9 PUSH2 0x3091 JUMP JUMPDEST PUSH1 0x0 SWAP2 DUP3 MSTORE PUSH1 0x20 SWAP1 SWAP2 KECCAK256 PUSH1 0x2 PUSH1 0x6 SWAP1 SWAP3 MUL ADD ADD SLOAD PUSH1 0x1 PUSH1 0x1 PUSH1 0xA0 SHL SUB AND DUP5 DUP4 PUSH2 0x701 DUP2 PUSH2 0x3150 JUMP JUMPDEST SWAP5 POP DUP2 MLOAD DUP2 LT PUSH2 0x713 JUMPI PUSH2 0x713 PUSH2 0x3091 JUMP JUMPDEST PUSH1 0x20 MUL PUSH1 0x20 ADD ADD SWAP1 PUSH1 0x1 PUSH1 0x1 PUSH1 0xA0 SHL SUB AND SWAP1 DUP2 PUSH1 0x1 PUSH1 0x1 PUSH1 0xA0 SHL SUB AND DUP2 MSTORE POP POP JUMPDEST DUP1 PUSH2 0x73E DUP2 PUSH2 0x3150 JUMP JUMPDEST SWAP2 POP POP PUSH2 0x667 JUMP JUMPDEST POP POP POP SWAP2 SWAP1 POP JUMP JUMPDEST PUSH2 0x756 PUSH2 0x28F3 JUMP JUMPDEST PUSH1 0x0 DUP4 DUP2 MSTORE PUSH1 0x6 PUSH1 0x20 MSTORE PUSH1 0x40 SWAP1 KECCAK256 DUP1 SLOAD DUP4 SWAP1 DUP2 LT PUSH2 0x776 JUMPI PUSH2 0x776 PUSH2 0x3091 JUMP JUMPDEST PUSH1 0x0 SWAP2 DUP3 MSTORE PUSH1 0x20 SWAP2 DUP3 SWAP1 KECCAK256 PUSH1 0x40 DUP1 MLOAD PUSH1 0xE0 DUP2 ADD DUP3 MSTORE PUSH1 0x6 SWAP1 SWAP4 MUL SWAP1 SWAP2 ADD DUP1 SLOAD DUP4 MSTORE PUSH1 0x1 DUP2 ADD SLOAD SWAP4 DUP4 ADD SWAP4 SWAP1 SWAP4 MSTORE PUSH1 0x2 DUP4 ADD SLOAD PUSH1 0x1 PUSH1 0x1 PUSH1 0xA0 SHL SUB AND SWAP1 DUP3 ADD MSTORE PUSH1 0x3 DUP3 ADD SLOAD PUSH1 0x60 DUP3 ADD MSTORE PUSH1 0x4 DUP3 ADD SLOAD PUSH1 0x80 DUP3 ADD MSTORE PUSH1 0x5 SWAP1 SWAP2 ADD SLOAD PUSH1 0xFF DUP1 DUP3 AND ISZERO ISZERO PUSH1 0xA0 DUP5 ADD MSTORE PUSH2 0x100 SWAP1 SWAP2 DIV AND ISZERO ISZERO PUSH1 0xC0 DUP3 ADD MSTORE SWAP1 POP JUMPDEST SWAP3 SWAP2 POP POP JUMP JUMPDEST PUSH1 0x0 DUP3 DUP2 MSTORE PUSH1 0x8 PUSH1 0x20 MSTORE PUSH1 0x40 SWAP1 KECCAK256 SLOAD PUSH1 0xFF AND PUSH2 0x850 JUMPI PUSH1 0x40 MLOAD PUSH3 0x461BCD PUSH1 0xE5 SHL DUP2 MSTORE PUSH1 0x20 PUSH1 0x4 DUP3 ADD MSTORE PUSH1 0x18 PUSH1 0x24 DUP3 ADD MSTORE PUSH32 0x4170706172746D656E74206E6F7420617661696C61626C650000000000000000 PUSH1 0x44 DUP3 ADD MSTORE PUSH1 0x64 ADD PUSH2 0x49A JUMP JUMPDEST CALLER PUSH1 0x0 SWAP1 DUP2 MSTORE PUSH1 0xB PUSH1 0x20 SWAP1 DUP2 MSTORE PUSH1 0x40 DUP1 DUP4 KECCAK256 DUP6 DUP5 MSTORE SWAP1 SWAP2 MSTORE SWAP1 KECCAK256 SLOAD PUSH1 0xFF AND PUSH2 0x8BA JUMPI PUSH1 0x40 MLOAD PUSH3 0x461BCD PUSH1 0xE5 SHL DUP2 MSTORE PUSH1 0x20 PUSH1 0x4 DUP3 ADD MSTORE PUSH1 0x18 PUSH1 0x24 DUP3 ADD MSTORE PUSH32 0x426F6F6B206669727374206265666F7265207265766965770000000000000000 PUSH1 0x44 DUP3 ADD MSTORE PUSH1 0x64 ADD PUSH2 0x49A JUMP JUMPDEST PUSH1 0x0 DUP2 MLOAD GT PUSH2 0x90B JUMPI PUSH1 0x40 MLOAD PUSH3 0x461BCD PUSH1 0xE5 SHL DUP2 MSTORE PUSH1 0x20 PUSH1 0x4 DUP3 ADD MSTORE PUSH1 0x1B PUSH1 0x24 DUP3 ADD MSTORE PUSH32 0x52657669657720746578742063616E6E6F7420626520656D7074790000000000 PUSH1 0x44 DUP3 ADD MSTORE PUSH1 0x64 ADD PUSH2 0x49A JUMP JUMPDEST PUSH2 0x946 PUSH1 0x40 MLOAD DUP1 PUSH1 0xA0 ADD PUSH1 0x40 MSTORE DUP1 PUSH1 0x0 DUP2 MSTORE PUSH1 0x20 ADD PUSH1 0x0 DUP2 MSTORE PUSH1 0x20 ADD PUSH1 0x60 DUP2 MSTORE PUSH1 0x20 ADD PUSH1 0x0 DUP2 MSTORE PUSH1 0x20 ADD PUSH1 0x0 PUSH1 0x1 PUSH1 0x1 PUSH1 0xA0 SHL SUB AND DUP2 MSTORE POP SWAP1 JUMP JUMPDEST PUSH1 0x20 DUP1 DUP3 ADD DUP5 SWAP1 MSTORE PUSH1 0x0 DUP5 DUP2 MSTORE PUSH1 0x7 SWAP1 SWAP2 MSTORE PUSH1 0x40 SWAP1 DUP2 SWAP1 KECCAK256 SLOAD DUP3 MSTORE DUP2 ADD DUP3 SWAP1 MSTORE PUSH2 0x96E PUSH2 0x272D JUMP JUMPDEST PUSH1 0x60 DUP3 ADD MSTORE CALLER PUSH1 0x80 DUP3 ADD MSTORE PUSH1 0x0 DUP4 DUP2 MSTORE PUSH1 0x7 PUSH1 0x20 SWAP1 DUP2 MSTORE PUSH1 0x40 DUP1 DUP4 KECCAK256 DUP1 SLOAD PUSH1 0x1 DUP2 DUP2 ADD DUP4 SSTORE SWAP2 DUP6 MSTORE SWAP4 DUP4 SWAP1 KECCAK256 DUP6 MLOAD PUSH1 0x5 SWAP1 SWAP6 MUL ADD SWAP4 DUP5 SSTORE SWAP2 DUP5 ADD MLOAD SWAP2 DUP4 ADD SWAP2 SWAP1 SWAP2 SSTORE DUP3 ADD MLOAD DUP3 SWAP2 SWAP1 PUSH1 0x2 DUP3 ADD SWAP1 PUSH2 0x9C5 SWAP1 DUP3 PUSH2 0x31F1 JUMP JUMPDEST POP PUSH1 0x60 DUP3 ADD MLOAD PUSH1 0x3 DUP3 ADD SSTORE PUSH1 0x80 SWAP1 SWAP2 ADD MLOAD PUSH1 0x4 SWAP1 SWAP2 ADD DUP1 SLOAD PUSH1 0x1 PUSH1 0x1 PUSH1 0xA0 SHL SUB NOT AND PUSH1 0x1 PUSH1 0x1 PUSH1 0xA0 SHL SUB SWAP1 SWAP3 AND SWAP2 SWAP1 SWAP2 OR SWAP1 SSTORE POP POP POP JUMP JUMPDEST PUSH2 0xA05 PUSH2 0x274C JUMP JUMPDEST PUSH1 0x0 DUP3 DUP2 MSTORE PUSH1 0x6 PUSH1 0x20 MSTORE PUSH1 0x40 DUP2 KECCAK256 DUP1 SLOAD DUP4 SWAP1 DUP2 LT PUSH2 0xA25 JUMPI PUSH2 0xA25 PUSH2 0x3091 JUMP JUMPDEST PUSH1 0x0 SWAP2 DUP3 MSTORE PUSH1 0x20 SWAP2 DUP3 SWAP1 KECCAK256 PUSH1 0x40 DUP1 MLOAD PUSH1 0xE0 DUP2 ADD DUP3 MSTORE PUSH1 0x6 SWAP1 SWAP4 MUL SWAP1 SWAP2 ADD DUP1 SLOAD DUP4 MSTORE PUSH1 0x1 DUP2 ADD SLOAD SWAP4 DUP4 ADD SWAP4 SWAP1 SWAP4 MSTORE PUSH1 0x2 DUP4 ADD SLOAD PUSH1 0x1 PUSH1 0x1 PUSH1 0xA0 SHL SUB AND SWAP1 DUP3 ADD MSTORE PUSH1 0x3 DUP3 ADD SLOAD PUSH1 0x60 DUP3 ADD MSTORE PUSH1 0x4 DUP3 ADD SLOAD PUSH1 0x80 DUP3 ADD MSTORE PUSH1 0x5 SWAP1 SWAP2 ADD SLOAD PUSH1 0xFF DUP1 DUP3 AND ISZERO DUP1 ISZERO PUSH1 0xA0 DUP6 ADD MSTORE PUSH2 0x100 SWAP1 SWAP3 DIV AND ISZERO ISZERO PUSH1 0xC0 DUP4 ADD MSTORE SWAP1 SWAP2 POP PUSH2 0xAB8 JUMPI PUSH1 0x40 MLOAD PUSH3 0x461BCD PUSH1 0xE5 SHL DUP2 MSTORE PUSH1 0x4 ADD PUSH2 0x49A SWAP1 PUSH2 0x30A7 JUMP JUMPDEST PUSH1 0x0 DUP4 DUP2 MSTORE PUSH1 0xA PUSH1 0x20 SWAP1 DUP2 MSTORE PUSH1 0x40 DUP1 DUP4 KECCAK256 PUSH1 0x60 DUP6 ADD MLOAD DUP5 MSTORE SWAP1 SWAP2 MSTORE SWAP1 KECCAK256 SLOAD PUSH1 0xFF AND PUSH2 0xB25 JUMPI PUSH1 0x40 MLOAD PUSH3 0x461BCD PUSH1 0xE5 SHL DUP2 MSTORE PUSH1 0x20 PUSH1 0x4 DUP3 ADD MSTORE PUSH1 0x1A PUSH1 0x24 DUP3 ADD MSTORE PUSH32 0x446964206E6F7420626F6F6B206F6E2074686973206461746521000000000000 PUSH1 0x44 DUP3 ADD MSTORE PUSH1 0x64 ADD PUSH2 0x49A JUMP JUMPDEST PUSH1 0x0 SLOAD PUSH1 0x1 PUSH1 0x1 PUSH1 0xA0 SHL SUB AND CALLER EQ PUSH2 0xC00 JUMPI DUP1 PUSH1 0x40 ADD MLOAD PUSH1 0x1 PUSH1 0x1 PUSH1 0xA0 SHL SUB AND CALLER PUSH1 0x1 PUSH1 0x1 PUSH1 0xA0 SHL SUB AND EQ PUSH2 0xB93 JUMPI PUSH1 0x40 MLOAD PUSH3 0x461BCD PUSH1 0xE5 SHL DUP2 MSTORE PUSH1 0x20 PUSH1 0x4 DUP3 ADD MSTORE PUSH1 0x14 PUSH1 0x24 DUP3 ADD MSTORE PUSH20 0x556E617574686F72697A65642074656E616E7421 PUSH1 0x60 SHL PUSH1 0x44 DUP3 ADD MSTORE PUSH1 0x64 ADD PUSH2 0x49A JUMP JUMPDEST PUSH2 0xB9B PUSH2 0x272D JUMP JUMPDEST DUP2 PUSH1 0x60 ADD MLOAD GT PUSH2 0xC00 JUMPI PUSH1 0x40 MLOAD PUSH3 0x461BCD PUSH1 0xE5 SHL DUP2 MSTORE PUSH1 0x20 PUSH1 0x4 DUP3 ADD MSTORE PUSH1 0x2A PUSH1 0x24 DUP3 ADD MSTORE PUSH32 0x43616E206E6F206C6F6E67657220726566756E642C20626F6F6B696E67206461 PUSH1 0x44 DUP3 ADD MSTORE PUSH10 0x1D19481CDD185C9D1959 PUSH1 0xB2 SHL PUSH1 0x64 DUP3 ADD MSTORE PUSH1 0x84 ADD PUSH2 0x49A JUMP JUMPDEST PUSH1 0x0 DUP4 DUP2 MSTORE PUSH1 0x6 PUSH1 0x20 MSTORE PUSH1 0x40 SWAP1 KECCAK256 DUP1 SLOAD PUSH1 0x1 SWAP2 SWAP1 DUP5 SWAP1 DUP2 LT PUSH2 0xC24 JUMPI PUSH2 0xC24 PUSH2 0x3091 JUMP JUMPDEST PUSH1 0x0 SWAP2 DUP3 MSTORE PUSH1 0x20 DUP1 DUP4 KECCAK256 PUSH1 0x5 PUSH1 0x6 SWAP1 SWAP4 MUL ADD SWAP2 SWAP1 SWAP2 ADD DUP1 SLOAD SWAP4 ISZERO ISZERO PUSH2 0x100 MUL PUSH2 0xFF00 NOT SWAP1 SWAP5 AND SWAP4 SWAP1 SWAP4 OR SWAP1 SWAP3 SSTORE DUP5 DUP2 MSTORE PUSH1 0xA DUP3 MSTORE PUSH1 0x40 DUP1 DUP3 KECCAK256 PUSH1 0x60 DUP6 ADD MLOAD DUP4 MSTORE DUP4 MSTORE DUP1 DUP3 KECCAK256 DUP1 SLOAD PUSH1 0xFF NOT AND SWAP1 SSTORE DUP6 DUP3 MSTORE PUSH1 0x9 SWAP1 SWAP3 MSTORE SWAP1 DUP2 KECCAK256 SLOAD PUSH2 0xC89 SWAP1 PUSH1 0x1 SWAP1 PUSH2 0x313D JUMP JUMPDEST PUSH1 0x0 DUP6 DUP2 MSTORE PUSH1 0x9 PUSH1 0x20 MSTORE PUSH1 0x40 DUP2 KECCAK256 DUP1 SLOAD SWAP3 SWAP4 POP SWAP1 SWAP2 DUP4 SWAP1 DUP2 LT PUSH2 0xCAE JUMPI PUSH2 0xCAE PUSH2 0x3091 JUMP JUMPDEST SWAP1 PUSH1 0x0 MSTORE PUSH1 0x20 PUSH1 0x0 KECCAK256 ADD SLOAD SWAP1 POP DUP1 PUSH1 0x9 PUSH1 0x0 DUP8 DUP2 MSTORE PUSH1 0x20 ADD SWAP1 DUP2 MSTORE PUSH1 0x20 ADD PUSH1 0x0 KECCAK256 DUP6 DUP2 SLOAD DUP2 LT PUSH2 0xCE0 JUMPI PUSH2 0xCE0 PUSH2 0x3091 JUMP JUMPDEST SWAP1 PUSH1 0x0 MSTORE PUSH1 0x20 PUSH1 0x0 KECCAK256 ADD DUP2 SWAP1 SSTORE POP PUSH1 0x9 PUSH1 0x0 DUP7 DUP2 MSTORE PUSH1 0x20 ADD SWAP1 DUP2 MSTORE PUSH1 0x20 ADD PUSH1 0x0 KECCAK256 DUP1 SLOAD DUP1 PUSH2 0xD10 JUMPI PUSH2 0xD10 PUSH2 0x32B1 JUMP JUMPDEST PUSH1 0x1 SWAP1 SUB DUP2 DUP2 SWAP1 PUSH1 0x0 MSTORE PUSH1 0x20 PUSH1 0x0 KECCAK256 ADD PUSH1 0x0 SWAP1 SSTORE SWAP1 SSTORE PUSH1 0x0 PUSH1 0x64 PUSH1 0x3 SLOAD DUP6 PUSH1 0x80 ADD MLOAD PUSH2 0xD3C SWAP2 SWAP1 PUSH2 0x3104 JUMP JUMPDEST PUSH2 0xD46 SWAP2 SWAP1 PUSH2 0x311B JUMP JUMPDEST SWAP1 POP PUSH1 0x0 PUSH2 0xD55 PUSH1 0x2 DUP4 PUSH2 0x311B JUMP JUMPDEST PUSH1 0x0 DUP9 DUP2 MSTORE PUSH1 0x5 PUSH1 0x20 MSTORE PUSH1 0x40 SWAP1 KECCAK256 PUSH1 0x7 ADD SLOAD SWAP1 SWAP2 POP PUSH2 0xD7D SWAP1 PUSH1 0x1 PUSH1 0x1 PUSH1 0xA0 SHL SUB AND DUP3 PUSH2 0x26CD JUMP JUMPDEST PUSH2 0xD92 PUSH2 0x58D PUSH1 0x0 SLOAD PUSH1 0x1 PUSH1 0x1 PUSH1 0xA0 SHL SUB AND SWAP1 JUMP JUMPDEST PUSH2 0xDA0 CALLER DUP7 PUSH1 0x80 ADD MLOAD PUSH2 0x26CD JUMP JUMPDEST POP POP POP POP POP PUSH2 0xDAE PUSH1 0x1 DUP1 SSTORE JUMP JUMPDEST POP POP JUMP JUMPDEST PUSH2 0xDBA PUSH2 0x27A5 JUMP JUMPDEST PUSH2 0xDC4 PUSH1 0x0 PUSH2 0x27FF JUMP JUMPDEST JUMP JUMPDEST PUSH1 0x0 DUP3 DUP2 MSTORE PUSH1 0x6 PUSH1 0x20 MSTORE PUSH1 0x40 DUP2 KECCAK256 DUP1 SLOAD DUP4 SWAP1 DUP2 LT PUSH2 0xDE6 JUMPI PUSH2 0xDE6 PUSH2 0x3091 JUMP JUMPDEST PUSH1 0x0 SWAP2 DUP3 MSTORE PUSH1 0x20 SWAP2 DUP3 SWAP1 KECCAK256 PUSH1 0x40 DUP1 MLOAD PUSH1 0xE0 DUP2 ADD DUP3 MSTORE PUSH1 0x6 SWAP1 SWAP4 MUL SWAP1 SWAP2 ADD DUP1 SLOAD DUP4 MSTORE PUSH1 0x1 DUP2 ADD SLOAD SWAP4 DUP4 ADD SWAP4 SWAP1 SWAP4 MSTORE PUSH1 0x2 DUP4 ADD SLOAD PUSH1 0x1 PUSH1 0x1 PUSH1 0xA0 SHL SUB AND SWAP1 DUP3 ADD DUP2 SWAP1 MSTORE PUSH1 0x3 DUP4 ADD SLOAD PUSH1 0x60 DUP4 ADD MSTORE PUSH1 0x4 DUP4 ADD SLOAD PUSH1 0x80 DUP4 ADD MSTORE PUSH1 0x5 SWAP1 SWAP3 ADD SLOAD PUSH1 0xFF DUP1 DUP3 AND ISZERO ISZERO PUSH1 0xA0 DUP5 ADD MSTORE PUSH2 0x100 SWAP1 SWAP2 DIV AND ISZERO ISZERO PUSH1 0xC0 DUP3 ADD MSTORE SWAP2 POP CALLER EQ PUSH2 0xEA2 JUMPI PUSH1 0x40 MLOAD PUSH3 0x461BCD PUSH1 0xE5 SHL DUP2 MSTORE PUSH1 0x20 PUSH1 0x4 DUP3 ADD MSTORE PUSH1 0x14 PUSH1 0x24 DUP3 ADD MSTORE PUSH20 0x556E617574686F72697A65642074656E616E7421 PUSH1 0x60 SHL PUSH1 0x44 DUP3 ADD MSTORE PUSH1 0x64 ADD PUSH2 0x49A JUMP JUMPDEST DUP1 PUSH1 0xA0 ADD MLOAD ISZERO PUSH2 0xEC4 JUMPI PUSH1 0x40 MLOAD PUSH3 0x461BCD PUSH1 0xE5 SHL DUP2 MSTORE PUSH1 0x4 ADD PUSH2 0x49A SWAP1 PUSH2 0x30A7 JUMP JUMPDEST PUSH1 0x0 DUP4 DUP2 MSTORE PUSH1 0x6 PUSH1 0x20 MSTORE PUSH1 0x40 SWAP1 KECCAK256 DUP1 SLOAD PUSH1 0x1 SWAP2 SWAP1 DUP5 SWAP1 DUP2 LT PUSH2 0xEE8 JUMPI PUSH2 0xEE8 PUSH2 0x3091 JUMP JUMPDEST PUSH1 0x0 SWAP2 DUP3 MSTORE PUSH1 0x20 DUP3 KECCAK256 PUSH1 0x6 SWAP2 SWAP1 SWAP2 MUL ADD PUSH1 0x5 ADD DUP1 SLOAD PUSH1 0xFF NOT AND SWAP3 ISZERO ISZERO SWAP3 SWAP1 SWAP3 OR SWAP1 SWAP2 SSTORE PUSH1 0x4 SLOAD PUSH1 0x80 DUP4 ADD MLOAD PUSH1 0x64 SWAP2 PUSH2 0xF1F SWAP2 PUSH2 0x3104 JUMP JUMPDEST PUSH2 0xF29 SWAP2 SWAP1 PUSH2 0x311B JUMP JUMPDEST SWAP1 POP PUSH1 0x0 PUSH1 0x64 PUSH1 0x3 SLOAD DUP5 PUSH1 0x80 ADD MLOAD PUSH2 0xF41 SWAP2 SWAP1 PUSH2 0x3104 JUMP JUMPDEST PUSH2 0xF4B SWAP2 SWAP1 PUSH2 0x311B JUMP JUMPDEST CALLER PUSH1 0x0 SWAP1 DUP2 MSTORE PUSH1 0xB PUSH1 0x20 SWAP1 DUP2 MSTORE PUSH1 0x40 DUP1 DUP4 KECCAK256 DUP10 DUP5 MSTORE DUP3 MSTORE DUP1 DUP4 KECCAK256 DUP1 SLOAD PUSH1 0xFF NOT AND PUSH1 0x1 OR SWAP1 SSTORE PUSH1 0x5 SWAP1 SWAP2 MSTORE SWAP1 KECCAK256 PUSH1 0x7 ADD SLOAD PUSH1 0x80 DUP6 ADD MLOAD SWAP2 SWAP3 POP PUSH2 0xF9F SWAP2 PUSH1 0x1 PUSH1 0x1 PUSH1 0xA0 SHL SUB SWAP2 SWAP1 SWAP2 AND SWAP1 PUSH2 0x573 SWAP1 DUP6 SWAP1 PUSH2 0x313D JUMP JUMPDEST PUSH2 0xFBA PUSH2 0xFB4 PUSH1 0x0 SLOAD PUSH1 0x1 PUSH1 0x1 PUSH1 0xA0 SHL SUB AND SWAP1 JUMP JUMPDEST DUP4 PUSH2 0x26CD JUMP JUMPDEST PUSH2 0xFC4 CALLER DUP3 PUSH2 0x26CD JUMP JUMPDEST POP POP POP POP POP JUMP JUMPDEST PUSH1 0x60 PUSH1 0x7 PUSH1 0x0 DUP4 DUP2 MSTORE PUSH1 0x20 ADD SWAP1 DUP2 MSTORE PUSH1 0x20 ADD PUSH1 0x0 KECCAK256 DUP1 SLOAD DUP1 PUSH1 0x20 MUL PUSH1 0x20 ADD PUSH1 0x40 MLOAD SWAP1 DUP2 ADD PUSH1 0x40 MSTORE DUP1 SWAP3 SWAP2 SWAP1 DUP2 DUP2 MSTORE PUSH1 0x20 ADD PUSH1 0x0 SWAP1 JUMPDEST DUP3 DUP3 LT ISZERO PUSH2 0x10FB JUMPI DUP4 DUP3 SWAP1 PUSH1 0x0 MSTORE PUSH1 0x20 PUSH1 0x0 KECCAK256 SWAP1 PUSH1 0x5 MUL ADD PUSH1 0x40 MLOAD DUP1 PUSH1 0xA0 ADD PUSH1 0x40 MSTORE SWAP1 DUP2 PUSH1 0x0 DUP3 ADD SLOAD DUP2 MSTORE PUSH1 0x20 ADD PUSH1 0x1 DUP3 ADD SLOAD DUP2 MSTORE PUSH1 0x20 ADD PUSH1 0x2 DUP3 ADD DUP1 SLOAD PUSH2 0x1047 SWAP1 PUSH2 0x3169 JUMP JUMPDEST DUP1 PUSH1 0x1F ADD PUSH1 0x20 DUP1 SWAP2 DIV MUL PUSH1 0x20 ADD PUSH1 0x40 MLOAD SWAP1 DUP2 ADD PUSH1 0x40 MSTORE DUP1 SWAP3 SWAP2 SWAP1 DUP2 DUP2 MSTORE PUSH1 0x20 ADD DUP3 DUP1 SLOAD PUSH2 0x1073 SWAP1 PUSH2 0x3169 JUMP JUMPDEST DUP1 ISZERO PUSH2 0x10C0 JUMPI DUP1 PUSH1 0x1F LT PUSH2 0x1095 JUMPI PUSH2 0x100 DUP1 DUP4 SLOAD DIV MUL DUP4 MSTORE SWAP2 PUSH1 0x20 ADD SWAP2 PUSH2 0x10C0 JUMP JUMPDEST DUP3 ADD SWAP2 SWAP1 PUSH1 0x0 MSTORE PUSH1 0x20 PUSH1 0x0 KECCAK256 SWAP1 JUMPDEST DUP2 SLOAD DUP2 MSTORE SWAP1 PUSH1 0x1 ADD SWAP1 PUSH1 0x20 ADD DUP1 DUP4 GT PUSH2 0x10A3 JUMPI DUP3 SWAP1 SUB PUSH1 0x1F AND DUP3 ADD SWAP2 JUMPDEST POP POP POP SWAP2 DUP4 MSTORE POP POP PUSH1 0x3 DUP3 ADD SLOAD PUSH1 0x20 DUP1 DUP4 ADD SWAP2 SWAP1 SWAP2 MSTORE PUSH1 0x4 SWAP1 SWAP3 ADD SLOAD PUSH1 0x1 PUSH1 0x1 PUSH1 0xA0 SHL SUB AND PUSH1 0x40 SWAP1 SWAP2 ADD MSTORE SWAP1 DUP3 MSTORE PUSH1 0x1 SWAP3 SWAP1 SWAP3 ADD SWAP2 ADD PUSH2 0x1000 JUMP JUMPDEST POP POP POP POP SWAP1 POP SWAP2 SWAP1 POP JUMP JUMPDEST PUSH1 0x60 PUSH1 0x0 PUSH1 0x1 JUMPDEST PUSH1 0x2 SLOAD DUP2 GT PUSH2 0x1156 JUMPI PUSH1 0x0 DUP2 DUP2 MSTORE PUSH1 0x5 PUSH1 0x20 MSTORE PUSH1 0x40 SWAP1 KECCAK256 PUSH1 0x7 ADD SLOAD PUSH1 0x1 PUSH1 0xA8 SHL SWAP1 DIV PUSH1 0xFF AND PUSH2 0x1144 JUMPI DUP2 PUSH2 0x1140 DUP2 PUSH2 0x3150 JUMP JUMPDEST SWAP3 POP POP JUMPDEST DUP1 PUSH2 0x114E DUP2 PUSH2 0x3150 JUMP JUMPDEST SWAP2 POP POP PUSH2 0x110D JUMP JUMPDEST POP DUP1 PUSH8 0xFFFFFFFFFFFFFFFF DUP2 GT ISZERO PUSH2 0x1170 JUMPI PUSH2 0x1170 PUSH2 0x2A88 JUMP JUMPDEST PUSH1 0x40 MLOAD SWAP1 DUP1 DUP3 MSTORE DUP1 PUSH1 0x20 MUL PUSH1 0x20 ADD DUP3 ADD PUSH1 0x40 MSTORE DUP1 ISZERO PUSH2 0x11A9 JUMPI DUP2 PUSH1 0x20 ADD JUMPDEST PUSH2 0x1196 PUSH2 0x293D JUMP JUMPDEST DUP2 MSTORE PUSH1 0x20 ADD SWAP1 PUSH1 0x1 SWAP1 SUB SWAP1 DUP2 PUSH2 0x118E JUMPI SWAP1 POP JUMPDEST POP SWAP2 POP PUSH1 0x0 PUSH1 0x1 JUMPDEST PUSH1 0x2 SLOAD DUP2 GT PUSH2 0x14DB JUMPI PUSH1 0x0 DUP2 DUP2 MSTORE PUSH1 0x5 PUSH1 0x20 MSTORE PUSH1 0x40 SWAP1 KECCAK256 PUSH1 0x7 ADD SLOAD PUSH1 0x1 PUSH1 0xA8 SHL SWAP1 DIV PUSH1 0xFF AND PUSH2 0x14C9 JUMPI PUSH1 0x5 PUSH1 0x0 DUP3 DUP2 MSTORE PUSH1 0x20 ADD SWAP1 DUP2 MSTORE PUSH1 0x20 ADD PUSH1 0x0 KECCAK256 PUSH1 0x40 MLOAD DUP1 PUSH2 0x160 ADD PUSH1 0x40 MSTORE SWAP1 DUP2 PUSH1 0x0 DUP3 ADD SLOAD DUP2 MSTORE PUSH1 0x20 ADD PUSH1 0x1 DUP3 ADD DUP1 SLOAD PUSH2 0x1213 SWAP1 PUSH2 0x3169 JUMP JUMPDEST DUP1 PUSH1 0x1F ADD PUSH1 0x20 DUP1 SWAP2 DIV MUL PUSH1 0x20 ADD PUSH1 0x40 MLOAD SWAP1 DUP2 ADD PUSH1 0x40 MSTORE DUP1 SWAP3 SWAP2 SWAP1 DUP2 DUP2 MSTORE PUSH1 0x20 ADD DUP3 DUP1 SLOAD PUSH2 0x123F SWAP1 PUSH2 0x3169 JUMP JUMPDEST DUP1 ISZERO PUSH2 0x128C JUMPI DUP1 PUSH1 0x1F LT PUSH2 0x1261 JUMPI PUSH2 0x100 DUP1 DUP4 SLOAD DIV MUL DUP4 MSTORE SWAP2 PUSH1 0x20 ADD SWAP2 PUSH2 0x128C JUMP JUMPDEST DUP3 ADD SWAP2 SWAP1 PUSH1 0x0 MSTORE PUSH1 0x20 PUSH1 0x0 KECCAK256 SWAP1 JUMPDEST DUP2 SLOAD DUP2 MSTORE SWAP1 PUSH1 0x1 ADD SWAP1 PUSH1 0x20 ADD DUP1 DUP4 GT PUSH2 0x126F JUMPI DUP3 SWAP1 SUB PUSH1 0x1F AND DUP3 ADD SWAP2 JUMPDEST POP POP POP POP POP DUP2 MSTORE PUSH1 0x20 ADD PUSH1 0x2 DUP3 ADD DUP1 SLOAD PUSH2 0x12A5 SWAP1 PUSH2 0x3169 JUMP JUMPDEST DUP1 PUSH1 0x1F ADD PUSH1 0x20 DUP1 SWAP2 DIV MUL PUSH1 0x20 ADD PUSH1 0x40 MLOAD SWAP1 DUP2 ADD PUSH1 0x40 MSTORE DUP1 SWAP3 SWAP2 SWAP1 DUP2 DUP2 MSTORE PUSH1 0x20 ADD DUP3 DUP1 SLOAD PUSH2 0x12D1 SWAP1 PUSH2 0x3169 JUMP JUMPDEST DUP1 ISZERO PUSH2 0x131E JUMPI DUP1 PUSH1 0x1F LT PUSH2 0x12F3 JUMPI PUSH2 0x100 DUP1 DUP4 SLOAD DIV MUL DUP4 MSTORE SWAP2 PUSH1 0x20 ADD SWAP2 PUSH2 0x131E JUMP JUMPDEST DUP3 ADD SWAP2 SWAP1 PUSH1 0x0 MSTORE PUSH1 0x20 PUSH1 0x0 KECCAK256 SWAP1 JUMPDEST DUP2 SLOAD DUP2 MSTORE SWAP1 PUSH1 0x1 ADD SWAP1 PUSH1 0x20 ADD DUP1 DUP4 GT PUSH2 0x1301 JUMPI DUP3 SWAP1 SUB PUSH1 0x1F AND DUP3 ADD SWAP2 JUMPDEST POP POP POP POP POP DUP2 MSTORE PUSH1 0x20 ADD PUSH1 0x3 DUP3 ADD DUP1 SLOAD PUSH2 0x1337 SWAP1 PUSH2 0x3169 JUMP JUMPDEST DUP1 PUSH1 0x1F ADD PUSH1 0x20 DUP1 SWAP2 DIV MUL PUSH1 0x20 ADD PUSH1 0x40 MLOAD SWAP1 DUP2 ADD PUSH1 0x40 MSTORE DUP1 SWAP3 SWAP2 SWAP1 DUP2 DUP2 MSTORE PUSH1 0x20 ADD DUP3 DUP1 SLOAD PUSH2 0x1363 SWAP1 PUSH2 0x3169 JUMP JUMPDEST DUP1 ISZERO PUSH2 0x13B0 JUMPI DUP1 PUSH1 0x1F LT PUSH2 0x1385 JUMPI PUSH2 0x100 DUP1 DUP4 SLOAD DIV MUL DUP4 MSTORE SWAP2 PUSH1 0x20 ADD SWAP2 PUSH2 0x13B0 JUMP JUMPDEST DUP3 ADD SWAP2 SWAP1 PUSH1 0x0 MSTORE PUSH1 0x20 PUSH1 0x0 KECCAK256 SWAP1 JUMPDEST DUP2 SLOAD DUP2 MSTORE SWAP1 PUSH1 0x1 ADD SWAP1 PUSH1 0x20 ADD DUP1 DUP4 GT PUSH2 0x1393 JUMPI DUP3 SWAP1 SUB PUSH1 0x1F AND DUP3 ADD SWAP2 JUMPDEST POP POP POP POP POP DUP2 MSTORE PUSH1 0x20 ADD PUSH1 0x4 DUP3 ADD DUP1 SLOAD PUSH2 0x13C9 SWAP1 PUSH2 0x3169 JUMP JUMPDEST DUP1 PUSH1 0x1F ADD PUSH1 0x20 DUP1 SWAP2 DIV MUL PUSH1 0x20 ADD PUSH1 0x40 MLOAD SWAP1 DUP2 ADD PUSH1 0x40 MSTORE DUP1 SWAP3 SWAP2 SWAP1 DUP2 DUP2 MSTORE PUSH1 0x20 ADD DUP3 DUP1 SLOAD PUSH2 0x13F5 SWAP1 PUSH2 0x3169 JUMP JUMPDEST DUP1 ISZERO PUSH2 0x1442 JUMPI DUP1 PUSH1 0x1F LT PUSH2 0x1417 JUMPI PUSH2 0x100 DUP1 DUP4 SLOAD DIV MUL DUP4 MSTORE SWAP2 PUSH1 0x20 ADD SWAP2 PUSH2 0x1442 JUMP JUMPDEST DUP3 ADD SWAP2 SWAP1 PUSH1 0x0 MSTORE PUSH1 0x20 PUSH1 0x0 KECCAK256 SWAP1 JUMPDEST DUP2 SLOAD DUP2 MSTORE SWAP1 PUSH1 0x1 ADD SWAP1 PUSH1 0x20 ADD DUP1 DUP4 GT PUSH2 0x1425 JUMPI DUP3 SWAP1 SUB PUSH1 0x1F AND DUP3 ADD SWAP2 JUMPDEST POP POP POP SWAP2 DUP4 MSTORE POP POP PUSH1 0x5 DUP3 ADD SLOAD PUSH1 0x20 DUP3 ADD MSTORE PUSH1 0x6 DUP3 ADD SLOAD PUSH1 0x40 DUP3 ADD MSTORE PUSH1 0x7 DUP3 ADD SLOAD PUSH1 0x1 PUSH1 0x1 PUSH1 0xA0 SHL SUB DUP2 AND PUSH1 0x60 DUP4 ADD MSTORE PUSH1 0xFF PUSH1 0x1 PUSH1 0xA0 SHL DUP3 DIV DUP2 AND ISZERO ISZERO PUSH1 0x80 DUP5 ADD MSTORE PUSH1 0x1 PUSH1 0xA8 SHL SWAP1 SWAP2 DIV AND ISZERO ISZERO PUSH1 0xA0 DUP3 ADD MSTORE PUSH1 0x8 SWAP1 SWAP2 ADD SLOAD PUSH1 0xC0 SWAP1 SWAP2 ADD MSTORE DUP5 DUP4 PUSH2 0x14AB DUP2 PUSH2 0x3150 JUMP JUMPDEST SWAP5 POP DUP2 MLOAD DUP2 LT PUSH2 0x14BD JUMPI PUSH2 0x14BD PUSH2 0x3091 JUMP JUMPDEST PUSH1 0x20 MUL PUSH1 0x20 ADD ADD DUP2 SWAP1 MSTORE POP JUMPDEST DUP1 PUSH2 0x14D3 DUP2 PUSH2 0x3150 JUMP JUMPDEST SWAP2 POP POP PUSH2 0x11B1 JUMP JUMPDEST POP POP POP SWAP1 JUMP JUMPDEST PUSH1 0x0 DUP8 DUP2 MSTORE PUSH1 0x8 PUSH1 0x20 MSTORE PUSH1 0x40 SWAP1 KECCAK256 SLOAD PUSH1 0xFF AND ISZERO ISZERO PUSH1 0x1 EQ PUSH2 0x153B JUMPI PUSH1 0x40 MLOAD PUSH3 0x461BCD PUSH1 0xE5 SHL DUP2 MSTORE PUSH1 0x20 PUSH1 0x4 DUP3 ADD MSTORE PUSH1 0x14 PUSH1 0x24 DUP3 ADD MSTORE PUSH20 0x105C1C185C9D1B595B9D081B9BDD08199BDD5B99 PUSH1 0x62 SHL PUSH1 0x44 DUP3 ADD MSTORE PUSH1 0x64 ADD PUSH2 0x49A JUMP JUMPDEST PUSH1 0x0 DUP8 DUP2 MSTORE PUSH1 0x5 PUSH1 0x20 MSTORE PUSH1 0x40 SWAP1 KECCAK256 PUSH1 0x7 ADD SLOAD PUSH1 0x1 PUSH1 0x1 PUSH1 0xA0 SHL SUB AND CALLER EQ PUSH2 0x15AF JUMPI PUSH1 0x40 MLOAD PUSH3 0x461BCD PUSH1 0xE5 SHL DUP2 MSTORE PUSH1 0x20 PUSH1 0x4 DUP3 ADD MSTORE PUSH1 0x22 PUSH1 0x24 DUP3 ADD MSTORE PUSH32 0x556E617574686F72697A656420706572736F6E6E656C2C206F776E6572206F6E PUSH1 0x44 DUP3 ADD MSTORE PUSH2 0x6C79 PUSH1 0xF0 SHL PUSH1 0x64 DUP3 ADD MSTORE PUSH1 0x84 ADD PUSH2 0x49A JUMP JUMPDEST PUSH1 0x0 DUP7 MLOAD GT PUSH2 0x15F7 JUMPI PUSH1 0x40 MLOAD PUSH3 0x461BCD PUSH1 0xE5 SHL DUP2 MSTORE PUSH1 0x20 PUSH1 0x4 DUP3 ADD MSTORE PUSH1 0x14 PUSH1 0x24 DUP3 ADD MSTORE PUSH20 0x4E616D652063616E6E6F7420626520656D707479 PUSH1 0x60 SHL PUSH1 0x44 DUP3 ADD MSTORE PUSH1 0x64 ADD PUSH2 0x49A JUMP JUMPDEST PUSH1 0x0 DUP6 MLOAD GT PUSH2 0x1648 JUMPI PUSH1 0x40 MLOAD PUSH3 0x461BCD PUSH1 0xE5 SHL DUP2 MSTORE PUSH1 0x20 PUSH1 0x4 DUP3 ADD MSTORE PUSH1 0x1B PUSH1 0x24 DUP3 ADD MSTORE PUSH32 0x4465736372697074696F6E2063616E6E6F7420626520656D7074790000000000 PUSH1 0x44 DUP3 ADD MSTORE PUSH1 0x64 ADD PUSH2 0x49A JUMP JUMPDEST PUSH1 0x0 DUP5 MLOAD GT PUSH2 0x1694 JUMPI PUSH1 0x40 MLOAD PUSH3 0x461BCD PUSH1 0xE5 SHL DUP2 MSTORE PUSH1 0x20 PUSH1 0x4 DUP3 ADD MSTORE PUSH1 0x18 PUSH1 0x24 DUP3 ADD MSTORE PUSH24 0x4C6F636174696F6E2063616E6E6F7420626520656D707479 PUSH1 0x40 SHL PUSH1 0x44 DUP3 ADD MSTORE PUSH1 0x64 ADD PUSH2 0x49A JUMP JUMPDEST PUSH1 0x0 DUP4 MLOAD GT PUSH2 0x16DE JUMPI PUSH1 0x40 MLOAD PUSH3 0x461BCD PUSH1 0xE5 SHL DUP2 MSTORE PUSH1 0x20 PUSH1 0x4 DUP3 ADD MSTORE PUSH1 0x16 PUSH1 0x24 DUP3 ADD MSTORE PUSH22 0x496D616765732063616E6E6F7420626520656D707479 PUSH1 0x50 SHL PUSH1 0x44 DUP3 ADD MSTORE PUSH1 0x64 ADD PUSH2 0x49A JUMP JUMPDEST PUSH1 0x0 DUP3 GT PUSH2 0x1725 JUMPI PUSH1 0x40 MLOAD PUSH3 0x461BCD PUSH1 0xE5 SHL DUP2 MSTORE PUSH1 0x20 PUSH1 0x4 DUP3 ADD MSTORE PUSH1 0x14 PUSH1 0x24 DUP3 ADD MSTORE PUSH20 0x526F6F6D732063616E6E6F74206265207A65726F PUSH1 0x60 SHL PUSH1 0x44 DUP3 ADD MSTORE PUSH1 0x64 ADD PUSH2 0x49A JUMP JUMPDEST PUSH1 0x0 DUP2 GT PUSH2 0x176C JUMPI PUSH1 0x40 MLOAD PUSH3 0x461BCD PUSH1 0xE5 SHL DUP2 MSTORE PUSH1 0x20 PUSH1 0x4 DUP3 ADD MSTORE PUSH1 0x14 PUSH1 0x24 DUP3 ADD MSTORE PUSH20 0x50726963652063616E6E6F74206265207A65726F PUSH1 0x60 SHL PUSH1 0x44 DUP3 ADD MSTORE PUSH1 0x64 ADD PUSH2 0x49A JUMP JUMPDEST PUSH1 0x0 PUSH1 0x5 PUSH1 0x0 DUP10 DUP2 MSTORE PUSH1 0x20 ADD SWAP1 DUP2 MSTORE PUSH1 0x20 ADD PUSH1 0x0 KECCAK256 PUSH1 0x40 MLOAD DUP1 PUSH2 0x160 ADD PUSH1 0x40 MSTORE SWAP1 DUP2 PUSH1 0x0 DUP3 ADD SLOAD DUP2 MSTORE PUSH1 0x20 ADD PUSH1 0x1 DUP3 ADD DUP1 SLOAD PUSH2 0x17A7 SWAP1 PUSH2 0x3169 JUMP JUMPDEST DUP1 PUSH1 0x1F ADD PUSH1 0x20 DUP1 SWAP2 DIV MUL PUSH1 0x20 ADD PUSH1 0x40 MLOAD SWAP1 DUP2 ADD PUSH1 0x40 MSTORE DUP1 SWAP3 SWAP2 SWAP1 DUP2 DUP2 MSTORE PUSH1 0x20 ADD DUP3 DUP1 SLOAD PUSH2 0x17D3 SWAP1 PUSH2 0x3169 JUMP JUMPDEST DUP1 ISZERO PUSH2 0x1820 JUMPI DUP1 PUSH1 0x1F LT PUSH2 0x17F5 JUMPI PUSH2 0x100 DUP1 DUP4 SLOAD DIV MUL DUP4 MSTORE SWAP2 PUSH1 0x20 ADD SWAP2 PUSH2 0x1820 JUMP JUMPDEST DUP3 ADD SWAP2 SWAP1 PUSH1 0x0 MSTORE PUSH1 0x20 PUSH1 0x0 KECCAK256 SWAP1 JUMPDEST DUP2 SLOAD DUP2 MSTORE SWAP1 PUSH1 0x1 ADD SWAP1 PUSH1 0x20 ADD DUP1 DUP4 GT PUSH2 0x1803 JUMPI DUP3 SWAP1 SUB PUSH1 0x1F AND DUP3 ADD SWAP2 JUMPDEST POP POP POP POP POP DUP2 MSTORE PUSH1 0x20 ADD PUSH1 0x2 DUP3 ADD DUP1 SLOAD PUSH2 0x1839 SWAP1 PUSH2 0x3169 JUMP JUMPDEST DUP1 PUSH1 0x1F ADD PUSH1 0x20 DUP1 SWAP2 DIV MUL PUSH1 0x20 ADD PUSH1 0x40 MLOAD SWAP1 DUP2 ADD PUSH1 0x40 MSTORE DUP1 SWAP3 SWAP2 SWAP1 DUP2 DUP2 MSTORE PUSH1 0x20 ADD DUP3 DUP1 SLOAD PUSH2 0x1865 SWAP1 PUSH2 0x3169 JUMP JUMPDEST DUP1 ISZERO PUSH2 0x18B2 JUMPI DUP1 PUSH1 0x1F LT PUSH2 0x1887 JUMPI PUSH2 0x100 DUP1 DUP4 SLOAD DIV MUL DUP4 MSTORE SWAP2 PUSH1 0x20 ADD SWAP2 PUSH2 0x18B2 JUMP JUMPDEST DUP3 ADD SWAP2 SWAP1 PUSH1 0x0 MSTORE PUSH1 0x20 PUSH1 0x0 KECCAK256 SWAP1 JUMPDEST DUP2 SLOAD DUP2 MSTORE SWAP1 PUSH1 0x1 ADD SWAP1 PUSH1 0x20 ADD DUP1 DUP4 GT PUSH2 0x1895 JUMPI DUP3 SWAP1 SUB PUSH1 0x1F AND DUP3 ADD SWAP2 JUMPDEST POP POP POP POP POP DUP2 MSTORE PUSH1 0x20 ADD PUSH1 0x3 DUP3 ADD DUP1 SLOAD PUSH2 0x18CB SWAP1 PUSH2 0x3169 JUMP JUMPDEST DUP1 PUSH1 0x1F ADD PUSH1 0x20 DUP1 SWAP2 DIV MUL PUSH1 0x20 ADD PUSH1 0x40 MLOAD SWAP1 DUP2 ADD PUSH1 0x40 MSTORE DUP1 SWAP3 SWAP2 SWAP1 DUP2 DUP2 MSTORE PUSH1 0x20 ADD DUP3 DUP1 SLOAD PUSH2 0x18F7 SWAP1 PUSH2 0x3169 JUMP JUMPDEST DUP1 ISZERO PUSH2 0x1944 JUMPI DUP1 PUSH1 0x1F LT PUSH2 0x1919 JUMPI PUSH2 0x100 DUP1 DUP4 SLOAD DIV MUL DUP4 MSTORE SWAP2 PUSH1 0x20 ADD SWAP2 PUSH2 0x1944 JUMP JUMPDEST DUP3 ADD SWAP2 SWAP1 PUSH1 0x0 MSTORE PUSH1 0x20 PUSH1 0x0 KECCAK256 SWAP1 JUMPDEST DUP2 SLOAD DUP2 MSTORE SWAP1 PUSH1 0x1 ADD SWAP1 PUSH1 0x20 ADD DUP1 DUP4 GT PUSH2 0x1927 JUMPI DUP3 SWAP1 SUB PUSH1 0x1F AND DUP3 ADD SWAP2 JUMPDEST POP POP POP POP POP DUP2 MSTORE PUSH1 0x20 ADD PUSH1 0x4 DUP3 ADD DUP1 SLOAD PUSH2 0x195D SWAP1 PUSH2 0x3169 JUMP JUMPDEST DUP1 PUSH1 0x1F ADD PUSH1 0x20 DUP1 SWAP2 DIV MUL PUSH1 0x20 ADD PUSH1 0x40 MLOAD SWAP1 DUP2 ADD PUSH1 0x40 MSTORE DUP1 SWAP3 SWAP2 SWAP1 DUP2 DUP2 MSTORE PUSH1 0x20 ADD DUP3 DUP1 SLOAD PUSH2 0x1989 SWAP1 PUSH2 0x3169 JUMP JUMPDEST DUP1 ISZERO PUSH2 0x19D6 JUMPI DUP1 PUSH1 0x1F LT PUSH2 0x19AB JUMPI PUSH2 0x100 DUP1 DUP4 SLOAD DIV MUL DUP4 MSTORE SWAP2 PUSH1 0x20 ADD SWAP2 PUSH2 0x19D6 JUMP JUMPDEST DUP3 ADD SWAP2 SWAP1 PUSH1 0x0 MSTORE PUSH1 0x20 PUSH1 0x0 KECCAK256 SWAP1 JUMPDEST DUP2 SLOAD DUP2 MSTORE SWAP1 PUSH1 0x1 ADD SWAP1 PUSH1 0x20 ADD DUP1 DUP4 GT PUSH2 0x19B9 JUMPI DUP3 SWAP1 SUB PUSH1 0x1F AND DUP3 ADD SWAP2 JUMPDEST POP POP POP SWAP2 DUP4 MSTORE POP POP PUSH1 0x5 DUP3 DUP2 ADD SLOAD PUSH1 0x20 DUP1 DUP5 ADD SWAP2 SWAP1 SWAP2 MSTORE PUSH1 0x6 DUP5 ADD SLOAD PUSH1 0x40 DUP1 DUP6 ADD SWAP2 SWAP1 SWAP2 MSTORE PUSH1 0x7 DUP6 ADD SLOAD PUSH1 0x1 PUSH1 0x1 PUSH1 0xA0 SHL SUB DUP2 AND PUSH1 0x60 DUP1 DUP8 ADD SWAP2 SWAP1 SWAP2 MSTORE PUSH1 0xFF PUSH1 0x1 PUSH1 0xA0 SHL DUP4 DIV DUP2 AND ISZERO ISZERO PUSH1 0x80 DUP1 DUP10 ADD SWAP2 SWAP1 SWAP2 MSTORE PUSH1 0x1 PUSH1 0xA8 SHL SWAP1 SWAP4 DIV AND ISZERO ISZERO PUSH1 0xA0 DUP1 DUP9 ADD SWAP2 SWAP1 SWAP2 MSTORE PUSH1 0x8 SWAP1 SWAP8 ADD SLOAD PUSH1 0xC0 SWAP7 DUP8 ADD MSTORE DUP8 DUP5 ADD DUP16 DUP2 MSTORE DUP9 DUP5 ADD DUP16 SWAP1 MSTORE SWAP1 DUP9 ADD DUP14 SWAP1 MSTORE SWAP1 DUP8 ADD DUP12 SWAP1 MSTORE SWAP5 DUP7 ADD DUP10 SWAP1 MSTORE SWAP3 DUP6 ADD DUP8 SWAP1 MSTORE PUSH1 0x0 DUP14 DUP2 MSTORE SWAP2 SWAP1 MSTORE KECCAK256 DUP3 MLOAD DUP2 SSTORE SWAP1 MLOAD SWAP2 SWAP3 POP DUP3 SWAP2 PUSH1 0x1 DUP3 ADD SWAP1 PUSH2 0x1A90 SWAP1 DUP3 PUSH2 0x31F1 JUMP JUMPDEST POP PUSH1 0x40 DUP3 ADD MLOAD PUSH1 0x2 DUP3 ADD SWAP1 PUSH2 0x1AA5 SWAP1 DUP3 PUSH2 0x31F1 JUMP JUMPDEST POP PUSH1 0x60 DUP3 ADD MLOAD PUSH1 0x3 DUP3 ADD SWAP1 PUSH2 0x1ABA SWAP1 DUP3 PUSH2 0x31F1 JUMP JUMPDEST POP PUSH1 0x80 DUP3 ADD MLOAD PUSH1 0x4 DUP3 ADD SWAP1 PUSH2 0x1ACF SWAP1 DUP3 PUSH2 0x31F1 JUMP JUMPDEST POP PUSH1 0xA0 DUP3 ADD MLOAD PUSH1 0x5 DUP3 ADD SSTORE PUSH1 0xC0 DUP3 ADD MLOAD PUSH1 0x6 DUP3 ADD SSTORE PUSH1 0xE0 DUP3 ADD MLOAD PUSH1 0x7 DUP3 ADD DUP1 SLOAD PUSH2 0x100 DUP6 ADD MLOAD PUSH2 0x120 DUP7 ADD MLOAD ISZERO ISZERO PUSH1 0x1 PUSH1 0xA8 SHL MUL PUSH1 0xFF PUSH1 0xA8 SHL NOT SWAP2 ISZERO ISZERO PUSH1 0x1 PUSH1 0xA0 SHL MUL PUSH1 0x1 PUSH1 0x1 PUSH1 0xA8 SHL SUB NOT SWAP1 SWAP4 AND PUSH1 0x1 PUSH1 0x1 PUSH1 0xA0 SHL SUB SWAP1 SWAP6 AND SWAP5 SWAP1 SWAP5 OR SWAP2 SWAP1 SWAP2 OR AND SWAP2 SWAP1 SWAP2 OR SWAP1 SSTORE PUSH2 0x140 SWAP1 SWAP2 ADD MLOAD PUSH1 0x8 SWAP1 SWAP2 ADD SSTORE POP POP POP POP POP POP POP POP JUMP JUMPDEST PUSH2 0x1B57 PUSH2 0x293D JUMP JUMPDEST PUSH1 0x5 PUSH1 0x0 DUP4 DUP2 MSTORE PUSH1 0x20 ADD SWAP1 DUP2 MSTORE PUSH1 0x20 ADD PUSH1 0x0 KECCAK256 PUSH1 0x40 MLOAD DUP1 PUSH2 0x160 ADD PUSH1 0x40 MSTORE SWAP1 DUP2 PUSH1 0x0 DUP3 ADD SLOAD DUP2 MSTORE PUSH1 0x20 ADD PUSH1 0x1 DUP3 ADD DUP1 SLOAD PUSH2 0x1B90 SWAP1 PUSH2 0x3169 JUMP JUMPDEST DUP1 PUSH1 0x1F ADD PUSH1 0x20 DUP1 SWAP2 DIV MUL PUSH1 0x20 ADD PUSH1 0x40 MLOAD SWAP1 DUP2 ADD PUSH1 0x40 MSTORE DUP1 SWAP3 SWAP2 SWAP1 DUP2 DUP2 MSTORE PUSH1 0x20 ADD DUP3 DUP1 SLOAD PUSH2 0x1BBC SWAP1 PUSH2 0x3169 JUMP JUMPDEST DUP1 ISZERO PUSH2 0x1C09 JUMPI DUP1 PUSH1 0x1F LT PUSH2 0x1BDE JUMPI PUSH2 0x100 DUP1 DUP4 SLOAD DIV MUL DUP4 MSTORE SWAP2 PUSH1 0x20 ADD SWAP2 PUSH2 0x1C09 JUMP JUMPDEST DUP3 ADD SWAP2 SWAP1 PUSH1 0x0 MSTORE PUSH1 0x20 PUSH1 0x0 KECCAK256 SWAP1 JUMPDEST DUP2 SLOAD DUP2 MSTORE SWAP1 PUSH1 0x1 ADD SWAP1 PUSH1 0x20 ADD DUP1 DUP4 GT PUSH2 0x1BEC JUMPI DUP3 SWAP1 SUB PUSH1 0x1F AND DUP3 ADD SWAP2 JUMPDEST POP POP POP POP POP DUP2 MSTORE PUSH1 0x20 ADD PUSH1 0x2 DUP3 ADD DUP1 SLOAD PUSH2 0x1C22 SWAP1 PUSH2 0x3169 JUMP JUMPDEST DUP1 PUSH1 0x1F ADD PUSH1 0x20 DUP1 SWAP2 DIV MUL PUSH1 0x20 ADD PUSH1 0x40 MLOAD SWAP1 DUP2 ADD PUSH1 0x40 MSTORE DUP1 SWAP3 SWAP2 SWAP1 DUP2 DUP2 MSTORE PUSH1 0x20 ADD DUP3 DUP1 SLOAD PUSH2 0x1C4E SWAP1 PUSH2 0x3169 JUMP JUMPDEST DUP1 ISZERO PUSH2 0x1C9B JUMPI DUP1 PUSH1 0x1F LT PUSH2 0x1C70 JUMPI PUSH2 0x100 DUP1 DUP4 SLOAD DIV MUL DUP4 MSTORE SWAP2 PUSH1 0x20 ADD SWAP2 PUSH2 0x1C9B JUMP JUMPDEST DUP3 ADD SWAP2 SWAP1 PUSH1 0x0 MSTORE PUSH1 0x20 PUSH1 0x0 KECCAK256 SWAP1 JUMPDEST DUP2 SLOAD DUP2 MSTORE SWAP1 PUSH1 0x1 ADD SWAP1 PUSH1 0x20 ADD DUP1 DUP4 GT PUSH2 0x1C7E JUMPI DUP3 SWAP1 SUB PUSH1 0x1F AND DUP3 ADD SWAP2 JUMPDEST POP POP POP POP POP DUP2 MSTORE PUSH1 0x20 ADD PUSH1 0x3 DUP3 ADD DUP1 SLOAD PUSH2 0x1CB4 SWAP1 PUSH2 0x3169 JUMP JUMPDEST DUP1 PUSH1 0x1F ADD PUSH1 0x20 DUP1 SWAP2 DIV MUL PUSH1 0x20 ADD PUSH1 0x40 MLOAD SWAP1 DUP2 ADD PUSH1 0x40 MSTORE DUP1 SWAP3 SWAP2 SWAP1 DUP2 DUP2 MSTORE PUSH1 0x20 ADD DUP3 DUP1 SLOAD PUSH2 0x1CE0 SWAP1 PUSH2 0x3169 JUMP JUMPDEST DUP1 ISZERO PUSH2 0x1D2D JUMPI DUP1 PUSH1 0x1F LT PUSH2 0x1D02 JUMPI PUSH2 0x100 DUP1 DUP4 SLOAD DIV MUL DUP4 MSTORE SWAP2 PUSH1 0x20 ADD SWAP2 PUSH2 0x1D2D JUMP JUMPDEST DUP3 ADD SWAP2 SWAP1 PUSH1 0x0 MSTORE PUSH1 0x20 PUSH1 0x0 KECCAK256 SWAP1 JUMPDEST DUP2 SLOAD DUP2 MSTORE SWAP1 PUSH1 0x1 ADD SWAP1 PUSH1 0x20 ADD DUP1 DUP4 GT PUSH2 0x1D10 JUMPI DUP3 SWAP1 SUB PUSH1 0x1F AND DUP3 ADD SWAP2 JUMPDEST POP POP POP POP POP DUP2 MSTORE PUSH1 0x20 ADD PUSH1 0x4 DUP3 ADD DUP1 SLOAD PUSH2 0x1D46 SWAP1 PUSH2 0x3169 JUMP JUMPDEST DUP1 PUSH1 0x1F ADD PUSH1 0x20 DUP1 SWAP2 DIV MUL PUSH1 0x20 ADD PUSH1 0x40 MLOAD SWAP1 DUP2 ADD PUSH1 0x40 MSTORE DUP1 SWAP3 SWAP2 SWAP1 DUP2 DUP2 MSTORE PUSH1 0x20 ADD DUP3 DUP1 SLOAD PUSH2 0x1D72 SWAP1 PUSH2 0x3169 JUMP JUMPDEST DUP1 ISZERO PUSH2 0x1DBF JUMPI DUP1 PUSH1 0x1F LT PUSH2 0x1D94 JUMPI PUSH2 0x100 DUP1 DUP4 SLOAD DIV MUL DUP4 MSTORE SWAP2 PUSH1 0x20 ADD SWAP2 PUSH2 0x1DBF JUMP JUMPDEST DUP3 ADD SWAP2 SWAP1 PUSH1 0x0 MSTORE PUSH1 0x20 PUSH1 0x0 KECCAK256 SWAP1 JUMPDEST DUP2 SLOAD DUP2 MSTORE SWAP1 PUSH1 0x1 ADD SWAP1 PUSH1 0x20 ADD DUP1 DUP4 GT PUSH2 0x1DA2 JUMPI DUP3 SWAP1 SUB PUSH1 0x1F AND DUP3 ADD SWAP2 JUMPDEST POP POP POP SWAP2 DUP4 MSTORE POP POP PUSH1 0x5 DUP3 ADD SLOAD PUSH1 0x20 DUP3 ADD MSTORE PUSH1 0x6 DUP3 ADD SLOAD PUSH1 0x40 DUP3 ADD MSTORE PUSH1 0x7 DUP3 ADD SLOAD PUSH1 0x1 PUSH1 0x1 PUSH1 0xA0 SHL SUB DUP2 AND PUSH1 0x60 DUP4 ADD MSTORE PUSH1 0xFF PUSH1 0x1 PUSH1 0xA0 SHL DUP3 DIV DUP2 AND ISZERO ISZERO PUSH1 0x80 DUP5 ADD MSTORE PUSH1 0x1 PUSH1 0xA8 SHL SWAP1 SWAP2 DIV AND ISZERO ISZERO PUSH1 0xA0 DUP3 ADD MSTORE PUSH1 0x8 SWAP1 SWAP2 ADD SLOAD PUSH1 0xC0 SWAP1 SWAP2 ADD MSTORE SWAP3 SWAP2 POP POP JUMP JUMPDEST PUSH1 0x0 DUP7 MLOAD GT PUSH2 0x1E6B JUMPI PUSH1 0x40 MLOAD PUSH3 0x461BCD PUSH1 0xE5 SHL DUP2 MSTORE PUSH1 0x20 PUSH1 0x4 DUP3 ADD MSTORE PUSH1 0x14 PUSH1 0x24 DUP3 ADD MSTORE PUSH20 0x4E616D652063616E6E6F7420626520656D707479 PUSH1 0x60 SHL PUSH1 0x44 DUP3 ADD MSTORE PUSH1 0x64 ADD PUSH2 0x49A JUMP JUMPDEST PUSH1 0x0 DUP6 MLOAD GT PUSH2 0x1EBC JUMPI PUSH1 0x40 MLOAD PUSH3 0x461BCD PUSH1 0xE5 SHL DUP2 MSTORE PUSH1 0x20 PUSH1 0x4 DUP3 ADD MSTORE PUSH1 0x1B PUSH1 0x24 DUP3 ADD MSTORE PUSH32 0x4465736372697074696F6E2063616E6E6F7420626520656D7074790000000000 PUSH1 0x44 DUP3 ADD MSTORE PUSH1 0x64 ADD PUSH2 0x49A JUMP JUMPDEST PUSH1 0x0 DUP5 MLOAD GT PUSH2 0x1F08 JUMPI PUSH1 0x40 MLOAD PUSH3 0x461BCD PUSH1 0xE5 SHL DUP2 MSTORE PUSH1 0x20 PUSH1 0x4 DUP3 ADD MSTORE PUSH1 0x18 PUSH1 0x24 DUP3 ADD MSTORE PUSH24 0x4C6F636174696F6E2063616E6E6F7420626520656D707479 PUSH1 0x40 SHL PUSH1 0x44 DUP3 ADD MSTORE PUSH1 0x64 ADD PUSH2 0x49A JUMP JUMPDEST PUSH1 0x0 DUP4 MLOAD GT PUSH2 0x1F52 JUMPI PUSH1 0x40 MLOAD PUSH3 0x461BCD PUSH1 0xE5 SHL DUP2 MSTORE PUSH1 0x20 PUSH1 0x4 DUP3 ADD MSTORE PUSH1 0x16 PUSH1 0x24 DUP3 ADD MSTORE PUSH22 0x496D616765732063616E6E6F7420626520656D707479 PUSH1 0x50 SHL PUSH1 0x44 DUP3 ADD MSTORE PUSH1 0x64 ADD PUSH2 0x49A JUMP JUMPDEST PUSH1 0x0 DUP3 GT PUSH2 0x1F99 JUMPI PUSH1 0x40 MLOAD PUSH3 0x461BCD PUSH1 0xE5 SHL DUP2 MSTORE PUSH1 0x20 PUSH1 0x4 DUP3 ADD MSTORE PUSH1 0x14 PUSH1 0x24 DUP3 ADD MSTORE PUSH20 0x526F6F6D732063616E6E6F74206265207A65726F PUSH1 0x60 SHL PUSH1 0x44 DUP3 ADD MSTORE PUSH1 0x64 ADD PUSH2 0x49A JUMP JUMPDEST PUSH1 0x0 DUP2 GT PUSH2 0x1FE0 JUMPI PUSH1 0x40 MLOAD PUSH3 0x461BCD PUSH1 0xE5 SHL DUP2 MSTORE PUSH1 0x20 PUSH1 0x4 DUP3 ADD MSTORE PUSH1 0x14 PUSH1 0x24 DUP3 ADD MSTORE PUSH20 0x50726963652063616E6E6F74206265207A65726F PUSH1 0x60 SHL PUSH1 0x44 DUP3 ADD MSTORE PUSH1 0x64 ADD PUSH2 0x49A JUMP JUMPDEST PUSH2 0x1FEE PUSH1 0x2 DUP1 SLOAD PUSH1 0x1 ADD SWAP1 SSTORE JUMP JUMPDEST PUSH2 0x1FF6 PUSH2 0x293D JUMP JUMPDEST PUSH1 0x2 SLOAD DUP2 MSTORE PUSH1 0x20 DUP2 ADD DUP8 SWAP1 MSTORE PUSH1 0x40 DUP2 ADD DUP7 SWAP1 MSTORE PUSH1 0x60 DUP2 ADD DUP6 SWAP1 MSTORE PUSH1 0x80 DUP2 ADD DUP5 SWAP1 MSTORE PUSH1 0xA0 DUP2 ADD DUP4 SWAP1 MSTORE PUSH1 0xC0 DUP2 ADD DUP3 SWAP1 MSTORE CALLER PUSH1 0xE0 DUP3 ADD MSTORE PUSH2 0x2033 PUSH2 0x272D JUMP JUMPDEST PUSH2 0x140 DUP3 ADD MSTORE DUP1 MLOAD PUSH1 0x0 SWAP1 DUP2 MSTORE PUSH1 0x8 PUSH1 0x20 MSTORE PUSH1 0x40 DUP2 KECCAK256 DUP1 SLOAD PUSH1 0xFF NOT AND PUSH1 0x1 OR SWAP1 SSTORE DUP2 SWAP1 PUSH1 0x5 SWAP1 PUSH2 0x2062 PUSH1 0x2 SLOAD SWAP1 JUMP JUMPDEST DUP2 MSTORE PUSH1 0x20 DUP1 DUP3 ADD SWAP3 SWAP1 SWAP3 MSTORE PUSH1 0x40 ADD PUSH1 0x0 KECCAK256 DUP3 MLOAD DUP2 SSTORE SWAP1 DUP3 ADD MLOAD PUSH1 0x1 DUP3 ADD SWAP1 PUSH2 0x208A SWAP1 DUP3 PUSH2 0x31F1 JUMP JUMPDEST POP PUSH1 0x40 DUP3 ADD MLOAD PUSH1 0x2 DUP3 ADD SWAP1 PUSH2 0x209F SWAP1 DUP3 PUSH2 0x31F1 JUMP JUMPDEST POP PUSH1 0x60 DUP3 ADD MLOAD PUSH1 0x3 DUP3 ADD SWAP1 PUSH2 0x20B4 SWAP1 DUP3 PUSH2 0x31F1 JUMP JUMPDEST POP PUSH1 0x80 DUP3 ADD MLOAD PUSH1 0x4 DUP3 ADD SWAP1 PUSH2 0x20C9 SWAP1 DUP3 PUSH2 0x31F1 JUMP JUMPDEST POP PUSH1 0xA0 DUP3 ADD MLOAD PUSH1 0x5 DUP3 ADD SSTORE PUSH1 0xC0 DUP3 ADD MLOAD PUSH1 0x6 DUP3 ADD SSTORE PUSH1 0xE0 DUP3 ADD MLOAD PUSH1 0x7 DUP3 ADD DUP1 SLOAD PUSH2 0x100 DUP6 ADD MLOAD PUSH2 0x120 DUP7 ADD MLOAD ISZERO ISZERO PUSH1 0x1 PUSH1 0xA8 SHL MUL PUSH1 0xFF PUSH1 0xA8 SHL NOT SWAP2 ISZERO ISZERO PUSH1 0x1 PUSH1 0xA0 SHL MUL PUSH1 0x1 PUSH1 0x1 PUSH1 0xA8 SHL SUB NOT SWAP1 SWAP4 AND PUSH1 0x1 PUSH1 0x1 PUSH1 0xA0 SHL SUB SWAP1 SWAP6 AND SWAP5 SWAP1 SWAP5 OR SWAP2 SWAP1 SWAP2 OR AND SWAP2 SWAP1 SWAP2 OR SWAP1 SSTORE PUSH2 0x140 SWAP1 SWAP2 ADD MLOAD PUSH1 0x8 SWAP1 SWAP2 ADD SSTORE POP POP POP POP POP POP POP JUMP JUMPDEST PUSH1 0x0 DUP2 DUP2 MSTORE PUSH1 0x9 PUSH1 0x20 SWAP1 DUP2 MSTORE PUSH1 0x40 SWAP2 DUP3 SWAP1 KECCAK256 DUP1 SLOAD DUP4 MLOAD DUP2 DUP5 MUL DUP2 ADD DUP5 ADD SWAP1 SWAP5 MSTORE DUP1 DUP5 MSTORE PUSH1 0x60 SWAP4 SWAP3 DUP4 ADD DUP3 DUP3 DUP1 ISZERO PUSH2 0x219E JUMPI PUSH1 0x20 MUL DUP3 ADD SWAP2 SWAP1 PUSH1 0x0 MSTORE PUSH1 0x20 PUSH1 0x0 KECCAK256 SWAP1 JUMPDEST DUP2 SLOAD DUP2 MSTORE PUSH1 0x20 ADD SWAP1 PUSH1 0x1 ADD SWAP1 DUP1 DUP4 GT PUSH2 0x218A JUMPI JUMPDEST POP POP POP POP POP SWAP1 POP SWAP2 SWAP1 POP JUMP JUMPDEST PUSH1 0x0 DUP2 DUP2 MSTORE PUSH1 0x8 PUSH1 0x20 MSTORE PUSH1 0x40 SWAP1 KECCAK256 SLOAD PUSH1 0xFF AND ISZERO ISZERO PUSH1 0x1 EQ PUSH2 0x2204 JUMPI PUSH1 0x40 MLOAD PUSH3 0x461BCD PUSH1 0xE5 SHL DUP2 MSTORE PUSH1 0x20 PUSH1 0x4 DUP3 ADD MSTORE PUSH1 0x14 PUSH1 0x24 DUP3 ADD MSTORE PUSH20 0x105C1C185C9D1B595B9D081B9BDD08199BDD5B99 PUSH1 0x62 SHL PUSH1 0x44 DUP3 ADD MSTORE PUSH1 0x64 ADD PUSH2 0x49A JUMP JUMPDEST PUSH1 0x0 DUP2 DUP2 MSTORE PUSH1 0x5 PUSH1 0x20 MSTORE PUSH1 0x40 SWAP1 KECCAK256 PUSH1 0x7 ADD SLOAD PUSH1 0x1 PUSH1 0x1 PUSH1 0xA0 SHL SUB AND CALLER EQ PUSH2 0x2263 JUMPI PUSH1 0x40 MLOAD PUSH3 0x461BCD PUSH1 0xE5 SHL DUP2 MSTORE PUSH1 0x20 PUSH1 0x4 DUP3 ADD MSTORE PUSH1 0x13 PUSH1 0x24 DUP3 ADD MSTORE PUSH19 0x556E617574686F72697A656420656E74697479 PUSH1 0x68 SHL PUSH1 0x44 DUP3 ADD MSTORE PUSH1 0x64 ADD PUSH2 0x49A JUMP JUMPDEST PUSH1 0x0 SWAP1 DUP2 MSTORE PUSH1 0x8 PUSH1 0x20 SWAP1 DUP2 MSTORE PUSH1 0x40 DUP1 DUP4 KECCAK256 DUP1 SLOAD PUSH1 0xFF NOT AND SWAP1 SSTORE PUSH1 0x5 SWAP1 SWAP2 MSTORE SWAP1 KECCAK256 PUSH1 0x7 ADD DUP1 SLOAD PUSH1 0xFF PUSH1 0xA8 SHL NOT AND PUSH1 0x1 PUSH1 0xA8 SHL OR SWAP1 SSTORE JUMP JUMPDEST PUSH1 0x0 DUP3 DUP2 MSTORE PUSH1 0x8 PUSH1 0x20 MSTORE PUSH1 0x40 SWAP1 KECCAK256 SLOAD PUSH1 0xFF AND PUSH2 0x22EE JUMPI PUSH1 0x40 MLOAD PUSH3 0x461BCD PUSH1 0xE5 SHL DUP2 MSTORE PUSH1 0x20 PUSH1 0x4 DUP3 ADD MSTORE PUSH1 0x14 PUSH1 0x24 DUP3 ADD MSTORE PUSH20 0x41706172746D656E74206E6F7420666F756E6421 PUSH1 0x60 SHL PUSH1 0x44 DUP3 ADD MSTORE PUSH1 0x64 ADD PUSH2 0x49A JUMP JUMPDEST PUSH1 0x3 SLOAD DUP2 MLOAD PUSH1 0x0 DUP5 DUP2 MSTORE PUSH1 0x5 PUSH1 0x20 MSTORE PUSH1 0x40 SWAP1 KECCAK256 PUSH1 0x6 ADD SLOAD PUSH1 0x64 SWAP3 SWAP2 PUSH2 0x2312 SWAP2 PUSH2 0x3104 JUMP JUMPDEST PUSH2 0x231C SWAP2 SWAP1 PUSH2 0x3104 JUMP JUMPDEST PUSH2 0x2326 SWAP2 SWAP1 PUSH2 0x311B JUMP JUMPDEST DUP2 MLOAD PUSH1 0x0 DUP5 DUP2 MSTORE PUSH1 0x5 PUSH1 0x20 MSTORE PUSH1 0x40 SWAP1 KECCAK256 PUSH1 0x6 ADD SLOAD PUSH2 0x2344 SWAP2 SWAP1 PUSH2 0x3104 JUMP JUMPDEST PUSH2 0x234E SWAP2 SWAP1 PUSH2 0x32C7 JUMP JUMPDEST CALLVALUE LT ISZERO PUSH2 0x2392 JUMPI PUSH1 0x40 MLOAD PUSH3 0x461BCD PUSH1 0xE5 SHL DUP2 MSTORE PUSH1 0x20 PUSH1 0x4 DUP3 ADD MSTORE PUSH1 0x12 PUSH1 0x24 DUP3 ADD MSTORE PUSH18 0x496E73756666696369656E742066756E6421 PUSH1 0x70 SHL PUSH1 0x44 DUP3 ADD MSTORE PUSH1 0x64 ADD PUSH2 0x49A JUMP JUMPDEST PUSH2 0x239C DUP3 DUP3 PUSH2 0x284F JUMP JUMPDEST PUSH2 0x23E8 JUMPI PUSH1 0x40 MLOAD PUSH3 0x461BCD PUSH1 0xE5 SHL DUP2 MSTORE PUSH1 0x20 PUSH1 0x4 DUP3 ADD MSTORE PUSH1 0x1E PUSH1 0x24 DUP3 ADD MSTORE PUSH32 0x426F6F6B6564206461746520666F756E6420616D6F6E67206461746573210000 PUSH1 0x44 DUP3 ADD MSTORE PUSH1 0x64 ADD PUSH2 0x49A JUMP JUMPDEST PUSH1 0x0 JUMPDEST DUP2 MLOAD DUP2 LT ISZERO PUSH2 0x2594 JUMPI PUSH2 0x23FC PUSH2 0x28F3 JUMP JUMPDEST PUSH1 0x20 DUP1 DUP3 ADD DUP6 SWAP1 MSTORE PUSH1 0x0 DUP6 DUP2 MSTORE PUSH1 0x6 SWAP1 SWAP2 MSTORE PUSH1 0x40 SWAP1 DUP2 SWAP1 KECCAK256 SLOAD DUP3 MSTORE CALLER SWAP1 DUP3 ADD MSTORE DUP3 MLOAD DUP4 SWAP1 DUP4 SWAP1 DUP2 LT PUSH2 0x2430 JUMPI PUSH2 0x2430 PUSH2 0x3091 JUMP JUMPDEST PUSH1 0x20 SWAP1 DUP2 MUL SWAP2 SWAP1 SWAP2 ADD DUP2 ADD MLOAD PUSH1 0x60 DUP4 ADD SWAP1 DUP2 MSTORE PUSH1 0x0 DUP7 DUP2 MSTORE PUSH1 0x5 DUP1 DUP5 MSTORE PUSH1 0x40 DUP1 DUP4 KECCAK256 PUSH1 0x6 SWAP1 DUP2 ADD SLOAD PUSH1 0x80 DUP9 ADD SWAP1 DUP2 MSTORE DUP11 DUP6 MSTORE DUP2 DUP8 MSTORE DUP3 DUP6 KECCAK256 DUP1 SLOAD PUSH1 0x1 DUP2 DUP2 ADD DUP4 SSTORE SWAP2 DUP8 MSTORE DUP9 DUP8 KECCAK256 DUP11 MLOAD SWAP2 SWAP1 SWAP5 MUL SWAP1 SWAP4 ADD SWAP3 DUP4 SSTORE DUP9 DUP9 ADD MLOAD DUP4 DUP3 ADD SSTORE DUP4 DUP10 ADD MLOAD PUSH1 0x2 DUP5 ADD DUP1 SLOAD PUSH1 0x1 PUSH1 0x1 PUSH1 0xA0 SHL SUB SWAP1 SWAP3 AND PUSH1 0x1 PUSH1 0x1 PUSH1 0xA0 SHL SUB NOT SWAP1 SWAP3 AND SWAP2 SWAP1 SWAP2 OR SWAP1 SSTORE SWAP6 MLOAD PUSH1 0x3 DUP4 ADD SSTORE MLOAD PUSH1 0x4 DUP3 ADD SSTORE PUSH1 0xA0 DUP8 ADD MLOAD SWAP3 ADD DUP1 SLOAD PUSH1 0xC0 DUP9 ADD MLOAD ISZERO ISZERO PUSH2 0x100 MUL PUSH2 0xFF00 NOT SWAP5 ISZERO ISZERO SWAP5 SWAP1 SWAP5 AND PUSH2 0xFFFF NOT SWAP1 SWAP2 AND OR SWAP3 SWAP1 SWAP3 OR SWAP1 SWAP2 SSTORE DUP8 DUP3 MSTORE PUSH1 0xA SWAP1 SWAP4 MSTORE SWAP2 DUP3 KECCAK256 DUP6 MLOAD SWAP2 SWAP3 SWAP1 SWAP2 DUP7 SWAP1 DUP7 SWAP1 DUP2 LT PUSH2 0x2510 JUMPI PUSH2 0x2510 PUSH2 0x3091 JUMP JUMPDEST PUSH1 0x20 MUL PUSH1 0x20 ADD ADD MLOAD DUP2 MSTORE PUSH1 0x20 ADD SWAP1 DUP2 MSTORE PUSH1 0x20 ADD PUSH1 0x0 KECCAK256 PUSH1 0x0 PUSH2 0x100 EXP DUP2 SLOAD DUP2 PUSH1 0xFF MUL NOT AND SWAP1 DUP4 ISZERO ISZERO MUL OR SWAP1 SSTORE POP PUSH1 0x9 PUSH1 0x0 DUP6 DUP2 MSTORE PUSH1 0x20 ADD SWAP1 DUP2 MSTORE PUSH1 0x20 ADD PUSH1 0x0 KECCAK256 DUP4 DUP4 DUP2 MLOAD DUP2 LT PUSH2 0x2562 JUMPI PUSH2 0x2562 PUSH2 0x3091 JUMP JUMPDEST PUSH1 0x20 SWAP1 DUP2 MUL SWAP2 SWAP1 SWAP2 ADD DUP2 ADD MLOAD DUP3 SLOAD PUSH1 0x1 DUP2 ADD DUP5 SSTORE PUSH1 0x0 SWAP4 DUP5 MSTORE SWAP2 SWAP1 SWAP3 KECCAK256 ADD SSTORE POP DUP1 PUSH2 0x258C DUP2 PUSH2 0x3150 JUMP JUMPDEST SWAP2 POP POP PUSH2 0x23EB JUMP JUMPDEST POP POP POP JUMP JUMPDEST PUSH2 0x25A1 PUSH2 0x27A5 JUMP JUMPDEST PUSH1 0x1 PUSH1 0x1 PUSH1 0xA0 SHL SUB DUP2 AND PUSH2 0x2606 JUMPI PUSH1 0x40 MLOAD PUSH3 0x461BCD PUSH1 0xE5 SHL DUP2 MSTORE PUSH1 0x20 PUSH1 0x4 DUP3 ADD MSTORE PUSH1 0x26 PUSH1 0x24 DUP3 ADD MSTORE PUSH32 0x4F776E61626C653A206E6577206F776E657220697320746865207A65726F2061 PUSH1 0x44 DUP3 ADD MSTORE PUSH6 0x646472657373 PUSH1 0xD0 SHL PUSH1 0x64 DUP3 ADD MSTORE PUSH1 0x84 ADD PUSH2 0x49A JUMP JUMPDEST PUSH2 0x260F DUP2 PUSH2 0x27FF JUMP JUMPDEST POP JUMP JUMPDEST PUSH1 0x60 PUSH1 0x6 PUSH1 0x0 DUP4 DUP2 MSTORE PUSH1 0x20 ADD SWAP1 DUP2 MSTORE PUSH1 0x20 ADD PUSH1 0x0 KECCAK256 DUP1 SLOAD DUP1 PUSH1 0x20 MUL PUSH1 0x20 ADD PUSH1 0x40 MLOAD SWAP1 DUP2 ADD PUSH1 0x40 MSTORE DUP1 SWAP3 SWAP2 SWAP1 DUP2 DUP2 MSTORE PUSH1 0x20 ADD PUSH1 0x0 SWAP1 JUMPDEST DUP3 DUP3 LT ISZERO PUSH2 0x10FB JUMPI PUSH1 0x0 DUP5 DUP2 MSTORE PUSH1 0x20 SWAP1 DUP2 SWAP1 KECCAK256 PUSH1 0x40 DUP1 MLOAD PUSH1 0xE0 DUP2 ADD DUP3 MSTORE PUSH1 0x6 DUP7 MUL SWAP1 SWAP3 ADD DUP1 SLOAD DUP4 MSTORE PUSH1 0x1 DUP1 DUP3 ADD SLOAD DUP5 DUP7 ADD MSTORE PUSH1 0x2 DUP3 ADD SLOAD PUSH1 0x1 PUSH1 0x1 PUSH1 0xA0 SHL SUB AND SWAP3 DUP5 ADD SWAP3 SWAP1 SWAP3 MSTORE PUSH1 0x3 DUP2 ADD SLOAD PUSH1 0x60 DUP5 ADD MSTORE PUSH1 0x4 DUP2 ADD SLOAD PUSH1 0x80 DUP5 ADD MSTORE PUSH1 0x5 ADD SLOAD PUSH1 0xFF DUP1 DUP3 AND ISZERO ISZERO PUSH1 0xA0 DUP6 ADD MSTORE PUSH2 0x100 SWAP1 SWAP2 DIV AND ISZERO ISZERO PUSH1 0xC0 DUP4 ADD MSTORE SWAP1 DUP4 MSTORE SWAP1 SWAP3 ADD SWAP2 ADD PUSH2 0x2647 JUMP JUMPDEST PUSH1 0x0 DUP3 PUSH1 0x1 PUSH1 0x1 PUSH1 0xA0 SHL SUB AND DUP3 PUSH1 0x40 MLOAD PUSH1 0x0 PUSH1 0x40 MLOAD DUP1 DUP4 SUB DUP2 DUP6 DUP8 GAS CALL SWAP3 POP POP POP RETURNDATASIZE DUP1 PUSH1 0x0 DUP2 EQ PUSH2 0x271A JUMPI PUSH1 0x40 MLOAD SWAP2 POP PUSH1 0x1F NOT PUSH1 0x3F RETURNDATASIZE ADD AND DUP3 ADD PUSH1 0x40 MSTORE RETURNDATASIZE DUP3 MSTORE RETURNDATASIZE PUSH1 0x0 PUSH1 0x20 DUP5 ADD RETURNDATACOPY PUSH2 0x271F JUMP JUMPDEST PUSH1 0x60 SWAP2 POP JUMPDEST POP POP SWAP1 POP DUP1 PUSH2 0x2594 JUMPI PUSH1 0x0 DUP1 REVERT JUMPDEST PUSH1 0x0 PUSH2 0x273B TIMESTAMP PUSH2 0x3E8 PUSH2 0x3104 JUMP JUMPDEST PUSH2 0x2747 SWAP1 PUSH2 0x3E8 PUSH2 0x32C7 JUMP JUMPDEST SWAP1 POP SWAP1 JUMP JUMPDEST PUSH1 0x2 PUSH1 0x1 SLOAD SUB PUSH2 0x279E JUMPI PUSH1 0x40 MLOAD PUSH3 0x461BCD PUSH1 0xE5 SHL DUP2 MSTORE PUSH1 0x20 PUSH1 0x4 DUP3 ADD MSTORE PUSH1 0x1F PUSH1 0x24 DUP3 ADD MSTORE PUSH32 0x5265656E7472616E637947756172643A207265656E7472616E742063616C6C00 PUSH1 0x44 DUP3 ADD MSTORE PUSH1 0x64 ADD PUSH2 0x49A JUMP JUMPDEST PUSH1 0x2 PUSH1 0x1 SSTORE JUMP JUMPDEST PUSH1 0x0 SLOAD PUSH1 0x1 PUSH1 0x1 PUSH1 0xA0 SHL SUB AND CALLER EQ PUSH2 0xDC4 JUMPI PUSH1 0x40 MLOAD PUSH3 0x461BCD PUSH1 0xE5 SHL DUP2 MSTORE PUSH1 0x20 PUSH1 0x4 DUP3 ADD DUP2 SWAP1 MSTORE PUSH1 0x24 DUP3 ADD MSTORE PUSH32 0x4F776E61626C653A2063616C6C6572206973206E6F7420746865206F776E6572 PUSH1 0x44 DUP3 ADD MSTORE PUSH1 0x64 ADD PUSH2 0x49A JUMP JUMPDEST PUSH1 0x0 DUP1 SLOAD PUSH1 0x1 PUSH1 0x1 PUSH1 0xA0 SHL SUB DUP4 DUP2 AND PUSH1 0x1 PUSH1 0x1 PUSH1 0xA0 SHL SUB NOT DUP4 AND DUP2 OR DUP5 SSTORE PUSH1 0x40 MLOAD SWAP2 SWAP1 SWAP3 AND SWAP3 DUP4 SWAP2 PUSH32 0x8BE0079C531659141344CD1FD0A4F28419497F9722A3DAAFE3B4186F6B6457E0 SWAP2 SWAP1 LOG3 POP POP JUMP JUMPDEST PUSH1 0x0 PUSH1 0x1 DUP2 JUMPDEST DUP4 MLOAD DUP2 LT ISZERO PUSH2 0x28EB JUMPI PUSH1 0x0 JUMPDEST PUSH1 0x0 DUP7 DUP2 MSTORE PUSH1 0x9 PUSH1 0x20 MSTORE PUSH1 0x40 SWAP1 KECCAK256 SLOAD DUP2 LT ISZERO PUSH2 0x28D8 JUMPI PUSH1 0x0 DUP7 DUP2 MSTORE PUSH1 0x9 PUSH1 0x20 MSTORE PUSH1 0x40 SWAP1 KECCAK256 DUP1 SLOAD DUP3 SWAP1 DUP2 LT PUSH2 0x2897 JUMPI PUSH2 0x2897 PUSH2 0x3091 JUMP JUMPDEST SWAP1 PUSH1 0x0 MSTORE PUSH1 0x20 PUSH1 0x0 KECCAK256 ADD SLOAD DUP6 DUP4 DUP2 MLOAD DUP2 LT PUSH2 0x28B4 JUMPI PUSH2 0x28B4 PUSH2 0x3091 JUMP JUMPDEST PUSH1 0x20 MUL PUSH1 0x20 ADD ADD MLOAD SUB PUSH2 0x28C6 JUMPI PUSH1 0x0 SWAP3 POP JUMPDEST DUP1 PUSH2 0x28D0 DUP2 PUSH2 0x3150 JUMP JUMPDEST SWAP2 POP POP PUSH2 0x2861 JUMP JUMPDEST POP DUP1 PUSH2 0x28E3 DUP2 PUSH2 0x3150 JUMP JUMPDEST SWAP2 POP POP PUSH2 0x2855 JUMP JUMPDEST POP SWAP4 SWAP3 POP POP POP JUMP JUMPDEST PUSH1 0x40 MLOAD DUP1 PUSH1 0xE0 ADD PUSH1 0x40 MSTORE DUP1 PUSH1 0x0 DUP2 MSTORE PUSH1 0x20 ADD PUSH1 0x0 DUP2 MSTORE PUSH1 0x20 ADD PUSH1 0x0 PUSH1 0x1 PUSH1 0x1 PUSH1 0xA0 SHL SUB AND DUP2 MSTORE PUSH1 0x20 ADD PUSH1 0x0 DUP2 MSTORE PUSH1 0x20 ADD PUSH1 0x0 DUP2 MSTORE PUSH1 0x20 ADD PUSH1 0x0 ISZERO ISZERO DUP2 MSTORE PUSH1 0x20 ADD PUSH1 0x0 ISZERO ISZERO DUP2 MSTORE POP SWAP1 JUMP JUMPDEST PUSH1 0x40 MLOAD DUP1 PUSH2 0x160 ADD PUSH1 0x40 MSTORE DUP1 PUSH1 0x0 DUP2 MSTORE PUSH1 0x20 ADD PUSH1 0x60 DUP2 MSTORE PUSH1 0x20 ADD PUSH1 0x60 DUP2 MSTORE PUSH1 0x20 ADD PUSH1 0x60 DUP2 MSTORE PUSH1 0x20 ADD PUSH1 0x60 DUP2 MSTORE PUSH1 0x20 ADD PUSH1 0x0 DUP2 MSTORE PUSH1 0x20 ADD PUSH1 0x0 DUP2 MSTORE PUSH1 0x20 ADD PUSH1 0x0 PUSH1 0x1 PUSH1 0x1 PUSH1 0xA0 SHL SUB AND DUP2 MSTORE PUSH1 0x20 ADD PUSH1 0x0 ISZERO ISZERO DUP2 MSTORE PUSH1 0x20 ADD PUSH1 0x0 ISZERO ISZERO DUP2 MSTORE PUSH1 0x20 ADD PUSH1 0x0 DUP2 MSTORE POP SWAP1 JUMP JUMPDEST PUSH1 0x0 DUP1 PUSH1 0x40 DUP4 DUP6 SUB SLT ISZERO PUSH2 0x29B7 JUMPI PUSH1 0x0 DUP1 REVERT JUMPDEST POP POP DUP1 CALLDATALOAD SWAP3 PUSH1 0x20 SWAP1 SWAP2 ADD CALLDATALOAD SWAP2 POP JUMP JUMPDEST PUSH1 0x0 PUSH1 0x20 DUP3 DUP5 SUB SLT ISZERO PUSH2 0x29D8 JUMPI PUSH1 0x0 DUP1 REVERT JUMPDEST POP CALLDATALOAD SWAP2 SWAP1 POP JUMP JUMPDEST PUSH1 0x20 DUP1 DUP3 MSTORE DUP3 MLOAD DUP3 DUP3 ADD DUP2 SWAP1 MSTORE PUSH1 0x0 SWAP2 SWAP1 DUP5 DUP3 ADD SWAP1 PUSH1 0x40 DUP6 ADD SWAP1 DUP5 JUMPDEST DUP2 DUP2 LT ISZERO PUSH2 0x2A20 JUMPI DUP4 MLOAD PUSH1 0x1 PUSH1 0x1 PUSH1 0xA0 SHL SUB AND DUP4 MSTORE SWAP3 DUP5 ADD SWAP3 SWAP2 DUP5 ADD SWAP2 PUSH1 0x1 ADD PUSH2 0x29FB JUMP JUMPDEST POP SWAP1 SWAP7 SWAP6 POP POP POP POP POP POP JUMP JUMPDEST DUP1 MLOAD DUP3 MSTORE PUSH1 0x20 DUP1 DUP3 ADD MLOAD SWAP1 DUP4 ADD MSTORE PUSH1 0x40 DUP1 DUP3 ADD MLOAD PUSH1 0x1 PUSH1 0x1 PUSH1 0xA0 SHL SUB AND SWAP1 DUP4 ADD MSTORE PUSH1 0x60 DUP1 DUP3 ADD MLOAD SWAP1 DUP4 ADD MSTORE PUSH1 0x80 DUP1 DUP3 ADD MLOAD SWAP1 DUP4 ADD MSTORE PUSH1 0xA0 DUP1 DUP3 ADD MLOAD ISZERO ISZERO SWAP1 DUP4 ADD MSTORE PUSH1 0xC0 SWAP1 DUP2 ADD MLOAD ISZERO ISZERO SWAP2 ADD MSTORE JUMP JUMPDEST PUSH1 0xE0 DUP2 ADD PUSH2 0x7EC DUP3 DUP5 PUSH2 0x2A2C JUMP JUMPDEST PUSH4 0x4E487B71 PUSH1 0xE0 SHL PUSH1 0x0 MSTORE PUSH1 0x41 PUSH1 0x4 MSTORE PUSH1 0x24 PUSH1 0x0 REVERT JUMPDEST PUSH1 0x40 MLOAD PUSH1 0x1F DUP3 ADD PUSH1 0x1F NOT AND DUP2 ADD PUSH8 0xFFFFFFFFFFFFFFFF DUP2 GT DUP3 DUP3 LT OR ISZERO PUSH2 0x2AC7 JUMPI PUSH2 0x2AC7 PUSH2 0x2A88 JUMP JUMPDEST PUSH1 0x40 MSTORE SWAP2 SWAP1 POP JUMP JUMPDEST PUSH1 0x0 DUP3 PUSH1 0x1F DUP4 ADD SLT PUSH2 0x2AE0 JUMPI PUSH1 0x0 DUP1 REVERT JUMPDEST DUP2 CALLDATALOAD PUSH8 0xFFFFFFFFFFFFFFFF DUP2 GT ISZERO PUSH2 0x2AFA JUMPI PUSH2 0x2AFA PUSH2 0x2A88 JUMP JUMPDEST PUSH2 0x2B0D PUSH1 0x1F DUP3 ADD PUSH1 0x1F NOT AND PUSH1 0x20 ADD PUSH2 0x2A9E JUMP JUMPDEST DUP2 DUP2 MSTORE DUP5 PUSH1 0x20 DUP4 DUP7 ADD ADD GT ISZERO PUSH2 0x2B22 JUMPI PUSH1 0x0 DUP1 REVERT JUMPDEST DUP2 PUSH1 0x20 DUP6 ADD PUSH1 0x20 DUP4 ADD CALLDATACOPY PUSH1 0x0 SWAP2 DUP2 ADD PUSH1 0x20 ADD SWAP2 SWAP1 SWAP2 MSTORE SWAP4 SWAP3 POP POP POP JUMP JUMPDEST PUSH1 0x0 DUP1 PUSH1 0x40 DUP4 DUP6 SUB SLT ISZERO PUSH2 0x2B52 JUMPI PUSH1 0x0 DUP1 REVERT JUMPDEST DUP3 CALLDATALOAD SWAP2 POP PUSH1 0x20 DUP4 ADD CALLDATALOAD PUSH8 0xFFFFFFFFFFFFFFFF DUP2 GT ISZERO PUSH2 0x2B70 JUMPI PUSH1 0x0 DUP1 REVERT JUMPDEST PUSH2 0x2B7C DUP6 DUP3 DUP7 ADD PUSH2 0x2ACF JUMP JUMPDEST SWAP2 POP POP SWAP3 POP SWAP3 SWAP1 POP JUMP JUMPDEST PUSH1 0x0 DUP2 MLOAD DUP1 DUP5 MSTORE PUSH1 0x0 JUMPDEST DUP2 DUP2 LT ISZERO PUSH2 0x2BAC JUMPI PUSH1 0x20 DUP2 DUP6 ADD DUP2 ADD MLOAD DUP7 DUP4 ADD DUP3 ADD MSTORE ADD PUSH2 0x2B90 JUMP JUMPDEST POP PUSH1 0x0 PUSH1 0x20 DUP3 DUP7 ADD ADD MSTORE PUSH1 0x20 PUSH1 0x1F NOT PUSH1 0x1F DUP4 ADD AND DUP6 ADD ADD SWAP2 POP POP SWAP3 SWAP2 POP POP JUMP JUMPDEST PUSH1 0x0 PUSH1 0x20 DUP1 DUP4 ADD DUP2 DUP5 MSTORE DUP1 DUP6 MLOAD DUP1 DUP4 MSTORE PUSH1 0x40 SWAP3 POP DUP3 DUP7 ADD SWAP2 POP DUP3 DUP2 PUSH1 0x5 SHL DUP8 ADD ADD DUP5 DUP9 ADD PUSH1 0x0 JUMPDEST DUP4 DUP2 LT ISZERO PUSH2 0x2C5C JUMPI PUSH1 0x3F NOT DUP10 DUP5 SUB ADD DUP6 MSTORE DUP2 MLOAD PUSH1 0xA0 DUP2 MLOAD DUP6 MSTORE DUP9 DUP3 ADD MLOAD DUP10 DUP7 ADD MSTORE DUP8 DUP3 ADD MLOAD DUP2 DUP10 DUP8 ADD MSTORE PUSH2 0x2C29 DUP3 DUP8 ADD DUP3 PUSH2 0x2B86 JUMP JUMPDEST PUSH1 0x60 DUP5 DUP2 ADD MLOAD SWAP1 DUP9 ADD MSTORE PUSH1 0x80 SWAP4 DUP5 ADD MLOAD PUSH1 0x1 PUSH1 0x1 PUSH1 0xA0 SHL SUB AND SWAP4 SWAP1 SWAP7 ADD SWAP3 SWAP1 SWAP3 MSTORE POP POP SWAP4 DUP7 ADD SWAP4 SWAP1 DUP7 ADD SWAP1 PUSH1 0x1 ADD PUSH2 0x2BF3 JUMP JUMPDEST POP SWAP1 SWAP9 SWAP8 POP POP POP POP POP POP POP POP JUMP JUMPDEST PUSH1 0x0 PUSH2 0x160 DUP3 MLOAD DUP5 MSTORE PUSH1 0x20 DUP4 ADD MLOAD DUP2 PUSH1 0x20 DUP7 ADD MSTORE PUSH2 0x2C8A DUP3 DUP7 ADD DUP3 PUSH2 0x2B86 JUMP JUMPDEST SWAP2 POP POP PUSH1 0x40 DUP4 ADD MLOAD DUP5 DUP3 SUB PUSH1 0x40 DUP7 ADD MSTORE PUSH2 0x2CA4 DUP3 DUP3 PUSH2 0x2B86 JUMP JUMPDEST SWAP2 POP POP PUSH1 0x60 DUP4 ADD MLOAD DUP5 DUP3 SUB PUSH1 0x60 DUP7 ADD MSTORE PUSH2 0x2CBE DUP3 DUP3 PUSH2 0x2B86 JUMP JUMPDEST SWAP2 POP POP PUSH1 0x80 DUP4 ADD MLOAD DUP5 DUP3 SUB PUSH1 0x80 DUP7 ADD MSTORE PUSH2 0x2CD8 DUP3 DUP3 PUSH2 0x2B86 JUMP JUMPDEST SWAP2 POP POP PUSH1 0xA0 DUP4 ADD MLOAD PUSH1 0xA0 DUP6 ADD MSTORE PUSH1 0xC0 DUP4 ADD MLOAD PUSH1 0xC0 DUP6 ADD MSTORE PUSH1 0xE0 DUP4 ADD MLOAD PUSH2 0x2D09 PUSH1 0xE0 DUP7 ADD DUP3 PUSH1 0x1 PUSH1 0x1 PUSH1 0xA0 SHL SUB AND SWAP1 MSTORE JUMP JUMPDEST POP PUSH2 0x100 DUP4 DUP2 ADD MLOAD ISZERO ISZERO SWAP1 DUP6 ADD MSTORE PUSH2 0x120 DUP1 DUP5 ADD MLOAD ISZERO ISZERO SWAP1 DUP6 ADD MSTORE PUSH2 0x140 SWAP3 DUP4 ADD MLOAD SWAP3 SWAP1 SWAP4 ADD SWAP2 SWAP1 SWAP2 MSTORE POP SWAP1 JUMP JUMPDEST PUSH1 0x0 PUSH1 0x20 DUP1 DUP4 ADD DUP2 DUP5 MSTORE DUP1 DUP6 MLOAD DUP1 DUP4 MSTORE PUSH1 0x40 DUP7 ADD SWAP2 POP PUSH1 0x40 DUP2 PUSH1 0x5 SHL DUP8 ADD ADD SWAP3 POP DUP4 DUP8 ADD PUSH1 0x0 JUMPDEST DUP3 DUP2 LT ISZERO PUSH2 0x2D8C JUMPI PUSH1 0x3F NOT DUP9 DUP7 SUB ADD DUP5 MSTORE PUSH2 0x2D7A DUP6 DUP4 MLOAD PUSH2 0x2C6A JUMP JUMPDEST SWAP5 POP SWAP3 DUP6 ADD SWAP3 SWAP1 DUP6 ADD SWAP1 PUSH1 0x1 ADD PUSH2 0x2D5E JUMP JUMPDEST POP SWAP3 SWAP8 SWAP7 POP POP POP POP POP POP POP JUMP JUMPDEST PUSH1 0x0 DUP1 PUSH1 0x0 DUP1 PUSH1 0x0 DUP1 PUSH1 0x0 PUSH1 0xE0 DUP9 DUP11 SUB SLT ISZERO PUSH2 0x2DB4 JUMPI PUSH1 0x0 DUP1 REVERT JUMPDEST DUP8 CALLDATALOAD SWAP7 POP PUSH1 0x20 DUP9 ADD CALLDATALOAD PUSH8 0xFFFFFFFFFFFFFFFF DUP1 DUP3 GT ISZERO PUSH2 0x2DD3 JUMPI PUSH1 0x0 DUP1 REVERT JUMPDEST PUSH2 0x2DDF DUP12 DUP4 DUP13 ADD PUSH2 0x2ACF JUMP JUMPDEST SWAP8 POP PUSH1 0x40 DUP11 ADD CALLDATALOAD SWAP2 POP DUP1 DUP3 GT ISZERO PUSH2 0x2DF5 JUMPI PUSH1 0x0 DUP1 REVERT JUMPDEST PUSH2 0x2E01 DUP12 DUP4 DUP13 ADD PUSH2 0x2ACF JUMP JUMPDEST SWAP7 POP PUSH1 0x60 DUP11 ADD CALLDATALOAD SWAP2 POP DUP1 DUP3 GT ISZERO PUSH2 0x2E17 JUMPI PUSH1 0x0 DUP1 REVERT JUMPDEST PUSH2 0x2E23 DUP12 DUP4 DUP13 ADD PUSH2 0x2ACF JUMP JUMPDEST SWAP6 POP PUSH1 0x80 DUP11 ADD CALLDATALOAD SWAP2 POP DUP1 DUP3 GT ISZERO PUSH2 0x2E39 JUMPI PUSH1 0x0 DUP1 REVERT JUMPDEST POP PUSH2 0x2E46 DUP11 DUP3 DUP12 ADD PUSH2 0x2ACF JUMP JUMPDEST SWAP4 POP POP PUSH1 0xA0 DUP9 ADD CALLDATALOAD SWAP2 POP PUSH1 0xC0 DUP9 ADD CALLDATALOAD SWAP1 POP SWAP3 SWAP6 SWAP9 SWAP2 SWAP5 SWAP8 POP SWAP3 SWAP6 POP JUMP JUMPDEST PUSH1 0x20 DUP2 MSTORE PUSH1 0x0 PUSH2 0x2E76 PUSH1 0x20 DUP4 ADD DUP5 PUSH2 0x2C6A JUMP JUMPDEST SWAP4 SWAP3 POP POP POP JUMP JUMPDEST PUSH1 0x0 DUP1 PUSH1 0x0 DUP1 PUSH1 0x0 DUP1 PUSH1 0xC0 DUP8 DUP10 SUB SLT ISZERO PUSH2 0x2E96 JUMPI PUSH1 0x0 DUP1 REVERT JUMPDEST DUP7 CALLDATALOAD PUSH8 0xFFFFFFFFFFFFFFFF DUP1 DUP3 GT ISZERO PUSH2 0x2EAE JUMPI PUSH1 0x0 DUP1 REVERT JUMPDEST PUSH2 0x2EBA DUP11 DUP4 DUP12 ADD PUSH2 0x2ACF JUMP JUMPDEST SWAP8 POP PUSH1 0x20 DUP10 ADD CALLDATALOAD SWAP2 POP DUP1 DUP3 GT ISZERO PUSH2 0x2ED0 JUMPI PUSH1 0x0 DUP1 REVERT JUMPDEST PUSH2 0x2EDC DUP11 DUP4 DUP12 ADD PUSH2 0x2ACF JUMP JUMPDEST SWAP7 POP PUSH1 0x40 DUP10 ADD CALLDATALOAD SWAP2 POP DUP1 DUP3 GT ISZERO PUSH2 0x2EF2 JUMPI PUSH1 0x0 DUP1 REVERT JUMPDEST PUSH2 0x2EFE DUP11 DUP4 DUP12 ADD PUSH2 0x2ACF JUMP JUMPDEST SWAP6 POP PUSH1 0x60 DUP10 ADD CALLDATALOAD SWAP2 POP DUP1 DUP3 GT ISZERO PUSH2 0x2F14 JUMPI PUSH1 0x0 DUP1 REVERT JUMPDEST POP PUSH2 0x2F21 DUP10 DUP3 DUP11 ADD PUSH2 0x2ACF JUMP JUMPDEST SWAP4 POP POP PUSH1 0x80 DUP8 ADD CALLDATALOAD SWAP2 POP PUSH1 0xA0 DUP8 ADD CALLDATALOAD SWAP1 POP SWAP3 SWAP6 POP SWAP3 SWAP6 POP SWAP3 SWAP6 JUMP JUMPDEST PUSH1 0x20 DUP1 DUP3 MSTORE DUP3 MLOAD DUP3 DUP3 ADD DUP2 SWAP1 MSTORE PUSH1 0x0 SWAP2 SWAP1 DUP5 DUP3 ADD SWAP1 PUSH1 0x40 DUP6 ADD SWAP1 DUP5 JUMPDEST DUP2 DUP2 LT ISZERO PUSH2 0x2A20 JUMPI DUP4 MLOAD DUP4 MSTORE SWAP3 DUP5 ADD SWAP3 SWAP2 DUP5 ADD SWAP2 PUSH1 0x1 ADD PUSH2 0x2F58 JUMP JUMPDEST PUSH1 0x0 DUP1 PUSH1 0x40 DUP4 DUP6 SUB SLT ISZERO PUSH2 0x2F87 JUMPI PUSH1 0x0 DUP1 REVERT JUMPDEST DUP3 CALLDATALOAD SWAP2 POP PUSH1 0x20 DUP1 DUP5 ADD CALLDATALOAD PUSH8 0xFFFFFFFFFFFFFFFF DUP1 DUP3 GT ISZERO PUSH2 0x2FA7 JUMPI PUSH1 0x0 DUP1 REVERT JUMPDEST DUP2 DUP7 ADD SWAP2 POP DUP7 PUSH1 0x1F DUP4 ADD SLT PUSH2 0x2FBB JUMPI PUSH1 0x0 DUP1 REVERT JUMPDEST DUP2 CALLDATALOAD DUP2 DUP2 GT ISZERO PUSH2 0x2FCD JUMPI PUSH2 0x2FCD PUSH2 0x2A88 JUMP JUMPDEST DUP1 PUSH1 0x5 SHL SWAP2 POP PUSH2 0x2FDE DUP5 DUP4 ADD PUSH2 0x2A9E JUMP JUMPDEST DUP2 DUP2 MSTORE SWAP2 DUP4 ADD DUP5 ADD SWAP2 DUP5 DUP2 ADD SWAP1 DUP10 DUP5 GT ISZERO PUSH2 0x2FF8 JUMPI PUSH1 0x0 DUP1 REVERT JUMPDEST SWAP4 DUP6 ADD SWAP4 JUMPDEST DUP4 DUP6 LT ISZERO PUSH2 0x3016 JUMPI DUP5 CALLDATALOAD DUP3 MSTORE SWAP4 DUP6 ADD SWAP4 SWAP1 DUP6 ADD SWAP1 PUSH2 0x2FFD JUMP JUMPDEST DUP1 SWAP7 POP POP POP POP POP POP POP SWAP3 POP SWAP3 SWAP1 POP JUMP JUMPDEST PUSH1 0x0 PUSH1 0x20 DUP3 DUP5 SUB SLT ISZERO PUSH2 0x3038 JUMPI PUSH1 0x0 DUP1 REVERT JUMPDEST DUP2 CALLDATALOAD PUSH1 0x1 PUSH1 0x1 PUSH1 0xA0 SHL SUB DUP2 AND DUP2 EQ PUSH2 0x2E76 JUMPI PUSH1 0x0 DUP1 REVERT JUMPDEST PUSH1 0x20 DUP1 DUP3 MSTORE DUP3 MLOAD DUP3 DUP3 ADD DUP2 SWAP1 MSTORE PUSH1 0x0 SWAP2 SWAP1 DUP5 DUP3 ADD SWAP1 PUSH1 0x40 DUP6 ADD SWAP1 DUP5 JUMPDEST DUP2 DUP2 LT ISZERO PUSH2 0x2A20 JUMPI PUSH2 0x307E DUP4 DUP6 MLOAD PUSH2 0x2A2C JUMP JUMPDEST SWAP3 DUP5 ADD SWAP3 PUSH1 0xE0 SWAP3 SWAP1 SWAP3 ADD SWAP2 PUSH1 0x1 ADD PUSH2 0x306B JUMP JUMPDEST PUSH4 0x4E487B71 PUSH1 0xE0 SHL PUSH1 0x0 MSTORE PUSH1 0x32 PUSH1 0x4 MSTORE PUSH1 0x24 PUSH1 0x0 REVERT JUMPDEST PUSH1 0x20 DUP1 DUP3 MSTORE PUSH1 0x27 SWAP1 DUP3 ADD MSTORE PUSH32 0x41706172746D656E7420616C726561647920636865636B6564206F6E20746869 PUSH1 0x40 DUP3 ADD MSTORE PUSH7 0x73206461746521 PUSH1 0xC8 SHL PUSH1 0x60 DUP3 ADD MSTORE PUSH1 0x80 ADD SWAP1 JUMP JUMPDEST PUSH4 0x4E487B71 PUSH1 0xE0 SHL PUSH1 0x0 MSTORE PUSH1 0x11 PUSH1 0x4 MSTORE PUSH1 0x24 PUSH1 0x0 REVERT JUMPDEST DUP1 DUP3 MUL DUP2 ISZERO DUP3 DUP3 DIV DUP5 EQ OR PUSH2 0x7EC JUMPI PUSH2 0x7EC PUSH2 0x30EE JUMP JUMPDEST PUSH1 0x0 DUP3 PUSH2 0x3138 JUMPI PUSH4 0x4E487B71 PUSH1 0xE0 SHL PUSH1 0x0 MSTORE PUSH1 0x12 PUSH1 0x4 MSTORE PUSH1 0x24 PUSH1 0x0 REVERT JUMPDEST POP DIV SWAP1 JUMP JUMPDEST DUP2 DUP2 SUB DUP2 DUP2 GT ISZERO PUSH2 0x7EC JUMPI PUSH2 0x7EC PUSH2 0x30EE JUMP JUMPDEST PUSH1 0x0 PUSH1 0x1 DUP3 ADD PUSH2 0x3162 JUMPI PUSH2 0x3162 PUSH2 0x30EE JUMP JUMPDEST POP PUSH1 0x1 ADD SWAP1 JUMP JUMPDEST PUSH1 0x1 DUP2 DUP2 SHR SWAP1 DUP3 AND DUP1 PUSH2 0x317D JUMPI PUSH1 0x7F DUP3 AND SWAP2 POP JUMPDEST PUSH1 0x20 DUP3 LT DUP2 SUB PUSH2 0x319D JUMPI PUSH4 0x4E487B71 PUSH1 0xE0 SHL PUSH1 0x0 MSTORE PUSH1 0x22 PUSH1 0x4 MSTORE PUSH1 0x24 PUSH1 0x0 REVERT JUMPDEST POP SWAP2 SWAP1 POP JUMP JUMPDEST PUSH1 0x1F DUP3 GT ISZERO PUSH2 0x2594 JUMPI PUSH1 0x0 DUP2 DUP2 MSTORE PUSH1 0x20 DUP2 KECCAK256 PUSH1 0x1F DUP6 ADD PUSH1 0x5 SHR DUP2 ADD PUSH1 0x20 DUP7 LT ISZERO PUSH2 0x31CA JUMPI POP DUP1 JUMPDEST PUSH1 0x1F DUP6 ADD PUSH1 0x5 SHR DUP3 ADD SWAP2 POP JUMPDEST DUP2 DUP2 LT ISZERO PUSH2 0x31E9 JUMPI DUP3 DUP2 SSTORE PUSH1 0x1 ADD PUSH2 0x31D6 JUMP JUMPDEST POP POP POP POP POP POP JUMP JUMPDEST DUP2 MLOAD PUSH8 0xFFFFFFFFFFFFFFFF DUP2 GT ISZERO PUSH2 0x320B JUMPI PUSH2 0x320B PUSH2 0x2A88 JUMP JUMPDEST PUSH2 0x321F DUP2 PUSH2 0x3219 DUP5 SLOAD PUSH2 0x3169 JUMP JUMPDEST DUP5 PUSH2 0x31A3 JUMP JUMPDEST PUSH1 0x20 DUP1 PUSH1 0x1F DUP4 GT PUSH1 0x1 DUP2 EQ PUSH2 0x3254 JUMPI PUSH1 0x0 DUP5 ISZERO PUSH2 0x323C JUMPI POP DUP6 DUP4 ADD MLOAD JUMPDEST PUSH1 0x0 NOT PUSH1 0x3 DUP7 SWAP1 SHL SHR NOT AND PUSH1 0x1 DUP6 SWAP1 SHL OR DUP6 SSTORE PUSH2 0x31E9 JUMP JUMPDEST PUSH1 0x0 DUP6 DUP2 MSTORE PUSH1 0x20 DUP2 KECCAK256 PUSH1 0x1F NOT DUP7 AND SWAP2 JUMPDEST DUP3 DUP2 LT ISZERO PUSH2 0x3283 JUMPI DUP9 DUP7 ADD MLOAD DUP3 SSTORE SWAP5 DUP5 ADD SWAP5 PUSH1 0x1 SWAP1 SWAP2 ADD SWAP1 DUP5 ADD PUSH2 0x3264 JUMP JUMPDEST POP DUP6 DUP3 LT ISZERO PUSH2 0x32A1 JUMPI DUP8 DUP6 ADD MLOAD PUSH1 0x0 NOT PUSH1 0x3 DUP9 SWAP1 SHL PUSH1 0xF8 AND SHR NOT AND DUP2 SSTORE JUMPDEST POP POP POP POP POP PUSH1 0x1 SWAP1 DUP2 SHL ADD SWAP1 SSTORE POP JUMP JUMPDEST PUSH4 0x4E487B71 PUSH1 0xE0 SHL PUSH1 0x0 MSTORE PUSH1 0x31 PUSH1 0x4 MSTORE PUSH1 0x24 PUSH1 0x0 REVERT JUMPDEST DUP1 DUP3 ADD DUP1 DUP3 GT ISZERO PUSH2 0x7EC JUMPI PUSH2 0x7EC PUSH2 0x30EE JUMP INVALID LOG2 PUSH5 0x6970667358 0x22 SLT KECCAK256 STOP CALLVALUE 0x4E 0xCE 0xB2 PUSH19 0x510D13030BAB82A7EDF8C9B32DDFDFA3BE7B9 PUSH22 0x1C1FAE339B5364736F6C634300081300330000000000 "},"methodIdentifiers":{"addReview(uint256,string)":"5bb0c5d6","bookApartment(uint256,uint256[])":"df6e0222","checkInApartment(uint256,uint256)":"78419f61","claimFunds(uint256,uint256)":"010b58ee","createAppartment(string,string,string,string,uint256,uint256)":"d57a7b54","deleteAppartment(uint256)":"dec30d39","getApartment(uint256)":"c4452e06","getApartments()":"b1c98099","getBooking(uint256,uint256)":"455b3070","getBookings(uint256)":"f4010995","getQualifiedReviewers(uint256)":"0bb9ce33","getReviews(uint256)":"9d4a2255","getUnavailableDates(uint256)":"db2f80b7","owner()":"8da5cb5b","refundBooking(uint256,uint256)":"67626e5d","renounceOwnership()":"715018a6","securityFee()":"d68e1302","taxPercent()":"7541f41c","tenantBooked(uint256)":"9f31a2be","transferOwnership(address)":"f2fde38b","updateAppartment(uint256,string,string,string,string,uint256,uint256)":"bdfdee76"}}}}}