{
  "_format": "hh-sol-artifact-1",
  "contractName": "DappBnbX",
  "sourceName": "contracts/DappBnbX.sol",
  "abi": [
    {
      "inputs": [
        {
          "internalType": "uint256",
          "name": "_taxPercent",
          "type": "uint256"
        },
        {
          "internalType": "uint256",
          "name": "_securityFee",
          "type": "uint256"
        }
      ],
      "stateMutability": "nonpayable",
      "type": "constructor"
    },
    {
      "anonymous": false,
      "inputs": [
        {
          "indexed": true,
          "internalType": "address",
          "name": "previousOwner",
          "type": "address"
        },
        {
          "indexed": true,
          "internalType": "address",
          "name": "newOwner",
          "type": "address"
        }
      ],
      "name": "OwnershipTransferred",
      "type": "event"
    },
    {
      "inputs": [
        {
          "internalType": "uint256",
          "name": "aid",
          "type": "uint256"
        },
        {
          "internalType": "string",
          "name": "comment",
          "type": "string"
        }
      ],
      "name": "addReview",
      "outputs": [],
      "stateMutability": "nonpayable",
      "type": "function"
    },
    {
      "inputs": [
        {
          "internalType": "uint256",
          "name": "aid",
          "type": "uint256"
        },
        {
          "internalType": "uint256[]",
          "name": "dates",
          "type": "uint256[]"
        }
      ],
      "name": "bookApartment",
      "outputs": [],
      "stateMutability": "payable",
      "type": "function"
    },
    {
      "inputs": [
        {
          "internalType": "uint256",
          "name": "aid",
          "type": "uint256"
        },
        {
          "internalType": "uint256",
          "name": "bookingId",
          "type": "uint256"
        }
      ],
      "name": "checkInApartment",
      "outputs": [],
      "stateMutability": "nonpayable",
      "type": "function"
    },
    {
      "inputs": [
        {
          "internalType": "uint256",
          "name": "aid",
          "type": "uint256"
        },
        {
          "internalType": "uint256",
          "name": "bookingId",
          "type": "uint256"
        }
      ],
      "name": "claimFunds",
      "outputs": [],
      "stateMutability": "nonpayable",
      "type": "function"
    },
    {
      "inputs": [
        {
          "internalType": "string",
          "name": "name",
          "type": "string"
        },
        {
          "internalType": "string",
          "name": "description",
          "type": "string"
        },
        {
          "internalType": "string",
          "name": "location",
          "type": "string"
        },
        {
          "internalType": "string",
          "name": "images",
          "type": "string"
        },
        {
          "internalType": "uint256",
          "name": "rooms",
          "type": "uint256"
        },
        {
          "internalType": "uint256",
          "name": "price",
          "type": "uint256"
        }
      ],
      "name": "createApartment",
      "outputs": [],
      "stateMutability": "nonpayable",
      "type": "function"
    },
    {
      "inputs": [
        {
          "internalType": "uint256",
          "name": "id",
          "type": "uint256"
        }
      ],
      "name": "deleteApartment",
      "outputs": [],
      "stateMutability": "nonpayable",
      "type": "function"
    },
    {
      "inputs": [
        {
          "internalType": "uint256",
          "name": "id",
          "type": "uint256"
        }
      ],
      "name": "getApartment",
      "outputs": [
        {
          "components": [
            {
              "internalType": "uint256",
              "name": "id",
              "type": "uint256"
            },
            {
              "internalType": "string",
              "name": "name",
              "type": "string"
            },
            {
              "internalType": "string",
              "name": "description",
              "type": "string"
            },
            {
              "internalType": "string",
              "name": "location",
              "type": "string"
            },
            {
              "internalType": "string",
              "name": "images",
              "type": "string"
            },
            {
              "internalType": "uint256",
              "name": "rooms",
              "type": "uint256"
            },
            {
              "internalType": "uint256",
              "name": "price",
              "type": "uint256"
            },
            {
              "internalType": "address",
              "name": "owner",
              "type": "address"
            },
            {
              "internalType": "bool",
              "name": "booked",
              "type": "bool"
            },
            {
              "internalType": "bool",
              "name": "deleted",
              "type": "bool"
            },
            {
              "internalType": "uint256",
              "name": "timestamp",
              "type": "uint256"
            }
          ],
          "internalType": "struct DappBnbX.ApartmentStruct",
          "name": "",
          "type": "tuple"
        }
      ],
      "stateMutability": "view",
      "type": "function"
    },
    {
      "inputs": [],
      "name": "getApartments",
      "outputs": [
        {
          "components": [
            {
              "internalType": "uint256",
              "name": "id",
              "type": "uint256"
            },
            {
              "internalType": "string",
              "name": "name",
              "type": "string"
            },
            {
              "internalType": "string",
              "name": "description",
              "type": "string"
            },
            {
              "internalType": "string",
              "name": "location",
              "type": "string"
            },
            {
              "internalType": "string",
              "name": "images",
              "type": "string"
            },
            {
              "internalType": "uint256",
              "name": "rooms",
              "type": "uint256"
            },
            {
              "internalType": "uint256",
              "name": "price",
              "type": "uint256"
            },
            {
              "internalType": "address",
              "name": "owner",
              "type": "address"
            },
            {
              "internalType": "bool",
              "name": "booked",
              "type": "bool"
            },
            {
              "internalType": "bool",
              "name": "deleted",
              "type": "bool"
            },
            {
              "internalType": "uint256",
              "name": "timestamp",
              "type": "uint256"
            }
          ],
          "internalType": "struct DappBnbX.ApartmentStruct[]",
          "name": "Apartments",
          "type": "tuple[]"
        }
      ],
      "stateMutability": "view",
      "type": "function"
    },
    {
      "inputs": [
        {
          "internalType": "uint256",
          "name": "aid",
          "type": "uint256"
        },
        {
          "internalType": "uint256",
          "name": "bookingId",
          "type": "uint256"
        }
      ],
      "name": "getBooking",
      "outputs": [
        {
          "components": [
            {
              "internalType": "uint256",
              "name": "id",
              "type": "uint256"
            },
            {
              "internalType": "uint256",
              "name": "aid",
              "type": "uint256"
            },
            {
              "internalType": "address",
              "name": "tenant",
              "type": "address"
            },
            {
              "internalType": "uint256",
              "name": "date",
              "type": "uint256"
            },
            {
              "internalType": "uint256",
              "name": "price",
              "type": "uint256"
            },
            {
              "internalType": "bool",
              "name": "checked",
              "type": "bool"
            },
            {
              "internalType": "bool",
              "name": "cancelled",
              "type": "bool"
            },
            {
              "internalType": "bool",
              "name": "abandoned",
              "type": "bool"
            }
          ],
          "internalType": "struct DappBnbX.BookingStruct",
          "name": "",
          "type": "tuple"
        }
      ],
      "stateMutability": "view",
      "type": "function"
    },
    {
      "inputs": [
        {
          "internalType": "uint256",
          "name": "aid",
          "type": "uint256"
        }
      ],
      "name": "getBookings",
      "outputs": [
        {
          "components": [
            {
              "internalType": "uint256",
              "name": "id",
              "type": "uint256"
            },
            {
              "internalType": "uint256",
              "name": "aid",
              "type": "uint256"
            },
            {
              "internalType": "address",
              "name": "tenant",
              "type": "address"
            },
            {
              "internalType": "uint256",
              "name": "date",
              "type": "uint256"
            },
            {
              "internalType": "uint256",
              "name": "price",
              "type": "uint256"
            },
            {
              "internalType": "bool",
              "name": "checked",
              "type": "bool"
            },
            {
              "internalType": "bool",
              "name": "cancelled",
              "type": "bool"
            },
            {
              "internalType": "bool",
              "name": "abandoned",
              "type": "bool"
            }
          ],
          "internalType": "struct DappBnbX.BookingStruct[]",
          "name": "",
          "type": "tuple[]"
        }
      ],
      "stateMutability": "view",
      "type": "function"
    },
    {
      "inputs": [
        {
          "internalType": "uint256",
          "name": "aid",
          "type": "uint256"
        }
      ],
      "name": "getQualifiedReviewers",
      "outputs": [
        {
          "internalType": "address[]",
          "name": "Tenants",
          "type": "address[]"
        }
      ],
      "stateMutability": "view",
      "type": "function"
    },
    {
      "inputs": [
        {
          "internalType": "uint256",
          "name": "aid",
          "type": "uint256"
        }
      ],
      "name": "getReviews",
      "outputs": [
        {
          "components": [
            {
              "internalType": "uint256",
              "name": "id",
              "type": "uint256"
            },
            {
              "internalType": "uint256",
              "name": "aid",
              "type": "uint256"
            },
            {
              "internalType": "string",
              "name": "reviewText",
              "type": "string"
            },
            {
              "internalType": "uint256",
              "name": "timestamp",
              "type": "uint256"
            },
            {
              "internalType": "address",
              "name": "owner",
              "type": "address"
            }
          ],
          "internalType": "struct DappBnbX.ReviewStruct[]",
          "name": "",
          "type": "tuple[]"
        }
      ],
      "stateMutability": "view",
      "type": "function"
    },
    {
      "inputs": [
        {
          "internalType": "uint256",
          "name": "aid",
          "type": "uint256"
        }
      ],
      "name": "getUnavailableDates",
      "outputs": [
        {
          "internalType": "uint256[]",
          "name": "",
          "type": "uint256[]"
        }
      ],
      "stateMutability": "view",
      "type": "function"
    },
    {
      "inputs": [],
      "name": "owner",
      "outputs": [
        {
          "internalType": "address",
          "name": "",
          "type": "address"
        }
      ],
      "stateMutability": "view",
      "type": "function"
    },
    {
      "inputs": [
        {
          "internalType": "uint256",
          "name": "aid",
          "type": "uint256"
        },
        {
          "internalType": "uint256",
          "name": "bookingId",
          "type": "uint256"
        }
      ],
      "name": "refundBooking",
      "outputs": [],
      "stateMutability": "nonpayable",
      "type": "function"
    },
    {
      "inputs": [],
      "name": "renounceOwnership",
      "outputs": [],
      "stateMutability": "nonpayable",
      "type": "function"
    },
    {
      "inputs": [],
      "name": "securityFee",
      "outputs": [
        {
          "internalType": "uint256",
          "name": "",
          "type": "uint256"
        }
      ],
      "stateMutability": "view",
      "type": "function"
    },
    {
      "inputs": [],
      "name": "taxPercent",
      "outputs": [
        {
          "internalType": "uint256",
          "name": "",
          "type": "uint256"
        }
      ],
      "stateMutability": "view",
      "type": "function"
    },
    {
      "inputs": [
        {
          "internalType": "uint256",
          "name": "aid",
          "type": "uint256"
        }
      ],
      "name": "tenantBooked",
      "outputs": [
        {
          "internalType": "bool",
          "name": "",
          "type": "bool"
        }
      ],
      "stateMutability": "view",
      "type": "function"
    },
    {
      "inputs": [
        {
          "internalType": "address",
          "name": "newOwner",
          "type": "address"
        }
      ],
      "name": "transferOwnership",
      "outputs": [],
      "stateMutability": "nonpayable",
      "type": "function"
    },
    {
      "inputs": [
        {
          "internalType": "uint256",
          "name": "id",
          "type": "uint256"
        },
        {
          "internalType": "string",
          "name": "name",
          "type": "string"
        },
        {
          "internalType": "string",
          "name": "description",
          "type": "string"
        },
        {
          "internalType": "string",
          "name": "location",
          "type": "string"
        },
        {
          "internalType": "string",
          "name": "images",
          "type": "string"
        },
        {
          "internalType": "uint256",
          "name": "rooms",
          "type": "uint256"
        },
        {
          "internalType": "uint256",
          "name": "price",
          "type": "uint256"
        }
      ],
      "name": "updateApartment",
      "outputs": [],
      "stateMutability": "nonpayable",
      "type": "function"
    }
  ],
  "bytecode": "0x60806040523480156200001157600080fd5b506040516200346a3803806200346a8339810160408190526200003491620000a2565b6200003f3362000052565b60018055600491909155600355620000c7565b600080546001600160a01b038381166001600160a01b0319831681178455604051919092169283917f8be0079c531659141344cd1fd0a4f28419497f9722a3daafe3b4186f6b6457e09190a35050565b60008060408385031215620000b657600080fd5b505080516020909101519092909150565b61339380620000d76000396000f3fe60806040526004361061012a5760003560e01c80638da5cb5b116100ab578063c788d6de1161006f578063c788d6de1461037c578063d68e13021461039c578063db2f80b7146103b2578063df6e0222146103df578063f2fde38b146103f2578063f40109951461041257600080fd5b80638da5cb5b1461028d5780639d4a2255146102b55780639f31a2be146102e2578063b1c980991461032d578063c4452e061461034f57600080fd5b80635bb0c5d6116100f25780635bb0c5d6146101f457806367626e5d14610214578063715018a6146102345780637541f41c1461024957806378419f611461026d57600080fd5b8063010b58ee1461012f5780630bb9ce331461015157806327c71c7314610187578063455b3070146101a757806355c3fbfb146101d4575b600080fd5b34801561013b57600080fd5b5061014f61014a366004612a05565b61043f565b005b34801561015d57600080fd5b5061017161016c366004612a27565b6106c1565b60405161017e9190612a40565b60405180910390f35b34801561019357600080fd5b5061014f6101a2366004612b44565b61086a565b3480156101b357600080fd5b506101c76101c2366004612a05565b610e9a565b60405161017e9190612c6a565b3480156101e057600080fd5b5061014f6101ef366004612a27565b610f4c565b34801561020057600080fd5b5061014f61020f366004612c79565b611010565b34801561022057600080fd5b5061014f61022f366004612a05565b61121a565b34801561024057600080fd5b5061014f6115cc565b34801561025557600080fd5b5061025f60045481565b60405190815260200161017e565b34801561027957600080fd5b5061014f610288366004612a05565b6115e0565b34801561029957600080fd5b506000546040516001600160a01b03909116815260200161017e565b3480156102c157600080fd5b506102d56102d0366004612a27565b611770565b60405161017e9190612d06565b3480156102ee57600080fd5b5061031d6102fd366004612a27565b336000908152600b60209081526040808320938352929052205460ff1690565b604051901515815260200161017e565b34801561033957600080fd5b506103426118ab565b60405161017e9190612e71565b34801561035b57600080fd5b5061036f61036a366004612a27565b611c86565b60405161017e9190612ed3565b34801561038857600080fd5b5061014f610397366004612eed565b611f5a565b3480156103a857600080fd5b5061025f60035481565b3480156103be57600080fd5b506103d26103cd366004612a27565b612270565b60405161017e9190612fac565b61014f6103ed366004612fe4565b6122d2565b3480156103fe57600080fd5b5061014f61040d366004613096565b6125db565b34801561041e57600080fd5b5061043261042d366004612a27565b612654565b60405161017e91906130bf565b61044761271f565b600082815260066020526040812080548390811061046757610467613102565b6000918252602080832060408051610100808201835260069095029092018054835260018101548385015260028101546001600160a01b0390811684840152600382015460608501526004820154608085015260059182015460ff808216151560a08701529681048716151560c0860152620100009004909516151560e0840152888652909252922060070154919250339116148061051057506000546001600160a01b031633145b6105355760405162461bcd60e51b815260040161052c90613118565b60405180910390fd5b8060a00151156105575760405162461bcd60e51b815260040161052c90613145565b61055f612778565b8160600151106105c05760405162461bcd60e51b815260206004820152602660248201527f4e6f7420616c6c6f7765642c20626f6f6b696e672064617465206e6f7420657860448201526518d95959195960d21b606482015260840161052c565b6000838152600660205260409020805460019190849081106105e4576105e4613102565b906000526020600020906006020160050160026101000a81548160ff0219169083151502179055506000606460045483608001516106229190613187565b61062c919061319e565b90506000606460035484608001516106449190613187565b61064e919061319e565b6000868152600560205260409020600701546080850151919250610688916001600160a01b03909116906106839085906131c0565b612797565b6106a361069d6000546001600160a01b031690565b83612797565b6106b1836040015182612797565b5050506106bd60018055565b5050565b60606000805b6000848152600660205260409020548110156107395760008481526006602052604090208054829081106106fd576106fd613102565b600091825260209091206005600690920201015460ff16156107275781610723816131d3565b9250505b80610731816131d3565b9150506106c7565b508067ffffffffffffffff81111561075357610753612a8d565b60405190808252806020026020018201604052801561077c578160200160208202803683370190505b5091506000805b6000858152600660205260409020548110156108625760008581526006602052604090208054829081106107b9576107b9613102565b600091825260209091206005600690920201015460ff16156108505760008581526006602052604090208054829081106107f5576107f5613102565b60009182526020909120600260069092020101546001600160a01b0316848361081d816131d3565b94508151811061082f5761082f613102565b60200260200101906001600160a01b031690816001600160a01b0316815250505b8061085a816131d3565b915050610783565b505050919050565b60008781526008602052604090205460ff166108bf5760405162461bcd60e51b8152602060048201526014602482015273105c1c185c9d1b595b9d081b9bdd08199bdd5b9960621b604482015260640161052c565b6000878152600560205260409020600701546001600160a01b031633146108f85760405162461bcd60e51b815260040161052c90613118565b60008651116109405760405162461bcd60e51b81526020600482015260146024820152734e616d652063616e6e6f7420626520656d70747960601b604482015260640161052c565b60008551116109915760405162461bcd60e51b815260206004820152601b60248201527f4465736372697074696f6e2063616e6e6f7420626520656d7074790000000000604482015260640161052c565b60008451116109dd5760405162461bcd60e51b81526020600482015260186024820152774c6f636174696f6e2063616e6e6f7420626520656d70747960401b604482015260640161052c565b6000835111610a275760405162461bcd60e51b8152602060048201526016602482015275496d616765732063616e6e6f7420626520656d70747960501b604482015260640161052c565b60008211610a6e5760405162461bcd60e51b8152602060048201526014602482015273526f6f6d732063616e6e6f74206265207a65726f60601b604482015260640161052c565b60008111610ab55760405162461bcd60e51b815260206004820152601460248201527350726963652063616e6e6f74206265207a65726f60601b604482015260640161052c565b6000600560008981526020019081526020016000206040518061016001604052908160008201548152602001600182018054610af0906131ec565b80601f0160208091040260200160405190810160405280929190818152602001828054610b1c906131ec565b8015610b695780601f10610b3e57610100808354040283529160200191610b69565b820191906000526020600020905b815481529060010190602001808311610b4c57829003601f168201915b50505050508152602001600282018054610b82906131ec565b80601f0160208091040260200160405190810160405280929190818152602001828054610bae906131ec565b8015610bfb5780601f10610bd057610100808354040283529160200191610bfb565b820191906000526020600020905b815481529060010190602001808311610bde57829003601f168201915b50505050508152602001600382018054610c14906131ec565b80601f0160208091040260200160405190810160405280929190818152602001828054610c40906131ec565b8015610c8d5780601f10610c6257610100808354040283529160200191610c8d565b820191906000526020600020905b815481529060010190602001808311610c7057829003601f168201915b50505050508152602001600482018054610ca6906131ec565b80601f0160208091040260200160405190810160405280929190818152602001828054610cd2906131ec565b8015610d1f5780601f10610cf457610100808354040283529160200191610d1f565b820191906000526020600020905b815481529060010190602001808311610d0257829003601f168201915b5050509183525050600582810154602080840191909152600684015460408085019190915260078501546001600160a01b03811660608087019190915260ff600160a01b830481161515608080890191909152600160a81b90930416151560a08088019190915260089097015460c0968701528784018f81528884018f90529088018d90529087018b9052948601899052928501879052845160009081529190522082518155905191925082916001820190610ddb9082613274565b5060408201516002820190610df09082613274565b5060608201516003820190610e059082613274565b5060808201516004820190610e1a9082613274565b5060a0820151600582015560c0820151600682015560e08201516007820180546101008501516101208601511515600160a81b0260ff60a81b19911515600160a01b026001600160a81b03199093166001600160a01b03909516949094179190911716919091179055610140909101516008909101555050505050505050565b610ea261294a565b6000838152600660205260409020805483908110610ec257610ec2613102565b600091825260209182902060408051610100808201835260069094029092018054835260018101549483019490945260028401546001600160a01b031690820152600383015460608201526004830154608082015260059092015460ff808216151560a08501529181048216151560c084015262010000900416151560e082015290505b92915050565b60008181526008602052604090205460ff16610fa15760405162461bcd60e51b8152602060048201526014602482015273105c1c185c9d1b595b9d081b9bdd08199bdd5b9960621b604482015260640161052c565b6000818152600560205260409020600701546001600160a01b03163314610fda5760405162461bcd60e51b815260040161052c90613118565b6000908152600860209081526040808320805460ff1916905560059091529020600701805460ff60a81b1916600160a81b179055565b60008281526008602052604090205460ff1661106e5760405162461bcd60e51b815260206004820152601860248201527f4170706172746d656e74206e6f7420617661696c61626c650000000000000000604482015260640161052c565b336000908152600b6020908152604080832085845290915290205460ff166110d85760405162461bcd60e51b815260206004820152601860248201527f426f6f6b206669727374206265666f7265207265766965770000000000000000604482015260640161052c565b60008151116111295760405162461bcd60e51b815260206004820152601760248201527f436f6d6d656e742063616e6e6f7420626520656d707479000000000000000000604482015260640161052c565b6111646040518060a001604052806000815260200160008152602001606081526020016000815260200160006001600160a01b031681525090565b60008381526007602090815260409182902054835282018490528101829052336080820152611191612778565b60608201526000838152600760209081526040808320805460018181018355918552938390208551600590950201938455918401519183019190915582015182919060028201906111e29082613274565b5060608201516003820155608090910151600490910180546001600160a01b0319166001600160a01b03909216919091179055505050565b61122261271f565b600082815260066020526040812080548390811061124257611242613102565b600091825260209182902060408051610100808201835260069094029092018054835260018101549483019490945260028401546001600160a01b031690820152600383015460608201526004830154608082015260059092015460ff80821615801560a08601529282048116151560c08501526201000090910416151560e08301529091506112e45760405162461bcd60e51b815260040161052c90613145565b6000838152600a602090815260408083206060850151845290915290205460ff166113435760405162461bcd60e51b815260206004820152600f60248201526e11185d19481b9bdd08189bdbdad959608a1b604482015260640161052c565b6000546001600160a01b031633146114145780604001516001600160a01b0316336001600160a01b0316146113af5760405162461bcd60e51b8152602060048201526012602482015271556e6174686f72697a656420456e7469747960701b604482015260640161052c565b6113b7612778565b8160600151116114145760405162461bcd60e51b815260206004820152602260248201527f4e6f7420616c6c6f7765642c20657863656564656420626f6f6b696e67206461604482015261746560f01b606482015260840161052c565b60008381526006602052604090208054600191908490811061143857611438613102565b6000918252602080832060056006909302019190910180549315156101000261ff001990941693909317909255848152600a82526040808220606085015183528352808220805460ff1916905585825260099092529081205461149d906001906131c0565b600085815260096020526040812080549293509091839081106114c2576114c2613102565b90600052602060002001549050806009600087815260200190815260200160002085815481106114f4576114f4613102565b90600052602060002001819055506009600086815260200190815260200160002080548061152457611524613334565b600190038181906000526020600020016000905590556000606460035485608001516115509190613187565b61155a919061319e565b9050600061156960028361319e565b600088815260056020526040902060070154909150611591906001600160a01b031682612797565b6115ac6115a66000546001600160a01b031690565b82612797565b6115be85604001518660800151612797565b50505050506106bd60018055565b6115d46127fc565b6115de6000612856565b565b6115e861271f565b600082815260066020526040812080548390811061160857611608613102565b600091825260209182902060408051610100808201835260069094029092018054835260018101549483019490945260028401546001600160a01b0316908201819052600384015460608301526004840154608083015260059093015460ff808216151560a08401529281048316151560c0830152620100009004909116151560e0820152915033146116d35760405162461bcd60e51b8152602060048201526013602482015272556e617574686f72697a656420456e7469747960681b604482015260640161052c565b8060a00151156116f55760405162461bcd60e51b815260040161052c90613145565b60008381526006602052604090208054600191908490811061171957611719613102565b60009182526020808320600560069093020191909101805493151560ff19948516179055338252600b8152604080832087845290915281208054909216600117909155600454608083015160649161062291613187565b606060076000838152602001908152602001600020805480602002602001604051908101604052809291908181526020016000905b828210156118a057838290600052602060002090600502016040518060a001604052908160008201548152602001600182015481526020016002820180546117ec906131ec565b80601f0160208091040260200160405190810160405280929190818152602001828054611818906131ec565b80156118655780601f1061183a57610100808354040283529160200191611865565b820191906000526020600020905b81548152906001019060200180831161184857829003601f168201915b505050918352505060038201546020808301919091526004909201546001600160a01b031660409091015290825260019290920191016117a5565b505050509050919050565b6060600060015b60025481116118fb57600081815260056020526040902060070154600160a81b900460ff166118e957816118e5816131d3565b9250505b806118f3816131d3565b9150506118b2565b508067ffffffffffffffff81111561191557611915612a8d565b60405190808252806020026020018201604052801561194e57816020015b61193b61299e565b8152602001906001900390816119335790505b509150600060015b6002548111611c8057600081815260056020526040902060070154600160a81b900460ff16611c6e576005600082815260200190815260200160002060405180610160016040529081600082015481526020016001820180546119b8906131ec565b80601f01602080910402602001604051908101604052809291908181526020018280546119e4906131ec565b8015611a315780601f10611a0657610100808354040283529160200191611a31565b820191906000526020600020905b815481529060010190602001808311611a1457829003601f168201915b50505050508152602001600282018054611a4a906131ec565b80601f0160208091040260200160405190810160405280929190818152602001828054611a76906131ec565b8015611ac35780601f10611a9857610100808354040283529160200191611ac3565b820191906000526020600020905b815481529060010190602001808311611aa657829003601f168201915b50505050508152602001600382018054611adc906131ec565b80601f0160208091040260200160405190810160405280929190818152602001828054611b08906131ec565b8015611b555780601f10611b2a57610100808354040283529160200191611b55565b820191906000526020600020905b815481529060010190602001808311611b3857829003601f168201915b50505050508152602001600482018054611b6e906131ec565b80601f0160208091040260200160405190810160405280929190818152602001828054611b9a906131ec565b8015611be75780601f10611bbc57610100808354040283529160200191611be7565b820191906000526020600020905b815481529060010190602001808311611bca57829003601f168201915b5050509183525050600582015460208201526006820154604082015260078201546001600160a01b038116606083015260ff600160a01b8204811615156080840152600160a81b90910416151560a082015260089091015460c0909101528483611c50816131d3565b945081518110611c6257611c62613102565b60200260200101819052505b80611c78816131d3565b915050611956565b50505090565b611c8e61299e565b600560008381526020019081526020016000206040518061016001604052908160008201548152602001600182018054611cc7906131ec565b80601f0160208091040260200160405190810160405280929190818152602001828054611cf3906131ec565b8015611d405780601f10611d1557610100808354040283529160200191611d40565b820191906000526020600020905b815481529060010190602001808311611d2357829003601f168201915b50505050508152602001600282018054611d59906131ec565b80601f0160208091040260200160405190810160405280929190818152602001828054611d85906131ec565b8015611dd25780601f10611da757610100808354040283529160200191611dd2565b820191906000526020600020905b815481529060010190602001808311611db557829003601f168201915b50505050508152602001600382018054611deb906131ec565b80601f0160208091040260200160405190810160405280929190818152602001828054611e17906131ec565b8015611e645780601f10611e3957610100808354040283529160200191611e64565b820191906000526020600020905b815481529060010190602001808311611e4757829003601f168201915b50505050508152602001600482018054611e7d906131ec565b80601f0160208091040260200160405190810160405280929190818152602001828054611ea9906131ec565b8015611ef65780601f10611ecb57610100808354040283529160200191611ef6565b820191906000526020600020905b815481529060010190602001808311611ed957829003601f168201915b5050509183525050600582015460208201526006820154604082015260078201546001600160a01b038116606083015260ff600160a01b8204811615156080840152600160a81b90910416151560a082015260089091015460c09091015292915050565b6000865111611fa25760405162461bcd60e51b81526020600482015260146024820152734e616d652063616e6e6f7420626520656d70747960601b604482015260640161052c565b6000855111611ff35760405162461bcd60e51b815260206004820152601b60248201527f4465736372697074696f6e2063616e6e6f7420626520656d7074790000000000604482015260640161052c565b600084511161203f5760405162461bcd60e51b81526020600482015260186024820152774c6f636174696f6e2063616e6e6f7420626520656d70747960401b604482015260640161052c565b60008351116120895760405162461bcd60e51b8152602060048201526016602482015275496d616765732063616e6e6f7420626520656d70747960501b604482015260640161052c565b600082116120d05760405162461bcd60e51b8152602060048201526014602482015273526f6f6d732063616e6e6f74206265207a65726f60601b604482015260640161052c565b600081116121175760405162461bcd60e51b815260206004820152601460248201527350726963652063616e6e6f74206265207a65726f60601b604482015260640161052c565b612125600280546001019055565b61212d61299e565b60025481526020810187905260408101869052606081018590526080810184905260a0810183905260c081018290523360e082015261216a612778565b61014082015280516000908152600860209081526040808320805460ff1916600190811790915584518452600583529220835181559083015183928201906121b29082613274565b50604082015160028201906121c79082613274565b50606082015160038201906121dc9082613274565b50608082015160048201906121f19082613274565b5060a0820151600582015560c0820151600682015560e08201516007820180546101008501516101208601511515600160a81b0260ff60a81b19911515600160a01b026001600160a81b03199093166001600160a01b039095169490941791909117169190911790556101409091015160089091015550505050505050565b6000818152600960209081526040918290208054835181840281018401909452808452606093928301828280156122c657602002820191906000526020600020905b8154815260200190600101908083116122b2575b50505050509050919050565b805160008381526005602052604081206006015490916122f191613187565b905060006064600354836123059190613187565b61230f919061319e565b60008581526008602052604090205490915060ff166123675760405162461bcd60e51b815260206004820152601460248201527341706172746d656e74206e6f7420666f756e642160601b604482015260640161052c565b612371818361334a565b3410156123b45760405162461bcd60e51b8152602060048201526011602482015270125b9cdd59999a58da595b9d08199d5b99607a1b604482015260640161052c565b6123be84846128a6565b61240a5760405162461bcd60e51b815260206004820152601f60248201527f4f6e65206f72206d6f7265206461746573206e6f7420617661696c61626c6500604482015260640161052c565b60005b83518110156125d45761241e61294a565b60008681526006602090815260409182902054835282018790523390820152845185908390811061245157612451613102565b60209081029190910181015160608301908152600088815260058084526040808320600690810154608088019081528c85528187528285208054600180820183559187528887208a51919094029093019283558888015190830155828801516002830180546001600160a01b0319166001600160a01b03909216919091179055945160038201559351600485015560a086015193909101805460c087015160e088015161ffff1990921695151561ff00191695909517610100951515959095029490941762ff0000191662010000941515949094029390931790925588815260099092529020855186908490811061254b5761254b613102565b602090810291909101810151825460018181018555600094855283852090910191909155888352600a9091526040822087519192909188908690811061259357612593613102565b6020026020010151815260200190815260200160002060006101000a81548160ff0219169083151502179055505080806125cc906131d3565b91505061240d565b5050505050565b6125e36127fc565b6001600160a01b0381166126485760405162461bcd60e51b815260206004820152602660248201527f4f776e61626c653a206e6577206f776e657220697320746865207a65726f206160448201526564647265737360d01b606482015260840161052c565b61265181612856565b50565b606060066000838152602001908152602001600020805480602002602001604051908101604052809291908181526020016000905b828210156118a057600084815260209081902060408051610100808201835260068702909301805482526001808201548387015260028201546001600160a01b03169383019390935260038101546060830152600481015460808301526005015460ff808216151560a08401529381048416151560c0830152620100009004909216151560e08301529083529092019101612689565b6002600154036127715760405162461bcd60e51b815260206004820152601f60248201527f5265656e7472616e637947756172643a207265656e7472616e742063616c6c00604482015260640161052c565b6002600155565b6000612786426103e8613187565b612792906103e861334a565b905090565b6000826001600160a01b03168260405160006040518083038185875af1925050503d80600081146127e4576040519150601f19603f3d011682016040523d82523d6000602084013e6127e9565b606091505b50509050806127f757600080fd5b505050565b6000546001600160a01b031633146115de5760405162461bcd60e51b815260206004820181905260248201527f4f776e61626c653a2063616c6c6572206973206e6f7420746865206f776e6572604482015260640161052c565b600080546001600160a01b038381166001600160a01b0319831681178455604051919092169283917f8be0079c531659141344cd1fd0a4f28419497f9722a3daafe3b4186f6b6457e09190a35050565b60006001815b83518110156129425760005b60008681526009602052604090205481101561292f5760008681526009602052604090208054829081106128ee576128ee613102565b906000526020600020015485838151811061290b5761290b613102565b60200260200101510361291d57600092505b80612927816131d3565b9150506128b8565b508061293a816131d3565b9150506128ac565b509392505050565b604051806101000160405280600081526020016000815260200160006001600160a01b0316815260200160008152602001600081526020016000151581526020016000151581526020016000151581525090565b6040518061016001604052806000815260200160608152602001606081526020016060815260200160608152602001600081526020016000815260200160006001600160a01b03168152602001600015158152602001600015158152602001600081525090565b60008060408385031215612a1857600080fd5b50508035926020909101359150565b600060208284031215612a3957600080fd5b5035919050565b6020808252825182820181905260009190848201906040850190845b81811015612a815783516001600160a01b031683529284019291840191600101612a5c565b50909695505050505050565b634e487b7160e01b600052604160045260246000fd5b604051601f8201601f1916810167ffffffffffffffff81118282101715612acc57612acc612a8d565b604052919050565b600082601f830112612ae557600080fd5b813567ffffffffffffffff811115612aff57612aff612a8d565b612b12601f8201601f1916602001612aa3565b818152846020838601011115612b2757600080fd5b816020850160208301376000918101602001919091529392505050565b600080600080600080600060e0888a031215612b5f57600080fd5b87359650602088013567ffffffffffffffff80821115612b7e57600080fd5b612b8a8b838c01612ad4565b975060408a0135915080821115612ba057600080fd5b612bac8b838c01612ad4565b965060608a0135915080821115612bc257600080fd5b612bce8b838c01612ad4565b955060808a0135915080821115612be457600080fd5b50612bf18a828b01612ad4565b93505060a0880135915060c0880135905092959891949750929550565b805182526020810151602083015260018060a01b036040820151166040830152606081015160608301526080810151608083015260a0810151151560a083015260c0810151151560c083015260e0810151151560e08301525050565b6101008101610f468284612c0e565b60008060408385031215612c8c57600080fd5b82359150602083013567ffffffffffffffff811115612caa57600080fd5b612cb685828601612ad4565b9150509250929050565b6000815180845260005b81811015612ce657602081850181015186830182015201612cca565b506000602082860101526020601f19601f83011685010191505092915050565b60006020808301818452808551808352604092508286019150828160051b87010184880160005b83811015612d9657603f19898403018552815160a0815185528882015189860152878201518189870152612d6382870182612cc0565b606084810151908801526080938401516001600160a01b0316939096019290925250509386019390860190600101612d2d565b509098975050505050505050565b6000610160825184526020830151816020860152612dc482860182612cc0565b91505060408301518482036040860152612dde8282612cc0565b91505060608301518482036060860152612df88282612cc0565b91505060808301518482036080860152612e128282612cc0565b91505060a083015160a085015260c083015160c085015260e0830151612e4360e08601826001600160a01b03169052565b5061010083810151151590850152610120808401511515908501526101409283015192909301919091525090565b6000602080830181845280855180835260408601915060408160051b870101925083870160005b82811015612ec657603f19888603018452612eb4858351612da4565b94509285019290850190600101612e98565b5092979650505050505050565b602081526000612ee66020830184612da4565b9392505050565b60008060008060008060c08789031215612f0657600080fd5b863567ffffffffffffffff80821115612f1e57600080fd5b612f2a8a838b01612ad4565b97506020890135915080821115612f4057600080fd5b612f4c8a838b01612ad4565b96506040890135915080821115612f6257600080fd5b612f6e8a838b01612ad4565b95506060890135915080821115612f8457600080fd5b50612f9189828a01612ad4565b9350506080870135915060a087013590509295509295509295565b6020808252825182820181905260009190848201906040850190845b81811015612a8157835183529284019291840191600101612fc8565b60008060408385031215612ff757600080fd5b8235915060208084013567ffffffffffffffff8082111561301757600080fd5b818601915086601f83011261302b57600080fd5b81358181111561303d5761303d612a8d565b8060051b915061304e848301612aa3565b818152918301840191848101908984111561306857600080fd5b938501935b838510156130865784358252938501939085019061306d565b8096505050505050509250929050565b6000602082840312156130a857600080fd5b81356001600160a01b0381168114612ee657600080fd5b6020808252825182820181905260009190848201906040850190845b81811015612a81576130ee838551612c0e565b9284019261010092909201916001016130db565b634e487b7160e01b600052603260045260246000fd5b602080825260139082015272556e617574686f72697a656420656e7469747960681b604082015260600190565b60208082526012908201527120b63932b0b23c9031b432b1b5b2b21034b760711b604082015260600190565b634e487b7160e01b600052601160045260246000fd5b8082028115828204841417610f4657610f46613171565b6000826131bb57634e487b7160e01b600052601260045260246000fd5b500490565b81810381811115610f4657610f46613171565b6000600182016131e5576131e5613171565b5060010190565b600181811c9082168061320057607f821691505b60208210810361322057634e487b7160e01b600052602260045260246000fd5b50919050565b601f8211156127f757600081815260208120601f850160051c8101602086101561324d5750805b601f850160051c820191505b8181101561326c57828155600101613259565b505050505050565b815167ffffffffffffffff81111561328e5761328e612a8d565b6132a28161329c84546131ec565b84613226565b602080601f8311600181146132d757600084156132bf5750858301515b600019600386901b1c1916600185901b17855561326c565b600085815260208120601f198616915b82811015613306578886015182559484019460019091019084016132e7565b50858210156133245787850151600019600388901b60f8161c191681555b5050505050600190811b01905550565b634e487b7160e01b600052603160045260246000fd5b80820180821115610f4657610f4661317156fea26469706673582212201a24e476992f9b2207ff9bf7acd32844b46485a5dfb4a0134de26c66c930368064736f6c63430008130033",
  "linkReferences": {},
  "deployedLinkReferences": {}
}