{
  "_format": "hh-sol-artifact-1",
  "contractName": "DappBnbX",
  "sourceName": "contracts/DappBnbX.sol",
  "abi": [
    {
      "inputs": [
        {
          "internalType": "uint256",
          "name": "_taxPercent",
          "type": "uint256"
        },
        {
          "internalType": "uint256",
          "name": "_securityFee",
          "type": "uint256"
        }
      ],
      "stateMutability": "nonpayable",
      "type": "constructor"
    },
    {
      "anonymous": false,
      "inputs": [
        {
          "indexed": true,
          "internalType": "address",
          "name": "previousOwner",
          "type": "address"
        },
        {
          "indexed": true,
          "internalType": "address",
          "name": "newOwner",
          "type": "address"
        }
      ],
      "name": "OwnershipTransferred",
      "type": "event"
    },
    {
      "inputs": [
        {
          "internalType": "uint256",
          "name": "aid",
          "type": "uint256"
        },
        {
          "internalType": "string",
          "name": "comment",
          "type": "string"
        }
      ],
      "name": "addReview",
      "outputs": [],
      "stateMutability": "nonpayable",
      "type": "function"
    },
    {
      "inputs": [
        {
          "internalType": "uint256",
          "name": "aid",
          "type": "uint256"
        },
        {
          "internalType": "uint256[]",
          "name": "dates",
          "type": "uint256[]"
        }
      ],
      "name": "bookApartment",
      "outputs": [],
      "stateMutability": "payable",
      "type": "function"
    },
    {
      "inputs": [
        {
          "internalType": "uint256",
          "name": "aid",
          "type": "uint256"
        },
        {
          "internalType": "uint256",
          "name": "bookingId",
          "type": "uint256"
        }
      ],
      "name": "checkInApartment",
      "outputs": [],
      "stateMutability": "nonpayable",
      "type": "function"
    },
    {
      "inputs": [
        {
          "internalType": "uint256",
          "name": "aid",
          "type": "uint256"
        },
        {
          "internalType": "uint256",
          "name": "bookingId",
          "type": "uint256"
        }
      ],
      "name": "claimFunds",
      "outputs": [],
      "stateMutability": "nonpayable",
      "type": "function"
    },
    {
      "inputs": [
        {
          "internalType": "string",
          "name": "name",
          "type": "string"
        },
        {
          "internalType": "string",
          "name": "description",
          "type": "string"
        },
        {
          "internalType": "string",
          "name": "location",
          "type": "string"
        },
        {
          "internalType": "string",
          "name": "images",
          "type": "string"
        },
        {
          "internalType": "uint256",
          "name": "rooms",
          "type": "uint256"
        },
        {
          "internalType": "uint256",
          "name": "price",
          "type": "uint256"
        }
      ],
      "name": "createAppartment",
      "outputs": [],
      "stateMutability": "nonpayable",
      "type": "function"
    },
    {
      "inputs": [
        {
          "internalType": "uint256",
          "name": "id",
          "type": "uint256"
        }
      ],
      "name": "deleteAppartment",
      "outputs": [],
      "stateMutability": "nonpayable",
      "type": "function"
    },
    {
      "inputs": [
        {
          "internalType": "uint256",
          "name": "id",
          "type": "uint256"
        }
      ],
      "name": "getApartment",
      "outputs": [
        {
          "components": [
            {
              "internalType": "uint256",
              "name": "id",
              "type": "uint256"
            },
            {
              "internalType": "string",
              "name": "name",
              "type": "string"
            },
            {
              "internalType": "string",
              "name": "description",
              "type": "string"
            },
            {
              "internalType": "string",
              "name": "location",
              "type": "string"
            },
            {
              "internalType": "string",
              "name": "images",
              "type": "string"
            },
            {
              "internalType": "uint256",
              "name": "rooms",
              "type": "uint256"
            },
            {
              "internalType": "uint256",
              "name": "price",
              "type": "uint256"
            },
            {
              "internalType": "address",
              "name": "owner",
              "type": "address"
            },
            {
              "internalType": "bool",
              "name": "booked",
              "type": "bool"
            },
            {
              "internalType": "bool",
              "name": "deleted",
              "type": "bool"
            },
            {
              "internalType": "uint256",
              "name": "timestamp",
              "type": "uint256"
            }
          ],
          "internalType": "struct DappBnbX.ApartmentStruct",
          "name": "",
          "type": "tuple"
        }
      ],
      "stateMutability": "view",
      "type": "function"
    },
    {
      "inputs": [],
      "name": "getApartments",
      "outputs": [
        {
          "components": [
            {
              "internalType": "uint256",
              "name": "id",
              "type": "uint256"
            },
            {
              "internalType": "string",
              "name": "name",
              "type": "string"
            },
            {
              "internalType": "string",
              "name": "description",
              "type": "string"
            },
            {
              "internalType": "string",
              "name": "location",
              "type": "string"
            },
            {
              "internalType": "string",
              "name": "images",
              "type": "string"
            },
            {
              "internalType": "uint256",
              "name": "rooms",
              "type": "uint256"
            },
            {
              "internalType": "uint256",
              "name": "price",
              "type": "uint256"
            },
            {
              "internalType": "address",
              "name": "owner",
              "type": "address"
            },
            {
              "internalType": "bool",
              "name": "booked",
              "type": "bool"
            },
            {
              "internalType": "bool",
              "name": "deleted",
              "type": "bool"
            },
            {
              "internalType": "uint256",
              "name": "timestamp",
              "type": "uint256"
            }
          ],
          "internalType": "struct DappBnbX.ApartmentStruct[]",
          "name": "Apartments",
          "type": "tuple[]"
        }
      ],
      "stateMutability": "view",
      "type": "function"
    },
    {
      "inputs": [
        {
          "internalType": "uint256",
          "name": "aid",
          "type": "uint256"
        },
        {
          "internalType": "uint256",
          "name": "bookingId",
          "type": "uint256"
        }
      ],
      "name": "getBooking",
      "outputs": [
        {
          "components": [
            {
              "internalType": "uint256",
              "name": "id",
              "type": "uint256"
            },
            {
              "internalType": "uint256",
              "name": "aid",
              "type": "uint256"
            },
            {
              "internalType": "address",
              "name": "tenant",
              "type": "address"
            },
            {
              "internalType": "uint256",
              "name": "date",
              "type": "uint256"
            },
            {
              "internalType": "uint256",
              "name": "price",
              "type": "uint256"
            },
            {
              "internalType": "bool",
              "name": "checked",
              "type": "bool"
            },
            {
              "internalType": "bool",
              "name": "cancelled",
              "type": "bool"
            }
          ],
          "internalType": "struct DappBnbX.BookingStruct",
          "name": "",
          "type": "tuple"
        }
      ],
      "stateMutability": "view",
      "type": "function"
    },
    {
      "inputs": [
        {
          "internalType": "uint256",
          "name": "aid",
          "type": "uint256"
        }
      ],
      "name": "getBookings",
      "outputs": [
        {
          "components": [
            {
              "internalType": "uint256",
              "name": "id",
              "type": "uint256"
            },
            {
              "internalType": "uint256",
              "name": "aid",
              "type": "uint256"
            },
            {
              "internalType": "address",
              "name": "tenant",
              "type": "address"
            },
            {
              "internalType": "uint256",
              "name": "date",
              "type": "uint256"
            },
            {
              "internalType": "uint256",
              "name": "price",
              "type": "uint256"
            },
            {
              "internalType": "bool",
              "name": "checked",
              "type": "bool"
            },
            {
              "internalType": "bool",
              "name": "cancelled",
              "type": "bool"
            }
          ],
          "internalType": "struct DappBnbX.BookingStruct[]",
          "name": "",
          "type": "tuple[]"
        }
      ],
      "stateMutability": "view",
      "type": "function"
    },
    {
      "inputs": [
        {
          "internalType": "uint256",
          "name": "aid",
          "type": "uint256"
        }
      ],
      "name": "getQualifiedReviewers",
      "outputs": [
        {
          "internalType": "address[]",
          "name": "Tenants",
          "type": "address[]"
        }
      ],
      "stateMutability": "view",
      "type": "function"
    },
    {
      "inputs": [
        {
          "internalType": "uint256",
          "name": "aid",
          "type": "uint256"
        }
      ],
      "name": "getReviews",
      "outputs": [
        {
          "components": [
            {
              "internalType": "uint256",
              "name": "id",
              "type": "uint256"
            },
            {
              "internalType": "uint256",
              "name": "aid",
              "type": "uint256"
            },
            {
              "internalType": "string",
              "name": "reviewText",
              "type": "string"
            },
            {
              "internalType": "uint256",
              "name": "timestamp",
              "type": "uint256"
            },
            {
              "internalType": "address",
              "name": "owner",
              "type": "address"
            }
          ],
          "internalType": "struct DappBnbX.ReviewStruct[]",
          "name": "",
          "type": "tuple[]"
        }
      ],
      "stateMutability": "view",
      "type": "function"
    },
    {
      "inputs": [
        {
          "internalType": "uint256",
          "name": "aid",
          "type": "uint256"
        }
      ],
      "name": "getUnavailableDates",
      "outputs": [
        {
          "internalType": "uint256[]",
          "name": "",
          "type": "uint256[]"
        }
      ],
      "stateMutability": "view",
      "type": "function"
    },
    {
      "inputs": [],
      "name": "owner",
      "outputs": [
        {
          "internalType": "address",
          "name": "",
          "type": "address"
        }
      ],
      "stateMutability": "view",
      "type": "function"
    },
    {
      "inputs": [
        {
          "internalType": "uint256",
          "name": "aid",
          "type": "uint256"
        },
        {
          "internalType": "uint256",
          "name": "bookingId",
          "type": "uint256"
        }
      ],
      "name": "refundBooking",
      "outputs": [],
      "stateMutability": "nonpayable",
      "type": "function"
    },
    {
      "inputs": [],
      "name": "renounceOwnership",
      "outputs": [],
      "stateMutability": "nonpayable",
      "type": "function"
    },
    {
      "inputs": [],
      "name": "securityFee",
      "outputs": [
        {
          "internalType": "uint256",
          "name": "",
          "type": "uint256"
        }
      ],
      "stateMutability": "view",
      "type": "function"
    },
    {
      "inputs": [],
      "name": "taxPercent",
      "outputs": [
        {
          "internalType": "uint256",
          "name": "",
          "type": "uint256"
        }
      ],
      "stateMutability": "view",
      "type": "function"
    },
    {
      "inputs": [
        {
          "internalType": "uint256",
          "name": "aid",
          "type": "uint256"
        }
      ],
      "name": "tenantBooked",
      "outputs": [
        {
          "internalType": "bool",
          "name": "",
          "type": "bool"
        }
      ],
      "stateMutability": "view",
      "type": "function"
    },
    {
      "inputs": [
        {
          "internalType": "address",
          "name": "newOwner",
          "type": "address"
        }
      ],
      "name": "transferOwnership",
      "outputs": [],
      "stateMutability": "nonpayable",
      "type": "function"
    },
    {
      "inputs": [
        {
          "internalType": "uint256",
          "name": "id",
          "type": "uint256"
        },
        {
          "internalType": "string",
          "name": "name",
          "type": "string"
        },
        {
          "internalType": "string",
          "name": "description",
          "type": "string"
        },
        {
          "internalType": "string",
          "name": "location",
          "type": "string"
        },
        {
          "internalType": "string",
          "name": "images",
          "type": "string"
        },
        {
          "internalType": "uint256",
          "name": "rooms",
          "type": "uint256"
        },
        {
          "internalType": "uint256",
          "name": "price",
          "type": "uint256"
        }
      ],
      "name": "updateAppartment",
      "outputs": [],
      "stateMutability": "nonpayable",
      "type": "function"
    }
  ],
  "bytecode": "0x60806040523480156200001157600080fd5b5060405162003417380380620034178339810160408190526200003491620000a2565b6200003f3362000052565b60018055600491909155600355620000c7565b600080546001600160a01b038381166001600160a01b0319831681178455604051919092169283917f8be0079c531659141344cd1fd0a4f28419497f9722a3daafe3b4186f6b6457e09190a35050565b60008060408385031215620000b657600080fd5b505080516020909101519092909150565b61334080620000d76000396000f3fe60806040526004361061012a5760003560e01c80639f31a2be116100ab578063d68e13021161006f578063d68e13021461037c578063db2f80b714610392578063dec30d39146103bf578063df6e0222146103df578063f2fde38b146103f2578063f40109951461041257600080fd5b80639f31a2be146102a2578063b1c98099146102ed578063bdfdee761461030f578063c4452e061461032f578063d57a7b541461035c57600080fd5b8063715018a6116100f2578063715018a6146101f45780637541f41c1461020957806378419f611461022d5780638da5cb5b1461024d5780639d4a22551461027557600080fd5b8063010b58ee1461012f5780630bb9ce3314610151578063455b3070146101875780635bb0c5d6146101b457806367626e5d146101d4575b600080fd5b34801561013b57600080fd5b5061014f61014a3660046129c2565b61043f565b005b34801561015d57600080fd5b5061017161016c3660046129e4565b610654565b60405161017e91906129fd565b60405180910390f35b34801561019357600080fd5b506101a76101a23660046129c2565b6107fd565b60405161017e9190612a98565b3480156101c057600080fd5b5061014f6101cf366004612b5d565b6108a1565b3480156101e057600080fd5b5061014f6101ef3660046129c2565b610aab565b34801561020057600080fd5b5061014f610e52565b34801561021557600080fd5b5061021f60045481565b60405190815260200161017e565b34801561023957600080fd5b5061014f6102483660046129c2565b610e66565b34801561025957600080fd5b506000546040516001600160a01b03909116815260200161017e565b34801561028157600080fd5b506102956102903660046129e4565b611076565b60405161017e9190612bea565b3480156102ae57600080fd5b506102dd6102bd3660046129e4565b336000908152600b60209081526040808320938352929052205460ff1690565b604051901515815260200161017e565b3480156102f957600080fd5b506103026111b1565b60405161017e9190612d55565b34801561031b57600080fd5b5061014f61032a366004612db7565b61158c565b34801561033b57600080fd5b5061034f61034a3660046129e4565b611bbc565b60405161017e9190612e81565b34801561036857600080fd5b5061014f610377366004612e9b565b611e90565b34801561038857600080fd5b5061021f60035481565b34801561039e57600080fd5b506103b26103ad3660046129e4565b6121a6565b60405161017e9190612f5a565b3480156103cb57600080fd5b5061014f6103da3660046129e4565b612208565b61014f6103ed366004612f92565b6122cc565b3480156103fe57600080fd5b5061014f61040d366004613044565b6125b2565b34801561041e57600080fd5b5061043261042d3660046129e4565b61262b565b60405161017e919061306d565b600082815260066020526040812080548390811061045f5761045f6130af565b600091825260208083206040805160e08101825260069094029091018054845260018101548484015260028101546001600160a01b0390811685840152600382015460608601526004820154608086015260059182015460ff808216151560a088015261010090910416151560c086015288865292529092206007015490925033911614806104f857506000546001600160a01b031633145b61051d5760405162461bcd60e51b8152600401610514906130c5565b60405180910390fd5b8060a001511561053f5760405162461bcd60e51b8152600401610514906130f2565b6105476126e6565b8160600151106105a85760405162461bcd60e51b815260206004820152602660248201527f4e6f7420616c6c6f7765642c20626f6f6b696e672064617465206e6f7420657860448201526518d95959195960d21b6064820152608401610514565b6000606460045483608001516105be9190613134565b6105c8919061314b565b90506000606460035484608001516105e09190613134565b6105ea919061314b565b6000868152600560205260409020600701546080850151919250610624916001600160a01b039091169061061f90859061316d565b612705565b61063f6106396000546001600160a01b031690565b83612705565b61064d836040015182612705565b5050505050565b60606000805b6000848152600660205260409020548110156106cc576000848152600660205260409020805482908110610690576106906130af565b600091825260209091206005600690920201015460ff16156106ba57816106b681613180565b9250505b806106c481613180565b91505061065a565b508067ffffffffffffffff8111156106e6576106e6612aa6565b60405190808252806020026020018201604052801561070f578160200160208202803683370190505b5091506000805b6000858152600660205260409020548110156107f557600085815260066020526040902080548290811061074c5761074c6130af565b600091825260209091206005600690920201015460ff16156107e3576000858152600660205260409020805482908110610788576107886130af565b60009182526020909120600260069092020101546001600160a01b031684836107b081613180565b9450815181106107c2576107c26130af565b60200260200101906001600160a01b031690816001600160a01b0316815250505b806107ed81613180565b915050610716565b505050919050565b610805612911565b6000838152600660205260409020805483908110610825576108256130af565b60009182526020918290206040805160e08101825260069093029091018054835260018101549383019390935260028301546001600160a01b031690820152600382015460608201526004820154608082015260059091015460ff808216151560a084015261010090910416151560c082015290505b92915050565b60008281526008602052604090205460ff166108ff5760405162461bcd60e51b815260206004820152601860248201527f4170706172746d656e74206e6f7420617661696c61626c6500000000000000006044820152606401610514565b336000908152600b6020908152604080832085845290915290205460ff166109695760405162461bcd60e51b815260206004820152601860248201527f426f6f6b206669727374206265666f72652072657669657700000000000000006044820152606401610514565b60008151116109ba5760405162461bcd60e51b815260206004820152601760248201527f436f6d6d656e742063616e6e6f7420626520656d7074790000000000000000006044820152606401610514565b6109f56040518060a001604052806000815260200160008152602001606081526020016000815260200160006001600160a01b031681525090565b60008381526007602090815260409182902054835282018490528101829052336080820152610a226126e6565b6060820152600083815260076020908152604080832080546001818101835591855293839020855160059095020193845591840151918301919091558201518291906002820190610a739082613221565b5060608201516003820155608090910151600490910180546001600160a01b0319166001600160a01b03909216919091179055505050565b610ab361276a565b6000828152600660205260408120805483908110610ad357610ad36130af565b60009182526020918290206040805160e08101825260069093029091018054835260018101549383019390935260028301546001600160a01b031690820152600382015460608201526004820154608082015260059091015460ff80821615801560a085015261010090920416151560c0830152909150610b665760405162461bcd60e51b8152600401610514906130f2565b6000838152600a602090815260408083206060850151845290915290205460ff16610bc55760405162461bcd60e51b815260206004820152600f60248201526e11185d19481b9bdd08189bdbdad959608a1b6044820152606401610514565b6000546001600160a01b03163314610c965780604001516001600160a01b0316336001600160a01b031614610c315760405162461bcd60e51b8152602060048201526012602482015271556e6174686f72697a656420456e7469747960701b6044820152606401610514565b610c396126e6565b816060015111610c965760405162461bcd60e51b815260206004820152602260248201527f4e6f7420616c6c6f7765642c20657863656564656420626f6f6b696e67206461604482015261746560f01b6064820152608401610514565b600083815260066020526040902080546001919084908110610cba57610cba6130af565b6000918252602080832060056006909302019190910180549315156101000261ff001990941693909317909255848152600a82526040808220606085015183528352808220805460ff19169055858252600990925290812054610d1f9060019061316d565b60008581526009602052604081208054929350909183908110610d4457610d446130af565b9060005260206000200154905080600960008781526020019081526020016000208581548110610d7657610d766130af565b906000526020600020018190555060096000868152602001908152602001600020805480610da657610da66132e1565b60019003818190600052602060002001600090559055600060646003548560800151610dd29190613134565b610ddc919061314b565b90506000610deb60028361314b565b600088815260056020526040902060070154909150610e13906001600160a01b031682612705565b610e2e610e286000546001600160a01b031690565b82612705565b610e4085604001518660800151612705565b5050505050610e4e60018055565b5050565b610e5a6127c3565b610e64600061281d565b565b610e6e61276a565b6000828152600660205260408120805483908110610e8e57610e8e6130af565b60009182526020918290206040805160e08101825260069093029091018054835260018101549383019390935260028301546001600160a01b0316908201819052600383015460608301526004830154608083015260059092015460ff808216151560a084015261010090910416151560c082015291503314610f495760405162461bcd60e51b8152602060048201526013602482015272556e617574686f72697a656420456e7469747960681b6044820152606401610514565b8060a0015115610f6b5760405162461bcd60e51b8152600401610514906130f2565b600083815260066020526040902080546001919084908110610f8f57610f8f6130af565b60009182526020808320600560069093020191909101805493151560ff19948516179055338252600b81526040808320878452909152812080549092166001179091556004546080830151606491610fe691613134565b610ff0919061314b565b90506000606460035484608001516110089190613134565b611012919061314b565b6000868152600560205260409020600701546080850151919250611047916001600160a01b039091169061061f90859061316d565b61105c6106396000546001600160a01b031690565b61106a836040015182612705565b505050610e4e60018055565b606060076000838152602001908152602001600020805480602002602001604051908101604052809291908181526020016000905b828210156111a657838290600052602060002090600502016040518060a001604052908160008201548152602001600182015481526020016002820180546110f290613199565b80601f016020809104026020016040519081016040528092919081815260200182805461111e90613199565b801561116b5780601f106111405761010080835404028352916020019161116b565b820191906000526020600020905b81548152906001019060200180831161114e57829003601f168201915b505050918352505060038201546020808301919091526004909201546001600160a01b031660409091015290825260019290920191016110ab565b505050509050919050565b6060600060015b600254811161120157600081815260056020526040902060070154600160a81b900460ff166111ef57816111eb81613180565b9250505b806111f981613180565b9150506111b8565b508067ffffffffffffffff81111561121b5761121b612aa6565b60405190808252806020026020018201604052801561125457816020015b61124161295b565b8152602001906001900390816112395790505b509150600060015b600254811161158657600081815260056020526040902060070154600160a81b900460ff16611574576005600082815260200190815260200160002060405180610160016040529081600082015481526020016001820180546112be90613199565b80601f01602080910402602001604051908101604052809291908181526020018280546112ea90613199565b80156113375780601f1061130c57610100808354040283529160200191611337565b820191906000526020600020905b81548152906001019060200180831161131a57829003601f168201915b5050505050815260200160028201805461135090613199565b80601f016020809104026020016040519081016040528092919081815260200182805461137c90613199565b80156113c95780601f1061139e576101008083540402835291602001916113c9565b820191906000526020600020905b8154815290600101906020018083116113ac57829003601f168201915b505050505081526020016003820180546113e290613199565b80601f016020809104026020016040519081016040528092919081815260200182805461140e90613199565b801561145b5780601f106114305761010080835404028352916020019161145b565b820191906000526020600020905b81548152906001019060200180831161143e57829003601f168201915b5050505050815260200160048201805461147490613199565b80601f01602080910402602001604051908101604052809291908181526020018280546114a090613199565b80156114ed5780601f106114c2576101008083540402835291602001916114ed565b820191906000526020600020905b8154815290600101906020018083116114d057829003601f168201915b5050509183525050600582015460208201526006820154604082015260078201546001600160a01b038116606083015260ff600160a01b8204811615156080840152600160a81b90910416151560a082015260089091015460c090910152848361155681613180565b945081518110611568576115686130af565b60200260200101819052505b8061157e81613180565b91505061125c565b50505090565b60008781526008602052604090205460ff166115e15760405162461bcd60e51b8152602060048201526014602482015273105c1c185c9d1b595b9d081b9bdd08199bdd5b9960621b6044820152606401610514565b6000878152600560205260409020600701546001600160a01b0316331461161a5760405162461bcd60e51b8152600401610514906130c5565b60008651116116625760405162461bcd60e51b81526020600482015260146024820152734e616d652063616e6e6f7420626520656d70747960601b6044820152606401610514565b60008551116116b35760405162461bcd60e51b815260206004820152601b60248201527f4465736372697074696f6e2063616e6e6f7420626520656d70747900000000006044820152606401610514565b60008451116116ff5760405162461bcd60e51b81526020600482015260186024820152774c6f636174696f6e2063616e6e6f7420626520656d70747960401b6044820152606401610514565b60008351116117495760405162461bcd60e51b8152602060048201526016602482015275496d616765732063616e6e6f7420626520656d70747960501b6044820152606401610514565b600082116117905760405162461bcd60e51b8152602060048201526014602482015273526f6f6d732063616e6e6f74206265207a65726f60601b6044820152606401610514565b600081116117d75760405162461bcd60e51b815260206004820152601460248201527350726963652063616e6e6f74206265207a65726f60601b6044820152606401610514565b600060056000898152602001908152602001600020604051806101600160405290816000820154815260200160018201805461181290613199565b80601f016020809104026020016040519081016040528092919081815260200182805461183e90613199565b801561188b5780601f106118605761010080835404028352916020019161188b565b820191906000526020600020905b81548152906001019060200180831161186e57829003601f168201915b505050505081526020016002820180546118a490613199565b80601f01602080910402602001604051908101604052809291908181526020018280546118d090613199565b801561191d5780601f106118f25761010080835404028352916020019161191d565b820191906000526020600020905b81548152906001019060200180831161190057829003601f168201915b5050505050815260200160038201805461193690613199565b80601f016020809104026020016040519081016040528092919081815260200182805461196290613199565b80156119af5780601f10611984576101008083540402835291602001916119af565b820191906000526020600020905b81548152906001019060200180831161199257829003601f168201915b505050505081526020016004820180546119c890613199565b80601f01602080910402602001604051908101604052809291908181526020018280546119f490613199565b8015611a415780601f10611a1657610100808354040283529160200191611a41565b820191906000526020600020905b815481529060010190602001808311611a2457829003601f168201915b5050509183525050600582810154602080840191909152600684015460408085019190915260078501546001600160a01b03811660608087019190915260ff600160a01b830481161515608080890191909152600160a81b90930416151560a08088019190915260089097015460c0968701528784018f81528884018f90529088018d90529087018b9052948601899052928501879052845160009081529190522082518155905191925082916001820190611afd9082613221565b5060408201516002820190611b129082613221565b5060608201516003820190611b279082613221565b5060808201516004820190611b3c9082613221565b5060a0820151600582015560c0820151600682015560e08201516007820180546101008501516101208601511515600160a81b0260ff60a81b19911515600160a01b026001600160a81b03199093166001600160a01b03909516949094179190911716919091179055610140909101516008909101555050505050505050565b611bc461295b565b600560008381526020019081526020016000206040518061016001604052908160008201548152602001600182018054611bfd90613199565b80601f0160208091040260200160405190810160405280929190818152602001828054611c2990613199565b8015611c765780601f10611c4b57610100808354040283529160200191611c76565b820191906000526020600020905b815481529060010190602001808311611c5957829003601f168201915b50505050508152602001600282018054611c8f90613199565b80601f0160208091040260200160405190810160405280929190818152602001828054611cbb90613199565b8015611d085780601f10611cdd57610100808354040283529160200191611d08565b820191906000526020600020905b815481529060010190602001808311611ceb57829003601f168201915b50505050508152602001600382018054611d2190613199565b80601f0160208091040260200160405190810160405280929190818152602001828054611d4d90613199565b8015611d9a5780601f10611d6f57610100808354040283529160200191611d9a565b820191906000526020600020905b815481529060010190602001808311611d7d57829003601f168201915b50505050508152602001600482018054611db390613199565b80601f0160208091040260200160405190810160405280929190818152602001828054611ddf90613199565b8015611e2c5780601f10611e0157610100808354040283529160200191611e2c565b820191906000526020600020905b815481529060010190602001808311611e0f57829003601f168201915b5050509183525050600582015460208201526006820154604082015260078201546001600160a01b038116606083015260ff600160a01b8204811615156080840152600160a81b90910416151560a082015260089091015460c09091015292915050565b6000865111611ed85760405162461bcd60e51b81526020600482015260146024820152734e616d652063616e6e6f7420626520656d70747960601b6044820152606401610514565b6000855111611f295760405162461bcd60e51b815260206004820152601b60248201527f4465736372697074696f6e2063616e6e6f7420626520656d70747900000000006044820152606401610514565b6000845111611f755760405162461bcd60e51b81526020600482015260186024820152774c6f636174696f6e2063616e6e6f7420626520656d70747960401b6044820152606401610514565b6000835111611fbf5760405162461bcd60e51b8152602060048201526016602482015275496d616765732063616e6e6f7420626520656d70747960501b6044820152606401610514565b600082116120065760405162461bcd60e51b8152602060048201526014602482015273526f6f6d732063616e6e6f74206265207a65726f60601b6044820152606401610514565b6000811161204d5760405162461bcd60e51b815260206004820152601460248201527350726963652063616e6e6f74206265207a65726f60601b6044820152606401610514565b61205b600280546001019055565b61206361295b565b60025481526020810187905260408101869052606081018590526080810184905260a0810183905260c081018290523360e08201526120a06126e6565b61014082015280516000908152600860209081526040808320805460ff1916600190811790915584518452600583529220835181559083015183928201906120e89082613221565b50604082015160028201906120fd9082613221565b50606082015160038201906121129082613221565b50608082015160048201906121279082613221565b5060a0820151600582015560c0820151600682015560e08201516007820180546101008501516101208601511515600160a81b0260ff60a81b19911515600160a01b026001600160a81b03199093166001600160a01b039095169490941791909117169190911790556101409091015160089091015550505050505050565b6000818152600960209081526040918290208054835181840281018401909452808452606093928301828280156121fc57602002820191906000526020600020905b8154815260200190600101908083116121e8575b50505050509050919050565b60008181526008602052604090205460ff1661225d5760405162461bcd60e51b8152602060048201526014602482015273105c1c185c9d1b595b9d081b9bdd08199bdd5b9960621b6044820152606401610514565b6000818152600560205260409020600701546001600160a01b031633146122965760405162461bcd60e51b8152600401610514906130c5565b6000908152600860209081526040808320805460ff1916905560059091529020600701805460ff60a81b1916600160a81b179055565b805160008381526005602052604081206006015490916122eb91613134565b905060006064600354836122ff9190613134565b612309919061314b565b60008581526008602052604090205490915060ff166123615760405162461bcd60e51b815260206004820152601460248201527341706172746d656e74206e6f7420666f756e642160601b6044820152606401610514565b61236b81836132f7565b3410156123ae5760405162461bcd60e51b8152602060048201526011602482015270125b9cdd59999a58da595b9d08199d5b99607a1b6044820152606401610514565b6123b8848461286d565b6124045760405162461bcd60e51b815260206004820152601f60248201527f4f6e65206f72206d6f7265206461746573206e6f7420617661696c61626c65006044820152606401610514565b60005b835181101561064d57612418612911565b60008681526006602090815260409182902054835282018790523390820152845185908390811061244b5761244b6130af565b60209081029190910181015160608301908152600088815260058084526040808320600690810154608088019081528c85528187528285208054600181810183559187528887208a51919094029093019283558888015190830155828801516002830180546001600160a01b039092166001600160a01b0319909216919091179055945160038201559351600485015560a086015193909101805460c087015115156101000261ff00199515159590951661ffff199091161793909317909255888152600990925290208551869084908110612529576125296130af565b602090810291909101810151825460018181018555600094855283852090910191909155888352600a90915260408220875191929091889086908110612571576125716130af565b6020026020010151815260200190815260200160002060006101000a81548160ff0219169083151502179055505080806125aa90613180565b915050612407565b6125ba6127c3565b6001600160a01b03811661261f5760405162461bcd60e51b815260206004820152602660248201527f4f776e61626c653a206e6577206f776e657220697320746865207a65726f206160448201526564647265737360d01b6064820152608401610514565b6126288161281d565b50565b606060066000838152602001908152602001600020805480602002602001604051908101604052809291908181526020016000905b828210156111a65760008481526020908190206040805160e08101825260068602909201805483526001808201548486015260028201546001600160a01b03169284019290925260038101546060840152600481015460808401526005015460ff808216151560a085015261010090910416151560c08301529083529092019101612660565b60006126f4426103e8613134565b612700906103e86132f7565b905090565b6000826001600160a01b03168260405160006040518083038185875af1925050503d8060008114612752576040519150601f19603f3d011682016040523d82523d6000602084013e612757565b606091505b505090508061276557600080fd5b505050565b6002600154036127bc5760405162461bcd60e51b815260206004820152601f60248201527f5265656e7472616e637947756172643a207265656e7472616e742063616c6c006044820152606401610514565b6002600155565b6000546001600160a01b03163314610e645760405162461bcd60e51b815260206004820181905260248201527f4f776e61626c653a2063616c6c6572206973206e6f7420746865206f776e65726044820152606401610514565b600080546001600160a01b038381166001600160a01b0319831681178455604051919092169283917f8be0079c531659141344cd1fd0a4f28419497f9722a3daafe3b4186f6b6457e09190a35050565b60006001815b83518110156129095760005b6000868152600960205260409020548110156128f65760008681526009602052604090208054829081106128b5576128b56130af565b90600052602060002001548583815181106128d2576128d26130af565b6020026020010151036128e457600092505b806128ee81613180565b91505061287f565b508061290181613180565b915050612873565b509392505050565b6040518060e00160405280600081526020016000815260200160006001600160a01b0316815260200160008152602001600081526020016000151581526020016000151581525090565b6040518061016001604052806000815260200160608152602001606081526020016060815260200160608152602001600081526020016000815260200160006001600160a01b03168152602001600015158152602001600015158152602001600081525090565b600080604083850312156129d557600080fd5b50508035926020909101359150565b6000602082840312156129f657600080fd5b5035919050565b6020808252825182820181905260009190848201906040850190845b81811015612a3e5783516001600160a01b031683529284019291840191600101612a19565b50909695505050505050565b80518252602080820151908301526040808201516001600160a01b031690830152606080820151908301526080808201519083015260a08082015115159083015260c0908101511515910152565b60e0810161089b8284612a4a565b634e487b7160e01b600052604160045260246000fd5b604051601f8201601f1916810167ffffffffffffffff81118282101715612ae557612ae5612aa6565b604052919050565b600082601f830112612afe57600080fd5b813567ffffffffffffffff811115612b1857612b18612aa6565b612b2b601f8201601f1916602001612abc565b818152846020838601011115612b4057600080fd5b816020850160208301376000918101602001919091529392505050565b60008060408385031215612b7057600080fd5b82359150602083013567ffffffffffffffff811115612b8e57600080fd5b612b9a85828601612aed565b9150509250929050565b6000815180845260005b81811015612bca57602081850181015186830182015201612bae565b506000602082860101526020601f19601f83011685010191505092915050565b60006020808301818452808551808352604092508286019150828160051b87010184880160005b83811015612c7a57603f19898403018552815160a0815185528882015189860152878201518189870152612c4782870182612ba4565b606084810151908801526080938401516001600160a01b0316939096019290925250509386019390860190600101612c11565b509098975050505050505050565b6000610160825184526020830151816020860152612ca882860182612ba4565b91505060408301518482036040860152612cc28282612ba4565b91505060608301518482036060860152612cdc8282612ba4565b91505060808301518482036080860152612cf68282612ba4565b91505060a083015160a085015260c083015160c085015260e0830151612d2760e08601826001600160a01b03169052565b5061010083810151151590850152610120808401511515908501526101409283015192909301919091525090565b6000602080830181845280855180835260408601915060408160051b870101925083870160005b82811015612daa57603f19888603018452612d98858351612c88565b94509285019290850190600101612d7c565b5092979650505050505050565b600080600080600080600060e0888a031215612dd257600080fd5b87359650602088013567ffffffffffffffff80821115612df157600080fd5b612dfd8b838c01612aed565b975060408a0135915080821115612e1357600080fd5b612e1f8b838c01612aed565b965060608a0135915080821115612e3557600080fd5b612e418b838c01612aed565b955060808a0135915080821115612e5757600080fd5b50612e648a828b01612aed565b93505060a0880135915060c0880135905092959891949750929550565b602081526000612e946020830184612c88565b9392505050565b60008060008060008060c08789031215612eb457600080fd5b863567ffffffffffffffff80821115612ecc57600080fd5b612ed88a838b01612aed565b97506020890135915080821115612eee57600080fd5b612efa8a838b01612aed565b96506040890135915080821115612f1057600080fd5b612f1c8a838b01612aed565b95506060890135915080821115612f3257600080fd5b50612f3f89828a01612aed565b9350506080870135915060a087013590509295509295509295565b6020808252825182820181905260009190848201906040850190845b81811015612a3e57835183529284019291840191600101612f76565b60008060408385031215612fa557600080fd5b8235915060208084013567ffffffffffffffff80821115612fc557600080fd5b818601915086601f830112612fd957600080fd5b813581811115612feb57612feb612aa6565b8060051b9150612ffc848301612abc565b818152918301840191848101908984111561301657600080fd5b938501935b838510156130345784358252938501939085019061301b565b8096505050505050509250929050565b60006020828403121561305657600080fd5b81356001600160a01b0381168114612e9457600080fd5b6020808252825182820181905260009190848201906040850190845b81811015612a3e5761309c838551612a4a565b9284019260e09290920191600101613089565b634e487b7160e01b600052603260045260246000fd5b602080825260139082015272556e617574686f72697a656420656e7469747960681b604082015260600190565b60208082526012908201527120b63932b0b23c9031b432b1b5b2b21034b760711b604082015260600190565b634e487b7160e01b600052601160045260246000fd5b808202811582820484141761089b5761089b61311e565b60008261316857634e487b7160e01b600052601260045260246000fd5b500490565b8181038181111561089b5761089b61311e565b6000600182016131925761319261311e565b5060010190565b600181811c908216806131ad57607f821691505b6020821081036131cd57634e487b7160e01b600052602260045260246000fd5b50919050565b601f82111561276557600081815260208120601f850160051c810160208610156131fa5750805b601f850160051c820191505b8181101561321957828155600101613206565b505050505050565b815167ffffffffffffffff81111561323b5761323b612aa6565b61324f816132498454613199565b846131d3565b602080601f831160018114613284576000841561326c5750858301515b600019600386901b1c1916600185901b178555613219565b600085815260208120601f198616915b828110156132b357888601518255948401946001909101908401613294565b50858210156132d15787850151600019600388901b60f8161c191681555b5050505050600190811b01905550565b634e487b7160e01b600052603160045260246000fd5b8082018082111561089b5761089b61311e56fea264697066735822122006be83ceab36f8589d20f6ea51c83ffbf2b12e61daa63c4eb5cd46b68f62cf5664736f6c63430008130033",
  "linkReferences": {},
  "deployedLinkReferences": {}
}