{
  "_format": "hh-sol-artifact-1",
  "contractName": "DappBnb",
  "sourceName": "contracts/DappBnb.sol",
  "abi": [
    {
      "inputs": [
        {
          "internalType": "uint256",
          "name": "_taxPercent",
          "type": "uint256"
        },
        {
          "internalType": "uint256",
          "name": "_securityFee",
          "type": "uint256"
        }
      ],
      "stateMutability": "nonpayable",
      "type": "constructor"
    },
    {
      "anonymous": false,
      "inputs": [
        {
          "indexed": true,
          "internalType": "address",
          "name": "previousOwner",
          "type": "address"
        },
        {
          "indexed": true,
          "internalType": "address",
          "name": "newOwner",
          "type": "address"
        }
      ],
      "name": "OwnershipTransferred",
      "type": "event"
    },
    {
      "anonymous": false,
      "inputs": [
        {
          "indexed": false,
          "internalType": "uint256",
          "name": "newFee",
          "type": "uint256"
        }
      ],
      "name": "SecurityFeeUpdated",
      "type": "event"
    },
    {
      "inputs": [
        {
          "internalType": "uint256",
          "name": "aid",
          "type": "uint256"
        },
        {
          "internalType": "string",
          "name": "reviewText",
          "type": "string"
        }
      ],
      "name": "addReview",
      "outputs": [],
      "stateMutability": "nonpayable",
      "type": "function"
    },
    {
      "inputs": [
        {
          "internalType": "uint256",
          "name": "aid",
          "type": "uint256"
        },
        {
          "internalType": "uint256[]",
          "name": "dates",
          "type": "uint256[]"
        }
      ],
      "name": "bookApartment",
      "outputs": [],
      "stateMutability": "payable",
      "type": "function"
    },
    {
      "inputs": [
        {
          "internalType": "uint256",
          "name": "aid",
          "type": "uint256"
        },
        {
          "internalType": "uint256",
          "name": "bookingId",
          "type": "uint256"
        }
      ],
      "name": "checkInApartment",
      "outputs": [],
      "stateMutability": "nonpayable",
      "type": "function"
    },
    {
      "inputs": [
        {
          "internalType": "uint256",
          "name": "aid",
          "type": "uint256"
        },
        {
          "internalType": "uint256",
          "name": "bookingId",
          "type": "uint256"
        }
      ],
      "name": "claimFunds",
      "outputs": [],
      "stateMutability": "nonpayable",
      "type": "function"
    },
    {
      "inputs": [
        {
          "internalType": "string",
          "name": "name",
          "type": "string"
        },
        {
          "internalType": "string",
          "name": "description",
          "type": "string"
        },
        {
          "internalType": "string",
          "name": "location",
          "type": "string"
        },
        {
          "internalType": "string",
          "name": "images",
          "type": "string"
        },
        {
          "internalType": "uint256",
          "name": "rooms",
          "type": "uint256"
        },
        {
          "internalType": "uint256",
          "name": "price",
          "type": "uint256"
        }
      ],
      "name": "createAppartment",
      "outputs": [],
      "stateMutability": "nonpayable",
      "type": "function"
    },
    {
      "inputs": [
        {
          "internalType": "uint256",
          "name": "id",
          "type": "uint256"
        }
      ],
      "name": "deleteAppartment",
      "outputs": [],
      "stateMutability": "nonpayable",
      "type": "function"
    },
    {
      "inputs": [
        {
          "internalType": "uint256",
          "name": "id",
          "type": "uint256"
        }
      ],
      "name": "getApartment",
      "outputs": [
        {
          "components": [
            {
              "internalType": "uint256",
              "name": "id",
              "type": "uint256"
            },
            {
              "internalType": "string",
              "name": "name",
              "type": "string"
            },
            {
              "internalType": "string",
              "name": "description",
              "type": "string"
            },
            {
              "internalType": "string",
              "name": "location",
              "type": "string"
            },
            {
              "internalType": "string",
              "name": "images",
              "type": "string"
            },
            {
              "internalType": "uint256",
              "name": "rooms",
              "type": "uint256"
            },
            {
              "internalType": "uint256",
              "name": "price",
              "type": "uint256"
            },
            {
              "internalType": "address",
              "name": "owner",
              "type": "address"
            },
            {
              "internalType": "bool",
              "name": "booked",
              "type": "bool"
            },
            {
              "internalType": "bool",
              "name": "deleted",
              "type": "bool"
            },
            {
              "internalType": "uint256",
              "name": "timestamp",
              "type": "uint256"
            }
          ],
          "internalType": "struct DappBnb.ApartmentStruct",
          "name": "",
          "type": "tuple"
        }
      ],
      "stateMutability": "view",
      "type": "function"
    },
    {
      "inputs": [],
      "name": "getApartments",
      "outputs": [
        {
          "components": [
            {
              "internalType": "uint256",
              "name": "id",
              "type": "uint256"
            },
            {
              "internalType": "string",
              "name": "name",
              "type": "string"
            },
            {
              "internalType": "string",
              "name": "description",
              "type": "string"
            },
            {
              "internalType": "string",
              "name": "location",
              "type": "string"
            },
            {
              "internalType": "string",
              "name": "images",
              "type": "string"
            },
            {
              "internalType": "uint256",
              "name": "rooms",
              "type": "uint256"
            },
            {
              "internalType": "uint256",
              "name": "price",
              "type": "uint256"
            },
            {
              "internalType": "address",
              "name": "owner",
              "type": "address"
            },
            {
              "internalType": "bool",
              "name": "booked",
              "type": "bool"
            },
            {
              "internalType": "bool",
              "name": "deleted",
              "type": "bool"
            },
            {
              "internalType": "uint256",
              "name": "timestamp",
              "type": "uint256"
            }
          ],
          "internalType": "struct DappBnb.ApartmentStruct[]",
          "name": "Apartments",
          "type": "tuple[]"
        }
      ],
      "stateMutability": "view",
      "type": "function"
    },
    {
      "inputs": [
        {
          "internalType": "uint256",
          "name": "aid",
          "type": "uint256"
        },
        {
          "internalType": "uint256",
          "name": "bookingId",
          "type": "uint256"
        }
      ],
      "name": "getBooking",
      "outputs": [
        {
          "components": [
            {
              "internalType": "uint256",
              "name": "id",
              "type": "uint256"
            },
            {
              "internalType": "uint256",
              "name": "aid",
              "type": "uint256"
            },
            {
              "internalType": "address",
              "name": "tenant",
              "type": "address"
            },
            {
              "internalType": "uint256",
              "name": "date",
              "type": "uint256"
            },
            {
              "internalType": "uint256",
              "name": "price",
              "type": "uint256"
            },
            {
              "internalType": "bool",
              "name": "checked",
              "type": "bool"
            },
            {
              "internalType": "bool",
              "name": "cancelled",
              "type": "bool"
            }
          ],
          "internalType": "struct DappBnb.BookingStruct",
          "name": "",
          "type": "tuple"
        }
      ],
      "stateMutability": "view",
      "type": "function"
    },
    {
      "inputs": [
        {
          "internalType": "uint256",
          "name": "aid",
          "type": "uint256"
        }
      ],
      "name": "getBookings",
      "outputs": [
        {
          "components": [
            {
              "internalType": "uint256",
              "name": "id",
              "type": "uint256"
            },
            {
              "internalType": "uint256",
              "name": "aid",
              "type": "uint256"
            },
            {
              "internalType": "address",
              "name": "tenant",
              "type": "address"
            },
            {
              "internalType": "uint256",
              "name": "date",
              "type": "uint256"
            },
            {
              "internalType": "uint256",
              "name": "price",
              "type": "uint256"
            },
            {
              "internalType": "bool",
              "name": "checked",
              "type": "bool"
            },
            {
              "internalType": "bool",
              "name": "cancelled",
              "type": "bool"
            }
          ],
          "internalType": "struct DappBnb.BookingStruct[]",
          "name": "",
          "type": "tuple[]"
        }
      ],
      "stateMutability": "view",
      "type": "function"
    },
    {
      "inputs": [
        {
          "internalType": "uint256",
          "name": "aid",
          "type": "uint256"
        }
      ],
      "name": "getQualifiedReviewers",
      "outputs": [
        {
          "internalType": "address[]",
          "name": "Tenants",
          "type": "address[]"
        }
      ],
      "stateMutability": "view",
      "type": "function"
    },
    {
      "inputs": [
        {
          "internalType": "uint256",
          "name": "aid",
          "type": "uint256"
        }
      ],
      "name": "getReviews",
      "outputs": [
        {
          "components": [
            {
              "internalType": "uint256",
              "name": "id",
              "type": "uint256"
            },
            {
              "internalType": "uint256",
              "name": "aid",
              "type": "uint256"
            },
            {
              "internalType": "string",
              "name": "reviewText",
              "type": "string"
            },
            {
              "internalType": "uint256",
              "name": "timestamp",
              "type": "uint256"
            },
            {
              "internalType": "address",
              "name": "owner",
              "type": "address"
            }
          ],
          "internalType": "struct DappBnb.ReviewStruct[]",
          "name": "",
          "type": "tuple[]"
        }
      ],
      "stateMutability": "view",
      "type": "function"
    },
    {
      "inputs": [
        {
          "internalType": "uint256",
          "name": "aid",
          "type": "uint256"
        }
      ],
      "name": "getUnavailableDates",
      "outputs": [
        {
          "internalType": "uint256[]",
          "name": "",
          "type": "uint256[]"
        }
      ],
      "stateMutability": "view",
      "type": "function"
    },
    {
      "inputs": [
        {
          "internalType": "uint256",
          "name": "aid",
          "type": "uint256"
        },
        {
          "internalType": "uint256",
          "name": "bookingId",
          "type": "uint256"
        }
      ],
      "name": "hasBookedDateReached",
      "outputs": [
        {
          "internalType": "bool",
          "name": "",
          "type": "bool"
        }
      ],
      "stateMutability": "view",
      "type": "function"
    },
    {
      "inputs": [],
      "name": "owner",
      "outputs": [
        {
          "internalType": "address",
          "name": "",
          "type": "address"
        }
      ],
      "stateMutability": "view",
      "type": "function"
    },
    {
      "inputs": [
        {
          "internalType": "uint256",
          "name": "aid",
          "type": "uint256"
        },
        {
          "internalType": "uint256",
          "name": "bookingId",
          "type": "uint256"
        },
        {
          "internalType": "uint256",
          "name": "date",
          "type": "uint256"
        }
      ],
      "name": "refundBooking",
      "outputs": [],
      "stateMutability": "nonpayable",
      "type": "function"
    },
    {
      "inputs": [],
      "name": "renounceOwnership",
      "outputs": [],
      "stateMutability": "nonpayable",
      "type": "function"
    },
    {
      "inputs": [],
      "name": "securityFee",
      "outputs": [
        {
          "internalType": "uint256",
          "name": "",
          "type": "uint256"
        }
      ],
      "stateMutability": "view",
      "type": "function"
    },
    {
      "inputs": [],
      "name": "taxPercent",
      "outputs": [
        {
          "internalType": "uint256",
          "name": "",
          "type": "uint256"
        }
      ],
      "stateMutability": "view",
      "type": "function"
    },
    {
      "inputs": [
        {
          "internalType": "uint256",
          "name": "aid",
          "type": "uint256"
        }
      ],
      "name": "tenantBooked",
      "outputs": [
        {
          "internalType": "bool",
          "name": "",
          "type": "bool"
        }
      ],
      "stateMutability": "view",
      "type": "function"
    },
    {
      "inputs": [
        {
          "internalType": "address",
          "name": "newOwner",
          "type": "address"
        }
      ],
      "name": "transferOwnership",
      "outputs": [],
      "stateMutability": "nonpayable",
      "type": "function"
    },
    {
      "inputs": [
        {
          "internalType": "uint256",
          "name": "id",
          "type": "uint256"
        },
        {
          "internalType": "string",
          "name": "name",
          "type": "string"
        },
        {
          "internalType": "string",
          "name": "description",
          "type": "string"
        },
        {
          "internalType": "string",
          "name": "location",
          "type": "string"
        },
        {
          "internalType": "string",
          "name": "images",
          "type": "string"
        },
        {
          "internalType": "uint256",
          "name": "rooms",
          "type": "uint256"
        },
        {
          "internalType": "uint256",
          "name": "price",
          "type": "uint256"
        }
      ],
      "name": "updateAppartment",
      "outputs": [],
      "stateMutability": "nonpayable",
      "type": "function"
    },
    {
      "inputs": [
        {
          "internalType": "uint256",
          "name": "newFee",
          "type": "uint256"
        }
      ],
      "name": "updateSecurityFee",
      "outputs": [],
      "stateMutability": "nonpayable",
      "type": "function"
    },
    {
      "inputs": [
        {
          "internalType": "uint256",
          "name": "newTaxPercent",
          "type": "uint256"
        }
      ],
      "name": "updateTaxPercent",
      "outputs": [],
      "stateMutability": "nonpayable",
      "type": "function"
    }
  ],
  "bytecode": "0x60806040523480156200001157600080fd5b506040516200345d3803806200345d8339810160408190526200003491620000a2565b6200003f3362000052565b60018055600491909155600355620000c7565b600080546001600160a01b038381166001600160a01b0319831681178455604051919092169283917f8be0079c531659141344cd1fd0a4f28419497f9722a3daafe3b4186f6b6457e09190a35050565b60008060408385031215620000b657600080fd5b505080516020909101519092909150565b61338680620000d76000396000f3fe60806040526004361061014b5760003560e01c8063bdfdee76116100b6578063df6e02221161006f578063df6e022214610400578063e16ca8d114610413578063eb46144514610433578063f2fde38b14610453578063f401099514610473578063f6ab7e3d146104a057600080fd5b8063bdfdee7614610330578063c4452e0614610350578063d57a7b541461037d578063d68e13021461039d578063db2f80b7146103b3578063dec30d39146103e057600080fd5b80637541f41c116101085780637541f41c1461022a57806378419f611461024e5780638da5cb5b1461026e5780639d4a2255146102965780639f31a2be146102c3578063b1c980991461030e57600080fd5b8063010b58ee146101505780630bb9ce3314610172578063455b3070146101a85780635bb0c5d6146101d557806361591149146101f5578063715018a614610215575b600080fd5b34801561015c57600080fd5b5061017061016b3660046129ee565b6104c0565b005b34801561017e57600080fd5b5061019261018d366004612a10565b610626565b60405161019f9190612a29565b60405180910390f35b3480156101b457600080fd5b506101c86101c33660046129ee565b6107cf565b60405161019f9190612ac4565b3480156101e157600080fd5b506101706101f0366004612b89565b610873565b34801561020157600080fd5b50610170610210366004612a10565b610a7e565b34801561022157600080fd5b50610170610ace565b34801561023657600080fd5b5061024060045481565b60405190815260200161019f565b34801561025a57600080fd5b506101706102693660046129ee565b610ae2565b34801561027a57600080fd5b506000546040516001600160a01b03909116815260200161019f565b3480156102a257600080fd5b506102b66102b1366004612a10565b610c95565b60405161019f9190612c16565b3480156102cf57600080fd5b506102fe6102de366004612a10565b336000908152600b60209081526040808320938352929052205460ff1690565b604051901515815260200161019f565b34801561031a57600080fd5b50610323610dd0565b60405161019f9190612d81565b34801561033c57600080fd5b5061017061034b366004612de3565b6111ab565b34801561035c57600080fd5b5061037061036b366004612a10565b611819565b60405161019f9190612ead565b34801561038957600080fd5b50610170610398366004612ec7565b611aed565b3480156103a957600080fd5b5061024060035481565b3480156103bf57600080fd5b506103d36103ce366004612a10565b611e12565b60405161019f9190612f86565b3480156103ec57600080fd5b506101706103fb366004612a10565b611e74565b61017061040e366004612fbe565b611f63565b34801561041f57600080fd5b5061017061042e366004613070565b61222e565b34801561043f57600080fd5b5061017061044e366004612a10565b612591565b34801561045f57600080fd5b5061017061046e36600461309c565b61259e565b34801561047f57600080fd5b5061049361048e366004612a10565b612617565b60405161019f91906130c5565b3480156104ac57600080fd5b506102fe6104bb3660046129ee565b6126d2565b6000828152600560205260409020600701546001600160a01b031633146105245760405162461bcd60e51b8152602060048201526013602482015272556e617574686f72697a656420656e7469747960681b60448201526064015b60405180910390fd5b600082815260066020526040902080548290811061054457610544613107565b600091825260209091206005600690920201015460ff16156105785760405162461bcd60e51b815260040161051b9061311d565b600082815260066020526040812080548390811061059857610598613107565b906000526020600020906006020160040154905060006064600454836105be919061317a565b6105c89190613191565b6000858152600560205260409020600701549091506105f9906001600160a01b03166105f483856131b3565b612717565b61061461060e6000546001600160a01b031690565b82612717565b61062033600354612717565b50505050565b60606000805b60008481526006602052604090205481101561069e57600084815260066020526040902080548290811061066257610662613107565b600091825260209091206005600690920201015460ff161561068c5781610688816131c6565b9250505b80610696816131c6565b91505061062c565b508067ffffffffffffffff8111156106b8576106b8612ad2565b6040519080825280602002602001820160405280156106e1578160200160208202803683370190505b5091506000805b6000858152600660205260409020548110156107c757600085815260066020526040902080548290811061071e5761071e613107565b600091825260209091206005600690920201015460ff16156107b557600085815260066020526040902080548290811061075a5761075a613107565b60009182526020909120600260069092020101546001600160a01b03168483610782816131c6565b94508151811061079457610794613107565b60200260200101906001600160a01b031690816001600160a01b0316815250505b806107bf816131c6565b9150506106e8565b505050919050565b6107d761293d565b60008381526006602052604090208054839081106107f7576107f7613107565b60009182526020918290206040805160e08101825260069093029091018054835260018101549383019390935260028301546001600160a01b031690820152600382015460608201526004820154608082015260059091015460ff808216151560a084015261010090910416151560c082015290505b92915050565b60008281526008602052604090205460ff166108d15760405162461bcd60e51b815260206004820152601860248201527f4170706172746d656e74206e6f7420617661696c61626c650000000000000000604482015260640161051b565b336000908152600b6020908152604080832085845290915290205460ff1661093b5760405162461bcd60e51b815260206004820152601860248201527f426f6f6b206669727374206265666f7265207265766965770000000000000000604482015260640161051b565b600081511161098c5760405162461bcd60e51b815260206004820152601b60248201527f52657669657720746578742063616e6e6f7420626520656d7074790000000000604482015260640161051b565b6109c76040518060a001604052806000815260200160008152602001606081526020016000815260200160006001600160a01b031681525090565b60208082018490526000848152600790915260409081902054825281018290526109ef612777565b6060820152336080820152600083815260076020908152604080832080546001818101835591855293839020855160059095020193845591840151918301919091558201518291906002820190610a469082613267565b5060608201516003820155608090910151600490910180546001600160a01b0319166001600160a01b03909216919091179055505050565b610a86612796565b60008111610a9357600080fd5b60038190556040518181527f3790aeee57809af98fad1b89b9266c7934e03ed46702b541f2fef6f1e89d68279060200160405180910390a150565b610ad6612796565b610ae060006127f0565b565b6000828152600660205260409020805482908110610b0257610b02613107565b60009182526020909120600690910201600201546001600160a01b03163314610b645760405162461bcd60e51b8152602060048201526014602482015273556e617574686f72697a65642074656e616e742160601b604482015260640161051b565b6000828152600660205260409020805482908110610b8457610b84613107565b600091825260209091206005600690920201015460ff1615610bb85760405162461bcd60e51b815260040161051b9061311d565b600082815260066020526040902080546001919083908110610bdc57610bdc613107565b60009182526020808320600692830201600501805460ff19169415159490941790935584825290915260408120805483908110610c1b57610c1b613107565b90600052602060002090600602016004015490506000606460045483610c41919061317a565b610c4b9190613191565b336000908152600b602090815260408083208884528252808320805460ff1916600117905560059091529020600701549091506105f9906001600160a01b03166105f483856131b3565b606060076000838152602001908152602001600020805480602002602001604051908101604052809291908181526020016000905b82821015610dc557838290600052602060002090600502016040518060a00160405290816000820154815260200160018201548152602001600282018054610d11906131df565b80601f0160208091040260200160405190810160405280929190818152602001828054610d3d906131df565b8015610d8a5780601f10610d5f57610100808354040283529160200191610d8a565b820191906000526020600020905b815481529060010190602001808311610d6d57829003601f168201915b505050918352505060038201546020808301919091526004909201546001600160a01b03166040909101529082526001929092019101610cca565b505050509050919050565b6060600060015b6002548111610e2057600081815260056020526040902060070154600160a81b900460ff16610e0e5781610e0a816131c6565b9250505b80610e18816131c6565b915050610dd7565b508067ffffffffffffffff811115610e3a57610e3a612ad2565b604051908082528060200260200182016040528015610e7357816020015b610e60612987565b815260200190600190039081610e585790505b509150600060015b60025481116111a557600081815260056020526040902060070154600160a81b900460ff1661119357600560008281526020019081526020016000206040518061016001604052908160008201548152602001600182018054610edd906131df565b80601f0160208091040260200160405190810160405280929190818152602001828054610f09906131df565b8015610f565780601f10610f2b57610100808354040283529160200191610f56565b820191906000526020600020905b815481529060010190602001808311610f3957829003601f168201915b50505050508152602001600282018054610f6f906131df565b80601f0160208091040260200160405190810160405280929190818152602001828054610f9b906131df565b8015610fe85780601f10610fbd57610100808354040283529160200191610fe8565b820191906000526020600020905b815481529060010190602001808311610fcb57829003601f168201915b50505050508152602001600382018054611001906131df565b80601f016020809104026020016040519081016040528092919081815260200182805461102d906131df565b801561107a5780601f1061104f5761010080835404028352916020019161107a565b820191906000526020600020905b81548152906001019060200180831161105d57829003601f168201915b50505050508152602001600482018054611093906131df565b80601f01602080910402602001604051908101604052809291908181526020018280546110bf906131df565b801561110c5780601f106110e15761010080835404028352916020019161110c565b820191906000526020600020905b8154815290600101906020018083116110ef57829003601f168201915b5050509183525050600582015460208201526006820154604082015260078201546001600160a01b038116606083015260ff600160a01b8204811615156080840152600160a81b90910416151560a082015260089091015460c0909101528483611175816131c6565b94508151811061118757611187613107565b60200260200101819052505b8061119d816131c6565b915050610e7b565b50505090565b60008781526008602052604090205460ff1615156001146112055760405162461bcd60e51b8152602060048201526014602482015273105c1c185c9d1b595b9d081b9bdd08199bdd5b9960621b604482015260640161051b565b6000878152600560205260409020600701546001600160a01b031633146112795760405162461bcd60e51b815260206004820152602260248201527f556e617574686f72697a656420706572736f6e6e656c2c206f776e6572206f6e6044820152616c7960f01b606482015260840161051b565b60008651116112c15760405162461bcd60e51b81526020600482015260146024820152734e616d652063616e6e6f7420626520656d70747960601b604482015260640161051b565b60008551116113125760405162461bcd60e51b815260206004820152601b60248201527f4465736372697074696f6e2063616e6e6f7420626520656d7074790000000000604482015260640161051b565b600084511161135e5760405162461bcd60e51b81526020600482015260186024820152774c6f636174696f6e2063616e6e6f7420626520656d70747960401b604482015260640161051b565b60008351116113a85760405162461bcd60e51b8152602060048201526016602482015275496d616765732063616e6e6f7420626520656d70747960501b604482015260640161051b565b600082116113ef5760405162461bcd60e51b8152602060048201526014602482015273526f6f6d732063616e6e6f74206265207a65726f60601b604482015260640161051b565b600081116114365760405162461bcd60e51b815260206004820152601460248201527350726963652063616e6e6f74206265207a65726f60601b604482015260640161051b565b6000600560008981526020019081526020016000206040518061016001604052908160008201548152602001600182018054611471906131df565b80601f016020809104026020016040519081016040528092919081815260200182805461149d906131df565b80156114ea5780601f106114bf576101008083540402835291602001916114ea565b820191906000526020600020905b8154815290600101906020018083116114cd57829003601f168201915b50505050508152602001600282018054611503906131df565b80601f016020809104026020016040519081016040528092919081815260200182805461152f906131df565b801561157c5780601f106115515761010080835404028352916020019161157c565b820191906000526020600020905b81548152906001019060200180831161155f57829003601f168201915b50505050508152602001600382018054611595906131df565b80601f01602080910402602001604051908101604052809291908181526020018280546115c1906131df565b801561160e5780601f106115e35761010080835404028352916020019161160e565b820191906000526020600020905b8154815290600101906020018083116115f157829003601f168201915b50505050508152602001600482018054611627906131df565b80601f0160208091040260200160405190810160405280929190818152602001828054611653906131df565b80156116a05780601f10611675576101008083540402835291602001916116a0565b820191906000526020600020905b81548152906001019060200180831161168357829003601f168201915b5050509183525050600582810154602080840191909152600684015460408085019190915260078501546001600160a01b03811660608087019190915260ff600160a01b830481161515608080890191909152600160a81b90930416151560a08088019190915260089097015460c0968701528784018f81528884018f90529088018d90529087018b905294860189905292850187905260008d8152919052208251815590519192508291600182019061175a9082613267565b506040820151600282019061176f9082613267565b50606082015160038201906117849082613267565b50608082015160048201906117999082613267565b5060a0820151600582015560c0820151600682015560e08201516007820180546101008501516101208601511515600160a81b0260ff60a81b19911515600160a01b026001600160a81b03199093166001600160a01b03909516949094179190911716919091179055610140909101516008909101555050505050505050565b611821612987565b60056000838152602001908152602001600020604051806101600160405290816000820154815260200160018201805461185a906131df565b80601f0160208091040260200160405190810160405280929190818152602001828054611886906131df565b80156118d35780601f106118a8576101008083540402835291602001916118d3565b820191906000526020600020905b8154815290600101906020018083116118b657829003601f168201915b505050505081526020016002820180546118ec906131df565b80601f0160208091040260200160405190810160405280929190818152602001828054611918906131df565b80156119655780601f1061193a57610100808354040283529160200191611965565b820191906000526020600020905b81548152906001019060200180831161194857829003601f168201915b5050505050815260200160038201805461197e906131df565b80601f01602080910402602001604051908101604052809291908181526020018280546119aa906131df565b80156119f75780601f106119cc576101008083540402835291602001916119f7565b820191906000526020600020905b8154815290600101906020018083116119da57829003601f168201915b50505050508152602001600482018054611a10906131df565b80601f0160208091040260200160405190810160405280929190818152602001828054611a3c906131df565b8015611a895780601f10611a5e57610100808354040283529160200191611a89565b820191906000526020600020905b815481529060010190602001808311611a6c57829003601f168201915b5050509183525050600582015460208201526006820154604082015260078201546001600160a01b038116606083015260ff600160a01b8204811615156080840152600160a81b90910416151560a082015260089091015460c09091015292915050565b6000865111611b355760405162461bcd60e51b81526020600482015260146024820152734e616d652063616e6e6f7420626520656d70747960601b604482015260640161051b565b6000855111611b865760405162461bcd60e51b815260206004820152601b60248201527f4465736372697074696f6e2063616e6e6f7420626520656d7074790000000000604482015260640161051b565b6000845111611bd25760405162461bcd60e51b81526020600482015260186024820152774c6f636174696f6e2063616e6e6f7420626520656d70747960401b604482015260640161051b565b6000835111611c1c5760405162461bcd60e51b8152602060048201526016602482015275496d616765732063616e6e6f7420626520656d70747960501b604482015260640161051b565b60008211611c635760405162461bcd60e51b8152602060048201526014602482015273526f6f6d732063616e6e6f74206265207a65726f60601b604482015260640161051b565b60008111611caa5760405162461bcd60e51b815260206004820152601460248201527350726963652063616e6e6f74206265207a65726f60601b604482015260640161051b565b611cb8600280546001019055565b611cc0612987565b60025481526020810187905260408101869052606081018590526080810184905260a0810183905260c081018290523360e0820152611cfd612777565b61014082015280516000908152600860205260408120805460ff191660011790558190600590611d2c60025490565b815260208082019290925260400160002082518155908201516001820190611d549082613267565b5060408201516002820190611d699082613267565b5060608201516003820190611d7e9082613267565b5060808201516004820190611d939082613267565b5060a0820151600582015560c0820151600682015560e08201516007820180546101008501516101208601511515600160a81b0260ff60a81b19911515600160a01b026001600160a81b03199093166001600160a01b039095169490941791909117169190911790556101409091015160089091015550505050505050565b600081815260096020908152604091829020805483518184028101840190945280845260609392830182828015611e6857602002820191906000526020600020905b815481526020019060010190808311611e54575b50505050509050919050565b60008181526008602052604090205460ff161515600114611ece5760405162461bcd60e51b8152602060048201526014602482015273105c1c185c9d1b595b9d081b9bdd08199bdd5b9960621b604482015260640161051b565b6000818152600560205260409020600701546001600160a01b03163314611f2d5760405162461bcd60e51b8152602060048201526013602482015272556e617574686f72697a656420656e7469747960681b604482015260640161051b565b6000908152600860209081526040808320805460ff1916905560059091529020600701805460ff60a81b1916600160a81b179055565b60008281526008602052604090205460ff16611fb85760405162461bcd60e51b815260206004820152601460248201527341706172746d656e74206e6f7420666f756e642160601b604482015260640161051b565b6003548151600084815260056020526040902060060154611fd9919061317a565b611fe39190613327565b3410156120275760405162461bcd60e51b8152602060048201526012602482015271496e73756666696369656e742066756e642160701b604482015260640161051b565b6120318282612840565b61207d5760405162461bcd60e51b815260206004820152601e60248201527f426f6f6b6564206461746520666f756e6420616d6f6e67206461746573210000604482015260640161051b565b60005b81518110156122295761209161293d565b602080820185905260008581526006909152604090819020548252339082015282518390839081106120c5576120c5613107565b60209081029190910181015160608301908152600086815260058084526040808320600690810154608088019081528a85528187528285208054600181810183559187528887208a51919094029093019283558888015183820155838901516002840180546001600160a01b039092166001600160a01b03199092169190911790559551600383015551600482015560a08701519201805460c088015115156101000261ff00199415159490941661ffff199091161792909217909155878252600a9093529182208551919290918690869081106121a5576121a5613107565b6020026020010151815260200190815260200160002060006101000a81548160ff021916908315150217905550600960008581526020019081526020016000208383815181106121f7576121f7613107565b602090810291909101810151825460018101845560009384529190922001555080612221816131c6565b915050612080565b505050565b6122366128e4565b600083815260066020526040902080548390811061225657612256613107565b600091825260209091206005600690920201015460ff161561228a5760405162461bcd60e51b815260040161051b9061311d565b6000546001600160a01b031633146123b85760008381526006602052604090208054839081106122bc576122bc613107565b60009182526020909120600690910201600201546001600160a01b0316331461231e5760405162461bcd60e51b8152602060048201526014602482015273556e617574686f72697a65642074656e616e742160601b604482015260640161051b565b612326612777565b600084815260066020526040902080548490811061234657612346613107565b906000526020600020906006020160030154116123b85760405162461bcd60e51b815260206004820152602a60248201527f43616e206e6f206c6f6e67657220726566756e642c20626f6f6b696e672064616044820152691d19481cdd185c9d195960b21b606482015260840161051b565b6000838152600660205260409020805460019190849081106123dc576123dc613107565b6000918252602080832060056006909302019190910180549315156101000261ff001990941693909317909255848152600a825260408082208483528352808220805460ff1916905585825260099092529081205461243d906001906131b3565b6000858152600960205260408120805492935090918390811061246257612462613107565b906000526020600020015490508060096000878152602001908152602001600020858154811061249457612494613107565b9060005260206000200181905550600960008681526020019081526020016000208054806124c4576124c461333a565b60019003818190600052602060002001600090559055600060066000878152602001908152602001600020858154811061250057612500613107565b906000526020600020906006020160040154905060006064600454600354612528919061317a565b6125329190613191565b600088815260056020526040902060070154600354919250612565916001600160a01b03909116906105f49084906131b3565b61257a61060e6000546001600160a01b031690565b6125843383612717565b5050505061222960018055565b612599612796565b600455565b6125a6612796565b6001600160a01b03811661260b5760405162461bcd60e51b815260206004820152602660248201527f4f776e61626c653a206e6577206f776e657220697320746865207a65726f206160448201526564647265737360d01b606482015260840161051b565b612614816127f0565b50565b606060066000838152602001908152602001600020805480602002602001604051908101604052809291908181526020016000905b82821015610dc55760008481526020908190206040805160e08101825260068602909201805483526001808201548486015260028201546001600160a01b03169284019290925260038101546060840152600481015460808401526005015460ff808216151560a085015261010090910416151560c0830152908352909201910161264c565b60006126dc612777565b60008481526006602052604090208054849081106126fc576126fc613107565b90600052602060002090600602016003015410905092915050565b6000826001600160a01b03168260405160006040518083038185875af1925050503d8060008114612764576040519150601f19603f3d011682016040523d82523d6000602084013e612769565b606091505b505090508061222957600080fd5b6000612785426103e861317a565b612791906103e8613327565b905090565b6000546001600160a01b03163314610ae05760405162461bcd60e51b815260206004820181905260248201527f4f776e61626c653a2063616c6c6572206973206e6f7420746865206f776e6572604482015260640161051b565b600080546001600160a01b038381166001600160a01b0319831681178455604051919092169283917f8be0079c531659141344cd1fd0a4f28419497f9722a3daafe3b4186f6b6457e09190a35050565b60006001815b83518110156128dc5760005b6000868152600960205260409020548110156128c957600086815260096020526040902080548290811061288857612888613107565b90600052602060002001548583815181106128a5576128a5613107565b6020026020010151036128b757600092505b806128c1816131c6565b915050612852565b50806128d4816131c6565b915050612846565b509392505050565b6002600154036129365760405162461bcd60e51b815260206004820152601f60248201527f5265656e7472616e637947756172643a207265656e7472616e742063616c6c00604482015260640161051b565b6002600155565b6040518060e00160405280600081526020016000815260200160006001600160a01b0316815260200160008152602001600081526020016000151581526020016000151581525090565b6040518061016001604052806000815260200160608152602001606081526020016060815260200160608152602001600081526020016000815260200160006001600160a01b03168152602001600015158152602001600015158152602001600081525090565b60008060408385031215612a0157600080fd5b50508035926020909101359150565b600060208284031215612a2257600080fd5b5035919050565b6020808252825182820181905260009190848201906040850190845b81811015612a6a5783516001600160a01b031683529284019291840191600101612a45565b50909695505050505050565b80518252602080820151908301526040808201516001600160a01b031690830152606080820151908301526080808201519083015260a08082015115159083015260c0908101511515910152565b60e0810161086d8284612a76565b634e487b7160e01b600052604160045260246000fd5b604051601f8201601f1916810167ffffffffffffffff81118282101715612b1157612b11612ad2565b604052919050565b600082601f830112612b2a57600080fd5b813567ffffffffffffffff811115612b4457612b44612ad2565b612b57601f8201601f1916602001612ae8565b818152846020838601011115612b6c57600080fd5b816020850160208301376000918101602001919091529392505050565b60008060408385031215612b9c57600080fd5b82359150602083013567ffffffffffffffff811115612bba57600080fd5b612bc685828601612b19565b9150509250929050565b6000815180845260005b81811015612bf657602081850181015186830182015201612bda565b506000602082860101526020601f19601f83011685010191505092915050565b60006020808301818452808551808352604092508286019150828160051b87010184880160005b83811015612ca657603f19898403018552815160a0815185528882015189860152878201518189870152612c7382870182612bd0565b606084810151908801526080938401516001600160a01b0316939096019290925250509386019390860190600101612c3d565b509098975050505050505050565b6000610160825184526020830151816020860152612cd482860182612bd0565b91505060408301518482036040860152612cee8282612bd0565b91505060608301518482036060860152612d088282612bd0565b91505060808301518482036080860152612d228282612bd0565b91505060a083015160a085015260c083015160c085015260e0830151612d5360e08601826001600160a01b03169052565b5061010083810151151590850152610120808401511515908501526101409283015192909301919091525090565b6000602080830181845280855180835260408601915060408160051b870101925083870160005b82811015612dd657603f19888603018452612dc4858351612cb4565b94509285019290850190600101612da8565b5092979650505050505050565b600080600080600080600060e0888a031215612dfe57600080fd5b87359650602088013567ffffffffffffffff80821115612e1d57600080fd5b612e298b838c01612b19565b975060408a0135915080821115612e3f57600080fd5b612e4b8b838c01612b19565b965060608a0135915080821115612e6157600080fd5b612e6d8b838c01612b19565b955060808a0135915080821115612e8357600080fd5b50612e908a828b01612b19565b93505060a0880135915060c0880135905092959891949750929550565b602081526000612ec06020830184612cb4565b9392505050565b60008060008060008060c08789031215612ee057600080fd5b863567ffffffffffffffff80821115612ef857600080fd5b612f048a838b01612b19565b97506020890135915080821115612f1a57600080fd5b612f268a838b01612b19565b96506040890135915080821115612f3c57600080fd5b612f488a838b01612b19565b95506060890135915080821115612f5e57600080fd5b50612f6b89828a01612b19565b9350506080870135915060a087013590509295509295509295565b6020808252825182820181905260009190848201906040850190845b81811015612a6a57835183529284019291840191600101612fa2565b60008060408385031215612fd157600080fd5b8235915060208084013567ffffffffffffffff80821115612ff157600080fd5b818601915086601f83011261300557600080fd5b81358181111561301757613017612ad2565b8060051b9150613028848301612ae8565b818152918301840191848101908984111561304257600080fd5b938501935b8385101561306057843582529385019390850190613047565b8096505050505050509250929050565b60008060006060848603121561308557600080fd5b505081359360208301359350604090920135919050565b6000602082840312156130ae57600080fd5b81356001600160a01b0381168114612ec057600080fd5b6020808252825182820181905260009190848201906040850190845b81811015612a6a576130f4838551612a76565b9284019260e092909201916001016130e1565b634e487b7160e01b600052603260045260246000fd5b60208082526027908201527f41706172746d656e7420616c726561647920636865636b6564206f6e207468696040820152667320646174652160c81b606082015260800190565b634e487b7160e01b600052601160045260246000fd5b808202811582820484141761086d5761086d613164565b6000826131ae57634e487b7160e01b600052601260045260246000fd5b500490565b8181038181111561086d5761086d613164565b6000600182016131d8576131d8613164565b5060010190565b600181811c908216806131f357607f821691505b60208210810361321357634e487b7160e01b600052602260045260246000fd5b50919050565b601f82111561222957600081815260208120601f850160051c810160208610156132405750805b601f850160051c820191505b8181101561325f5782815560010161324c565b505050505050565b815167ffffffffffffffff81111561328157613281612ad2565b6132958161328f84546131df565b84613219565b602080601f8311600181146132ca57600084156132b25750858301515b600019600386901b1c1916600185901b17855561325f565b600085815260208120601f198616915b828110156132f9578886015182559484019460019091019084016132da565b50858210156133175787850151600019600388901b60f8161c191681555b5050505050600190811b01905550565b8082018082111561086d5761086d613164565b634e487b7160e01b600052603160045260246000fdfea2646970667358221220f32ea05712f176a5c9706f7dff8c1b3b3e620561649c4301ea73181ecc5e8e8464736f6c63430008130033",
  "linkReferences": {},
  "deployedLinkReferences": {}
}