{
  "_format": "hh-sol-artifact-1",
  "contractName": "DappBnb",
  "sourceName": "contracts/DappBnb.sol",
  "abi": [
    {
      "inputs": [
        {
          "internalType": "uint256",
          "name": "_taxPercent",
          "type": "uint256"
        },
        {
          "internalType": "uint256",
          "name": "_securityFee",
          "type": "uint256"
        }
      ],
      "stateMutability": "nonpayable",
      "type": "constructor"
    },
    {
      "anonymous": false,
      "inputs": [
        {
          "indexed": true,
          "internalType": "address",
          "name": "previousOwner",
          "type": "address"
        },
        {
          "indexed": true,
          "internalType": "address",
          "name": "newOwner",
          "type": "address"
        }
      ],
      "name": "OwnershipTransferred",
      "type": "event"
    },
    {
      "inputs": [
        {
          "internalType": "uint256",
          "name": "aid",
          "type": "uint256"
        },
        {
          "internalType": "string",
          "name": "reviewText",
          "type": "string"
        }
      ],
      "name": "addReview",
      "outputs": [],
      "stateMutability": "nonpayable",
      "type": "function"
    },
    {
      "inputs": [
        {
          "internalType": "uint256",
          "name": "aid",
          "type": "uint256"
        },
        {
          "internalType": "uint256[]",
          "name": "dates",
          "type": "uint256[]"
        }
      ],
      "name": "bookApartment",
      "outputs": [],
      "stateMutability": "payable",
      "type": "function"
    },
    {
      "inputs": [
        {
          "internalType": "uint256",
          "name": "aid",
          "type": "uint256"
        },
        {
          "internalType": "uint256",
          "name": "bookingId",
          "type": "uint256"
        }
      ],
      "name": "checkInApartment",
      "outputs": [],
      "stateMutability": "nonpayable",
      "type": "function"
    },
    {
      "inputs": [
        {
          "internalType": "uint256",
          "name": "aid",
          "type": "uint256"
        },
        {
          "internalType": "uint256",
          "name": "bookingId",
          "type": "uint256"
        }
      ],
      "name": "claimFunds",
      "outputs": [],
      "stateMutability": "nonpayable",
      "type": "function"
    },
    {
      "inputs": [
        {
          "internalType": "string",
          "name": "name",
          "type": "string"
        },
        {
          "internalType": "string",
          "name": "description",
          "type": "string"
        },
        {
          "internalType": "string",
          "name": "location",
          "type": "string"
        },
        {
          "internalType": "string",
          "name": "images",
          "type": "string"
        },
        {
          "internalType": "uint256",
          "name": "rooms",
          "type": "uint256"
        },
        {
          "internalType": "uint256",
          "name": "price",
          "type": "uint256"
        }
      ],
      "name": "createAppartment",
      "outputs": [],
      "stateMutability": "nonpayable",
      "type": "function"
    },
    {
      "inputs": [
        {
          "internalType": "uint256",
          "name": "id",
          "type": "uint256"
        }
      ],
      "name": "deleteAppartment",
      "outputs": [],
      "stateMutability": "nonpayable",
      "type": "function"
    },
    {
      "inputs": [
        {
          "internalType": "uint256",
          "name": "id",
          "type": "uint256"
        }
      ],
      "name": "getApartment",
      "outputs": [
        {
          "components": [
            {
              "internalType": "uint256",
              "name": "id",
              "type": "uint256"
            },
            {
              "internalType": "string",
              "name": "name",
              "type": "string"
            },
            {
              "internalType": "string",
              "name": "description",
              "type": "string"
            },
            {
              "internalType": "string",
              "name": "location",
              "type": "string"
            },
            {
              "internalType": "string",
              "name": "images",
              "type": "string"
            },
            {
              "internalType": "uint256",
              "name": "rooms",
              "type": "uint256"
            },
            {
              "internalType": "uint256",
              "name": "price",
              "type": "uint256"
            },
            {
              "internalType": "address",
              "name": "owner",
              "type": "address"
            },
            {
              "internalType": "bool",
              "name": "booked",
              "type": "bool"
            },
            {
              "internalType": "bool",
              "name": "deleted",
              "type": "bool"
            },
            {
              "internalType": "uint256",
              "name": "timestamp",
              "type": "uint256"
            }
          ],
          "internalType": "struct DappBnb.ApartmentStruct",
          "name": "",
          "type": "tuple"
        }
      ],
      "stateMutability": "view",
      "type": "function"
    },
    {
      "inputs": [],
      "name": "getApartments",
      "outputs": [
        {
          "components": [
            {
              "internalType": "uint256",
              "name": "id",
              "type": "uint256"
            },
            {
              "internalType": "string",
              "name": "name",
              "type": "string"
            },
            {
              "internalType": "string",
              "name": "description",
              "type": "string"
            },
            {
              "internalType": "string",
              "name": "location",
              "type": "string"
            },
            {
              "internalType": "string",
              "name": "images",
              "type": "string"
            },
            {
              "internalType": "uint256",
              "name": "rooms",
              "type": "uint256"
            },
            {
              "internalType": "uint256",
              "name": "price",
              "type": "uint256"
            },
            {
              "internalType": "address",
              "name": "owner",
              "type": "address"
            },
            {
              "internalType": "bool",
              "name": "booked",
              "type": "bool"
            },
            {
              "internalType": "bool",
              "name": "deleted",
              "type": "bool"
            },
            {
              "internalType": "uint256",
              "name": "timestamp",
              "type": "uint256"
            }
          ],
          "internalType": "struct DappBnb.ApartmentStruct[]",
          "name": "Apartments",
          "type": "tuple[]"
        }
      ],
      "stateMutability": "view",
      "type": "function"
    },
    {
      "inputs": [
        {
          "internalType": "uint256",
          "name": "aid",
          "type": "uint256"
        },
        {
          "internalType": "uint256",
          "name": "bookingId",
          "type": "uint256"
        }
      ],
      "name": "getBooking",
      "outputs": [
        {
          "components": [
            {
              "internalType": "uint256",
              "name": "id",
              "type": "uint256"
            },
            {
              "internalType": "uint256",
              "name": "aid",
              "type": "uint256"
            },
            {
              "internalType": "address",
              "name": "tenant",
              "type": "address"
            },
            {
              "internalType": "uint256",
              "name": "date",
              "type": "uint256"
            },
            {
              "internalType": "uint256",
              "name": "price",
              "type": "uint256"
            },
            {
              "internalType": "bool",
              "name": "checked",
              "type": "bool"
            },
            {
              "internalType": "bool",
              "name": "cancelled",
              "type": "bool"
            }
          ],
          "internalType": "struct DappBnb.BookingStruct",
          "name": "",
          "type": "tuple"
        }
      ],
      "stateMutability": "view",
      "type": "function"
    },
    {
      "inputs": [
        {
          "internalType": "uint256",
          "name": "aid",
          "type": "uint256"
        }
      ],
      "name": "getBookings",
      "outputs": [
        {
          "components": [
            {
              "internalType": "uint256",
              "name": "id",
              "type": "uint256"
            },
            {
              "internalType": "uint256",
              "name": "aid",
              "type": "uint256"
            },
            {
              "internalType": "address",
              "name": "tenant",
              "type": "address"
            },
            {
              "internalType": "uint256",
              "name": "date",
              "type": "uint256"
            },
            {
              "internalType": "uint256",
              "name": "price",
              "type": "uint256"
            },
            {
              "internalType": "bool",
              "name": "checked",
              "type": "bool"
            },
            {
              "internalType": "bool",
              "name": "cancelled",
              "type": "bool"
            }
          ],
          "internalType": "struct DappBnb.BookingStruct[]",
          "name": "",
          "type": "tuple[]"
        }
      ],
      "stateMutability": "view",
      "type": "function"
    },
    {
      "inputs": [
        {
          "internalType": "uint256",
          "name": "aid",
          "type": "uint256"
        }
      ],
      "name": "getQualifiedReviewers",
      "outputs": [
        {
          "internalType": "address[]",
          "name": "Tenants",
          "type": "address[]"
        }
      ],
      "stateMutability": "view",
      "type": "function"
    },
    {
      "inputs": [
        {
          "internalType": "uint256",
          "name": "aid",
          "type": "uint256"
        }
      ],
      "name": "getReviews",
      "outputs": [
        {
          "components": [
            {
              "internalType": "uint256",
              "name": "id",
              "type": "uint256"
            },
            {
              "internalType": "uint256",
              "name": "aid",
              "type": "uint256"
            },
            {
              "internalType": "string",
              "name": "reviewText",
              "type": "string"
            },
            {
              "internalType": "uint256",
              "name": "timestamp",
              "type": "uint256"
            },
            {
              "internalType": "address",
              "name": "owner",
              "type": "address"
            }
          ],
          "internalType": "struct DappBnb.ReviewStruct[]",
          "name": "",
          "type": "tuple[]"
        }
      ],
      "stateMutability": "view",
      "type": "function"
    },
    {
      "inputs": [
        {
          "internalType": "uint256",
          "name": "aid",
          "type": "uint256"
        }
      ],
      "name": "getUnavailableDates",
      "outputs": [
        {
          "internalType": "uint256[]",
          "name": "",
          "type": "uint256[]"
        }
      ],
      "stateMutability": "view",
      "type": "function"
    },
    {
      "inputs": [],
      "name": "owner",
      "outputs": [
        {
          "internalType": "address",
          "name": "",
          "type": "address"
        }
      ],
      "stateMutability": "view",
      "type": "function"
    },
    {
      "inputs": [
        {
          "internalType": "uint256",
          "name": "aid",
          "type": "uint256"
        },
        {
          "internalType": "uint256",
          "name": "bookingId",
          "type": "uint256"
        }
      ],
      "name": "refundBooking",
      "outputs": [],
      "stateMutability": "nonpayable",
      "type": "function"
    },
    {
      "inputs": [],
      "name": "renounceOwnership",
      "outputs": [],
      "stateMutability": "nonpayable",
      "type": "function"
    },
    {
      "inputs": [],
      "name": "securityFee",
      "outputs": [
        {
          "internalType": "uint256",
          "name": "",
          "type": "uint256"
        }
      ],
      "stateMutability": "view",
      "type": "function"
    },
    {
      "inputs": [],
      "name": "taxPercent",
      "outputs": [
        {
          "internalType": "uint256",
          "name": "",
          "type": "uint256"
        }
      ],
      "stateMutability": "view",
      "type": "function"
    },
    {
      "inputs": [
        {
          "internalType": "uint256",
          "name": "appartmentId",
          "type": "uint256"
        }
      ],
      "name": "tenantBooked",
      "outputs": [
        {
          "internalType": "bool",
          "name": "",
          "type": "bool"
        }
      ],
      "stateMutability": "view",
      "type": "function"
    },
    {
      "inputs": [
        {
          "internalType": "address",
          "name": "newOwner",
          "type": "address"
        }
      ],
      "name": "transferOwnership",
      "outputs": [],
      "stateMutability": "nonpayable",
      "type": "function"
    },
    {
      "inputs": [
        {
          "internalType": "uint256",
          "name": "id",
          "type": "uint256"
        },
        {
          "internalType": "string",
          "name": "name",
          "type": "string"
        },
        {
          "internalType": "string",
          "name": "description",
          "type": "string"
        },
        {
          "internalType": "string",
          "name": "location",
          "type": "string"
        },
        {
          "internalType": "string",
          "name": "images",
          "type": "string"
        },
        {
          "internalType": "uint256",
          "name": "rooms",
          "type": "uint256"
        },
        {
          "internalType": "uint256",
          "name": "price",
          "type": "uint256"
        }
      ],
      "name": "updateAppartment",
      "outputs": [],
      "stateMutability": "nonpayable",
      "type": "function"
    }
  ],
  "bytecode": "0x60806040523480156200001157600080fd5b50604051620033e7380380620033e78339810160408190526200003491620000a2565b6200003f3362000052565b60018055600491909155600355620000c7565b600080546001600160a01b038381166001600160a01b0319831681178455604051919092169283917f8be0079c531659141344cd1fd0a4f28419497f9722a3daafe3b4186f6b6457e09190a35050565b60008060408385031215620000b657600080fd5b505080516020909101519092909150565b61331080620000d76000396000f3fe60806040526004361061012a5760003560e01c80639f31a2be116100ab578063d68e13021161006f578063d68e13021461037c578063db2f80b714610392578063dec30d39146103bf578063df6e0222146103df578063f2fde38b146103f2578063f40109951461041257600080fd5b80639f31a2be146102a2578063b1c98099146102ed578063bdfdee761461030f578063c4452e061461032f578063d57a7b541461035c57600080fd5b8063715018a6116100f2578063715018a6146101f45780637541f41c1461020957806378419f611461022d5780638da5cb5b1461024d5780639d4a22551461027557600080fd5b8063010b58ee1461012f5780630bb9ce3314610151578063455b3070146101875780635bb0c5d6146101b457806367626e5d146101d4575b600080fd5b34801561013b57600080fd5b5061014f61014a3660046129a4565b61043f565b005b34801561015d57600080fd5b5061017161016c3660046129c6565b6105a5565b60405161017e91906129df565b60405180910390f35b34801561019357600080fd5b506101a76101a23660046129a4565b61074e565b60405161017e9190612a7a565b3480156101c057600080fd5b5061014f6101cf366004612b3f565b6107f2565b3480156101e057600080fd5b5061014f6101ef3660046129a4565b6109fd565b34801561020057600080fd5b5061014f610db2565b34801561021557600080fd5b5061021f60045481565b60405190815260200161017e565b34801561023957600080fd5b5061014f6102483660046129a4565b610dc6565b34801561025957600080fd5b506000546040516001600160a01b03909116815260200161017e565b34801561028157600080fd5b506102956102903660046129c6565b610fcb565b60405161017e9190612bcc565b3480156102ae57600080fd5b506102dd6102bd3660046129c6565b336000908152600b60209081526040808320938352929052205460ff1690565b604051901515815260200161017e565b3480156102f957600080fd5b50610302611106565b60405161017e9190612d37565b34801561031b57600080fd5b5061014f61032a366004612d99565b6114e1565b34801561033b57600080fd5b5061034f61034a3660046129c6565b611b4f565b60405161017e9190612e63565b34801561036857600080fd5b5061014f610377366004612e7d565b611e23565b34801561038857600080fd5b5061021f60035481565b34801561039e57600080fd5b506103b26103ad3660046129c6565b612148565b60405161017e9190612f3c565b3480156103cb57600080fd5b5061014f6103da3660046129c6565b6121aa565b61014f6103ed366004612f74565b612299565b3480156103fe57600080fd5b5061014f61040d366004613026565b612599565b34801561041e57600080fd5b5061043261042d3660046129c6565b612612565b60405161017e919061304f565b6000828152600560205260409020600701546001600160a01b031633146104a35760405162461bcd60e51b8152602060048201526013602482015272556e617574686f72697a656420656e7469747960681b60448201526064015b60405180910390fd5b60008281526006602052604090208054829081106104c3576104c3613091565b600091825260209091206005600690920201015460ff16156104f75760405162461bcd60e51b815260040161049a906130a7565b600082815260066020526040812080548390811061051757610517613091565b9060005260206000209060060201600401549050600060646004548361053d9190613104565b610547919061311b565b600085815260056020526040902060070154909150610578906001600160a01b0316610573838561313d565b6126cd565b61059361058d6000546001600160a01b031690565b826126cd565b61059f336003546126cd565b50505050565b60606000805b60008481526006602052604090205481101561061d5760008481526006602052604090208054829081106105e1576105e1613091565b600091825260209091206005600690920201015460ff161561060b578161060781613150565b9250505b8061061581613150565b9150506105ab565b508067ffffffffffffffff81111561063757610637612a88565b604051908082528060200260200182016040528015610660578160200160208202803683370190505b5091506000805b60008581526006602052604090205481101561074657600085815260066020526040902080548290811061069d5761069d613091565b600091825260209091206005600690920201015460ff16156107345760008581526006602052604090208054829081106106d9576106d9613091565b60009182526020909120600260069092020101546001600160a01b0316848361070181613150565b94508151811061071357610713613091565b60200260200101906001600160a01b031690816001600160a01b0316815250505b8061073e81613150565b915050610667565b505050919050565b6107566128f3565b600083815260066020526040902080548390811061077657610776613091565b60009182526020918290206040805160e08101825260069093029091018054835260018101549383019390935260028301546001600160a01b031690820152600382015460608201526004820154608082015260059091015460ff808216151560a084015261010090910416151560c082015290505b92915050565b60008281526008602052604090205460ff166108505760405162461bcd60e51b815260206004820152601860248201527f4170706172746d656e74206e6f7420617661696c61626c650000000000000000604482015260640161049a565b336000908152600b6020908152604080832085845290915290205460ff166108ba5760405162461bcd60e51b815260206004820152601860248201527f426f6f6b206669727374206265666f7265207265766965770000000000000000604482015260640161049a565b600081511161090b5760405162461bcd60e51b815260206004820152601b60248201527f52657669657720746578742063616e6e6f7420626520656d7074790000000000604482015260640161049a565b6109466040518060a001604052806000815260200160008152602001606081526020016000815260200160006001600160a01b031681525090565b602080820184905260008481526007909152604090819020548252810182905261096e61272d565b60608201523360808201526000838152600760209081526040808320805460018181018355918552938390208551600590950201938455918401519183019190915582015182919060028201906109c590826131f1565b5060608201516003820155608090910151600490910180546001600160a01b0319166001600160a01b03909216919091179055505050565b610a0561274c565b6000828152600660205260408120805483908110610a2557610a25613091565b60009182526020918290206040805160e08101825260069093029091018054835260018101549383019390935260028301546001600160a01b031690820152600382015460608201526004820154608082015260059091015460ff80821615801560a085015261010090920416151560c0830152909150610ab85760405162461bcd60e51b815260040161049a906130a7565b6000838152600a602090815260408083206060850151845290915290205460ff16610b255760405162461bcd60e51b815260206004820152601a60248201527f446964206e6f7420626f6f6b206f6e2074686973206461746521000000000000604482015260640161049a565b6000546001600160a01b03163314610c005780604001516001600160a01b0316336001600160a01b031614610b935760405162461bcd60e51b8152602060048201526014602482015273556e617574686f72697a65642074656e616e742160601b604482015260640161049a565b610b9b61272d565b816060015111610c005760405162461bcd60e51b815260206004820152602a60248201527f43616e206e6f206c6f6e67657220726566756e642c20626f6f6b696e672064616044820152691d19481cdd185c9d195960b21b606482015260840161049a565b600083815260066020526040902080546001919084908110610c2457610c24613091565b6000918252602080832060056006909302019190910180549315156101000261ff001990941693909317909255848152600a82526040808220606085015183528352808220805460ff19169055858252600990925290812054610c899060019061313d565b60008581526009602052604081208054929350909183908110610cae57610cae613091565b9060005260206000200154905080600960008781526020019081526020016000208581548110610ce057610ce0613091565b906000526020600020018190555060096000868152602001908152602001600020805480610d1057610d106132b1565b60019003818190600052602060002001600090559055600060646003548560800151610d3c9190613104565b610d46919061311b565b90506000610d5560028361311b565b600088815260056020526040902060070154909150610d7d906001600160a01b0316826126cd565b610d9261058d6000546001600160a01b031690565b610da03386608001516126cd565b5050505050610dae60018055565b5050565b610dba6127a5565b610dc460006127ff565b565b6000828152600660205260408120805483908110610de657610de6613091565b60009182526020918290206040805160e08101825260069093029091018054835260018101549383019390935260028301546001600160a01b0316908201819052600383015460608301526004830154608083015260059092015460ff808216151560a084015261010090910416151560c082015291503314610ea25760405162461bcd60e51b8152602060048201526014602482015273556e617574686f72697a65642074656e616e742160601b604482015260640161049a565b8060a0015115610ec45760405162461bcd60e51b815260040161049a906130a7565b600083815260066020526040902080546001919084908110610ee857610ee8613091565b60009182526020822060069190910201600501805460ff1916921515929092179091556004546080830151606491610f1f91613104565b610f29919061311b565b9050600060646003548460800151610f419190613104565b610f4b919061311b565b336000908152600b602090815260408083208984528252808320805460ff1916600117905560059091529020600701546080850151919250610f9f916001600160a01b03919091169061057390859061313d565b610fba610fb46000546001600160a01b031690565b836126cd565b610fc433826126cd565b5050505050565b606060076000838152602001908152602001600020805480602002602001604051908101604052809291908181526020016000905b828210156110fb57838290600052602060002090600502016040518060a0016040529081600082015481526020016001820154815260200160028201805461104790613169565b80601f016020809104026020016040519081016040528092919081815260200182805461107390613169565b80156110c05780601f10611095576101008083540402835291602001916110c0565b820191906000526020600020905b8154815290600101906020018083116110a357829003601f168201915b505050918352505060038201546020808301919091526004909201546001600160a01b03166040909101529082526001929092019101611000565b505050509050919050565b6060600060015b600254811161115657600081815260056020526040902060070154600160a81b900460ff16611144578161114081613150565b9250505b8061114e81613150565b91505061110d565b508067ffffffffffffffff81111561117057611170612a88565b6040519080825280602002602001820160405280156111a957816020015b61119661293d565b81526020019060019003908161118e5790505b509150600060015b60025481116114db57600081815260056020526040902060070154600160a81b900460ff166114c95760056000828152602001908152602001600020604051806101600160405290816000820154815260200160018201805461121390613169565b80601f016020809104026020016040519081016040528092919081815260200182805461123f90613169565b801561128c5780601f106112615761010080835404028352916020019161128c565b820191906000526020600020905b81548152906001019060200180831161126f57829003601f168201915b505050505081526020016002820180546112a590613169565b80601f01602080910402602001604051908101604052809291908181526020018280546112d190613169565b801561131e5780601f106112f35761010080835404028352916020019161131e565b820191906000526020600020905b81548152906001019060200180831161130157829003601f168201915b5050505050815260200160038201805461133790613169565b80601f016020809104026020016040519081016040528092919081815260200182805461136390613169565b80156113b05780601f10611385576101008083540402835291602001916113b0565b820191906000526020600020905b81548152906001019060200180831161139357829003601f168201915b505050505081526020016004820180546113c990613169565b80601f01602080910402602001604051908101604052809291908181526020018280546113f590613169565b80156114425780601f1061141757610100808354040283529160200191611442565b820191906000526020600020905b81548152906001019060200180831161142557829003601f168201915b5050509183525050600582015460208201526006820154604082015260078201546001600160a01b038116606083015260ff600160a01b8204811615156080840152600160a81b90910416151560a082015260089091015460c09091015284836114ab81613150565b9450815181106114bd576114bd613091565b60200260200101819052505b806114d381613150565b9150506111b1565b50505090565b60008781526008602052604090205460ff16151560011461153b5760405162461bcd60e51b8152602060048201526014602482015273105c1c185c9d1b595b9d081b9bdd08199bdd5b9960621b604482015260640161049a565b6000878152600560205260409020600701546001600160a01b031633146115af5760405162461bcd60e51b815260206004820152602260248201527f556e617574686f72697a656420706572736f6e6e656c2c206f776e6572206f6e6044820152616c7960f01b606482015260840161049a565b60008651116115f75760405162461bcd60e51b81526020600482015260146024820152734e616d652063616e6e6f7420626520656d70747960601b604482015260640161049a565b60008551116116485760405162461bcd60e51b815260206004820152601b60248201527f4465736372697074696f6e2063616e6e6f7420626520656d7074790000000000604482015260640161049a565b60008451116116945760405162461bcd60e51b81526020600482015260186024820152774c6f636174696f6e2063616e6e6f7420626520656d70747960401b604482015260640161049a565b60008351116116de5760405162461bcd60e51b8152602060048201526016602482015275496d616765732063616e6e6f7420626520656d70747960501b604482015260640161049a565b600082116117255760405162461bcd60e51b8152602060048201526014602482015273526f6f6d732063616e6e6f74206265207a65726f60601b604482015260640161049a565b6000811161176c5760405162461bcd60e51b815260206004820152601460248201527350726963652063616e6e6f74206265207a65726f60601b604482015260640161049a565b60006005600089815260200190815260200160002060405180610160016040529081600082015481526020016001820180546117a790613169565b80601f01602080910402602001604051908101604052809291908181526020018280546117d390613169565b80156118205780601f106117f557610100808354040283529160200191611820565b820191906000526020600020905b81548152906001019060200180831161180357829003601f168201915b5050505050815260200160028201805461183990613169565b80601f016020809104026020016040519081016040528092919081815260200182805461186590613169565b80156118b25780601f10611887576101008083540402835291602001916118b2565b820191906000526020600020905b81548152906001019060200180831161189557829003601f168201915b505050505081526020016003820180546118cb90613169565b80601f01602080910402602001604051908101604052809291908181526020018280546118f790613169565b80156119445780601f1061191957610100808354040283529160200191611944565b820191906000526020600020905b81548152906001019060200180831161192757829003601f168201915b5050505050815260200160048201805461195d90613169565b80601f016020809104026020016040519081016040528092919081815260200182805461198990613169565b80156119d65780601f106119ab576101008083540402835291602001916119d6565b820191906000526020600020905b8154815290600101906020018083116119b957829003601f168201915b5050509183525050600582810154602080840191909152600684015460408085019190915260078501546001600160a01b03811660608087019190915260ff600160a01b830481161515608080890191909152600160a81b90930416151560a08088019190915260089097015460c0968701528784018f81528884018f90529088018d90529087018b905294860189905292850187905260008d81529190522082518155905191925082916001820190611a9090826131f1565b5060408201516002820190611aa590826131f1565b5060608201516003820190611aba90826131f1565b5060808201516004820190611acf90826131f1565b5060a0820151600582015560c0820151600682015560e08201516007820180546101008501516101208601511515600160a81b0260ff60a81b19911515600160a01b026001600160a81b03199093166001600160a01b03909516949094179190911716919091179055610140909101516008909101555050505050505050565b611b5761293d565b600560008381526020019081526020016000206040518061016001604052908160008201548152602001600182018054611b9090613169565b80601f0160208091040260200160405190810160405280929190818152602001828054611bbc90613169565b8015611c095780601f10611bde57610100808354040283529160200191611c09565b820191906000526020600020905b815481529060010190602001808311611bec57829003601f168201915b50505050508152602001600282018054611c2290613169565b80601f0160208091040260200160405190810160405280929190818152602001828054611c4e90613169565b8015611c9b5780601f10611c7057610100808354040283529160200191611c9b565b820191906000526020600020905b815481529060010190602001808311611c7e57829003601f168201915b50505050508152602001600382018054611cb490613169565b80601f0160208091040260200160405190810160405280929190818152602001828054611ce090613169565b8015611d2d5780601f10611d0257610100808354040283529160200191611d2d565b820191906000526020600020905b815481529060010190602001808311611d1057829003601f168201915b50505050508152602001600482018054611d4690613169565b80601f0160208091040260200160405190810160405280929190818152602001828054611d7290613169565b8015611dbf5780601f10611d9457610100808354040283529160200191611dbf565b820191906000526020600020905b815481529060010190602001808311611da257829003601f168201915b5050509183525050600582015460208201526006820154604082015260078201546001600160a01b038116606083015260ff600160a01b8204811615156080840152600160a81b90910416151560a082015260089091015460c09091015292915050565b6000865111611e6b5760405162461bcd60e51b81526020600482015260146024820152734e616d652063616e6e6f7420626520656d70747960601b604482015260640161049a565b6000855111611ebc5760405162461bcd60e51b815260206004820152601b60248201527f4465736372697074696f6e2063616e6e6f7420626520656d7074790000000000604482015260640161049a565b6000845111611f085760405162461bcd60e51b81526020600482015260186024820152774c6f636174696f6e2063616e6e6f7420626520656d70747960401b604482015260640161049a565b6000835111611f525760405162461bcd60e51b8152602060048201526016602482015275496d616765732063616e6e6f7420626520656d70747960501b604482015260640161049a565b60008211611f995760405162461bcd60e51b8152602060048201526014602482015273526f6f6d732063616e6e6f74206265207a65726f60601b604482015260640161049a565b60008111611fe05760405162461bcd60e51b815260206004820152601460248201527350726963652063616e6e6f74206265207a65726f60601b604482015260640161049a565b611fee600280546001019055565b611ff661293d565b60025481526020810187905260408101869052606081018590526080810184905260a0810183905260c081018290523360e082015261203361272d565b61014082015280516000908152600860205260408120805460ff19166001179055819060059061206260025490565b81526020808201929092526040016000208251815590820151600182019061208a90826131f1565b506040820151600282019061209f90826131f1565b50606082015160038201906120b490826131f1565b50608082015160048201906120c990826131f1565b5060a0820151600582015560c0820151600682015560e08201516007820180546101008501516101208601511515600160a81b0260ff60a81b19911515600160a01b026001600160a81b03199093166001600160a01b039095169490941791909117169190911790556101409091015160089091015550505050505050565b60008181526009602090815260409182902080548351818402810184019094528084526060939283018282801561219e57602002820191906000526020600020905b81548152602001906001019080831161218a575b50505050509050919050565b60008181526008602052604090205460ff1615156001146122045760405162461bcd60e51b8152602060048201526014602482015273105c1c185c9d1b595b9d081b9bdd08199bdd5b9960621b604482015260640161049a565b6000818152600560205260409020600701546001600160a01b031633146122635760405162461bcd60e51b8152602060048201526013602482015272556e617574686f72697a656420656e7469747960681b604482015260640161049a565b6000908152600860209081526040808320805460ff1916905560059091529020600701805460ff60a81b1916600160a81b179055565b60008281526008602052604090205460ff166122ee5760405162461bcd60e51b815260206004820152601460248201527341706172746d656e74206e6f7420666f756e642160601b604482015260640161049a565b60035481516000848152600560205260409020600601546064929161231291613104565b61231c9190613104565b612326919061311b565b81516000848152600560205260409020600601546123449190613104565b61234e91906132c7565b3410156123925760405162461bcd60e51b8152602060048201526012602482015271496e73756666696369656e742066756e642160701b604482015260640161049a565b61239c828261284f565b6123e85760405162461bcd60e51b815260206004820152601e60248201527f426f6f6b6564206461746520666f756e6420616d6f6e67206461746573210000604482015260640161049a565b60005b8151811015612594576123fc6128f3565b6020808201859052600085815260069091526040908190205482523390820152825183908390811061243057612430613091565b60209081029190910181015160608301908152600086815260058084526040808320600690810154608088019081528a85528187528285208054600181810183559187528887208a51919094029093019283558888015183820155838901516002840180546001600160a01b039092166001600160a01b03199092169190911790559551600383015551600482015560a08701519201805460c088015115156101000261ff00199415159490941661ffff199091161792909217909155878252600a90935291822085519192909186908690811061251057612510613091565b6020026020010151815260200190815260200160002060006101000a81548160ff0219169083151502179055506009600085815260200190815260200160002083838151811061256257612562613091565b60209081029190910181015182546001810184556000938452919092200155508061258c81613150565b9150506123eb565b505050565b6125a16127a5565b6001600160a01b0381166126065760405162461bcd60e51b815260206004820152602660248201527f4f776e61626c653a206e6577206f776e657220697320746865207a65726f206160448201526564647265737360d01b606482015260840161049a565b61260f816127ff565b50565b606060066000838152602001908152602001600020805480602002602001604051908101604052809291908181526020016000905b828210156110fb5760008481526020908190206040805160e08101825260068602909201805483526001808201548486015260028201546001600160a01b03169284019290925260038101546060840152600481015460808401526005015460ff808216151560a085015261010090910416151560c08301529083529092019101612647565b6000826001600160a01b03168260405160006040518083038185875af1925050503d806000811461271a576040519150601f19603f3d011682016040523d82523d6000602084013e61271f565b606091505b505090508061259457600080fd5b600061273b426103e8613104565b612747906103e86132c7565b905090565b60026001540361279e5760405162461bcd60e51b815260206004820152601f60248201527f5265656e7472616e637947756172643a207265656e7472616e742063616c6c00604482015260640161049a565b6002600155565b6000546001600160a01b03163314610dc45760405162461bcd60e51b815260206004820181905260248201527f4f776e61626c653a2063616c6c6572206973206e6f7420746865206f776e6572604482015260640161049a565b600080546001600160a01b038381166001600160a01b0319831681178455604051919092169283917f8be0079c531659141344cd1fd0a4f28419497f9722a3daafe3b4186f6b6457e09190a35050565b60006001815b83518110156128eb5760005b6000868152600960205260409020548110156128d857600086815260096020526040902080548290811061289757612897613091565b90600052602060002001548583815181106128b4576128b4613091565b6020026020010151036128c657600092505b806128d081613150565b915050612861565b50806128e381613150565b915050612855565b509392505050565b6040518060e00160405280600081526020016000815260200160006001600160a01b0316815260200160008152602001600081526020016000151581526020016000151581525090565b6040518061016001604052806000815260200160608152602001606081526020016060815260200160608152602001600081526020016000815260200160006001600160a01b03168152602001600015158152602001600015158152602001600081525090565b600080604083850312156129b757600080fd5b50508035926020909101359150565b6000602082840312156129d857600080fd5b5035919050565b6020808252825182820181905260009190848201906040850190845b81811015612a205783516001600160a01b0316835292840192918401916001016129fb565b50909695505050505050565b80518252602080820151908301526040808201516001600160a01b031690830152606080820151908301526080808201519083015260a08082015115159083015260c0908101511515910152565b60e081016107ec8284612a2c565b634e487b7160e01b600052604160045260246000fd5b604051601f8201601f1916810167ffffffffffffffff81118282101715612ac757612ac7612a88565b604052919050565b600082601f830112612ae057600080fd5b813567ffffffffffffffff811115612afa57612afa612a88565b612b0d601f8201601f1916602001612a9e565b818152846020838601011115612b2257600080fd5b816020850160208301376000918101602001919091529392505050565b60008060408385031215612b5257600080fd5b82359150602083013567ffffffffffffffff811115612b7057600080fd5b612b7c85828601612acf565b9150509250929050565b6000815180845260005b81811015612bac57602081850181015186830182015201612b90565b506000602082860101526020601f19601f83011685010191505092915050565b60006020808301818452808551808352604092508286019150828160051b87010184880160005b83811015612c5c57603f19898403018552815160a0815185528882015189860152878201518189870152612c2982870182612b86565b606084810151908801526080938401516001600160a01b0316939096019290925250509386019390860190600101612bf3565b509098975050505050505050565b6000610160825184526020830151816020860152612c8a82860182612b86565b91505060408301518482036040860152612ca48282612b86565b91505060608301518482036060860152612cbe8282612b86565b91505060808301518482036080860152612cd88282612b86565b91505060a083015160a085015260c083015160c085015260e0830151612d0960e08601826001600160a01b03169052565b5061010083810151151590850152610120808401511515908501526101409283015192909301919091525090565b6000602080830181845280855180835260408601915060408160051b870101925083870160005b82811015612d8c57603f19888603018452612d7a858351612c6a565b94509285019290850190600101612d5e565b5092979650505050505050565b600080600080600080600060e0888a031215612db457600080fd5b87359650602088013567ffffffffffffffff80821115612dd357600080fd5b612ddf8b838c01612acf565b975060408a0135915080821115612df557600080fd5b612e018b838c01612acf565b965060608a0135915080821115612e1757600080fd5b612e238b838c01612acf565b955060808a0135915080821115612e3957600080fd5b50612e468a828b01612acf565b93505060a0880135915060c0880135905092959891949750929550565b602081526000612e766020830184612c6a565b9392505050565b60008060008060008060c08789031215612e9657600080fd5b863567ffffffffffffffff80821115612eae57600080fd5b612eba8a838b01612acf565b97506020890135915080821115612ed057600080fd5b612edc8a838b01612acf565b96506040890135915080821115612ef257600080fd5b612efe8a838b01612acf565b95506060890135915080821115612f1457600080fd5b50612f2189828a01612acf565b9350506080870135915060a087013590509295509295509295565b6020808252825182820181905260009190848201906040850190845b81811015612a2057835183529284019291840191600101612f58565b60008060408385031215612f8757600080fd5b8235915060208084013567ffffffffffffffff80821115612fa757600080fd5b818601915086601f830112612fbb57600080fd5b813581811115612fcd57612fcd612a88565b8060051b9150612fde848301612a9e565b8181529183018401918481019089841115612ff857600080fd5b938501935b8385101561301657843582529385019390850190612ffd565b8096505050505050509250929050565b60006020828403121561303857600080fd5b81356001600160a01b0381168114612e7657600080fd5b6020808252825182820181905260009190848201906040850190845b81811015612a205761307e838551612a2c565b9284019260e0929092019160010161306b565b634e487b7160e01b600052603260045260246000fd5b60208082526027908201527f41706172746d656e7420616c726561647920636865636b6564206f6e207468696040820152667320646174652160c81b606082015260800190565b634e487b7160e01b600052601160045260246000fd5b80820281158282048414176107ec576107ec6130ee565b60008261313857634e487b7160e01b600052601260045260246000fd5b500490565b818103818111156107ec576107ec6130ee565b600060018201613162576131626130ee565b5060010190565b600181811c9082168061317d57607f821691505b60208210810361319d57634e487b7160e01b600052602260045260246000fd5b50919050565b601f82111561259457600081815260208120601f850160051c810160208610156131ca5750805b601f850160051c820191505b818110156131e9578281556001016131d6565b505050505050565b815167ffffffffffffffff81111561320b5761320b612a88565b61321f816132198454613169565b846131a3565b602080601f831160018114613254576000841561323c5750858301515b600019600386901b1c1916600185901b1785556131e9565b600085815260208120601f198616915b8281101561328357888601518255948401946001909101908401613264565b50858210156132a15787850151600019600388901b60f8161c191681555b5050505050600190811b01905550565b634e487b7160e01b600052603160045260246000fd5b808201808211156107ec576107ec6130ee56fea264697066735822122000344eceb2720510d13030bab82a7edf8c9b32ddfdfa3be7b9751c1fae339b5364736f6c63430008130033",
  "linkReferences": {},
  "deployedLinkReferences": {}
}